{"contracts/TSO.sol":{"TSO":{"abi":[{"inputs":[{"internalType":"address","name":"_tsoAdmin","type":"address"}],"stateMutability":"nonpayable","type":"constructor"},{"anonymous":false,"inputs":[{"indexed":true,"internalType":"address","name":"bidder","type":"address"},{"indexed":false,"internalType":"address","name":"batteryOwner","type":"address"},{"indexed":false,"internalType":"uint256","name":"amount","type":"uint256"},{"indexed":false,"internalType":"uint256","name":"price","type":"uint256"}],"name":"BidPlaced","type":"event"},{"anonymous":false,"inputs":[{"indexed":true,"internalType":"address","name":"batteryOwner","type":"address"},{"indexed":false,"internalType":"uint256","name":"amount","type":"uint256"},{"indexed":false,"internalType":"uint256","name":"price","type":"uint256"}],"name":"BidSelected","type":"event"},{"anonymous":false,"inputs":[],"name":"MarketClosed","type":"event"},{"anonymous":false,"inputs":[{"indexed":false,"internalType":"uint256","name":"requiredEnergy","type":"uint256"},{"indexed":false,"internalType":"bool","name":"isPositiveReserve","type":"bool"}],"name":"MarketOpened","type":"event"},{"anonymous":false,"inputs":[{"indexed":true,"internalType":"address","name":"bidder","type":"address"},{"indexed":false,"internalType":"uint256","name":"commission","type":"uint256"}],"name":"PaymentToAggregatorOwnerRecorded","type":"event"},{"anonymous":false,"inputs":[{"indexed":true,"internalType":"address","name":"batteryOwner","type":"address"},{"indexed":false,"internalType":"uint256","name":"payment","type":"uint256"}],"name":"PaymentToBatteryOwnerRecorded","type":"event"},{"inputs":[],"name":"aggregator","outputs":[{"internalType":"contract Aggregator","name":"","type":"address"}],"stateMutability":"view","type":"function"},{"inputs":[],"name":"aggregatorOwner","outputs":[{"internalType":"address","name":"","type":"address"}],"stateMutability":"view","type":"function"},{"inputs":[{"internalType":"address","name":"","type":"address"}],"name":"aggregators","outputs":[{"internalType":"address","name":"","type":"address"}],"stateMutability":"view","type":"function"},{"inputs":[],"name":"bidCount","outputs":[{"internalType":"uint256","name":"","type":"uint256"}],"stateMutability":"view","type":"function"},{"inputs":[{"internalType":"uint256","name":"","type":"uint256"}],"name":"bids","outputs":[{"internalType":"address","name":"bidder","type":"address"},{"internalType":"address","name":"batteryOwner","type":"address"},{"internalType":"uint256","name":"amount","type":"uint256"},{"internalType":"uint256","name":"price","type":"uint256"},{"internalType":"bool","name":"isSelected","type":"bool"}],"stateMutability":"view","type":"function"},{"inputs":[],"name":"closeMarket","outputs":[],"stateMutability":"nonpayable","type":"function"},{"inputs":[{"internalType":"uint256","name":"_index","type":"uint256"}],"name":"getBatteryOwner","outputs":[{"internalType":"address","name":"","type":"address"}],"stateMutability":"view","type":"function"},{"inputs":[{"internalType":"uint256","name":"_index","type":"uint256"}],"name":"getBidder","outputs":[{"internalType":"address","name":"","type":"address"}],"stateMutability":"view","type":"function"},{"inputs":[],"name":"isPositiveReserve","outputs":[{"internalType":"bool","name":"","type":"bool"}],"stateMutability":"view","type":"function"},{"inputs":[],"name":"marketOpen","outputs":[{"internalType":"bool","name":"","type":"bool"}],"stateMutability":"view","type":"function"},{"inputs":[{"internalType":"uint256","name":"_requiredEnergy","type":"uint256"},{"internalType":"bool","name":"_isPositiveReserve","type":"bool"}],"name":"openMarket","outputs":[],"stateMutability":"nonpayable","type":"function"},{"inputs":[{"internalType":"address","name":"_bidder","type":"address"},{"internalType":"address","name":"_batteryOwner","type":"address"},{"internalType":"uint256","name":"_amountInKWh","type":"uint256"},{"internalType":"uint256","name":"_pricePerMWh","type":"uint256"}],"name":"placeBid","outputs":[],"stateMutability":"nonpayable","type":"function"},{"inputs":[{"internalType":"uint256","name":"nextPaymentIndex","type":"uint256"}],"name":"processNextPayment","outputs":[],"stateMutability":"nonpayable","type":"function"},{"inputs":[],"name":"requiredEnergy","outputs":[{"internalType":"uint256","name":"","type":"uint256"}],"stateMutability":"view","type":"function"},{"inputs":[{"internalType":"uint256","name":"nextBidIndex","type":"uint256"}],"name":"selectNextBid","outputs":[],"stateMutability":"nonpayable","type":"function"},{"inputs":[],"name":"totalSelectedEnergy","outputs":[{"internalType":"uint256","name":"","type":"uint256"}],"stateMutability":"view","type":"function"},{"inputs":[],"name":"tsoAdmin","outputs":[{"internalType":"address","name":"","type":"address"}],"stateMutability":"view","type":"function"}],"evm":{"bytecode":{"linkReferences":{},"object":"60806040523480156200001157600080fd5b50604051620022bd380380620022bd8339818101604052810190620000379190620000e9565b80600560016101000a81548173ffffffffffffffffffffffffffffffffffffffff021916908373ffffffffffffffffffffffffffffffffffffffff160217905550506200011b565b600080fd5b600073ffffffffffffffffffffffffffffffffffffffff82169050919050565b6000620000b18262000084565b9050919050565b620000c381620000a4565b8114620000cf57600080fd5b50565b600081519050620000e381620000b8565b92915050565b6000602082840312156200010257620001016200007f565b5b60006200011284828501620000d2565b91505092915050565b612192806200012b6000396000f3fe608060405234801561001057600080fd5b506004361061010b5760003560e01c8063865109f2116100a2578063c511ed5e11610071578063c511ed5e146102ac578063c66bc046146102b6578063d6e0cd17146102d4578063e2a886bd146102f0578063f190032b1461030e5761010b565b8063865109f21461022457806387c132ce14610254578063ab0c7d5614610272578063b40a56271461028e5761010b565b80634423c5f1116100de5780634423c5f11461019a5780634fd59f4e146101ce578063610498c7146101ea57806366bf4570146102065761010b565b80630270ada41461011057806304eb435f1461012e578063112cdab91461014c578063245a7bfc1461017c575b600080fd5b61011861033e565b60405161012591906115df565b60405180910390f35b610136610364565b6040516101439190611615565b60405180910390f35b61016660048036038101906101619190611661565b610377565b60405161017391906115df565b60405180910390f35b6101846103aa565b60405161019191906116ed565b60405180910390f35b6101b460048036038101906101af919061173e565b6103ce565b6040516101c595949392919061177a565b60405180910390f35b6101e860048036038101906101e3919061173e565b610451565b005b61020460048036038101906101ff919061173e565b610653565b005b61020e610acb565b60405161021b91906117cd565b60405180910390f35b61023e6004803603810190610239919061173e565b610ad1565b60405161024b91906115df565b60405180910390f35b61025c610b11565b60405161026991906115df565b60405180910390f35b61028c600480360381019061028791906117e8565b610b37565b005b610296611202565b6040516102a391906117cd565b60405180910390f35b6102b4611208565b005b6102be6112a0565b6040516102cb9190611615565b60405180910390f35b6102ee60048036038101906102e9919061187b565b6112b3565b005b6102f86113cd565b60405161030591906117cd565b60405180910390f35b6103286004803603810190610323919061173e565b6113d3565b60405161033591906115df565b60405180910390f35b600560019054906101000a900473ffffffffffffffffffffffffffffffffffffffff1681565b600560009054906101000a900460ff1681565b60016020528060005260406000206000915054906101000a900473ffffffffffffffffffffffffffffffffffffffff1681565b60008054906101000a900473ffffffffffffffffffffffffffffffffffffffff1681565b60026020528060005260406000206000915090508060000160009054906101000a900473ffffffffffffffffffffffffffffffffffffffff16908060010160009054906101000a900473ffffffffffffffffffffffffffffffffffffffff16908060020154908060030154908060040160009054906101000a900460ff16905085565b600560019054906101000a900473ffffffffffffffffffffffffffffffffffffffff1673ffffffffffffffffffffffffffffffffffffffff163373ffffffffffffffffffffffffffffffffffffffff16146104e1576040517f08c379a00000000000000000000000000000000000000000000000000000000081526004016104d89061193e565b60405180910390fd5b600360009054906101000a900460ff1615610531576040517f08c379a0000000000000000000000000000000000000000000000000000000008152600401610528906119aa565b60405180910390fd5b6000600854905060045481101561064f5760016002600084815260200190815260200160002060040160006101000a81548160ff02191690831515021790555060026000838152602001908152602001600020600201548161059391906119f9565b9050806008819055506002600083815260200190815260200160002060010160009054906101000a900473ffffffffffffffffffffffffffffffffffffffff1673ffffffffffffffffffffffffffffffffffffffff167f66edc0473c18faf132f9a6974a29aac1cfc61b42a142271b34c926bcc7ae59fe60026000858152602001908152602001600020600201546002600086815260200190815260200160002060030154604051610646929190611a4f565b60405180910390a25b5050565b600560019054906101000a900473ffffffffffffffffffffffffffffffffffffffff1673ffffffffffffffffffffffffffffffffffffffff163373ffffffffffffffffffffffffffffffffffffffff16146106e3576040517f08c379a00000000000000000000000000000000000000000000000000000000081526004016106da9061193e565b60405180910390fd5b600360009054906101000a900460ff1615610733576040517f08c379a000000000000000000000000000000000000000000000000000000000815260040161072a906119aa565b60405180910390fd5b60006002600083815260200190815260200160002090508060040160009054906101000a900460ff1615610ac7576000816003015482600201546107779190611a78565b90506000606460008054906101000a900473ffffffffffffffffffffffffffffffffffffffff1673ffffffffffffffffffffffffffffffffffffffff16635ea1d6f86040518163ffffffff1660e01b815260040160206040518083038186803b1580156107e357600080fd5b505afa1580156107f7573d6000803e3d6000fd5b505050506040513d601f19601f8201168201806040525081019061081b9190611ae7565b836108269190611a78565b6108309190611b43565b90508260010160009054906101000a900473ffffffffffffffffffffffffffffffffffffffff1673ffffffffffffffffffffffffffffffffffffffff166108fc828461087c9190611b74565b9081150290604051600060405180830381858888f193505050501580156108a7573d6000803e3d6000fd5b508260010160009054906101000a900473ffffffffffffffffffffffffffffffffffffffff1673ffffffffffffffffffffffffffffffffffffffff167f05622d675ae17b6095d9de6bd6448ed94a9e4ef429dd071bccc722048aac18cf82846109109190611b74565b60405161091d91906117cd565b60405180910390a260008054906101000a900473ffffffffffffffffffffffffffffffffffffffff1673ffffffffffffffffffffffffffffffffffffffff166108fc829081150290604051600060405180830381858888f1935050505015801561098b573d6000803e3d6000fd5b508260000160009054906101000a900473ffffffffffffffffffffffffffffffffffffffff1673ffffffffffffffffffffffffffffffffffffffff167fb6566daf73f0ad3b232c916b0188d8e5a84b2a34ffe61283799015ea02cff7ec826040516109f691906117cd565b60405180910390a260008054906101000a900473ffffffffffffffffffffffffffffffffffffffff1673ffffffffffffffffffffffffffffffffffffffff16639e9b522c8460010160009054906101000a900473ffffffffffffffffffffffffffffffffffffffff168560020154600560009054906101000a900460ff166040518463ffffffff1660e01b8152600401610a9293929190611ba8565b600060405180830381600087803b158015610aac57600080fd5b505af1158015610ac0573d6000803e3d6000fd5b5050505050505b5050565b60085481565b60006002600083815260200190815260200160002060000160009054906101000a900473ffffffffffffffffffffffffffffffffffffffff169050919050565b600660009054906101000a900473ffffffffffffffffffffffffffffffffffffffff1681565b600360009054906101000a900460ff16610b86576040517f08c379a0000000000000000000000000000000000000000000000000000000008152600401610b7d90611c2b565b60405180910390fd5b60008054906101000a900473ffffffffffffffffffffffffffffffffffffffff1673ffffffffffffffffffffffffffffffffffffffff1663c8811e516040518163ffffffff1660e01b815260040160206040518083038186803b158015610bec57600080fd5b505afa158015610c00573d6000803e3d6000fd5b505050506040513d601f19601f82011682018060405250810190610c249190611c60565b73ffffffffffffffffffffffffffffffffffffffff163373ffffffffffffffffffffffffffffffffffffffff1614610c91576040517f08c379a0000000000000000000000000000000000000000000000000000000008152600401610c8890611cff565b60405180910390fd5b60008060009054906101000a900473ffffffffffffffffffffffffffffffffffffffff1673ffffffffffffffffffffffffffffffffffffffff16637edaff94856040518263ffffffff1660e01b8152600401610ced91906115df565b60206040518083038186803b158015610d0557600080fd5b505afa158015610d19573d6000803e3d6000fd5b505050506040513d601f19601f82011682018060405250810190610d3d9190611ae7565b9050600560009054906101000a900460ff1615610d9d576028811015610d98576040517f08c379a0000000000000000000000000000000000000000000000000000000008152600401610d8f90611d91565b60405180910390fd5b610de1565b60648110610de0576040517f08c379a0000000000000000000000000000000000000000000000000000000008152600401610dd790611dfd565b60405180910390fd5b5b60008211610e24576040517f08c379a0000000000000000000000000000000000000000000000000000000008152600401610e1b90611e69565b60405180910390fd5b6000600160008673ffffffffffffffffffffffffffffffffffffffff1673ffffffffffffffffffffffffffffffffffffffff16815260200190815260200160002060009054906101000a900473ffffffffffffffffffffffffffffffffffffffff169050600073ffffffffffffffffffffffffffffffffffffffff168173ffffffffffffffffffffffffffffffffffffffff161415610ef8576040517f08c379a0000000000000000000000000000000000000000000000000000000008152600401610eef90611efb565b60405180910390fd5b6040518060a001604052808773ffffffffffffffffffffffffffffffffffffffff1681526020018673ffffffffffffffffffffffffffffffffffffffff1681526020018581526020018481526020016000151581525060026000600754815260200190815260200160002060008201518160000160006101000a81548173ffffffffffffffffffffffffffffffffffffffff021916908373ffffffffffffffffffffffffffffffffffffffff16021790555060208201518160010160006101000a81548173ffffffffffffffffffffffffffffffffffffffff021916908373ffffffffffffffffffffffffffffffffffffffff160217905550604082015181600201556060820151816003015560808201518160040160006101000a81548160ff0219169083151502179055509050506110676040518060400160405280600f81526020017f42696420706c616365642062793a20000000000000000000000000000000000081525087611413565b6110a66040518060400160405280600f81526020017f42617474657279206f776e65723a20000000000000000000000000000000000081525086611413565b61111b6040518060400160405280600c81526020017f42696420616d6f756e743a200000000000000000000000000000000000000000815250856040518060400160405280600481526020017f206b5768000000000000000000000000000000000000000000000000000000008152506114af565b6111906040518060400160405280600b81526020017f4269642070726963653a20000000000000000000000000000000000000000000815250846040518060400160405280600881526020017f204555522f4d57680000000000000000000000000000000000000000000000008152506114af565b8573ffffffffffffffffffffffffffffffffffffffff167fdd49bbb40d47a514dddcd458e9718364143bc24a0cca58439ee6f4f45e4ce10d8686866040516111da93929190611f1b565b60405180910390a2600760008154809291906111f590611f52565b9190505550505050505050565b60075481565b600360009054906101000a900460ff16611257576040517f08c379a000000000000000000000000000000000000000000000000000000000815260040161124e90611fe7565b60405180910390fd5b6000600360006101000a81548160ff0219169083151502179055507f0b5f6bf058282d5cc003efc735b9ee453bbd7f9bef4c6db6300d095f3eefac2860405160405180910390a1565b600360009054906101000a900460ff1681565b600560019054906101000a900473ffffffffffffffffffffffffffffffffffffffff1673ffffffffffffffffffffffffffffffffffffffff163373ffffffffffffffffffffffffffffffffffffffff1614611343576040517f08c379a000000000000000000000000000000000000000000000000000000000815260040161133a9061193e565b60405180910390fd5b8160048190555080600560006101000a81548160ff0219169083151502179055506001600360006101000a81548160ff0219169083151502179055507faa156aa8eb148a0ccce210026c57e10f7da7b4d62043a69e58bfc0f4d246dfb8600454600560009054906101000a900460ff166040516113c1929190612007565b60405180910390a15050565b60045481565b60006002600083815260200190815260200160002060010160009054906101000a900473ffffffffffffffffffffffffffffffffffffffff169050919050565b6114ab82826040516024016114299291906120b8565b6040516020818303038152906040527f319af333000000000000000000000000000000000000000000000000000000007bffffffffffffffffffffffffffffffffffffffffffffffffffffffff19166020820180517bffffffffffffffffffffffffffffffffffffffffffffffffffffffff838183161783525050505061154e565b5050565b6115498383836040516024016114c7939291906120e8565b6040516020818303038152906040527f5970e089000000000000000000000000000000000000000000000000000000007bffffffffffffffffffffffffffffffffffffffffffffffffffffffff19166020820180517bffffffffffffffffffffffffffffffffffffffffffffffffffffffff838183161783525050505061154e565b505050565b6115658161155d611568611589565b63ffffffff16565b50565b60006a636f6e736f6c652e6c6f679050600080835160208501845afa505050565b611594819050919050565b61159c61212d565b565b600073ffffffffffffffffffffffffffffffffffffffff82169050919050565b60006115c98261159e565b9050919050565b6115d9816115be565b82525050565b60006020820190506115f460008301846115d0565b92915050565b60008115159050919050565b61160f816115fa565b82525050565b600060208201905061162a6000830184611606565b92915050565b600080fd5b61163e816115be565b811461164957600080fd5b50565b60008135905061165b81611635565b92915050565b60006020828403121561167757611676611630565b5b60006116858482850161164c565b91505092915050565b6000819050919050565b60006116b36116ae6116a98461159e565b61168e565b61159e565b9050919050565b60006116c582611698565b9050919050565b60006116d7826116ba565b9050919050565b6116e7816116cc565b82525050565b600060208201905061170260008301846116de565b92915050565b6000819050919050565b61171b81611708565b811461172657600080fd5b50565b60008135905061173881611712565b92915050565b60006020828403121561175457611753611630565b5b600061176284828501611729565b91505092915050565b61177481611708565b82525050565b600060a08201905061178f60008301886115d0565b61179c60208301876115d0565b6117a9604083018661176b565b6117b6606083018561176b565b6117c36080830184611606565b9695505050505050565b60006020820190506117e2600083018461176b565b92915050565b6000806000806080858703121561180257611801611630565b5b60006118108782880161164c565b94505060206118218782880161164c565b935050604061183287828801611729565b925050606061184387828801611729565b91505092959194509250565b611858816115fa565b811461186357600080fd5b50565b6000813590506118758161184f565b92915050565b6000806040838503121561189257611891611630565b5b60006118a085828601611729565b92505060206118b185828601611866565b9150509250929050565b600082825260208201905092915050565b7f4f6e6c79207468652054534f2041646d696e2063616e20706572666f726d207460008201527f68697320616374696f6e00000000000000000000000000000000000000000000602082015250565b6000611928602a836118bb565b9150611933826118cc565b604082019050919050565b600060208201905081810360008301526119578161191b565b9050919050565b7f4d61726b6574206973207374696c6c206f70656e000000000000000000000000600082015250565b60006119946014836118bb565b915061199f8261195e565b602082019050919050565b600060208201905081810360008301526119c381611987565b9050919050565b7f4e487b7100000000000000000000000000000000000000000000000000000000600052601160045260246000fd5b6000611a0482611708565b9150611a0f83611708565b9250827fffffffffffffffffffffffffffffffffffffffffffffffffffffffffffffffff03821115611a4457611a436119ca565b5b828201905092915050565b6000604082019050611a64600083018561176b565b611a71602083018461176b565b9392505050565b6000611a8382611708565b9150611a8e83611708565b9250817fffffffffffffffffffffffffffffffffffffffffffffffffffffffffffffffff0483118215151615611ac757611ac66119ca565b5b828202905092915050565b600081519050611ae181611712565b92915050565b600060208284031215611afd57611afc611630565b5b6000611b0b84828501611ad2565b91505092915050565b7f4e487b7100000000000000000000000000000000000000000000000000000000600052601260045260246000fd5b6000611b4e82611708565b9150611b5983611708565b925082611b6957611b68611b14565b5b828204905092915050565b6000611b7f82611708565b9150611b8a83611708565b925082821015611b9d57611b9c6119ca565b5b828203905092915050565b6000606082019050611bbd60008301866115d0565b611bca602083018561176b565b611bd76040830184611606565b949350505050565b7f4d61726b6574206973206e6f74206f70656e0000000000000000000000000000600082015250565b6000611c156012836118bb565b9150611c2082611bdf565b602082019050919050565b60006020820190508181036000830152611c4481611c08565b9050919050565b600081519050611c5a81611635565b92915050565b600060208284031215611c7657611c75611630565b5b6000611c8484828501611c4b565b91505092915050565b7f4f6e6c79207468652041676772656761746f72204f776e65722063616e20706560008201527f72666f726d207468697320616374696f6e000000000000000000000000000000602082015250565b6000611ce96031836118bb565b9150611cf482611c8d565b604082019050919050565b60006020820190508181036000830152611d1881611cdc565b9050919050565b7f496e73756666696369656e7420536f4320746f206a6f696e20746865206d617260008201527f6b65740000000000000000000000000000000000000000000000000000000000602082015250565b6000611d7b6023836118bb565b9150611d8682611d1f565b604082019050919050565b60006020820190508181036000830152611daa81611d6e565b9050919050565b7f426174746572792069732066756c6c0000000000000000000000000000000000600082015250565b6000611de7600f836118bb565b9150611df282611db1565b602082019050919050565b60006020820190508181036000830152611e1681611dda565b9050919050565b7f5072696365206d7573742062652067726561746572207468616e203000000000600082015250565b6000611e53601c836118bb565b9150611e5e82611e1d565b602082019050919050565b60006020820190508181036000830152611e8281611e46565b9050919050565b7f41676772656761746f72206e6f7420666f756e6420666f72206261747465727960008201527f206f776e65720000000000000000000000000000000000000000000000000000602082015250565b6000611ee56026836118bb565b9150611ef082611e89565b604082019050919050565b60006020820190508181036000830152611f1481611ed8565b9050919050565b6000606082019050611f3060008301866115d0565b611f3d602083018561176b565b611f4a604083018461176b565b949350505050565b6000611f5d82611708565b91507fffffffffffffffffffffffffffffffffffffffffffffffffffffffffffffffff821415611f9057611f8f6119ca565b5b600182019050919050565b7f4d61726b657420697320616c726561647920636c6f7365640000000000000000600082015250565b6000611fd16018836118bb565b9150611fdc82611f9b565b602082019050919050565b6000602082019050818103600083015261200081611fc4565b9050919050565b600060408201905061201c600083018561176b565b6120296020830184611606565b9392505050565b600081519050919050565b60005b8381101561205957808201518184015260208101905061203e565b83811115612068576000848401525b50505050565b6000601f19601f8301169050919050565b600061208a82612030565b61209481856118bb565b93506120a481856020860161203b565b6120ad8161206e565b840191505092915050565b600060408201905081810360008301526120d2818561207f565b90506120e160208301846115d0565b9392505050565b60006060820190508181036000830152612102818661207f565b9050612111602083018561176b565b8181036040830152612123818461207f565b9050949350505050565b7f4e487b7100000000000000000000000000000000000000000000000000000000600052605160045260246000fdfea26469706673582212207fe8697f4c34bd3c5a0b697e1b0be83e689dae93cd6a6618473b42bd01db046e64736f6c63430008090033","opcodes":"PUSH1 0x80 PUSH1 0x40 MSTORE CALLVALUE DUP1 ISZERO PUSH3 0x11 JUMPI PUSH1 0x0 DUP1 REVERT JUMPDEST POP PUSH1 0x40 MLOAD PUSH3 0x22BD CODESIZE SUB DUP1 PUSH3 0x22BD DUP4 CODECOPY DUP2 DUP2 ADD PUSH1 0x40 MSTORE DUP2 ADD SWAP1 PUSH3 0x37 SWAP2 SWAP1 PUSH3 0xE9 JUMP JUMPDEST DUP1 PUSH1 0x5 PUSH1 0x1 PUSH2 0x100 EXP DUP2 SLOAD DUP2 PUSH20 0xFFFFFFFFFFFFFFFFFFFFFFFFFFFFFFFFFFFFFFFF MUL NOT AND SWAP1 DUP4 PUSH20 0xFFFFFFFFFFFFFFFFFFFFFFFFFFFFFFFFFFFFFFFF AND MUL OR SWAP1 SSTORE POP POP PUSH3 0x11B JUMP JUMPDEST PUSH1 0x0 DUP1 REVERT JUMPDEST PUSH1 0x0 PUSH20 0xFFFFFFFFFFFFFFFFFFFFFFFFFFFFFFFFFFFFFFFF DUP3 AND SWAP1 POP SWAP2 SWAP1 POP JUMP JUMPDEST PUSH1 0x0 PUSH3 0xB1 DUP3 PUSH3 0x84 JUMP JUMPDEST SWAP1 POP SWAP2 SWAP1 POP JUMP JUMPDEST PUSH3 0xC3 DUP2 PUSH3 0xA4 JUMP JUMPDEST DUP2 EQ PUSH3 0xCF JUMPI PUSH1 0x0 DUP1 REVERT JUMPDEST POP JUMP JUMPDEST PUSH1 0x0 DUP2 MLOAD SWAP1 POP PUSH3 0xE3 DUP2 PUSH3 0xB8 JUMP JUMPDEST SWAP3 SWAP2 POP POP JUMP JUMPDEST PUSH1 0x0 PUSH1 0x20 DUP3 DUP5 SUB SLT ISZERO PUSH3 0x102 JUMPI PUSH3 0x101 PUSH3 0x7F JUMP JUMPDEST JUMPDEST PUSH1 0x0 PUSH3 0x112 DUP5 DUP3 DUP6 ADD PUSH3 0xD2 JUMP JUMPDEST SWAP2 POP POP SWAP3 SWAP2 POP POP JUMP JUMPDEST PUSH2 0x2192 DUP1 PUSH3 0x12B PUSH1 0x0 CODECOPY PUSH1 0x0 RETURN INVALID PUSH1 0x80 PUSH1 0x40 MSTORE CALLVALUE DUP1 ISZERO PUSH2 0x10 JUMPI PUSH1 0x0 DUP1 REVERT JUMPDEST POP PUSH1 0x4 CALLDATASIZE LT PUSH2 0x10B JUMPI PUSH1 0x0 CALLDATALOAD PUSH1 0xE0 SHR DUP1 PUSH4 0x865109F2 GT PUSH2 0xA2 JUMPI DUP1 PUSH4 0xC511ED5E GT PUSH2 0x71 JUMPI DUP1 PUSH4 0xC511ED5E EQ PUSH2 0x2AC JUMPI DUP1 PUSH4 0xC66BC046 EQ PUSH2 0x2B6 JUMPI DUP1 PUSH4 0xD6E0CD17 EQ PUSH2 0x2D4 JUMPI DUP1 PUSH4 0xE2A886BD EQ PUSH2 0x2F0 JUMPI DUP1 PUSH4 0xF190032B EQ PUSH2 0x30E JUMPI PUSH2 0x10B JUMP JUMPDEST DUP1 PUSH4 0x865109F2 EQ PUSH2 0x224 JUMPI DUP1 PUSH4 0x87C132CE EQ PUSH2 0x254 JUMPI DUP1 PUSH4 0xAB0C7D56 EQ PUSH2 0x272 JUMPI DUP1 PUSH4 0xB40A5627 EQ PUSH2 0x28E JUMPI PUSH2 0x10B JUMP JUMPDEST DUP1 PUSH4 0x4423C5F1 GT PUSH2 0xDE JUMPI DUP1 PUSH4 0x4423C5F1 EQ PUSH2 0x19A JUMPI DUP1 PUSH4 0x4FD59F4E EQ PUSH2 0x1CE JUMPI DUP1 PUSH4 0x610498C7 EQ PUSH2 0x1EA JUMPI DUP1 PUSH4 0x66BF4570 EQ PUSH2 0x206 JUMPI PUSH2 0x10B JUMP JUMPDEST DUP1 PUSH4 0x270ADA4 EQ PUSH2 0x110 JUMPI DUP1 PUSH4 0x4EB435F EQ PUSH2 0x12E JUMPI DUP1 PUSH4 0x112CDAB9 EQ PUSH2 0x14C JUMPI DUP1 PUSH4 0x245A7BFC EQ PUSH2 0x17C JUMPI JUMPDEST PUSH1 0x0 DUP1 REVERT JUMPDEST PUSH2 0x118 PUSH2 0x33E JUMP JUMPDEST PUSH1 0x40 MLOAD PUSH2 0x125 SWAP2 SWAP1 PUSH2 0x15DF JUMP JUMPDEST PUSH1 0x40 MLOAD DUP1 SWAP2 SUB SWAP1 RETURN JUMPDEST PUSH2 0x136 PUSH2 0x364 JUMP JUMPDEST PUSH1 0x40 MLOAD PUSH2 0x143 SWAP2 SWAP1 PUSH2 0x1615 JUMP JUMPDEST PUSH1 0x40 MLOAD DUP1 SWAP2 SUB SWAP1 RETURN JUMPDEST PUSH2 0x166 PUSH1 0x4 DUP1 CALLDATASIZE SUB DUP2 ADD SWAP1 PUSH2 0x161 SWAP2 SWAP1 PUSH2 0x1661 JUMP JUMPDEST PUSH2 0x377 JUMP JUMPDEST PUSH1 0x40 MLOAD PUSH2 0x173 SWAP2 SWAP1 PUSH2 0x15DF JUMP JUMPDEST PUSH1 0x40 MLOAD DUP1 SWAP2 SUB SWAP1 RETURN JUMPDEST PUSH2 0x184 PUSH2 0x3AA JUMP JUMPDEST PUSH1 0x40 MLOAD PUSH2 0x191 SWAP2 SWAP1 PUSH2 0x16ED JUMP JUMPDEST PUSH1 0x40 MLOAD DUP1 SWAP2 SUB SWAP1 RETURN JUMPDEST PUSH2 0x1B4 PUSH1 0x4 DUP1 CALLDATASIZE SUB DUP2 ADD SWAP1 PUSH2 0x1AF SWAP2 SWAP1 PUSH2 0x173E JUMP JUMPDEST PUSH2 0x3CE JUMP JUMPDEST PUSH1 0x40 MLOAD PUSH2 0x1C5 SWAP6 SWAP5 SWAP4 SWAP3 SWAP2 SWAP1 PUSH2 0x177A JUMP JUMPDEST PUSH1 0x40 MLOAD DUP1 SWAP2 SUB SWAP1 RETURN JUMPDEST PUSH2 0x1E8 PUSH1 0x4 DUP1 CALLDATASIZE SUB DUP2 ADD SWAP1 PUSH2 0x1E3 SWAP2 SWAP1 PUSH2 0x173E JUMP JUMPDEST PUSH2 0x451 JUMP JUMPDEST STOP JUMPDEST PUSH2 0x204 PUSH1 0x4 DUP1 CALLDATASIZE SUB DUP2 ADD SWAP1 PUSH2 0x1FF SWAP2 SWAP1 PUSH2 0x173E JUMP JUMPDEST PUSH2 0x653 JUMP JUMPDEST STOP JUMPDEST PUSH2 0x20E PUSH2 0xACB JUMP JUMPDEST PUSH1 0x40 MLOAD PUSH2 0x21B SWAP2 SWAP1 PUSH2 0x17CD JUMP JUMPDEST PUSH1 0x40 MLOAD DUP1 SWAP2 SUB SWAP1 RETURN JUMPDEST PUSH2 0x23E PUSH1 0x4 DUP1 CALLDATASIZE SUB DUP2 ADD SWAP1 PUSH2 0x239 SWAP2 SWAP1 PUSH2 0x173E JUMP JUMPDEST PUSH2 0xAD1 JUMP JUMPDEST PUSH1 0x40 MLOAD PUSH2 0x24B SWAP2 SWAP1 PUSH2 0x15DF JUMP JUMPDEST PUSH1 0x40 MLOAD DUP1 SWAP2 SUB SWAP1 RETURN JUMPDEST PUSH2 0x25C PUSH2 0xB11 JUMP JUMPDEST PUSH1 0x40 MLOAD PUSH2 0x269 SWAP2 SWAP1 PUSH2 0x15DF JUMP JUMPDEST PUSH1 0x40 MLOAD DUP1 SWAP2 SUB SWAP1 RETURN JUMPDEST PUSH2 0x28C PUSH1 0x4 DUP1 CALLDATASIZE SUB DUP2 ADD SWAP1 PUSH2 0x287 SWAP2 SWAP1 PUSH2 0x17E8 JUMP JUMPDEST PUSH2 0xB37 JUMP JUMPDEST STOP JUMPDEST PUSH2 0x296 PUSH2 0x1202 JUMP JUMPDEST PUSH1 0x40 MLOAD PUSH2 0x2A3 SWAP2 SWAP1 PUSH2 0x17CD JUMP JUMPDEST PUSH1 0x40 MLOAD DUP1 SWAP2 SUB SWAP1 RETURN JUMPDEST PUSH2 0x2B4 PUSH2 0x1208 JUMP JUMPDEST STOP JUMPDEST PUSH2 0x2BE PUSH2 0x12A0 JUMP JUMPDEST PUSH1 0x40 MLOAD PUSH2 0x2CB SWAP2 SWAP1 PUSH2 0x1615 JUMP JUMPDEST PUSH1 0x40 MLOAD DUP1 SWAP2 SUB SWAP1 RETURN JUMPDEST PUSH2 0x2EE PUSH1 0x4 DUP1 CALLDATASIZE SUB DUP2 ADD SWAP1 PUSH2 0x2E9 SWAP2 SWAP1 PUSH2 0x187B JUMP JUMPDEST PUSH2 0x12B3 JUMP JUMPDEST STOP JUMPDEST PUSH2 0x2F8 PUSH2 0x13CD JUMP JUMPDEST PUSH1 0x40 MLOAD PUSH2 0x305 SWAP2 SWAP1 PUSH2 0x17CD JUMP JUMPDEST PUSH1 0x40 MLOAD DUP1 SWAP2 SUB SWAP1 RETURN JUMPDEST PUSH2 0x328 PUSH1 0x4 DUP1 CALLDATASIZE SUB DUP2 ADD SWAP1 PUSH2 0x323 SWAP2 SWAP1 PUSH2 0x173E JUMP JUMPDEST PUSH2 0x13D3 JUMP JUMPDEST PUSH1 0x40 MLOAD PUSH2 0x335 SWAP2 SWAP1 PUSH2 0x15DF JUMP JUMPDEST PUSH1 0x40 MLOAD DUP1 SWAP2 SUB SWAP1 RETURN JUMPDEST PUSH1 0x5 PUSH1 0x1 SWAP1 SLOAD SWAP1 PUSH2 0x100 EXP SWAP1 DIV PUSH20 0xFFFFFFFFFFFFFFFFFFFFFFFFFFFFFFFFFFFFFFFF AND DUP2 JUMP JUMPDEST PUSH1 0x5 PUSH1 0x0 SWAP1 SLOAD SWAP1 PUSH2 0x100 EXP SWAP1 DIV PUSH1 0xFF AND DUP2 JUMP JUMPDEST PUSH1 0x1 PUSH1 0x20 MSTORE DUP1 PUSH1 0x0 MSTORE PUSH1 0x40 PUSH1 0x0 KECCAK256 PUSH1 0x0 SWAP2 POP SLOAD SWAP1 PUSH2 0x100 EXP SWAP1 DIV PUSH20 0xFFFFFFFFFFFFFFFFFFFFFFFFFFFFFFFFFFFFFFFF AND DUP2 JUMP JUMPDEST PUSH1 0x0 DUP1 SLOAD SWAP1 PUSH2 0x100 EXP SWAP1 DIV PUSH20 0xFFFFFFFFFFFFFFFFFFFFFFFFFFFFFFFFFFFFFFFF AND DUP2 JUMP JUMPDEST PUSH1 0x2 PUSH1 0x20 MSTORE DUP1 PUSH1 0x0 MSTORE PUSH1 0x40 PUSH1 0x0 KECCAK256 PUSH1 0x0 SWAP2 POP SWAP1 POP DUP1 PUSH1 0x0 ADD PUSH1 0x0 SWAP1 SLOAD SWAP1 PUSH2 0x100 EXP SWAP1 DIV PUSH20 0xFFFFFFFFFFFFFFFFFFFFFFFFFFFFFFFFFFFFFFFF AND SWAP1 DUP1 PUSH1 0x1 ADD PUSH1 0x0 SWAP1 SLOAD SWAP1 PUSH2 0x100 EXP SWAP1 DIV PUSH20 0xFFFFFFFFFFFFFFFFFFFFFFFFFFFFFFFFFFFFFFFF AND SWAP1 DUP1 PUSH1 0x2 ADD SLOAD SWAP1 DUP1 PUSH1 0x3 ADD SLOAD SWAP1 DUP1 PUSH1 0x4 ADD PUSH1 0x0 SWAP1 SLOAD SWAP1 PUSH2 0x100 EXP SWAP1 DIV PUSH1 0xFF AND SWAP1 POP DUP6 JUMP JUMPDEST PUSH1 0x5 PUSH1 0x1 SWAP1 SLOAD SWAP1 PUSH2 0x100 EXP SWAP1 DIV PUSH20 0xFFFFFFFFFFFFFFFFFFFFFFFFFFFFFFFFFFFFFFFF AND PUSH20 0xFFFFFFFFFFFFFFFFFFFFFFFFFFFFFFFFFFFFFFFF AND CALLER PUSH20 0xFFFFFFFFFFFFFFFFFFFFFFFFFFFFFFFFFFFFFFFF AND EQ PUSH2 0x4E1 JUMPI PUSH1 0x40 MLOAD PUSH32 0x8C379A000000000000000000000000000000000000000000000000000000000 DUP2 MSTORE PUSH1 0x4 ADD PUSH2 0x4D8 SWAP1 PUSH2 0x193E JUMP JUMPDEST PUSH1 0x40 MLOAD DUP1 SWAP2 SUB SWAP1 REVERT JUMPDEST PUSH1 0x3 PUSH1 0x0 SWAP1 SLOAD SWAP1 PUSH2 0x100 EXP SWAP1 DIV PUSH1 0xFF AND ISZERO PUSH2 0x531 JUMPI PUSH1 0x40 MLOAD PUSH32 0x8C379A000000000000000000000000000000000000000000000000000000000 DUP2 MSTORE PUSH1 0x4 ADD PUSH2 0x528 SWAP1 PUSH2 0x19AA JUMP JUMPDEST PUSH1 0x40 MLOAD DUP1 SWAP2 SUB SWAP1 REVERT JUMPDEST PUSH1 0x0 PUSH1 0x8 SLOAD SWAP1 POP PUSH1 0x4 SLOAD DUP2 LT ISZERO PUSH2 0x64F JUMPI PUSH1 0x1 PUSH1 0x2 PUSH1 0x0 DUP5 DUP2 MSTORE PUSH1 0x20 ADD SWAP1 DUP2 MSTORE PUSH1 0x20 ADD PUSH1 0x0 KECCAK256 PUSH1 0x4 ADD PUSH1 0x0 PUSH2 0x100 EXP DUP2 SLOAD DUP2 PUSH1 0xFF MUL NOT AND SWAP1 DUP4 ISZERO ISZERO MUL OR SWAP1 SSTORE POP PUSH1 0x2 PUSH1 0x0 DUP4 DUP2 MSTORE PUSH1 0x20 ADD SWAP1 DUP2 MSTORE PUSH1 0x20 ADD PUSH1 0x0 KECCAK256 PUSH1 0x2 ADD SLOAD DUP2 PUSH2 0x593 SWAP2 SWAP1 PUSH2 0x19F9 JUMP JUMPDEST SWAP1 POP DUP1 PUSH1 0x8 DUP2 SWAP1 SSTORE POP PUSH1 0x2 PUSH1 0x0 DUP4 DUP2 MSTORE PUSH1 0x20 ADD SWAP1 DUP2 MSTORE PUSH1 0x20 ADD PUSH1 0x0 KECCAK256 PUSH1 0x1 ADD PUSH1 0x0 SWAP1 SLOAD SWAP1 PUSH2 0x100 EXP SWAP1 DIV PUSH20 0xFFFFFFFFFFFFFFFFFFFFFFFFFFFFFFFFFFFFFFFF AND PUSH20 0xFFFFFFFFFFFFFFFFFFFFFFFFFFFFFFFFFFFFFFFF AND PUSH32 0x66EDC0473C18FAF132F9A6974A29AAC1CFC61B42A142271B34C926BCC7AE59FE PUSH1 0x2 PUSH1 0x0 DUP6 DUP2 MSTORE PUSH1 0x20 ADD SWAP1 DUP2 MSTORE PUSH1 0x20 ADD PUSH1 0x0 KECCAK256 PUSH1 0x2 ADD SLOAD PUSH1 0x2 PUSH1 0x0 DUP7 DUP2 MSTORE PUSH1 0x20 ADD SWAP1 DUP2 MSTORE PUSH1 0x20 ADD PUSH1 0x0 KECCAK256 PUSH1 0x3 ADD SLOAD PUSH1 0x40 MLOAD PUSH2 0x646 SWAP3 SWAP2 SWAP1 PUSH2 0x1A4F JUMP JUMPDEST PUSH1 0x40 MLOAD DUP1 SWAP2 SUB SWAP1 LOG2 JUMPDEST POP POP JUMP JUMPDEST PUSH1 0x5 PUSH1 0x1 SWAP1 SLOAD SWAP1 PUSH2 0x100 EXP SWAP1 DIV PUSH20 0xFFFFFFFFFFFFFFFFFFFFFFFFFFFFFFFFFFFFFFFF AND PUSH20 0xFFFFFFFFFFFFFFFFFFFFFFFFFFFFFFFFFFFFFFFF AND CALLER PUSH20 0xFFFFFFFFFFFFFFFFFFFFFFFFFFFFFFFFFFFFFFFF AND EQ PUSH2 0x6E3 JUMPI PUSH1 0x40 MLOAD PUSH32 0x8C379A000000000000000000000000000000000000000000000000000000000 DUP2 MSTORE PUSH1 0x4 ADD PUSH2 0x6DA SWAP1 PUSH2 0x193E JUMP JUMPDEST PUSH1 0x40 MLOAD DUP1 SWAP2 SUB SWAP1 REVERT JUMPDEST PUSH1 0x3 PUSH1 0x0 SWAP1 SLOAD SWAP1 PUSH2 0x100 EXP SWAP1 DIV PUSH1 0xFF AND ISZERO PUSH2 0x733 JUMPI PUSH1 0x40 MLOAD PUSH32 0x8C379A000000000000000000000000000000000000000000000000000000000 DUP2 MSTORE PUSH1 0x4 ADD PUSH2 0x72A SWAP1 PUSH2 0x19AA JUMP JUMPDEST PUSH1 0x40 MLOAD DUP1 SWAP2 SUB SWAP1 REVERT JUMPDEST PUSH1 0x0 PUSH1 0x2 PUSH1 0x0 DUP4 DUP2 MSTORE PUSH1 0x20 ADD SWAP1 DUP2 MSTORE PUSH1 0x20 ADD PUSH1 0x0 KECCAK256 SWAP1 POP DUP1 PUSH1 0x4 ADD PUSH1 0x0 SWAP1 SLOAD SWAP1 PUSH2 0x100 EXP SWAP1 DIV PUSH1 0xFF AND ISZERO PUSH2 0xAC7 JUMPI PUSH1 0x0 DUP2 PUSH1 0x3 ADD SLOAD DUP3 PUSH1 0x2 ADD SLOAD PUSH2 0x777 SWAP2 SWAP1 PUSH2 0x1A78 JUMP JUMPDEST SWAP1 POP PUSH1 0x0 PUSH1 0x64 PUSH1 0x0 DUP1 SLOAD SWAP1 PUSH2 0x100 EXP SWAP1 DIV PUSH20 0xFFFFFFFFFFFFFFFFFFFFFFFFFFFFFFFFFFFFFFFF AND PUSH20 0xFFFFFFFFFFFFFFFFFFFFFFFFFFFFFFFFFFFFFFFF AND PUSH4 0x5EA1D6F8 PUSH1 0x40 MLOAD DUP2 PUSH4 0xFFFFFFFF AND PUSH1 0xE0 SHL DUP2 MSTORE PUSH1 0x4 ADD PUSH1 0x20 PUSH1 0x40 MLOAD DUP1 DUP4 SUB DUP2 DUP7 DUP1 EXTCODESIZE ISZERO DUP1 ISZERO PUSH2 0x7E3 JUMPI PUSH1 0x0 DUP1 REVERT JUMPDEST POP GAS STATICCALL ISZERO DUP1 ISZERO PUSH2 0x7F7 JUMPI RETURNDATASIZE PUSH1 0x0 DUP1 RETURNDATACOPY RETURNDATASIZE PUSH1 0x0 REVERT JUMPDEST POP POP POP POP PUSH1 0x40 MLOAD RETURNDATASIZE PUSH1 0x1F NOT PUSH1 0x1F DUP3 ADD AND DUP3 ADD DUP1 PUSH1 0x40 MSTORE POP DUP2 ADD SWAP1 PUSH2 0x81B SWAP2 SWAP1 PUSH2 0x1AE7 JUMP JUMPDEST DUP4 PUSH2 0x826 SWAP2 SWAP1 PUSH2 0x1A78 JUMP JUMPDEST PUSH2 0x830 SWAP2 SWAP1 PUSH2 0x1B43 JUMP JUMPDEST SWAP1 POP DUP3 PUSH1 0x1 ADD PUSH1 0x0 SWAP1 SLOAD SWAP1 PUSH2 0x100 EXP SWAP1 DIV PUSH20 0xFFFFFFFFFFFFFFFFFFFFFFFFFFFFFFFFFFFFFFFF AND PUSH20 0xFFFFFFFFFFFFFFFFFFFFFFFFFFFFFFFFFFFFFFFF AND PUSH2 0x8FC DUP3 DUP5 PUSH2 0x87C SWAP2 SWAP1 PUSH2 0x1B74 JUMP JUMPDEST SWAP1 DUP2 ISZERO MUL SWAP1 PUSH1 0x40 MLOAD PUSH1 0x0 PUSH1 0x40 MLOAD DUP1 DUP4 SUB DUP2 DUP6 DUP9 DUP9 CALL SWAP4 POP POP POP POP ISZERO DUP1 ISZERO PUSH2 0x8A7 JUMPI RETURNDATASIZE PUSH1 0x0 DUP1 RETURNDATACOPY RETURNDATASIZE PUSH1 0x0 REVERT JUMPDEST POP DUP3 PUSH1 0x1 ADD PUSH1 0x0 SWAP1 SLOAD SWAP1 PUSH2 0x100 EXP SWAP1 DIV PUSH20 0xFFFFFFFFFFFFFFFFFFFFFFFFFFFFFFFFFFFFFFFF AND PUSH20 0xFFFFFFFFFFFFFFFFFFFFFFFFFFFFFFFFFFFFFFFF AND PUSH32 0x5622D675AE17B6095D9DE6BD6448ED94A9E4EF429DD071BCCC722048AAC18CF DUP3 DUP5 PUSH2 0x910 SWAP2 SWAP1 PUSH2 0x1B74 JUMP JUMPDEST PUSH1 0x40 MLOAD PUSH2 0x91D SWAP2 SWAP1 PUSH2 0x17CD JUMP JUMPDEST PUSH1 0x40 MLOAD DUP1 SWAP2 SUB SWAP1 LOG2 PUSH1 0x0 DUP1 SLOAD SWAP1 PUSH2 0x100 EXP SWAP1 DIV PUSH20 0xFFFFFFFFFFFFFFFFFFFFFFFFFFFFFFFFFFFFFFFF AND PUSH20 0xFFFFFFFFFFFFFFFFFFFFFFFFFFFFFFFFFFFFFFFF AND PUSH2 0x8FC DUP3 SWAP1 DUP2 ISZERO MUL SWAP1 PUSH1 0x40 MLOAD PUSH1 0x0 PUSH1 0x40 MLOAD DUP1 DUP4 SUB DUP2 DUP6 DUP9 DUP9 CALL SWAP4 POP POP POP POP ISZERO DUP1 ISZERO PUSH2 0x98B JUMPI RETURNDATASIZE PUSH1 0x0 DUP1 RETURNDATACOPY RETURNDATASIZE PUSH1 0x0 REVERT JUMPDEST POP DUP3 PUSH1 0x0 ADD PUSH1 0x0 SWAP1 SLOAD SWAP1 PUSH2 0x100 EXP SWAP1 DIV PUSH20 0xFFFFFFFFFFFFFFFFFFFFFFFFFFFFFFFFFFFFFFFF AND PUSH20 0xFFFFFFFFFFFFFFFFFFFFFFFFFFFFFFFFFFFFFFFF AND PUSH32 0xB6566DAF73F0AD3B232C916B0188D8E5A84B2A34FFE61283799015EA02CFF7EC DUP3 PUSH1 0x40 MLOAD PUSH2 0x9F6 SWAP2 SWAP1 PUSH2 0x17CD JUMP JUMPDEST PUSH1 0x40 MLOAD DUP1 SWAP2 SUB SWAP1 LOG2 PUSH1 0x0 DUP1 SLOAD SWAP1 PUSH2 0x100 EXP SWAP1 DIV PUSH20 0xFFFFFFFFFFFFFFFFFFFFFFFFFFFFFFFFFFFFFFFF AND PUSH20 0xFFFFFFFFFFFFFFFFFFFFFFFFFFFFFFFFFFFFFFFF AND PUSH4 0x9E9B522C DUP5 PUSH1 0x1 ADD PUSH1 0x0 SWAP1 SLOAD SWAP1 PUSH2 0x100 EXP SWAP1 DIV PUSH20 0xFFFFFFFFFFFFFFFFFFFFFFFFFFFFFFFFFFFFFFFF AND DUP6 PUSH1 0x2 ADD SLOAD PUSH1 0x5 PUSH1 0x0 SWAP1 SLOAD SWAP1 PUSH2 0x100 EXP SWAP1 DIV PUSH1 0xFF AND PUSH1 0x40 MLOAD DUP5 PUSH4 0xFFFFFFFF AND PUSH1 0xE0 SHL DUP2 MSTORE PUSH1 0x4 ADD PUSH2 0xA92 SWAP4 SWAP3 SWAP2 SWAP1 PUSH2 0x1BA8 JUMP JUMPDEST PUSH1 0x0 PUSH1 0x40 MLOAD DUP1 DUP4 SUB DUP2 PUSH1 0x0 DUP8 DUP1 EXTCODESIZE ISZERO DUP1 ISZERO PUSH2 0xAAC JUMPI PUSH1 0x0 DUP1 REVERT JUMPDEST POP GAS CALL ISZERO DUP1 ISZERO PUSH2 0xAC0 JUMPI RETURNDATASIZE PUSH1 0x0 DUP1 RETURNDATACOPY RETURNDATASIZE PUSH1 0x0 REVERT JUMPDEST POP POP POP POP POP POP JUMPDEST POP POP JUMP JUMPDEST PUSH1 0x8 SLOAD DUP2 JUMP JUMPDEST PUSH1 0x0 PUSH1 0x2 PUSH1 0x0 DUP4 DUP2 MSTORE PUSH1 0x20 ADD SWAP1 DUP2 MSTORE PUSH1 0x20 ADD PUSH1 0x0 KECCAK256 PUSH1 0x0 ADD PUSH1 0x0 SWAP1 SLOAD SWAP1 PUSH2 0x100 EXP SWAP1 DIV PUSH20 0xFFFFFFFFFFFFFFFFFFFFFFFFFFFFFFFFFFFFFFFF AND SWAP1 POP SWAP2 SWAP1 POP JUMP JUMPDEST PUSH1 0x6 PUSH1 0x0 SWAP1 SLOAD SWAP1 PUSH2 0x100 EXP SWAP1 DIV PUSH20 0xFFFFFFFFFFFFFFFFFFFFFFFFFFFFFFFFFFFFFFFF AND DUP2 JUMP JUMPDEST PUSH1 0x3 PUSH1 0x0 SWAP1 SLOAD SWAP1 PUSH2 0x100 EXP SWAP1 DIV PUSH1 0xFF AND PUSH2 0xB86 JUMPI PUSH1 0x40 MLOAD PUSH32 0x8C379A000000000000000000000000000000000000000000000000000000000 DUP2 MSTORE PUSH1 0x4 ADD PUSH2 0xB7D SWAP1 PUSH2 0x1C2B JUMP JUMPDEST PUSH1 0x40 MLOAD DUP1 SWAP2 SUB SWAP1 REVERT JUMPDEST PUSH1 0x0 DUP1 SLOAD SWAP1 PUSH2 0x100 EXP SWAP1 DIV PUSH20 0xFFFFFFFFFFFFFFFFFFFFFFFFFFFFFFFFFFFFFFFF AND PUSH20 0xFFFFFFFFFFFFFFFFFFFFFFFFFFFFFFFFFFFFFFFF AND PUSH4 0xC8811E51 PUSH1 0x40 MLOAD DUP2 PUSH4 0xFFFFFFFF AND PUSH1 0xE0 SHL DUP2 MSTORE PUSH1 0x4 ADD PUSH1 0x20 PUSH1 0x40 MLOAD DUP1 DUP4 SUB DUP2 DUP7 DUP1 EXTCODESIZE ISZERO DUP1 ISZERO PUSH2 0xBEC JUMPI PUSH1 0x0 DUP1 REVERT JUMPDEST POP GAS STATICCALL ISZERO DUP1 ISZERO PUSH2 0xC00 JUMPI RETURNDATASIZE PUSH1 0x0 DUP1 RETURNDATACOPY RETURNDATASIZE PUSH1 0x0 REVERT JUMPDEST POP POP POP POP PUSH1 0x40 MLOAD RETURNDATASIZE PUSH1 0x1F NOT PUSH1 0x1F DUP3 ADD AND DUP3 ADD DUP1 PUSH1 0x40 MSTORE POP DUP2 ADD SWAP1 PUSH2 0xC24 SWAP2 SWAP1 PUSH2 0x1C60 JUMP JUMPDEST PUSH20 0xFFFFFFFFFFFFFFFFFFFFFFFFFFFFFFFFFFFFFFFF AND CALLER PUSH20 0xFFFFFFFFFFFFFFFFFFFFFFFFFFFFFFFFFFFFFFFF AND EQ PUSH2 0xC91 JUMPI PUSH1 0x40 MLOAD PUSH32 0x8C379A000000000000000000000000000000000000000000000000000000000 DUP2 MSTORE PUSH1 0x4 ADD PUSH2 0xC88 SWAP1 PUSH2 0x1CFF JUMP JUMPDEST PUSH1 0x40 MLOAD DUP1 SWAP2 SUB SWAP1 REVERT JUMPDEST PUSH1 0x0 DUP1 PUSH1 0x0 SWAP1 SLOAD SWAP1 PUSH2 0x100 EXP SWAP1 DIV PUSH20 0xFFFFFFFFFFFFFFFFFFFFFFFFFFFFFFFFFFFFFFFF AND PUSH20 0xFFFFFFFFFFFFFFFFFFFFFFFFFFFFFFFFFFFFFFFF AND PUSH4 0x7EDAFF94 DUP6 PUSH1 0x40 MLOAD DUP3 PUSH4 0xFFFFFFFF AND PUSH1 0xE0 SHL DUP2 MSTORE PUSH1 0x4 ADD PUSH2 0xCED SWAP2 SWAP1 PUSH2 0x15DF JUMP JUMPDEST PUSH1 0x20 PUSH1 0x40 MLOAD DUP1 DUP4 SUB DUP2 DUP7 DUP1 EXTCODESIZE ISZERO DUP1 ISZERO PUSH2 0xD05 JUMPI PUSH1 0x0 DUP1 REVERT JUMPDEST POP GAS STATICCALL ISZERO DUP1 ISZERO PUSH2 0xD19 JUMPI RETURNDATASIZE PUSH1 0x0 DUP1 RETURNDATACOPY RETURNDATASIZE PUSH1 0x0 REVERT JUMPDEST POP POP POP POP PUSH1 0x40 MLOAD RETURNDATASIZE PUSH1 0x1F NOT PUSH1 0x1F DUP3 ADD AND DUP3 ADD DUP1 PUSH1 0x40 MSTORE POP DUP2 ADD SWAP1 PUSH2 0xD3D SWAP2 SWAP1 PUSH2 0x1AE7 JUMP JUMPDEST SWAP1 POP PUSH1 0x5 PUSH1 0x0 SWAP1 SLOAD SWAP1 PUSH2 0x100 EXP SWAP1 DIV PUSH1 0xFF AND ISZERO PUSH2 0xD9D JUMPI PUSH1 0x28 DUP2 LT ISZERO PUSH2 0xD98 JUMPI PUSH1 0x40 MLOAD PUSH32 0x8C379A000000000000000000000000000000000000000000000000000000000 DUP2 MSTORE PUSH1 0x4 ADD PUSH2 0xD8F SWAP1 PUSH2 0x1D91 JUMP JUMPDEST PUSH1 0x40 MLOAD DUP1 SWAP2 SUB SWAP1 REVERT JUMPDEST PUSH2 0xDE1 JUMP JUMPDEST PUSH1 0x64 DUP2 LT PUSH2 0xDE0 JUMPI PUSH1 0x40 MLOAD PUSH32 0x8C379A000000000000000000000000000000000000000000000000000000000 DUP2 MSTORE PUSH1 0x4 ADD PUSH2 0xDD7 SWAP1 PUSH2 0x1DFD JUMP JUMPDEST PUSH1 0x40 MLOAD DUP1 SWAP2 SUB SWAP1 REVERT JUMPDEST JUMPDEST PUSH1 0x0 DUP3 GT PUSH2 0xE24 JUMPI PUSH1 0x40 MLOAD PUSH32 0x8C379A000000000000000000000000000000000000000000000000000000000 DUP2 MSTORE PUSH1 0x4 ADD PUSH2 0xE1B SWAP1 PUSH2 0x1E69 JUMP JUMPDEST PUSH1 0x40 MLOAD DUP1 SWAP2 SUB SWAP1 REVERT JUMPDEST PUSH1 0x0 PUSH1 0x1 PUSH1 0x0 DUP7 PUSH20 0xFFFFFFFFFFFFFFFFFFFFFFFFFFFFFFFFFFFFFFFF AND PUSH20 0xFFFFFFFFFFFFFFFFFFFFFFFFFFFFFFFFFFFFFFFF AND DUP2 MSTORE PUSH1 0x20 ADD SWAP1 DUP2 MSTORE PUSH1 0x20 ADD PUSH1 0x0 KECCAK256 PUSH1 0x0 SWAP1 SLOAD SWAP1 PUSH2 0x100 EXP SWAP1 DIV PUSH20 0xFFFFFFFFFFFFFFFFFFFFFFFFFFFFFFFFFFFFFFFF AND SWAP1 POP PUSH1 0x0 PUSH20 0xFFFFFFFFFFFFFFFFFFFFFFFFFFFFFFFFFFFFFFFF AND DUP2 PUSH20 0xFFFFFFFFFFFFFFFFFFFFFFFFFFFFFFFFFFFFFFFF AND EQ ISZERO PUSH2 0xEF8 JUMPI PUSH1 0x40 MLOAD PUSH32 0x8C379A000000000000000000000000000000000000000000000000000000000 DUP2 MSTORE PUSH1 0x4 ADD PUSH2 0xEEF SWAP1 PUSH2 0x1EFB JUMP JUMPDEST PUSH1 0x40 MLOAD DUP1 SWAP2 SUB SWAP1 REVERT JUMPDEST PUSH1 0x40 MLOAD DUP1 PUSH1 0xA0 ADD PUSH1 0x40 MSTORE DUP1 DUP8 PUSH20 0xFFFFFFFFFFFFFFFFFFFFFFFFFFFFFFFFFFFFFFFF AND DUP2 MSTORE PUSH1 0x20 ADD DUP7 PUSH20 0xFFFFFFFFFFFFFFFFFFFFFFFFFFFFFFFFFFFFFFFF AND DUP2 MSTORE PUSH1 0x20 ADD DUP6 DUP2 MSTORE PUSH1 0x20 ADD DUP5 DUP2 MSTORE PUSH1 0x20 ADD PUSH1 0x0 ISZERO ISZERO DUP2 MSTORE POP PUSH1 0x2 PUSH1 0x0 PUSH1 0x7 SLOAD DUP2 MSTORE PUSH1 0x20 ADD SWAP1 DUP2 MSTORE PUSH1 0x20 ADD PUSH1 0x0 KECCAK256 PUSH1 0x0 DUP3 ADD MLOAD DUP2 PUSH1 0x0 ADD PUSH1 0x0 PUSH2 0x100 EXP DUP2 SLOAD DUP2 PUSH20 0xFFFFFFFFFFFFFFFFFFFFFFFFFFFFFFFFFFFFFFFF MUL NOT AND SWAP1 DUP4 PUSH20 0xFFFFFFFFFFFFFFFFFFFFFFFFFFFFFFFFFFFFFFFF AND MUL OR SWAP1 SSTORE POP PUSH1 0x20 DUP3 ADD MLOAD DUP2 PUSH1 0x1 ADD PUSH1 0x0 PUSH2 0x100 EXP DUP2 SLOAD DUP2 PUSH20 0xFFFFFFFFFFFFFFFFFFFFFFFFFFFFFFFFFFFFFFFF MUL NOT AND SWAP1 DUP4 PUSH20 0xFFFFFFFFFFFFFFFFFFFFFFFFFFFFFFFFFFFFFFFF AND MUL OR SWAP1 SSTORE POP PUSH1 0x40 DUP3 ADD MLOAD DUP2 PUSH1 0x2 ADD SSTORE PUSH1 0x60 DUP3 ADD MLOAD DUP2 PUSH1 0x3 ADD SSTORE PUSH1 0x80 DUP3 ADD MLOAD DUP2 PUSH1 0x4 ADD PUSH1 0x0 PUSH2 0x100 EXP DUP2 SLOAD DUP2 PUSH1 0xFF MUL NOT AND SWAP1 DUP4 ISZERO ISZERO MUL OR SWAP1 SSTORE POP SWAP1 POP POP PUSH2 0x1067 PUSH1 0x40 MLOAD DUP1 PUSH1 0x40 ADD PUSH1 0x40 MSTORE DUP1 PUSH1 0xF DUP2 MSTORE PUSH1 0x20 ADD PUSH32 0x42696420706C616365642062793A200000000000000000000000000000000000 DUP2 MSTORE POP DUP8 PUSH2 0x1413 JUMP JUMPDEST PUSH2 0x10A6 PUSH1 0x40 MLOAD DUP1 PUSH1 0x40 ADD PUSH1 0x40 MSTORE DUP1 PUSH1 0xF DUP2 MSTORE PUSH1 0x20 ADD PUSH32 0x42617474657279206F776E65723A200000000000000000000000000000000000 DUP2 MSTORE POP DUP7 PUSH2 0x1413 JUMP JUMPDEST PUSH2 0x111B PUSH1 0x40 MLOAD DUP1 PUSH1 0x40 ADD PUSH1 0x40 MSTORE DUP1 PUSH1 0xC DUP2 MSTORE PUSH1 0x20 ADD PUSH32 0x42696420616D6F756E743A200000000000000000000000000000000000000000 DUP2 MSTORE POP DUP6 PUSH1 0x40 MLOAD DUP1 PUSH1 0x40 ADD PUSH1 0x40 MSTORE DUP1 PUSH1 0x4 DUP2 MSTORE PUSH1 0x20 ADD PUSH32 0x206B576800000000000000000000000000000000000000000000000000000000 DUP2 MSTORE POP PUSH2 0x14AF JUMP JUMPDEST PUSH2 0x1190 PUSH1 0x40 MLOAD DUP1 PUSH1 0x40 ADD PUSH1 0x40 MSTORE DUP1 PUSH1 0xB DUP2 MSTORE PUSH1 0x20 ADD PUSH32 0x4269642070726963653A20000000000000000000000000000000000000000000 DUP2 MSTORE POP DUP5 PUSH1 0x40 MLOAD DUP1 PUSH1 0x40 ADD PUSH1 0x40 MSTORE DUP1 PUSH1 0x8 DUP2 MSTORE PUSH1 0x20 ADD PUSH32 0x204555522F4D5768000000000000000000000000000000000000000000000000 DUP2 MSTORE POP PUSH2 0x14AF JUMP JUMPDEST DUP6 PUSH20 0xFFFFFFFFFFFFFFFFFFFFFFFFFFFFFFFFFFFFFFFF AND PUSH32 0xDD49BBB40D47A514DDDCD458E9718364143BC24A0CCA58439EE6F4F45E4CE10D DUP7 DUP7 DUP7 PUSH1 0x40 MLOAD PUSH2 0x11DA SWAP4 SWAP3 SWAP2 SWAP1 PUSH2 0x1F1B JUMP JUMPDEST PUSH1 0x40 MLOAD DUP1 SWAP2 SUB SWAP1 LOG2 PUSH1 0x7 PUSH1 0x0 DUP2 SLOAD DUP1 SWAP3 SWAP2 SWAP1 PUSH2 0x11F5 SWAP1 PUSH2 0x1F52 JUMP JUMPDEST SWAP2 SWAP1 POP SSTORE POP POP POP POP POP POP POP JUMP JUMPDEST PUSH1 0x7 SLOAD DUP2 JUMP JUMPDEST PUSH1 0x3 PUSH1 0x0 SWAP1 SLOAD SWAP1 PUSH2 0x100 EXP SWAP1 DIV PUSH1 0xFF AND PUSH2 0x1257 JUMPI PUSH1 0x40 MLOAD PUSH32 0x8C379A000000000000000000000000000000000000000000000000000000000 DUP2 MSTORE PUSH1 0x4 ADD PUSH2 0x124E SWAP1 PUSH2 0x1FE7 JUMP JUMPDEST PUSH1 0x40 MLOAD DUP1 SWAP2 SUB SWAP1 REVERT JUMPDEST PUSH1 0x0 PUSH1 0x3 PUSH1 0x0 PUSH2 0x100 EXP DUP2 SLOAD DUP2 PUSH1 0xFF MUL NOT AND SWAP1 DUP4 ISZERO ISZERO MUL OR SWAP1 SSTORE POP PUSH32 0xB5F6BF058282D5CC003EFC735B9EE453BBD7F9BEF4C6DB6300D095F3EEFAC28 PUSH1 0x40 MLOAD PUSH1 0x40 MLOAD DUP1 SWAP2 SUB SWAP1 LOG1 JUMP JUMPDEST PUSH1 0x3 PUSH1 0x0 SWAP1 SLOAD SWAP1 PUSH2 0x100 EXP SWAP1 DIV PUSH1 0xFF AND DUP2 JUMP JUMPDEST PUSH1 0x5 PUSH1 0x1 SWAP1 SLOAD SWAP1 PUSH2 0x100 EXP SWAP1 DIV PUSH20 0xFFFFFFFFFFFFFFFFFFFFFFFFFFFFFFFFFFFFFFFF AND PUSH20 0xFFFFFFFFFFFFFFFFFFFFFFFFFFFFFFFFFFFFFFFF AND CALLER PUSH20 0xFFFFFFFFFFFFFFFFFFFFFFFFFFFFFFFFFFFFFFFF AND EQ PUSH2 0x1343 JUMPI PUSH1 0x40 MLOAD PUSH32 0x8C379A000000000000000000000000000000000000000000000000000000000 DUP2 MSTORE PUSH1 0x4 ADD PUSH2 0x133A SWAP1 PUSH2 0x193E JUMP JUMPDEST PUSH1 0x40 MLOAD DUP1 SWAP2 SUB SWAP1 REVERT JUMPDEST DUP2 PUSH1 0x4 DUP2 SWAP1 SSTORE POP DUP1 PUSH1 0x5 PUSH1 0x0 PUSH2 0x100 EXP DUP2 SLOAD DUP2 PUSH1 0xFF MUL NOT AND SWAP1 DUP4 ISZERO ISZERO MUL OR SWAP1 SSTORE POP PUSH1 0x1 PUSH1 0x3 PUSH1 0x0 PUSH2 0x100 EXP DUP2 SLOAD DUP2 PUSH1 0xFF MUL NOT AND SWAP1 DUP4 ISZERO ISZERO MUL OR SWAP1 SSTORE POP PUSH32 0xAA156AA8EB148A0CCCE210026C57E10F7DA7B4D62043A69E58BFC0F4D246DFB8 PUSH1 0x4 SLOAD PUSH1 0x5 PUSH1 0x0 SWAP1 SLOAD SWAP1 PUSH2 0x100 EXP SWAP1 DIV PUSH1 0xFF AND PUSH1 0x40 MLOAD PUSH2 0x13C1 SWAP3 SWAP2 SWAP1 PUSH2 0x2007 JUMP JUMPDEST PUSH1 0x40 MLOAD DUP1 SWAP2 SUB SWAP1 LOG1 POP POP JUMP JUMPDEST PUSH1 0x4 SLOAD DUP2 JUMP JUMPDEST PUSH1 0x0 PUSH1 0x2 PUSH1 0x0 DUP4 DUP2 MSTORE PUSH1 0x20 ADD SWAP1 DUP2 MSTORE PUSH1 0x20 ADD PUSH1 0x0 KECCAK256 PUSH1 0x1 ADD PUSH1 0x0 SWAP1 SLOAD SWAP1 PUSH2 0x100 EXP SWAP1 DIV PUSH20 0xFFFFFFFFFFFFFFFFFFFFFFFFFFFFFFFFFFFFFFFF AND SWAP1 POP SWAP2 SWAP1 POP JUMP JUMPDEST PUSH2 0x14AB DUP3 DUP3 PUSH1 0x40 MLOAD PUSH1 0x24 ADD PUSH2 0x1429 SWAP3 SWAP2 SWAP1 PUSH2 0x20B8 JUMP JUMPDEST PUSH1 0x40 MLOAD PUSH1 0x20 DUP2 DUP4 SUB SUB DUP2 MSTORE SWAP1 PUSH1 0x40 MSTORE PUSH32 0x319AF33300000000000000000000000000000000000000000000000000000000 PUSH28 0xFFFFFFFFFFFFFFFFFFFFFFFFFFFFFFFFFFFFFFFFFFFFFFFFFFFFFFFF NOT AND PUSH1 0x20 DUP3 ADD DUP1 MLOAD PUSH28 0xFFFFFFFFFFFFFFFFFFFFFFFFFFFFFFFFFFFFFFFFFFFFFFFFFFFFFFFF DUP4 DUP2 DUP4 AND OR DUP4 MSTORE POP POP POP POP PUSH2 0x154E JUMP JUMPDEST POP POP JUMP JUMPDEST PUSH2 0x1549 DUP4 DUP4 DUP4 PUSH1 0x40 MLOAD PUSH1 0x24 ADD PUSH2 0x14C7 SWAP4 SWAP3 SWAP2 SWAP1 PUSH2 0x20E8 JUMP JUMPDEST PUSH1 0x40 MLOAD PUSH1 0x20 DUP2 DUP4 SUB SUB DUP2 MSTORE SWAP1 PUSH1 0x40 MSTORE PUSH32 0x5970E08900000000000000000000000000000000000000000000000000000000 PUSH28 0xFFFFFFFFFFFFFFFFFFFFFFFFFFFFFFFFFFFFFFFFFFFFFFFFFFFFFFFF NOT AND PUSH1 0x20 DUP3 ADD DUP1 MLOAD PUSH28 0xFFFFFFFFFFFFFFFFFFFFFFFFFFFFFFFFFFFFFFFFFFFFFFFFFFFFFFFF DUP4 DUP2 DUP4 AND OR DUP4 MSTORE POP POP POP POP PUSH2 0x154E JUMP JUMPDEST POP POP POP JUMP JUMPDEST PUSH2 0x1565 DUP2 PUSH2 0x155D PUSH2 0x1568 PUSH2 0x1589 JUMP JUMPDEST PUSH4 0xFFFFFFFF AND JUMP JUMPDEST POP JUMP JUMPDEST PUSH1 0x0 PUSH11 0x636F6E736F6C652E6C6F67 SWAP1 POP PUSH1 0x0 DUP1 DUP4 MLOAD PUSH1 0x20 DUP6 ADD DUP5 GAS STATICCALL POP POP POP JUMP JUMPDEST PUSH2 0x1594 DUP2 SWAP1 POP SWAP2 SWAP1 POP JUMP JUMPDEST PUSH2 0x159C PUSH2 0x212D JUMP JUMPDEST JUMP JUMPDEST PUSH1 0x0 PUSH20 0xFFFFFFFFFFFFFFFFFFFFFFFFFFFFFFFFFFFFFFFF DUP3 AND SWAP1 POP SWAP2 SWAP1 POP JUMP JUMPDEST PUSH1 0x0 PUSH2 0x15C9 DUP3 PUSH2 0x159E JUMP JUMPDEST SWAP1 POP SWAP2 SWAP1 POP JUMP JUMPDEST PUSH2 0x15D9 DUP2 PUSH2 0x15BE JUMP JUMPDEST DUP3 MSTORE POP POP JUMP JUMPDEST PUSH1 0x0 PUSH1 0x20 DUP3 ADD SWAP1 POP PUSH2 0x15F4 PUSH1 0x0 DUP4 ADD DUP5 PUSH2 0x15D0 JUMP JUMPDEST SWAP3 SWAP2 POP POP JUMP JUMPDEST PUSH1 0x0 DUP2 ISZERO ISZERO SWAP1 POP SWAP2 SWAP1 POP JUMP JUMPDEST PUSH2 0x160F DUP2 PUSH2 0x15FA JUMP JUMPDEST DUP3 MSTORE POP POP JUMP JUMPDEST PUSH1 0x0 PUSH1 0x20 DUP3 ADD SWAP1 POP PUSH2 0x162A PUSH1 0x0 DUP4 ADD DUP5 PUSH2 0x1606 JUMP JUMPDEST SWAP3 SWAP2 POP POP JUMP JUMPDEST PUSH1 0x0 DUP1 REVERT JUMPDEST PUSH2 0x163E DUP2 PUSH2 0x15BE JUMP JUMPDEST DUP2 EQ PUSH2 0x1649 JUMPI PUSH1 0x0 DUP1 REVERT JUMPDEST POP JUMP JUMPDEST PUSH1 0x0 DUP2 CALLDATALOAD SWAP1 POP PUSH2 0x165B DUP2 PUSH2 0x1635 JUMP JUMPDEST SWAP3 SWAP2 POP POP JUMP JUMPDEST PUSH1 0x0 PUSH1 0x20 DUP3 DUP5 SUB SLT ISZERO PUSH2 0x1677 JUMPI PUSH2 0x1676 PUSH2 0x1630 JUMP JUMPDEST JUMPDEST PUSH1 0x0 PUSH2 0x1685 DUP5 DUP3 DUP6 ADD PUSH2 0x164C JUMP JUMPDEST SWAP2 POP POP SWAP3 SWAP2 POP POP JUMP JUMPDEST PUSH1 0x0 DUP2 SWAP1 POP SWAP2 SWAP1 POP JUMP JUMPDEST PUSH1 0x0 PUSH2 0x16B3 PUSH2 0x16AE PUSH2 0x16A9 DUP5 PUSH2 0x159E JUMP JUMPDEST PUSH2 0x168E JUMP JUMPDEST PUSH2 0x159E JUMP JUMPDEST SWAP1 POP SWAP2 SWAP1 POP JUMP JUMPDEST PUSH1 0x0 PUSH2 0x16C5 DUP3 PUSH2 0x1698 JUMP JUMPDEST SWAP1 POP SWAP2 SWAP1 POP JUMP JUMPDEST PUSH1 0x0 PUSH2 0x16D7 DUP3 PUSH2 0x16BA JUMP JUMPDEST SWAP1 POP SWAP2 SWAP1 POP JUMP JUMPDEST PUSH2 0x16E7 DUP2 PUSH2 0x16CC JUMP JUMPDEST DUP3 MSTORE POP POP JUMP JUMPDEST PUSH1 0x0 PUSH1 0x20 DUP3 ADD SWAP1 POP PUSH2 0x1702 PUSH1 0x0 DUP4 ADD DUP5 PUSH2 0x16DE JUMP JUMPDEST SWAP3 SWAP2 POP POP JUMP JUMPDEST PUSH1 0x0 DUP2 SWAP1 POP SWAP2 SWAP1 POP JUMP JUMPDEST PUSH2 0x171B DUP2 PUSH2 0x1708 JUMP JUMPDEST DUP2 EQ PUSH2 0x1726 JUMPI PUSH1 0x0 DUP1 REVERT JUMPDEST POP JUMP JUMPDEST PUSH1 0x0 DUP2 CALLDATALOAD SWAP1 POP PUSH2 0x1738 DUP2 PUSH2 0x1712 JUMP JUMPDEST SWAP3 SWAP2 POP POP JUMP JUMPDEST PUSH1 0x0 PUSH1 0x20 DUP3 DUP5 SUB SLT ISZERO PUSH2 0x1754 JUMPI PUSH2 0x1753 PUSH2 0x1630 JUMP JUMPDEST JUMPDEST PUSH1 0x0 PUSH2 0x1762 DUP5 DUP3 DUP6 ADD PUSH2 0x1729 JUMP JUMPDEST SWAP2 POP POP SWAP3 SWAP2 POP POP JUMP JUMPDEST PUSH2 0x1774 DUP2 PUSH2 0x1708 JUMP JUMPDEST DUP3 MSTORE POP POP JUMP JUMPDEST PUSH1 0x0 PUSH1 0xA0 DUP3 ADD SWAP1 POP PUSH2 0x178F PUSH1 0x0 DUP4 ADD DUP9 PUSH2 0x15D0 JUMP JUMPDEST PUSH2 0x179C PUSH1 0x20 DUP4 ADD DUP8 PUSH2 0x15D0 JUMP JUMPDEST PUSH2 0x17A9 PUSH1 0x40 DUP4 ADD DUP7 PUSH2 0x176B JUMP JUMPDEST PUSH2 0x17B6 PUSH1 0x60 DUP4 ADD DUP6 PUSH2 0x176B JUMP JUMPDEST PUSH2 0x17C3 PUSH1 0x80 DUP4 ADD DUP5 PUSH2 0x1606 JUMP JUMPDEST SWAP7 SWAP6 POP POP POP POP POP POP JUMP JUMPDEST PUSH1 0x0 PUSH1 0x20 DUP3 ADD SWAP1 POP PUSH2 0x17E2 PUSH1 0x0 DUP4 ADD DUP5 PUSH2 0x176B JUMP JUMPDEST SWAP3 SWAP2 POP POP JUMP JUMPDEST PUSH1 0x0 DUP1 PUSH1 0x0 DUP1 PUSH1 0x80 DUP6 DUP8 SUB SLT ISZERO PUSH2 0x1802 JUMPI PUSH2 0x1801 PUSH2 0x1630 JUMP JUMPDEST JUMPDEST PUSH1 0x0 PUSH2 0x1810 DUP8 DUP3 DUP9 ADD PUSH2 0x164C JUMP JUMPDEST SWAP5 POP POP PUSH1 0x20 PUSH2 0x1821 DUP8 DUP3 DUP9 ADD PUSH2 0x164C JUMP JUMPDEST SWAP4 POP POP PUSH1 0x40 PUSH2 0x1832 DUP8 DUP3 DUP9 ADD PUSH2 0x1729 JUMP JUMPDEST SWAP3 POP POP PUSH1 0x60 PUSH2 0x1843 DUP8 DUP3 DUP9 ADD PUSH2 0x1729 JUMP JUMPDEST SWAP2 POP POP SWAP3 SWAP6 SWAP2 SWAP5 POP SWAP3 POP JUMP JUMPDEST PUSH2 0x1858 DUP2 PUSH2 0x15FA JUMP JUMPDEST DUP2 EQ PUSH2 0x1863 JUMPI PUSH1 0x0 DUP1 REVERT JUMPDEST POP JUMP JUMPDEST PUSH1 0x0 DUP2 CALLDATALOAD SWAP1 POP PUSH2 0x1875 DUP2 PUSH2 0x184F JUMP JUMPDEST SWAP3 SWAP2 POP POP JUMP JUMPDEST PUSH1 0x0 DUP1 PUSH1 0x40 DUP4 DUP6 SUB SLT ISZERO PUSH2 0x1892 JUMPI PUSH2 0x1891 PUSH2 0x1630 JUMP JUMPDEST JUMPDEST PUSH1 0x0 PUSH2 0x18A0 DUP6 DUP3 DUP7 ADD PUSH2 0x1729 JUMP JUMPDEST SWAP3 POP POP PUSH1 0x20 PUSH2 0x18B1 DUP6 DUP3 DUP7 ADD PUSH2 0x1866 JUMP JUMPDEST SWAP2 POP POP SWAP3 POP SWAP3 SWAP1 POP JUMP JUMPDEST PUSH1 0x0 DUP3 DUP3 MSTORE PUSH1 0x20 DUP3 ADD SWAP1 POP SWAP3 SWAP2 POP POP JUMP JUMPDEST PUSH32 0x4F6E6C79207468652054534F2041646D696E2063616E20706572666F726D2074 PUSH1 0x0 DUP3 ADD MSTORE PUSH32 0x68697320616374696F6E00000000000000000000000000000000000000000000 PUSH1 0x20 DUP3 ADD MSTORE POP JUMP JUMPDEST PUSH1 0x0 PUSH2 0x1928 PUSH1 0x2A DUP4 PUSH2 0x18BB JUMP JUMPDEST SWAP2 POP PUSH2 0x1933 DUP3 PUSH2 0x18CC JUMP JUMPDEST PUSH1 0x40 DUP3 ADD SWAP1 POP SWAP2 SWAP1 POP JUMP JUMPDEST PUSH1 0x0 PUSH1 0x20 DUP3 ADD SWAP1 POP DUP2 DUP2 SUB PUSH1 0x0 DUP4 ADD MSTORE PUSH2 0x1957 DUP2 PUSH2 0x191B JUMP JUMPDEST SWAP1 POP SWAP2 SWAP1 POP JUMP JUMPDEST PUSH32 0x4D61726B6574206973207374696C6C206F70656E000000000000000000000000 PUSH1 0x0 DUP3 ADD MSTORE POP JUMP JUMPDEST PUSH1 0x0 PUSH2 0x1994 PUSH1 0x14 DUP4 PUSH2 0x18BB JUMP JUMPDEST SWAP2 POP PUSH2 0x199F DUP3 PUSH2 0x195E JUMP JUMPDEST PUSH1 0x20 DUP3 ADD SWAP1 POP SWAP2 SWAP1 POP JUMP JUMPDEST PUSH1 0x0 PUSH1 0x20 DUP3 ADD SWAP1 POP DUP2 DUP2 SUB PUSH1 0x0 DUP4 ADD MSTORE PUSH2 0x19C3 DUP2 PUSH2 0x1987 JUMP JUMPDEST SWAP1 POP SWAP2 SWAP1 POP JUMP JUMPDEST PUSH32 0x4E487B7100000000000000000000000000000000000000000000000000000000 PUSH1 0x0 MSTORE PUSH1 0x11 PUSH1 0x4 MSTORE PUSH1 0x24 PUSH1 0x0 REVERT JUMPDEST PUSH1 0x0 PUSH2 0x1A04 DUP3 PUSH2 0x1708 JUMP JUMPDEST SWAP2 POP PUSH2 0x1A0F DUP4 PUSH2 0x1708 JUMP JUMPDEST SWAP3 POP DUP3 PUSH32 0xFFFFFFFFFFFFFFFFFFFFFFFFFFFFFFFFFFFFFFFFFFFFFFFFFFFFFFFFFFFFFFFF SUB DUP3 GT ISZERO PUSH2 0x1A44 JUMPI PUSH2 0x1A43 PUSH2 0x19CA JUMP JUMPDEST JUMPDEST DUP3 DUP3 ADD SWAP1 POP SWAP3 SWAP2 POP POP JUMP JUMPDEST PUSH1 0x0 PUSH1 0x40 DUP3 ADD SWAP1 POP PUSH2 0x1A64 PUSH1 0x0 DUP4 ADD DUP6 PUSH2 0x176B JUMP JUMPDEST PUSH2 0x1A71 PUSH1 0x20 DUP4 ADD DUP5 PUSH2 0x176B JUMP JUMPDEST SWAP4 SWAP3 POP POP POP JUMP JUMPDEST PUSH1 0x0 PUSH2 0x1A83 DUP3 PUSH2 0x1708 JUMP JUMPDEST SWAP2 POP PUSH2 0x1A8E DUP4 PUSH2 0x1708 JUMP JUMPDEST SWAP3 POP DUP2 PUSH32 0xFFFFFFFFFFFFFFFFFFFFFFFFFFFFFFFFFFFFFFFFFFFFFFFFFFFFFFFFFFFFFFFF DIV DUP4 GT DUP3 ISZERO ISZERO AND ISZERO PUSH2 0x1AC7 JUMPI PUSH2 0x1AC6 PUSH2 0x19CA JUMP JUMPDEST JUMPDEST DUP3 DUP3 MUL SWAP1 POP SWAP3 SWAP2 POP POP JUMP JUMPDEST PUSH1 0x0 DUP2 MLOAD SWAP1 POP PUSH2 0x1AE1 DUP2 PUSH2 0x1712 JUMP JUMPDEST SWAP3 SWAP2 POP POP JUMP JUMPDEST PUSH1 0x0 PUSH1 0x20 DUP3 DUP5 SUB SLT ISZERO PUSH2 0x1AFD JUMPI PUSH2 0x1AFC PUSH2 0x1630 JUMP JUMPDEST JUMPDEST PUSH1 0x0 PUSH2 0x1B0B DUP5 DUP3 DUP6 ADD PUSH2 0x1AD2 JUMP JUMPDEST SWAP2 POP POP SWAP3 SWAP2 POP POP JUMP JUMPDEST PUSH32 0x4E487B7100000000000000000000000000000000000000000000000000000000 PUSH1 0x0 MSTORE PUSH1 0x12 PUSH1 0x4 MSTORE PUSH1 0x24 PUSH1 0x0 REVERT JUMPDEST PUSH1 0x0 PUSH2 0x1B4E DUP3 PUSH2 0x1708 JUMP JUMPDEST SWAP2 POP PUSH2 0x1B59 DUP4 PUSH2 0x1708 JUMP JUMPDEST SWAP3 POP DUP3 PUSH2 0x1B69 JUMPI PUSH2 0x1B68 PUSH2 0x1B14 JUMP JUMPDEST JUMPDEST DUP3 DUP3 DIV SWAP1 POP SWAP3 SWAP2 POP POP JUMP JUMPDEST PUSH1 0x0 PUSH2 0x1B7F DUP3 PUSH2 0x1708 JUMP JUMPDEST SWAP2 POP PUSH2 0x1B8A DUP4 PUSH2 0x1708 JUMP JUMPDEST SWAP3 POP DUP3 DUP3 LT ISZERO PUSH2 0x1B9D JUMPI PUSH2 0x1B9C PUSH2 0x19CA JUMP JUMPDEST JUMPDEST DUP3 DUP3 SUB SWAP1 POP SWAP3 SWAP2 POP POP JUMP JUMPDEST PUSH1 0x0 PUSH1 0x60 DUP3 ADD SWAP1 POP PUSH2 0x1BBD PUSH1 0x0 DUP4 ADD DUP7 PUSH2 0x15D0 JUMP JUMPDEST PUSH2 0x1BCA PUSH1 0x20 DUP4 ADD DUP6 PUSH2 0x176B JUMP JUMPDEST PUSH2 0x1BD7 PUSH1 0x40 DUP4 ADD DUP5 PUSH2 0x1606 JUMP JUMPDEST SWAP5 SWAP4 POP POP POP POP JUMP JUMPDEST PUSH32 0x4D61726B6574206973206E6F74206F70656E0000000000000000000000000000 PUSH1 0x0 DUP3 ADD MSTORE POP JUMP JUMPDEST PUSH1 0x0 PUSH2 0x1C15 PUSH1 0x12 DUP4 PUSH2 0x18BB JUMP JUMPDEST SWAP2 POP PUSH2 0x1C20 DUP3 PUSH2 0x1BDF JUMP JUMPDEST PUSH1 0x20 DUP3 ADD SWAP1 POP SWAP2 SWAP1 POP JUMP JUMPDEST PUSH1 0x0 PUSH1 0x20 DUP3 ADD SWAP1 POP DUP2 DUP2 SUB PUSH1 0x0 DUP4 ADD MSTORE PUSH2 0x1C44 DUP2 PUSH2 0x1C08 JUMP JUMPDEST SWAP1 POP SWAP2 SWAP1 POP JUMP JUMPDEST PUSH1 0x0 DUP2 MLOAD SWAP1 POP PUSH2 0x1C5A DUP2 PUSH2 0x1635 JUMP JUMPDEST SWAP3 SWAP2 POP POP JUMP JUMPDEST PUSH1 0x0 PUSH1 0x20 DUP3 DUP5 SUB SLT ISZERO PUSH2 0x1C76 JUMPI PUSH2 0x1C75 PUSH2 0x1630 JUMP JUMPDEST JUMPDEST PUSH1 0x0 PUSH2 0x1C84 DUP5 DUP3 DUP6 ADD PUSH2 0x1C4B JUMP JUMPDEST SWAP2 POP POP SWAP3 SWAP2 POP POP JUMP JUMPDEST PUSH32 0x4F6E6C79207468652041676772656761746F72204F776E65722063616E207065 PUSH1 0x0 DUP3 ADD MSTORE PUSH32 0x72666F726D207468697320616374696F6E000000000000000000000000000000 PUSH1 0x20 DUP3 ADD MSTORE POP JUMP JUMPDEST PUSH1 0x0 PUSH2 0x1CE9 PUSH1 0x31 DUP4 PUSH2 0x18BB JUMP JUMPDEST SWAP2 POP PUSH2 0x1CF4 DUP3 PUSH2 0x1C8D JUMP JUMPDEST PUSH1 0x40 DUP3 ADD SWAP1 POP SWAP2 SWAP1 POP JUMP JUMPDEST PUSH1 0x0 PUSH1 0x20 DUP3 ADD SWAP1 POP DUP2 DUP2 SUB PUSH1 0x0 DUP4 ADD MSTORE PUSH2 0x1D18 DUP2 PUSH2 0x1CDC JUMP JUMPDEST SWAP1 POP SWAP2 SWAP1 POP JUMP JUMPDEST PUSH32 0x496E73756666696369656E7420536F4320746F206A6F696E20746865206D6172 PUSH1 0x0 DUP3 ADD MSTORE PUSH32 0x6B65740000000000000000000000000000000000000000000000000000000000 PUSH1 0x20 DUP3 ADD MSTORE POP JUMP JUMPDEST PUSH1 0x0 PUSH2 0x1D7B PUSH1 0x23 DUP4 PUSH2 0x18BB JUMP JUMPDEST SWAP2 POP PUSH2 0x1D86 DUP3 PUSH2 0x1D1F JUMP JUMPDEST PUSH1 0x40 DUP3 ADD SWAP1 POP SWAP2 SWAP1 POP JUMP JUMPDEST PUSH1 0x0 PUSH1 0x20 DUP3 ADD SWAP1 POP DUP2 DUP2 SUB PUSH1 0x0 DUP4 ADD MSTORE PUSH2 0x1DAA DUP2 PUSH2 0x1D6E JUMP JUMPDEST SWAP1 POP SWAP2 SWAP1 POP JUMP JUMPDEST PUSH32 0x426174746572792069732066756C6C0000000000000000000000000000000000 PUSH1 0x0 DUP3 ADD MSTORE POP JUMP JUMPDEST PUSH1 0x0 PUSH2 0x1DE7 PUSH1 0xF DUP4 PUSH2 0x18BB JUMP JUMPDEST SWAP2 POP PUSH2 0x1DF2 DUP3 PUSH2 0x1DB1 JUMP JUMPDEST PUSH1 0x20 DUP3 ADD SWAP1 POP SWAP2 SWAP1 POP JUMP JUMPDEST PUSH1 0x0 PUSH1 0x20 DUP3 ADD SWAP1 POP DUP2 DUP2 SUB PUSH1 0x0 DUP4 ADD MSTORE PUSH2 0x1E16 DUP2 PUSH2 0x1DDA JUMP JUMPDEST SWAP1 POP SWAP2 SWAP1 POP JUMP JUMPDEST PUSH32 0x5072696365206D7573742062652067726561746572207468616E203000000000 PUSH1 0x0 DUP3 ADD MSTORE POP JUMP JUMPDEST PUSH1 0x0 PUSH2 0x1E53 PUSH1 0x1C DUP4 PUSH2 0x18BB JUMP JUMPDEST SWAP2 POP PUSH2 0x1E5E DUP3 PUSH2 0x1E1D JUMP JUMPDEST PUSH1 0x20 DUP3 ADD SWAP1 POP SWAP2 SWAP1 POP JUMP JUMPDEST PUSH1 0x0 PUSH1 0x20 DUP3 ADD SWAP1 POP DUP2 DUP2 SUB PUSH1 0x0 DUP4 ADD MSTORE PUSH2 0x1E82 DUP2 PUSH2 0x1E46 JUMP JUMPDEST SWAP1 POP SWAP2 SWAP1 POP JUMP JUMPDEST PUSH32 0x41676772656761746F72206E6F7420666F756E6420666F722062617474657279 PUSH1 0x0 DUP3 ADD MSTORE PUSH32 0x206F776E65720000000000000000000000000000000000000000000000000000 PUSH1 0x20 DUP3 ADD MSTORE POP JUMP JUMPDEST PUSH1 0x0 PUSH2 0x1EE5 PUSH1 0x26 DUP4 PUSH2 0x18BB JUMP JUMPDEST SWAP2 POP PUSH2 0x1EF0 DUP3 PUSH2 0x1E89 JUMP JUMPDEST PUSH1 0x40 DUP3 ADD SWAP1 POP SWAP2 SWAP1 POP JUMP JUMPDEST PUSH1 0x0 PUSH1 0x20 DUP3 ADD SWAP1 POP DUP2 DUP2 SUB PUSH1 0x0 DUP4 ADD MSTORE PUSH2 0x1F14 DUP2 PUSH2 0x1ED8 JUMP JUMPDEST SWAP1 POP SWAP2 SWAP1 POP JUMP JUMPDEST PUSH1 0x0 PUSH1 0x60 DUP3 ADD SWAP1 POP PUSH2 0x1F30 PUSH1 0x0 DUP4 ADD DUP7 PUSH2 0x15D0 JUMP JUMPDEST PUSH2 0x1F3D PUSH1 0x20 DUP4 ADD DUP6 PUSH2 0x176B JUMP JUMPDEST PUSH2 0x1F4A PUSH1 0x40 DUP4 ADD DUP5 PUSH2 0x176B JUMP JUMPDEST SWAP5 SWAP4 POP POP POP POP JUMP JUMPDEST PUSH1 0x0 PUSH2 0x1F5D DUP3 PUSH2 0x1708 JUMP JUMPDEST SWAP2 POP PUSH32 0xFFFFFFFFFFFFFFFFFFFFFFFFFFFFFFFFFFFFFFFFFFFFFFFFFFFFFFFFFFFFFFFF DUP3 EQ ISZERO PUSH2 0x1F90 JUMPI PUSH2 0x1F8F PUSH2 0x19CA JUMP JUMPDEST JUMPDEST PUSH1 0x1 DUP3 ADD SWAP1 POP SWAP2 SWAP1 POP JUMP JUMPDEST PUSH32 0x4D61726B657420697320616C726561647920636C6F7365640000000000000000 PUSH1 0x0 DUP3 ADD MSTORE POP JUMP JUMPDEST PUSH1 0x0 PUSH2 0x1FD1 PUSH1 0x18 DUP4 PUSH2 0x18BB JUMP JUMPDEST SWAP2 POP PUSH2 0x1FDC DUP3 PUSH2 0x1F9B JUMP JUMPDEST PUSH1 0x20 DUP3 ADD SWAP1 POP SWAP2 SWAP1 POP JUMP JUMPDEST PUSH1 0x0 PUSH1 0x20 DUP3 ADD SWAP1 POP DUP2 DUP2 SUB PUSH1 0x0 DUP4 ADD MSTORE PUSH2 0x2000 DUP2 PUSH2 0x1FC4 JUMP JUMPDEST SWAP1 POP SWAP2 SWAP1 POP JUMP JUMPDEST PUSH1 0x0 PUSH1 0x40 DUP3 ADD SWAP1 POP PUSH2 0x201C PUSH1 0x0 DUP4 ADD DUP6 PUSH2 0x176B JUMP JUMPDEST PUSH2 0x2029 PUSH1 0x20 DUP4 ADD DUP5 PUSH2 0x1606 JUMP JUMPDEST SWAP4 SWAP3 POP POP POP JUMP JUMPDEST PUSH1 0x0 DUP2 MLOAD SWAP1 POP SWAP2 SWAP1 POP JUMP JUMPDEST PUSH1 0x0 JUMPDEST DUP4 DUP2 LT ISZERO PUSH2 0x2059 JUMPI DUP1 DUP3 ADD MLOAD DUP2 DUP5 ADD MSTORE PUSH1 0x20 DUP2 ADD SWAP1 POP PUSH2 0x203E JUMP JUMPDEST DUP4 DUP2 GT ISZERO PUSH2 0x2068 JUMPI PUSH1 0x0 DUP5 DUP5 ADD MSTORE JUMPDEST POP POP POP POP JUMP JUMPDEST PUSH1 0x0 PUSH1 0x1F NOT PUSH1 0x1F DUP4 ADD AND SWAP1 POP SWAP2 SWAP1 POP JUMP JUMPDEST PUSH1 0x0 PUSH2 0x208A DUP3 PUSH2 0x2030 JUMP JUMPDEST PUSH2 0x2094 DUP2 DUP6 PUSH2 0x18BB JUMP JUMPDEST SWAP4 POP PUSH2 0x20A4 DUP2 DUP6 PUSH1 0x20 DUP7 ADD PUSH2 0x203B JUMP JUMPDEST PUSH2 0x20AD DUP2 PUSH2 0x206E JUMP JUMPDEST DUP5 ADD SWAP2 POP POP SWAP3 SWAP2 POP POP JUMP JUMPDEST PUSH1 0x0 PUSH1 0x40 DUP3 ADD SWAP1 POP DUP2 DUP2 SUB PUSH1 0x0 DUP4 ADD MSTORE PUSH2 0x20D2 DUP2 DUP6 PUSH2 0x207F JUMP JUMPDEST SWAP1 POP PUSH2 0x20E1 PUSH1 0x20 DUP4 ADD DUP5 PUSH2 0x15D0 JUMP JUMPDEST SWAP4 SWAP3 POP POP POP JUMP JUMPDEST PUSH1 0x0 PUSH1 0x60 DUP3 ADD SWAP1 POP DUP2 DUP2 SUB PUSH1 0x0 DUP4 ADD MSTORE PUSH2 0x2102 DUP2 DUP7 PUSH2 0x207F JUMP JUMPDEST SWAP1 POP PUSH2 0x2111 PUSH1 0x20 DUP4 ADD DUP6 PUSH2 0x176B JUMP JUMPDEST DUP2 DUP2 SUB PUSH1 0x40 DUP4 ADD MSTORE PUSH2 0x2123 DUP2 DUP5 PUSH2 0x207F JUMP JUMPDEST SWAP1 POP SWAP5 SWAP4 POP POP POP POP JUMP JUMPDEST PUSH32 0x4E487B7100000000000000000000000000000000000000000000000000000000 PUSH1 0x0 MSTORE PUSH1 0x51 PUSH1 0x4 MSTORE PUSH1 0x24 PUSH1 0x0 REVERT INVALID LOG2 PUSH5 0x6970667358 0x22 SLT KECCAK256 PUSH32 0xE8697F4C34BD3C5A0B697E1B0BE83E689DAE93CD6A6618473B42BD01DB046E64 PUSH20 0x6F6C634300080900330000000000000000000000 "},"methodIdentifiers":{"aggregator()":"245a7bfc","aggregatorOwner()":"87c132ce","aggregators(address)":"112cdab9","bidCount()":"b40a5627","bids(uint256)":"4423c5f1","closeMarket()":"c511ed5e","getBatteryOwner(uint256)":"f190032b","getBidder(uint256)":"865109f2","isPositiveReserve()":"04eb435f","marketOpen()":"c66bc046","openMarket(uint256,bool)":"d6e0cd17","placeBid(address,address,uint256,uint256)":"ab0c7d56","processNextPayment(uint256)":"610498c7","requiredEnergy()":"e2a886bd","selectNextBid(uint256)":"4fd59f4e","totalSelectedEnergy()":"66bf4570","tsoAdmin()":"0270ada4"}}}}}