{
  "_format": "hh-sol-artifact-1",
  "contractName": "Aggregator",
  "sourceName": "contracts/Aggregator.sol",
  "abi": [
    {
      "inputs": [
        {
          "internalType": "address",
          "name": "_aggregatorAdmin",
          "type": "address"
        },
        {
          "internalType": "uint256",
          "name": "_commissionRate",
          "type": "uint256"
        }
      ],
      "stateMutability": "nonpayable",
      "type": "constructor"
    },
    {
      "inputs": [],
      "name": "aggregatorAdmin",
      "outputs": [
        {
          "internalType": "address",
          "name": "",
          "type": "address"
        }
      ],
      "stateMutability": "view",
      "type": "function"
    },
    {
      "inputs": [
        {
          "internalType": "address",
          "name": "",
          "type": "address"
        }
      ],
      "name": "batteries",
      "outputs": [
        {
          "internalType": "address",
          "name": "owner",
          "type": "address"
        },
        {
          "internalType": "uint256",
          "name": "capacity",
          "type": "uint256"
        },
        {
          "internalType": "uint256",
          "name": "SoC",
          "type": "uint256"
        },
        {
          "internalType": "bool",
          "name": "isRegistered",
          "type": "bool"
        }
      ],
      "stateMutability": "view",
      "type": "function"
    },
    {
      "inputs": [
        {
          "internalType": "uint256",
          "name": "",
          "type": "uint256"
        }
      ],
      "name": "batteryAddresses",
      "outputs": [
        {
          "internalType": "address",
          "name": "",
          "type": "address"
        }
      ],
      "stateMutability": "view",
      "type": "function"
    },
    {
      "inputs": [],
      "name": "commissionRate",
      "outputs": [
        {
          "internalType": "uint256",
          "name": "",
          "type": "uint256"
        }
      ],
      "stateMutability": "view",
      "type": "function"
    },
    {
      "inputs": [
        {
          "internalType": "address",
          "name": "_batteryOwner",
          "type": "address"
        }
      ],
      "name": "getBatteryCapacity",
      "outputs": [
        {
          "internalType": "uint256",
          "name": "",
          "type": "uint256"
        }
      ],
      "stateMutability": "view",
      "type": "function"
    },
    {
      "inputs": [
        {
          "internalType": "address",
          "name": "_batteryOwner",
          "type": "address"
        }
      ],
      "name": "getBatterySoC",
      "outputs": [
        {
          "internalType": "uint256",
          "name": "",
          "type": "uint256"
        }
      ],
      "stateMutability": "view",
      "type": "function"
    },
    {
      "inputs": [
        {
          "internalType": "address",
          "name": "_owner",
          "type": "address"
        },
        {
          "internalType": "uint256",
          "name": "_capacity",
          "type": "uint256"
        },
        {
          "internalType": "uint256",
          "name": "_SoC",
          "type": "uint256"
        },
        {
          "internalType": "bool",
          "name": "isRegistered",
          "type": "bool"
        }
      ],
      "name": "registerBattery",
      "outputs": [],
      "stateMutability": "nonpayable",
      "type": "function"
    },
    {
      "inputs": [
        {
          "internalType": "address",
          "name": "_owner",
          "type": "address"
        },
        {
          "internalType": "uint256",
          "name": "_amountSold",
          "type": "uint256"
        },
        {
          "internalType": "bool",
          "name": "_isPositiveReserve",
          "type": "bool"
        }
      ],
      "name": "updateBatterySoCAfterSale",
      "outputs": [],
      "stateMutability": "nonpayable",
      "type": "function"
    }
  ],
  "bytecode": "0x60806040523480156200001157600080fd5b5060405162000f2e38038062000f2e83398181016040528101906200003791906200012c565b81600260006101000a81548173ffffffffffffffffffffffffffffffffffffffff021916908373ffffffffffffffffffffffffffffffffffffffff16021790555080600381905550505062000173565b600080fd5b600073ffffffffffffffffffffffffffffffffffffffff82169050919050565b6000620000b9826200008c565b9050919050565b620000cb81620000ac565b8114620000d757600080fd5b50565b600081519050620000eb81620000c0565b92915050565b6000819050919050565b6200010681620000f1565b81146200011257600080fd5b50565b6000815190506200012681620000fb565b92915050565b6000806040838503121562000146576200014562000087565b5b60006200015685828601620000da565b9250506020620001698582860162000115565b9150509250929050565b610dab80620001836000396000f3fe608060405234801561001057600080fd5b50600436106100885760003560e01c806386b621ac1161005b57806386b621ac1461013e5780639ce7acd01461015a5780639e9b522c14610178578063b8e14d031461019457610088565b80631bb31c301461008d5780633e395962146100c05780635ea1d6f8146100f05780637edaff941461010e575b600080fd5b6100a760048036038101906100a29190610883565b6101c4565b6040516100b794939291906108f3565b60405180910390f35b6100da60048036038101906100d59190610883565b610221565b6040516100e79190610938565b60405180910390f35b6100f861033c565b6040516101059190610938565b60405180910390f35b61012860048036038101906101239190610883565b610342565b6040516101359190610938565b60405180910390f35b610158600480360381019061015391906109ab565b61045d565b005b61016261064a565b60405161016f9190610a12565b60405180910390f35b610192600480360381019061018d9190610a2d565b610670565b005b6101ae60048036038101906101a99190610a80565b6107e1565b6040516101bb9190610a12565b60405180910390f35b60006020528060005260406000206000915090508060000160009054906101000a900473ffffffffffffffffffffffffffffffffffffffff16908060010154908060020154908060030160009054906101000a900460ff16905084565b60008073ffffffffffffffffffffffffffffffffffffffff166000808473ffffffffffffffffffffffffffffffffffffffff1673ffffffffffffffffffffffffffffffffffffffff16815260200190815260200160002060000160009054906101000a900473ffffffffffffffffffffffffffffffffffffffff1673ffffffffffffffffffffffffffffffffffffffff1614156102f3576040517f08c379a00000000000000000000000000000000000000000000000000000000081526004016102ea90610b0a565b60405180910390fd5b6000808373ffffffffffffffffffffffffffffffffffffffff1673ffffffffffffffffffffffffffffffffffffffff168152602001908152602001600020600101549050919050565b60035481565b60008073ffffffffffffffffffffffffffffffffffffffff166000808473ffffffffffffffffffffffffffffffffffffffff1673ffffffffffffffffffffffffffffffffffffffff16815260200190815260200160002060000160009054906101000a900473ffffffffffffffffffffffffffffffffffffffff1673ffffffffffffffffffffffffffffffffffffffff161415610414576040517f08c379a000000000000000000000000000000000000000000000000000000000815260040161040b90610b0a565b60405180910390fd5b6000808373ffffffffffffffffffffffffffffffffffffffff1673ffffffffffffffffffffffffffffffffffffffff168152602001908152602001600020600201549050919050565b6000803373ffffffffffffffffffffffffffffffffffffffff1673ffffffffffffffffffffffffffffffffffffffff16815260200190815260200160002060030160009054906101000a900460ff16156104ec576040517f08c379a00000000000000000000000000000000000000000000000000000000081526004016104e390610b76565b60405180910390fd5b60405180608001604052808573ffffffffffffffffffffffffffffffffffffffff1681526020018481526020018381526020018215158152506000808673ffffffffffffffffffffffffffffffffffffffff1673ffffffffffffffffffffffffffffffffffffffff16815260200190815260200160002060008201518160000160006101000a81548173ffffffffffffffffffffffffffffffffffffffff021916908373ffffffffffffffffffffffffffffffffffffffff160217905550602082015181600101556040820151816002015560608201518160030160006101000a81548160ff0219169083151502179055509050506001849080600181540180825580915050600190039060005260206000200160009091909190916101000a81548173ffffffffffffffffffffffffffffffffffffffff021916908373ffffffffffffffffffffffffffffffffffffffff16021790555050505050565b600260009054906101000a900473ffffffffffffffffffffffffffffffffffffffff1681565b60008060008573ffffffffffffffffffffffffffffffffffffffff1673ffffffffffffffffffffffffffffffffffffffff16815260200190815260200160002090508373ffffffffffffffffffffffffffffffffffffffff168160000160009054906101000a900473ffffffffffffffffffffffffffffffffffffffff1673ffffffffffffffffffffffffffffffffffffffff1614610744576040517f08c379a000000000000000000000000000000000000000000000000000000000815260040161073b90610be2565b60405180910390fd5b8115610788576000816001015460648561075e9190610c31565b6107689190610cba565b82600201546107779190610ceb565b9050808260020181905550506107db565b6000816001015460648561079c9190610c31565b6107a69190610cba565b82600201546107b59190610d1f565b905060648111156107cf57606482600201819055506107d9565b8082600201819055505b505b50505050565b600181815481106107f157600080fd5b906000526020600020016000915054906101000a900473ffffffffffffffffffffffffffffffffffffffff1681565b600080fd5b600073ffffffffffffffffffffffffffffffffffffffff82169050919050565b600061085082610825565b9050919050565b61086081610845565b811461086b57600080fd5b50565b60008135905061087d81610857565b92915050565b60006020828403121561089957610898610820565b5b60006108a78482850161086e565b91505092915050565b6108b981610845565b82525050565b6000819050919050565b6108d2816108bf565b82525050565b60008115159050919050565b6108ed816108d8565b82525050565b600060808201905061090860008301876108b0565b61091560208301866108c9565b61092260408301856108c9565b61092f60608301846108e4565b95945050505050565b600060208201905061094d60008301846108c9565b92915050565b61095c816108bf565b811461096757600080fd5b50565b60008135905061097981610953565b92915050565b610988816108d8565b811461099357600080fd5b50565b6000813590506109a58161097f565b92915050565b600080600080608085870312156109c5576109c4610820565b5b60006109d38782880161086e565b94505060206109e48782880161096a565b93505060406109f58782880161096a565b9250506060610a0687828801610996565b91505092959194509250565b6000602082019050610a2760008301846108b0565b92915050565b600080600060608486031215610a4657610a45610820565b5b6000610a548682870161086e565b9350506020610a658682870161096a565b9250506040610a7686828701610996565b9150509250925092565b600060208284031215610a9657610a95610820565b5b6000610aa48482850161096a565b91505092915050565b600082825260208201905092915050565b7f4261747465727920646f6573206e6f7420657869737400000000000000000000600082015250565b6000610af4601683610aad565b9150610aff82610abe565b602082019050919050565b60006020820190508181036000830152610b2381610ae7565b9050919050565b7f4261747465727920616c72656164792072656769737465726564000000000000600082015250565b6000610b60601a83610aad565b9150610b6b82610b2a565b602082019050919050565b60006020820190508181036000830152610b8f81610b53565b9050919050565b7f42617474657279206e6f7420666f756e64000000000000000000000000000000600082015250565b6000610bcc601183610aad565b9150610bd782610b96565b602082019050919050565b60006020820190508181036000830152610bfb81610bbf565b9050919050565b7f4e487b7100000000000000000000000000000000000000000000000000000000600052601160045260246000fd5b6000610c3c826108bf565b9150610c47836108bf565b9250817fffffffffffffffffffffffffffffffffffffffffffffffffffffffffffffffff0483118215151615610c8057610c7f610c02565b5b828202905092915050565b7f4e487b7100000000000000000000000000000000000000000000000000000000600052601260045260246000fd5b6000610cc5826108bf565b9150610cd0836108bf565b925082610ce057610cdf610c8b565b5b828204905092915050565b6000610cf6826108bf565b9150610d01836108bf565b925082821015610d1457610d13610c02565b5b828203905092915050565b6000610d2a826108bf565b9150610d35836108bf565b9250827fffffffffffffffffffffffffffffffffffffffffffffffffffffffffffffffff03821115610d6a57610d69610c02565b5b82820190509291505056fea26469706673582212209cf277cd0a209d065fe7b251b9908a2434f176d70bd1b66b405d85711cd7e45564736f6c63430008090033",
  "linkReferences": {},
  "deployedLinkReferences": {}
}