{
  "_format": "hh-sol-artifact-1",
  "contractName": "Aggregator",
  "sourceName": "contracts/Aggregator.sol",
  "abi": [
    {
      "inputs": [
        {
          "internalType": "address",
          "name": "_aggregatorAdmin",
          "type": "address"
        },
        {
          "internalType": "uint256",
          "name": "_commissionRate",
          "type": "uint256"
        }
      ],
      "stateMutability": "nonpayable",
      "type": "constructor"
    },
    {
      "inputs": [],
      "name": "aggregatorAdmin",
      "outputs": [
        {
          "internalType": "address",
          "name": "",
          "type": "address"
        }
      ],
      "stateMutability": "view",
      "type": "function"
    },
    {
      "inputs": [
        {
          "internalType": "address",
          "name": "",
          "type": "address"
        }
      ],
      "name": "batteries",
      "outputs": [
        {
          "internalType": "address",
          "name": "owner",
          "type": "address"
        },
        {
          "internalType": "uint256",
          "name": "capacity",
          "type": "uint256"
        },
        {
          "internalType": "uint256",
          "name": "SoC",
          "type": "uint256"
        },
        {
          "internalType": "bool",
          "name": "isRegistered",
          "type": "bool"
        }
      ],
      "stateMutability": "view",
      "type": "function"
    },
    {
      "inputs": [
        {
          "internalType": "uint256",
          "name": "",
          "type": "uint256"
        }
      ],
      "name": "batteryAddresses",
      "outputs": [
        {
          "internalType": "address",
          "name": "",
          "type": "address"
        }
      ],
      "stateMutability": "view",
      "type": "function"
    },
    {
      "inputs": [],
      "name": "commissionRate",
      "outputs": [
        {
          "internalType": "uint256",
          "name": "",
          "type": "uint256"
        }
      ],
      "stateMutability": "view",
      "type": "function"
    },
    {
      "inputs": [
        {
          "internalType": "address",
          "name": "_batteryOwner",
          "type": "address"
        }
      ],
      "name": "getBatterySoC",
      "outputs": [
        {
          "internalType": "uint256",
          "name": "",
          "type": "uint256"
        }
      ],
      "stateMutability": "view",
      "type": "function"
    },
    {
      "inputs": [
        {
          "internalType": "address",
          "name": "_owner",
          "type": "address"
        },
        {
          "internalType": "uint256",
          "name": "_capacity",
          "type": "uint256"
        },
        {
          "internalType": "uint256",
          "name": "_SoC",
          "type": "uint256"
        },
        {
          "internalType": "bool",
          "name": "isRegistered",
          "type": "bool"
        }
      ],
      "name": "registerBattery",
      "outputs": [],
      "stateMutability": "nonpayable",
      "type": "function"
    },
    {
      "inputs": [
        {
          "internalType": "address",
          "name": "_owner",
          "type": "address"
        },
        {
          "internalType": "uint256",
          "name": "_amountSold",
          "type": "uint256"
        },
        {
          "internalType": "bool",
          "name": "_isPositiveReserve",
          "type": "bool"
        }
      ],
      "name": "updateBatterySoCAfterSale",
      "outputs": [],
      "stateMutability": "nonpayable",
      "type": "function"
    }
  ],
  "bytecode": "0x60806040523480156200001157600080fd5b5060405162000dd838038062000dd883398181016040528101906200003791906200012c565b81600260006101000a81548173ffffffffffffffffffffffffffffffffffffffff021916908373ffffffffffffffffffffffffffffffffffffffff16021790555080600381905550505062000173565b600080fd5b600073ffffffffffffffffffffffffffffffffffffffff82169050919050565b6000620000b9826200008c565b9050919050565b620000cb81620000ac565b8114620000d757600080fd5b50565b600081519050620000eb81620000c0565b92915050565b6000819050919050565b6200010681620000f1565b81146200011257600080fd5b50565b6000815190506200012681620000fb565b92915050565b6000806040838503121562000146576200014562000087565b5b60006200015685828601620000da565b9250506020620001698582860162000115565b9150509250929050565b610c5580620001836000396000f3fe608060405234801561001057600080fd5b506004361061007d5760003560e01c806386b621ac1161005b57806386b621ac146101035780639ce7acd01461011f5780639e9b522c1461013d578063b8e14d03146101595761007d565b80631bb31c30146100825780635ea1d6f8146100b55780637edaff94146100d3575b600080fd5b61009c6004803603810190610097919061072d565b610189565b6040516100ac949392919061079d565b60405180910390f35b6100bd6101e6565b6040516100ca91906107e2565b60405180910390f35b6100ed60048036038101906100e8919061072d565b6101ec565b6040516100fa91906107e2565b60405180910390f35b61011d60048036038101906101189190610855565b610307565b005b6101276104f4565b60405161013491906108bc565b60405180910390f35b610157600480360381019061015291906108d7565b61051a565b005b610173600480360381019061016e919061092a565b61068b565b60405161018091906108bc565b60405180910390f35b60006020528060005260406000206000915090508060000160009054906101000a900473ffffffffffffffffffffffffffffffffffffffff16908060010154908060020154908060030160009054906101000a900460ff16905084565b60035481565b60008073ffffffffffffffffffffffffffffffffffffffff166000808473ffffffffffffffffffffffffffffffffffffffff1673ffffffffffffffffffffffffffffffffffffffff16815260200190815260200160002060000160009054906101000a900473ffffffffffffffffffffffffffffffffffffffff1673ffffffffffffffffffffffffffffffffffffffff1614156102be576040517f08c379a00000000000000000000000000000000000000000000000000000000081526004016102b5906109b4565b60405180910390fd5b6000808373ffffffffffffffffffffffffffffffffffffffff1673ffffffffffffffffffffffffffffffffffffffff168152602001908152602001600020600201549050919050565b6000803373ffffffffffffffffffffffffffffffffffffffff1673ffffffffffffffffffffffffffffffffffffffff16815260200190815260200160002060030160009054906101000a900460ff1615610396576040517f08c379a000000000000000000000000000000000000000000000000000000000815260040161038d90610a20565b60405180910390fd5b60405180608001604052808573ffffffffffffffffffffffffffffffffffffffff1681526020018481526020018381526020018215158152506000808673ffffffffffffffffffffffffffffffffffffffff1673ffffffffffffffffffffffffffffffffffffffff16815260200190815260200160002060008201518160000160006101000a81548173ffffffffffffffffffffffffffffffffffffffff021916908373ffffffffffffffffffffffffffffffffffffffff160217905550602082015181600101556040820151816002015560608201518160030160006101000a81548160ff0219169083151502179055509050506001849080600181540180825580915050600190039060005260206000200160009091909190916101000a81548173ffffffffffffffffffffffffffffffffffffffff021916908373ffffffffffffffffffffffffffffffffffffffff16021790555050505050565b600260009054906101000a900473ffffffffffffffffffffffffffffffffffffffff1681565b60008060008573ffffffffffffffffffffffffffffffffffffffff1673ffffffffffffffffffffffffffffffffffffffff16815260200190815260200160002090508373ffffffffffffffffffffffffffffffffffffffff168160000160009054906101000a900473ffffffffffffffffffffffffffffffffffffffff1673ffffffffffffffffffffffffffffffffffffffff16146105ee576040517f08c379a00000000000000000000000000000000000000000000000000000000081526004016105e590610a8c565b60405180910390fd5b811561063257600081600101546064856106089190610adb565b6106129190610b64565b82600201546106219190610b95565b905080826002018190555050610685565b600081600101546064856106469190610adb565b6106509190610b64565b826002015461065f9190610bc9565b905060648111156106795760648260020181905550610683565b8082600201819055505b505b50505050565b6001818154811061069b57600080fd5b906000526020600020016000915054906101000a900473ffffffffffffffffffffffffffffffffffffffff1681565b600080fd5b600073ffffffffffffffffffffffffffffffffffffffff82169050919050565b60006106fa826106cf565b9050919050565b61070a816106ef565b811461071557600080fd5b50565b60008135905061072781610701565b92915050565b600060208284031215610743576107426106ca565b5b600061075184828501610718565b91505092915050565b610763816106ef565b82525050565b6000819050919050565b61077c81610769565b82525050565b60008115159050919050565b61079781610782565b82525050565b60006080820190506107b2600083018761075a565b6107bf6020830186610773565b6107cc6040830185610773565b6107d9606083018461078e565b95945050505050565b60006020820190506107f76000830184610773565b92915050565b61080681610769565b811461081157600080fd5b50565b600081359050610823816107fd565b92915050565b61083281610782565b811461083d57600080fd5b50565b60008135905061084f81610829565b92915050565b6000806000806080858703121561086f5761086e6106ca565b5b600061087d87828801610718565b945050602061088e87828801610814565b935050604061089f87828801610814565b92505060606108b087828801610840565b91505092959194509250565b60006020820190506108d1600083018461075a565b92915050565b6000806000606084860312156108f0576108ef6106ca565b5b60006108fe86828701610718565b935050602061090f86828701610814565b925050604061092086828701610840565b9150509250925092565b6000602082840312156109405761093f6106ca565b5b600061094e84828501610814565b91505092915050565b600082825260208201905092915050565b7f4261747465727920646f6573206e6f7420657869737400000000000000000000600082015250565b600061099e601683610957565b91506109a982610968565b602082019050919050565b600060208201905081810360008301526109cd81610991565b9050919050565b7f4261747465727920616c72656164792072656769737465726564000000000000600082015250565b6000610a0a601a83610957565b9150610a15826109d4565b602082019050919050565b60006020820190508181036000830152610a39816109fd565b9050919050565b7f42617474657279206e6f7420666f756e64000000000000000000000000000000600082015250565b6000610a76601183610957565b9150610a8182610a40565b602082019050919050565b60006020820190508181036000830152610aa581610a69565b9050919050565b7f4e487b7100000000000000000000000000000000000000000000000000000000600052601160045260246000fd5b6000610ae682610769565b9150610af183610769565b9250817fffffffffffffffffffffffffffffffffffffffffffffffffffffffffffffffff0483118215151615610b2a57610b29610aac565b5b828202905092915050565b7f4e487b7100000000000000000000000000000000000000000000000000000000600052601260045260246000fd5b6000610b6f82610769565b9150610b7a83610769565b925082610b8a57610b89610b35565b5b828204905092915050565b6000610ba082610769565b9150610bab83610769565b925082821015610bbe57610bbd610aac565b5b828203905092915050565b6000610bd482610769565b9150610bdf83610769565b9250827fffffffffffffffffffffffffffffffffffffffffffffffffffffffffffffffff03821115610c1457610c13610aac565b5b82820190509291505056fea26469706673582212201bc7b136ed054fa936acdd299dc13b4d299e16ce4993adae55cb47202f834f8e64736f6c63430008090033",
  "linkReferences": {},
  "deployedLinkReferences": {}
}