{
  "_format": "hh-sol-artifact-1",
  "contractName": "Aggregator",
  "sourceName": "contracts/Aggregator.sol",
  "abi": [
    {
      "inputs": [
        {
          "internalType": "uint256",
          "name": "_commissionRate",
          "type": "uint256"
        }
      ],
      "stateMutability": "nonpayable",
      "type": "constructor"
    },
    {
      "inputs": [
        {
          "internalType": "address",
          "name": "",
          "type": "address"
        }
      ],
      "name": "batteries",
      "outputs": [
        {
          "internalType": "address",
          "name": "owner",
          "type": "address"
        },
        {
          "internalType": "uint256",
          "name": "capacity",
          "type": "uint256"
        },
        {
          "internalType": "uint256",
          "name": "SoC",
          "type": "uint256"
        },
        {
          "internalType": "bool",
          "name": "isRegistered",
          "type": "bool"
        }
      ],
      "stateMutability": "view",
      "type": "function"
    },
    {
      "inputs": [
        {
          "internalType": "uint256",
          "name": "",
          "type": "uint256"
        }
      ],
      "name": "batteryAddresses",
      "outputs": [
        {
          "internalType": "address",
          "name": "",
          "type": "address"
        }
      ],
      "stateMutability": "view",
      "type": "function"
    },
    {
      "inputs": [],
      "name": "commissionRate",
      "outputs": [
        {
          "internalType": "uint256",
          "name": "",
          "type": "uint256"
        }
      ],
      "stateMutability": "view",
      "type": "function"
    },
    {
      "inputs": [
        {
          "internalType": "address",
          "name": "_batteryOwner",
          "type": "address"
        }
      ],
      "name": "getBatteryCapacity",
      "outputs": [
        {
          "internalType": "uint256",
          "name": "",
          "type": "uint256"
        }
      ],
      "stateMutability": "view",
      "type": "function"
    },
    {
      "inputs": [
        {
          "internalType": "address",
          "name": "_batteryOwner",
          "type": "address"
        }
      ],
      "name": "getBatterySoC",
      "outputs": [
        {
          "internalType": "uint256",
          "name": "",
          "type": "uint256"
        }
      ],
      "stateMutability": "view",
      "type": "function"
    },
    {
      "inputs": [
        {
          "internalType": "address",
          "name": "_owner",
          "type": "address"
        },
        {
          "internalType": "uint256",
          "name": "_capacity",
          "type": "uint256"
        },
        {
          "internalType": "uint256",
          "name": "_SoC",
          "type": "uint256"
        }
      ],
      "name": "registerBattery",
      "outputs": [],
      "stateMutability": "nonpayable",
      "type": "function"
    },
    {
      "inputs": [
        {
          "internalType": "address",
          "name": "_owner",
          "type": "address"
        },
        {
          "internalType": "uint256",
          "name": "_amountSold",
          "type": "uint256"
        },
        {
          "internalType": "bool",
          "name": "_isPositiveReserve",
          "type": "bool"
        }
      ],
      "name": "updateBatterySoCAfterSale",
      "outputs": [],
      "stateMutability": "nonpayable",
      "type": "function"
    }
  ],
  "bytecode": "0x608060405234801561001057600080fd5b5060405162001122380380620011228339818101604052810190610034919061007c565b80600281905550506100a9565b600080fd5b6000819050919050565b61005981610046565b811461006457600080fd5b50565b60008151905061007681610050565b92915050565b60006020828403121561009257610091610041565b5b60006100a084828501610067565b91505092915050565b61106980620000b96000396000f3fe608060405234801561001057600080fd5b506004361061007d5760003560e01c80637edaff941161005b5780637edaff94146101035780639e9b522c14610133578063b223209f1461014f578063b8e14d031461016b5761007d565b80631bb31c30146100825780633e395962146100b55780635ea1d6f8146100e5575b600080fd5b61009c60048036038101906100979190610a4b565b61019b565b6040516100ac9493929190610abb565b60405180910390f35b6100cf60048036038101906100ca9190610a4b565b6101f8565b6040516100dc9190610b00565b60405180910390f35b6100ed610313565b6040516100fa9190610b00565b60405180910390f35b61011d60048036038101906101189190610a4b565b610319565b60405161012a9190610b00565b60405180910390f35b61014d60048036038101906101489190610b73565b610434565b005b61016960048036038101906101649190610bc6565b6105a5565b005b61018560048036038101906101809190610c19565b6108b7565b6040516101929190610c46565b60405180910390f35b60006020528060005260406000206000915090508060000160009054906101000a900473ffffffffffffffffffffffffffffffffffffffff16908060010154908060020154908060030160009054906101000a900460ff16905084565b60008073ffffffffffffffffffffffffffffffffffffffff166000808473ffffffffffffffffffffffffffffffffffffffff1673ffffffffffffffffffffffffffffffffffffffff16815260200190815260200160002060000160009054906101000a900473ffffffffffffffffffffffffffffffffffffffff1673ffffffffffffffffffffffffffffffffffffffff1614156102ca576040517f08c379a00000000000000000000000000000000000000000000000000000000081526004016102c190610cbe565b60405180910390fd5b6000808373ffffffffffffffffffffffffffffffffffffffff1673ffffffffffffffffffffffffffffffffffffffff168152602001908152602001600020600101549050919050565b60025481565b60008073ffffffffffffffffffffffffffffffffffffffff166000808473ffffffffffffffffffffffffffffffffffffffff1673ffffffffffffffffffffffffffffffffffffffff16815260200190815260200160002060000160009054906101000a900473ffffffffffffffffffffffffffffffffffffffff1673ffffffffffffffffffffffffffffffffffffffff1614156103eb576040517f08c379a00000000000000000000000000000000000000000000000000000000081526004016103e290610cbe565b60405180910390fd5b6000808373ffffffffffffffffffffffffffffffffffffffff1673ffffffffffffffffffffffffffffffffffffffff168152602001908152602001600020600201549050919050565b60008060008573ffffffffffffffffffffffffffffffffffffffff1673ffffffffffffffffffffffffffffffffffffffff16815260200190815260200160002090508373ffffffffffffffffffffffffffffffffffffffff168160000160009054906101000a900473ffffffffffffffffffffffffffffffffffffffff1673ffffffffffffffffffffffffffffffffffffffff1614610508576040517f08c379a00000000000000000000000000000000000000000000000000000000081526004016104ff90610d2a565b60405180910390fd5b811561054c57600081600101546064856105229190610d79565b61052c9190610e02565b826002015461053b9190610e33565b90508082600201819055505061059f565b600081600101546064856105609190610d79565b61056a9190610e02565b82600201546105799190610e67565b90506064811115610593576064826002018190555061059d565b8082600201819055505b505b50505050565b6000808473ffffffffffffffffffffffffffffffffffffffff1673ffffffffffffffffffffffffffffffffffffffff16815260200190815260200160002060030160009054906101000a900460ff1615610634576040517f08c379a000000000000000000000000000000000000000000000000000000000815260040161062b90610f09565b60405180910390fd5b60405180608001604052808473ffffffffffffffffffffffffffffffffffffffff168152602001838152602001828152602001600115158152506000808573ffffffffffffffffffffffffffffffffffffffff1673ffffffffffffffffffffffffffffffffffffffff16815260200190815260200160002060008201518160000160006101000a81548173ffffffffffffffffffffffffffffffffffffffff021916908373ffffffffffffffffffffffffffffffffffffffff160217905550602082015181600101556040820151816002015560608201518160030160006101000a81548160ff0219169083151502179055509050506001839080600181540180825580915050600190039060005260206000200160009091909190916101000a81548173ffffffffffffffffffffffffffffffffffffffff021916908373ffffffffffffffffffffffffffffffffffffffff1602179055506108b26040518060400160405280600e81526020017f42617474657279206f776e65723a0000000000000000000000000000000000008152506000808673ffffffffffffffffffffffffffffffffffffffff1673ffffffffffffffffffffffffffffffffffffffff16815260200190815260200160002060000160009054906101000a900473ffffffffffffffffffffffffffffffffffffffff166040518060400160405280600a81526020017f72656769737465726564000000000000000000000000000000000000000000008152506000808873ffffffffffffffffffffffffffffffffffffffff1673ffffffffffffffffffffffffffffffffffffffff16815260200190815260200160002060030160009054906101000a900460ff166108f6565b505050565b600181815481106108c757600080fd5b906000526020600020016000915054906101000a900473ffffffffffffffffffffffffffffffffffffffff1681565b610992848484846040516024016109109493929190610fb1565b6040516020818303038152906040527f5f15d28c000000000000000000000000000000000000000000000000000000007bffffffffffffffffffffffffffffffffffffffffffffffffffffffff19166020820180517bffffffffffffffffffffffffffffffffffffffffffffffffffffffff8381831617835250505050610998565b50505050565b6109af816109a76109b26109d3565b63ffffffff16565b50565b60006a636f6e736f6c652e6c6f679050600080835160208501845afa505050565b6109de819050919050565b6109e6611004565b565b600080fd5b600073ffffffffffffffffffffffffffffffffffffffff82169050919050565b6000610a18826109ed565b9050919050565b610a2881610a0d565b8114610a3357600080fd5b50565b600081359050610a4581610a1f565b92915050565b600060208284031215610a6157610a606109e8565b5b6000610a6f84828501610a36565b91505092915050565b610a8181610a0d565b82525050565b6000819050919050565b610a9a81610a87565b82525050565b60008115159050919050565b610ab581610aa0565b82525050565b6000608082019050610ad06000830187610a78565b610add6020830186610a91565b610aea6040830185610a91565b610af76060830184610aac565b95945050505050565b6000602082019050610b156000830184610a91565b92915050565b610b2481610a87565b8114610b2f57600080fd5b50565b600081359050610b4181610b1b565b92915050565b610b5081610aa0565b8114610b5b57600080fd5b50565b600081359050610b6d81610b47565b92915050565b600080600060608486031215610b8c57610b8b6109e8565b5b6000610b9a86828701610a36565b9350506020610bab86828701610b32565b9250506040610bbc86828701610b5e565b9150509250925092565b600080600060608486031215610bdf57610bde6109e8565b5b6000610bed86828701610a36565b9350506020610bfe86828701610b32565b9250506040610c0f86828701610b32565b9150509250925092565b600060208284031215610c2f57610c2e6109e8565b5b6000610c3d84828501610b32565b91505092915050565b6000602082019050610c5b6000830184610a78565b92915050565b600082825260208201905092915050565b7f4261747465727920646f6573206e6f7420657869737400000000000000000000600082015250565b6000610ca8601683610c61565b9150610cb382610c72565b602082019050919050565b60006020820190508181036000830152610cd781610c9b565b9050919050565b7f42617474657279206e6f7420666f756e64000000000000000000000000000000600082015250565b6000610d14601183610c61565b9150610d1f82610cde565b602082019050919050565b60006020820190508181036000830152610d4381610d07565b9050919050565b7f4e487b7100000000000000000000000000000000000000000000000000000000600052601160045260246000fd5b6000610d8482610a87565b9150610d8f83610a87565b9250817fffffffffffffffffffffffffffffffffffffffffffffffffffffffffffffffff0483118215151615610dc857610dc7610d4a565b5b828202905092915050565b7f4e487b7100000000000000000000000000000000000000000000000000000000600052601260045260246000fd5b6000610e0d82610a87565b9150610e1883610a87565b925082610e2857610e27610dd3565b5b828204905092915050565b6000610e3e82610a87565b9150610e4983610a87565b925082821015610e5c57610e5b610d4a565b5b828203905092915050565b6000610e7282610a87565b9150610e7d83610a87565b9250827fffffffffffffffffffffffffffffffffffffffffffffffffffffffffffffffff03821115610eb257610eb1610d4a565b5b828201905092915050565b7f4261747465727920616c72656164792072656769737465726564000000000000600082015250565b6000610ef3601a83610c61565b9150610efe82610ebd565b602082019050919050565b60006020820190508181036000830152610f2281610ee6565b9050919050565b600081519050919050565b60005b83811015610f52578082015181840152602081019050610f37565b83811115610f61576000848401525b50505050565b6000601f19601f8301169050919050565b6000610f8382610f29565b610f8d8185610c61565b9350610f9d818560208601610f34565b610fa681610f67565b840191505092915050565b60006080820190508181036000830152610fcb8187610f78565b9050610fda6020830186610a78565b8181036040830152610fec8185610f78565b9050610ffb6060830184610aac565b95945050505050565b7f4e487b7100000000000000000000000000000000000000000000000000000000600052605160045260246000fdfea264697066735822122095daa106c5f9d1990cc65a44378c2fa8b34a2da73c7631c815af9e7f2f7d3c2564736f6c63430008090033",
  "linkReferences": {},
  "deployedLinkReferences": {}
}