{
  "_format": "hh-sol-artifact-1",
  "contractName": "Market",
  "sourceName": "contracts/Market.sol",
  "abi": [
    {
      "inputs": [
        {
          "internalType": "address",
          "name": "_marketAdmin",
          "type": "address"
        }
      ],
      "stateMutability": "nonpayable",
      "type": "constructor"
    },
    {
      "anonymous": false,
      "inputs": [
        {
          "indexed": false,
          "internalType": "uint256",
          "name": "bidId",
          "type": "uint256"
        },
        {
          "indexed": true,
          "internalType": "address",
          "name": "buyer",
          "type": "address"
        }
      ],
      "name": "BidAccepted",
      "type": "event"
    },
    {
      "anonymous": false,
      "inputs": [
        {
          "indexed": true,
          "internalType": "address",
          "name": "bidder",
          "type": "address"
        },
        {
          "indexed": false,
          "internalType": "address",
          "name": "batteryOwner",
          "type": "address"
        },
        {
          "indexed": false,
          "internalType": "uint256",
          "name": "amount",
          "type": "uint256"
        },
        {
          "indexed": false,
          "internalType": "uint256",
          "name": "price",
          "type": "uint256"
        }
      ],
      "name": "BidPlaced",
      "type": "event"
    },
    {
      "anonymous": false,
      "inputs": [
        {
          "indexed": true,
          "internalType": "address",
          "name": "aggregator",
          "type": "address"
        },
        {
          "indexed": false,
          "internalType": "uint256",
          "name": "amount",
          "type": "uint256"
        }
      ],
      "name": "CommissionPaid",
      "type": "event"
    },
    {
      "anonymous": false,
      "inputs": [
        {
          "indexed": false,
          "internalType": "uint256",
          "name": "openTime",
          "type": "uint256"
        },
        {
          "indexed": false,
          "internalType": "uint256",
          "name": "closeTime",
          "type": "uint256"
        },
        {
          "indexed": false,
          "internalType": "uint256",
          "name": "resultsTime",
          "type": "uint256"
        }
      ],
      "name": "MarketTimesUpdated",
      "type": "event"
    },
    {
      "anonymous": false,
      "inputs": [
        {
          "indexed": false,
          "internalType": "uint256",
          "name": "bidId",
          "type": "uint256"
        },
        {
          "indexed": true,
          "internalType": "address",
          "name": "aggregator",
          "type": "address"
        },
        {
          "indexed": true,
          "internalType": "address",
          "name": "buyer",
          "type": "address"
        },
        {
          "indexed": false,
          "internalType": "uint256",
          "name": "commission",
          "type": "uint256"
        }
      ],
      "name": "PaymentToAggregatorOwnerRecorded",
      "type": "event"
    },
    {
      "anonymous": false,
      "inputs": [
        {
          "indexed": false,
          "internalType": "uint256",
          "name": "bidId",
          "type": "uint256"
        },
        {
          "indexed": true,
          "internalType": "address",
          "name": "batteryOwner",
          "type": "address"
        },
        {
          "indexed": true,
          "internalType": "address",
          "name": "buyer",
          "type": "address"
        },
        {
          "indexed": false,
          "internalType": "uint256",
          "name": "amount",
          "type": "uint256"
        }
      ],
      "name": "PaymentToBatteryOwnerRecorded",
      "type": "event"
    },
    {
      "anonymous": false,
      "inputs": [
        {
          "indexed": true,
          "internalType": "address",
          "name": "buyer",
          "type": "address"
        },
        {
          "indexed": true,
          "internalType": "address",
          "name": "seller",
          "type": "address"
        },
        {
          "indexed": false,
          "internalType": "uint256",
          "name": "bidId",
          "type": "uint256"
        }
      ],
      "name": "PurchaseConfirmed",
      "type": "event"
    },
    {
      "inputs": [
        {
          "internalType": "uint256",
          "name": "_bidId",
          "type": "uint256"
        }
      ],
      "name": "acceptBid",
      "outputs": [],
      "stateMutability": "nonpayable",
      "type": "function"
    },
    {
      "inputs": [
        {
          "internalType": "address",
          "name": "",
          "type": "address"
        }
      ],
      "name": "aggregators",
      "outputs": [
        {
          "internalType": "address",
          "name": "",
          "type": "address"
        }
      ],
      "stateMutability": "view",
      "type": "function"
    },
    {
      "inputs": [],
      "name": "bidCount",
      "outputs": [
        {
          "internalType": "uint256",
          "name": "",
          "type": "uint256"
        }
      ],
      "stateMutability": "view",
      "type": "function"
    },
    {
      "inputs": [
        {
          "internalType": "uint256",
          "name": "",
          "type": "uint256"
        }
      ],
      "name": "bids",
      "outputs": [
        {
          "internalType": "address",
          "name": "bidder",
          "type": "address"
        },
        {
          "internalType": "address",
          "name": "batteryOwner",
          "type": "address"
        },
        {
          "internalType": "uint256",
          "name": "amount",
          "type": "uint256"
        },
        {
          "internalType": "uint256",
          "name": "price",
          "type": "uint256"
        },
        {
          "internalType": "bool",
          "name": "isSelected",
          "type": "bool"
        },
        {
          "internalType": "address",
          "name": "acceptedBy",
          "type": "address"
        }
      ],
      "stateMutability": "view",
      "type": "function"
    },
    {
      "inputs": [],
      "name": "marketAdmin",
      "outputs": [
        {
          "internalType": "address",
          "name": "",
          "type": "address"
        }
      ],
      "stateMutability": "view",
      "type": "function"
    },
    {
      "inputs": [],
      "name": "marketCloseTime",
      "outputs": [
        {
          "internalType": "uint256",
          "name": "",
          "type": "uint256"
        }
      ],
      "stateMutability": "view",
      "type": "function"
    },
    {
      "inputs": [],
      "name": "marketOpenTime",
      "outputs": [
        {
          "internalType": "uint256",
          "name": "",
          "type": "uint256"
        }
      ],
      "stateMutability": "view",
      "type": "function"
    },
    {
      "inputs": [
        {
          "internalType": "address",
          "name": "_bidder",
          "type": "address"
        },
        {
          "internalType": "address",
          "name": "_batteryOwner",
          "type": "address"
        },
        {
          "internalType": "uint256",
          "name": "_amount",
          "type": "uint256"
        },
        {
          "internalType": "uint256",
          "name": "_price",
          "type": "uint256"
        }
      ],
      "name": "placeBid",
      "outputs": [],
      "stateMutability": "nonpayable",
      "type": "function"
    },
    {
      "inputs": [
        {
          "internalType": "uint256",
          "name": "_bidId",
          "type": "uint256"
        }
      ],
      "name": "purchaseEnergy",
      "outputs": [],
      "stateMutability": "payable",
      "type": "function"
    },
    {
      "inputs": [],
      "name": "resultsAnnouncementTime",
      "outputs": [
        {
          "internalType": "uint256",
          "name": "",
          "type": "uint256"
        }
      ],
      "stateMutability": "view",
      "type": "function"
    },
    {
      "inputs": [
        {
          "internalType": "address",
          "name": "_owner",
          "type": "address"
        },
        {
          "internalType": "address",
          "name": "_aggregator",
          "type": "address"
        }
      ],
      "name": "setAggregator",
      "outputs": [],
      "stateMutability": "nonpayable",
      "type": "function"
    },
    {
      "inputs": [
        {
          "internalType": "uint256",
          "name": "_openTime",
          "type": "uint256"
        },
        {
          "internalType": "uint256",
          "name": "_closeTime",
          "type": "uint256"
        },
        {
          "internalType": "uint256",
          "name": "_resultsTime",
          "type": "uint256"
        }
      ],
      "name": "setMarketTimes",
      "outputs": [],
      "stateMutability": "nonpayable",
      "type": "function"
    }
  ],
  "bytecode": "0x60806040523480156200001157600080fd5b5060405162001e5438038062001e548339818101604052810190620000379190620000e9565b80600360006101000a81548173ffffffffffffffffffffffffffffffffffffffff021916908373ffffffffffffffffffffffffffffffffffffffff160217905550506200011b565b600080fd5b600073ffffffffffffffffffffffffffffffffffffffff82169050919050565b6000620000b18262000084565b9050919050565b620000c381620000a4565b8114620000cf57600080fd5b50565b600081519050620000e381620000b8565b92915050565b6000602082840312156200010257620001016200007f565b5b60006200011284828501620000d2565b91505092915050565b611d29806200012b6000396000f3fe6080604052600436106100a75760003560e01c80637394a7f6116100645780637394a7f6146101c65780639b2bd8f2146101ef578063ab0c7d5614610218578063b40a562714610241578063c75224f31461026c578063e2288eda14610297576100a7565b80630592bdc8146100ac578063112cdab9146100d75780632b1fd58a146101145780634423c5f11461013d57806347c62c5b1461017f5780636afe2520146101aa575b600080fd5b3480156100b857600080fd5b506100c16102c2565b6040516100ce9190611248565b60405180910390f35b3480156100e357600080fd5b506100fe60048036038101906100f99190611294565b6102e8565b60405161010b9190611248565b60405180910390f35b34801561012057600080fd5b5061013b600480360381019061013691906112f7565b61031b565b005b34801561014957600080fd5b50610164600480360381019061015f91906112f7565b61054b565b6040516101769695949392919061134e565b60405180910390f35b34801561018b57600080fd5b506101946105f4565b6040516101a191906113af565b60405180910390f35b6101c460048036038101906101bf91906112f7565b6105fa565b005b3480156101d257600080fd5b506101ed60048036038101906101e891906113ca565b610ba3565b005b3480156101fb57600080fd5b506102166004803603810190610211919061140a565b610c25565b005b34801561022457600080fd5b5061023f600480360381019061023a919061145d565b610d0a565b005b34801561024d57600080fd5b506102566111f5565b60405161026391906113af565b60405180910390f35b34801561027857600080fd5b506102816111fb565b60405161028e91906113af565b60405180910390f35b3480156102a357600080fd5b506102ac611201565b6040516102b991906113af565b60405180910390f35b600360009054906101000a900473ffffffffffffffffffffffffffffffffffffffff1681565b60066020528060005260406000206000915054906101000a900473ffffffffffffffffffffffffffffffffffffffff1681565b6001544211801561032d575060025442105b61036c576040517f08c379a000000000000000000000000000000000000000000000000000000000815260040161036390611521565b60405180910390fd5b600073ffffffffffffffffffffffffffffffffffffffff166004600083815260200190815260200160002060000160009054906101000a900473ffffffffffffffffffffffffffffffffffffffff1673ffffffffffffffffffffffffffffffffffffffff161415610412576040517f08c379a00000000000000000000000000000000000000000000000000000000081526004016104099061158d565b60405180910390fd5b6004600082815260200190815260200160002060040160009054906101000a900460ff1615610476576040517f08c379a000000000000000000000000000000000000000000000000000000000815260040161046d906115f9565b60405180910390fd5b60016004600083815260200190815260200160002060040160006101000a81548160ff021916908315150217905550336004600083815260200190815260200160002060040160016101000a81548173ffffffffffffffffffffffffffffffffffffffff021916908373ffffffffffffffffffffffffffffffffffffffff1602179055503373ffffffffffffffffffffffffffffffffffffffff167f0b7e3c2d0983fdcbfa4fcb08da6f6d862e83ce066e7bbc783163da9753a829aa8260405161054091906113af565b60405180910390a250565b60046020528060005260406000206000915090508060000160009054906101000a900473ffffffffffffffffffffffffffffffffffffffff16908060010160009054906101000a900473ffffffffffffffffffffffffffffffffffffffff16908060020154908060030154908060040160009054906101000a900460ff16908060040160019054906101000a900473ffffffffffffffffffffffffffffffffffffffff16905086565b60005481565b60025442101561063f576040517f08c379a00000000000000000000000000000000000000000000000000000000081526004016106369061168b565b60405180910390fd5b6004600082815260200190815260200160002060040160009054906101000a900460ff166106a2576040517f08c379a0000000000000000000000000000000000000000000000000000000008152600401610699906116f7565b60405180910390fd5b3373ffffffffffffffffffffffffffffffffffffffff166004600083815260200190815260200160002060040160019054906101000a900473ffffffffffffffffffffffffffffffffffffffff1673ffffffffffffffffffffffffffffffffffffffff1614610746576040517f08c379a000000000000000000000000000000000000000000000000000000000815260040161073d90611763565b60405180910390fd5b6004600082815260200190815260200160002060030154600460008381526020019081526020016000206002015461077e91906117b2565b34146107bf576040517f08c379a00000000000000000000000000000000000000000000000000000000081526004016107b690611858565b60405180910390fd5b60006004600083815260200190815260200160002060000160009054906101000a900473ffffffffffffffffffffffffffffffffffffffff16905060006004600084815260200190815260200160002060010160009054906101000a900473ffffffffffffffffffffffffffffffffffffffff1690506000600660006004600087815260200190815260200160002060010160009054906101000a900473ffffffffffffffffffffffffffffffffffffffff1673ffffffffffffffffffffffffffffffffffffffff1673ffffffffffffffffffffffffffffffffffffffff16815260200190815260200160002060009054906101000a900473ffffffffffffffffffffffffffffffffffffffff1690506000819050600060648273ffffffffffffffffffffffffffffffffffffffff16635ea1d6f86040518163ffffffff1660e01b815260040160206040518083038186803b15801561091e57600080fd5b505afa158015610932573d6000803e3d6000fd5b505050506040513d601f19601f82011682018060405250810190610956919061188d565b3461096191906117b2565b61096b91906118e9565b90508473ffffffffffffffffffffffffffffffffffffffff166108fc829081150290604051600060405180830381858888f193505050501580156109b3573d6000803e3d6000fd5b503373ffffffffffffffffffffffffffffffffffffffff168573ffffffffffffffffffffffffffffffffffffffff167f17a6f69780376fc830f20fe60c186fcf75a9e1714c57094f9b6750c2f195ccc18884604051610a1392919061191a565b60405180910390a38373ffffffffffffffffffffffffffffffffffffffff166108fc8234610a419190611943565b9081150290604051600060405180830381858888f19350505050158015610a6c573d6000803e3d6000fd5b503373ffffffffffffffffffffffffffffffffffffffff168473ffffffffffffffffffffffffffffffffffffffff167fb16dc60c257cb4febdcbb1b9da5f92e32060389e640de3a86523898e59867369888434610ac99190611943565b604051610ad792919061191a565b60405180910390a38173ffffffffffffffffffffffffffffffffffffffff16639e9b522c6004600089815260200190815260200160002060010160009054906101000a900473ffffffffffffffffffffffffffffffffffffffff16600460008a81526020019081526020016000206002015460016040518463ffffffff1660e01b8152600401610b6993929190611977565b600060405180830381600087803b158015610b8357600080fd5b505af1158015610b97573d6000803e3d6000fd5b50505050505050505050565b80600660008473ffffffffffffffffffffffffffffffffffffffff1673ffffffffffffffffffffffffffffffffffffffff16815260200190815260200160002060006101000a81548173ffffffffffffffffffffffffffffffffffffffff021916908373ffffffffffffffffffffffffffffffffffffffff1602179055505050565b600360009054906101000a900473ffffffffffffffffffffffffffffffffffffffff1673ffffffffffffffffffffffffffffffffffffffff163373ffffffffffffffffffffffffffffffffffffffff1614610cb5576040517f08c379a0000000000000000000000000000000000000000000000000000000008152600401610cac90611a20565b60405180910390fd5b8260008190555081600181905550806002819055507fa8a96ac60986b06f9915778f9c4bb7a98c07747b96f721aeb68fd538c3179fe0838383604051610cfd93929190611a40565b60405180910390a1505050565b6000544210158015610d1e57506001544211155b610d5d576040517f08c379a0000000000000000000000000000000000000000000000000000000008152600401610d5490611ac3565b60405180910390fd5b60008111610da0576040517f08c379a0000000000000000000000000000000000000000000000000000000008152600401610d9790611b2f565b60405180910390fd5b6000600660008573ffffffffffffffffffffffffffffffffffffffff1673ffffffffffffffffffffffffffffffffffffffff16815260200190815260200160002060009054906101000a900473ffffffffffffffffffffffffffffffffffffffff169050600073ffffffffffffffffffffffffffffffffffffffff168173ffffffffffffffffffffffffffffffffffffffff161415610e74576040517f08c379a0000000000000000000000000000000000000000000000000000000008152600401610e6b90611bc1565b60405180910390fd5b600081905060008173ffffffffffffffffffffffffffffffffffffffff16637edaff94876040518263ffffffff1660e01b8152600401610eb49190611248565b60206040518083038186803b158015610ecc57600080fd5b505afa158015610ee0573d6000803e3d6000fd5b505050506040513d601f19601f82011682018060405250810190610f04919061188d565b905060008273ffffffffffffffffffffffffffffffffffffffff16633e395962886040518263ffffffff1660e01b8152600401610f419190611248565b60206040518083038186803b158015610f5957600080fd5b505afa158015610f6d573d6000803e3d6000fd5b505050506040513d601f19601f82011682018060405250810190610f91919061188d565b90508082610f9f91906117b2565b606487610fac91906117b2565b1115610fed576040517f08c379a0000000000000000000000000000000000000000000000000000000008152600401610fe490611c53565b60405180910390fd5b6040518060c001604052808973ffffffffffffffffffffffffffffffffffffffff1681526020018873ffffffffffffffffffffffffffffffffffffffff168152602001878152602001868152602001600015158152602001600073ffffffffffffffffffffffffffffffffffffffff1681525060046000600554815260200190815260200160002060008201518160000160006101000a81548173ffffffffffffffffffffffffffffffffffffffff021916908373ffffffffffffffffffffffffffffffffffffffff16021790555060208201518160010160006101000a81548173ffffffffffffffffffffffffffffffffffffffff021916908373ffffffffffffffffffffffffffffffffffffffff160217905550604082015181600201556060820151816003015560808201518160040160006101000a81548160ff02191690831515021790555060a08201518160040160016101000a81548173ffffffffffffffffffffffffffffffffffffffff021916908373ffffffffffffffffffffffffffffffffffffffff1602179055509050508773ffffffffffffffffffffffffffffffffffffffff167fdd49bbb40d47a514dddcd458e9718364143bc24a0cca58439ee6f4f45e4ce10d8888886040516111cb93929190611c73565b60405180910390a2600560008154809291906111e690611caa565b91905055505050505050505050565b60055481565b60015481565b60025481565b600073ffffffffffffffffffffffffffffffffffffffff82169050919050565b600061123282611207565b9050919050565b61124281611227565b82525050565b600060208201905061125d6000830184611239565b92915050565b600080fd5b61127181611227565b811461127c57600080fd5b50565b60008135905061128e81611268565b92915050565b6000602082840312156112aa576112a9611263565b5b60006112b88482850161127f565b91505092915050565b6000819050919050565b6112d4816112c1565b81146112df57600080fd5b50565b6000813590506112f1816112cb565b92915050565b60006020828403121561130d5761130c611263565b5b600061131b848285016112e2565b91505092915050565b61132d816112c1565b82525050565b60008115159050919050565b61134881611333565b82525050565b600060c0820190506113636000830189611239565b6113706020830188611239565b61137d6040830187611324565b61138a6060830186611324565b611397608083018561133f565b6113a460a0830184611239565b979650505050505050565b60006020820190506113c46000830184611324565b92915050565b600080604083850312156113e1576113e0611263565b5b60006113ef8582860161127f565b92505060206114008582860161127f565b9150509250929050565b60008060006060848603121561142357611422611263565b5b6000611431868287016112e2565b9350506020611442868287016112e2565b9250506040611453868287016112e2565b9150509250925092565b6000806000806080858703121561147757611476611263565b5b60006114858782880161127f565b94505060206114968782880161127f565b93505060406114a7878288016112e2565b92505060606114b8878288016112e2565b91505092959194509250565b600082825260208201905092915050565b7f416363657074616e636520706572696f64206973206e6f74206f70656e000000600082015250565b600061150b601d836114c4565b9150611516826114d5565b602082019050919050565b6000602082019050818103600083015261153a816114fe565b9050919050565b7f42696420646f6573206e6f742065786973740000000000000000000000000000600082015250565b60006115776012836114c4565b915061158282611541565b602082019050919050565b600060208201905081810360008301526115a68161156a565b9050919050565b7f42696420616c72656164792073656c6563746564000000000000000000000000600082015250565b60006115e36014836114c4565b91506115ee826115ad565b602082019050919050565b60006020820190508181036000830152611612816115d6565b9050919050565b7f526573756c747320616e6e6f756e63656d656e7420706572696f64206973206e60008201527f6f74206f70656e00000000000000000000000000000000000000000000000000602082015250565b60006116756027836114c4565b915061168082611619565b604082019050919050565b600060208201905081810360008301526116a481611668565b9050919050565b7f426964206e6f7420616363657074656400000000000000000000000000000000600082015250565b60006116e16010836114c4565b91506116ec826116ab565b602082019050919050565b60006020820190508181036000830152611710816116d4565b9050919050565b7f4f6e6c792061636365707465642062757965722063616e207075726368617365600082015250565b600061174d6020836114c4565b915061175882611717565b602082019050919050565b6000602082019050818103600083015261177c81611740565b9050919050565b7f4e487b7100000000000000000000000000000000000000000000000000000000600052601160045260246000fd5b60006117bd826112c1565b91506117c8836112c1565b9250817fffffffffffffffffffffffffffffffffffffffffffffffffffffffffffffffff048311821515161561180157611800611783565b5b828202905092915050565b7f496e73756666696369656e742066756e64730000000000000000000000000000600082015250565b60006118426012836114c4565b915061184d8261180c565b602082019050919050565b6000602082019050818103600083015261187181611835565b9050919050565b600081519050611887816112cb565b92915050565b6000602082840312156118a3576118a2611263565b5b60006118b184828501611878565b91505092915050565b7f4e487b7100000000000000000000000000000000000000000000000000000000600052601260045260246000fd5b60006118f4826112c1565b91506118ff836112c1565b92508261190f5761190e6118ba565b5b828204905092915050565b600060408201905061192f6000830185611324565b61193c6020830184611324565b9392505050565b600061194e826112c1565b9150611959836112c1565b92508282101561196c5761196b611783565b5b828203905092915050565b600060608201905061198c6000830186611239565b6119996020830185611324565b6119a6604083018461133f565b949350505050565b7f4f6e6c7920746865204d61726b65742041646d696e2063616e20706572666f7260008201527f6d207468697320616374696f6e00000000000000000000000000000000000000602082015250565b6000611a0a602d836114c4565b9150611a15826119ae565b604082019050919050565b60006020820190508181036000830152611a39816119fd565b9050919050565b6000606082019050611a556000830186611324565b611a626020830185611324565b611a6f6040830184611324565b949350505050565b7f4d61726b6574206973206e6f74206f70656e0000000000000000000000000000600082015250565b6000611aad6012836114c4565b9150611ab882611a77565b602082019050919050565b60006020820190508181036000830152611adc81611aa0565b9050919050565b7f7072696365206d7573742062652067726561746572207468616e203000000000600082015250565b6000611b19601c836114c4565b9150611b2482611ae3565b602082019050919050565b60006020820190508181036000830152611b4881611b0c565b9050919050565b7f41676772656761746f72206e6f7420666f756e6420666f72206261747465727960008201527f206f776e65720000000000000000000000000000000000000000000000000000602082015250565b6000611bab6026836114c4565b9150611bb682611b4f565b604082019050919050565b60006020820190508181036000830152611bda81611b9e565b9050919050565b7f416d6f756e7420706c616365642065786365656473206261747465727920636160008201527f706163697479206f7220536f4300000000000000000000000000000000000000602082015250565b6000611c3d602d836114c4565b9150611c4882611be1565b604082019050919050565b60006020820190508181036000830152611c6c81611c30565b9050919050565b6000606082019050611c886000830186611239565b611c956020830185611324565b611ca26040830184611324565b949350505050565b6000611cb5826112c1565b91507fffffffffffffffffffffffffffffffffffffffffffffffffffffffffffffffff821415611ce857611ce7611783565b5b60018201905091905056fea2646970667358221220575f6f2f2d3b0c210a7cf336c5752c931c4a6516da097c01e7d7c523c5d5514164736f6c63430008090033",
  "linkReferences": {},
  "deployedLinkReferences": {}
}