{
  "_format": "hh-sol-artifact-1",
  "contractName": "Market",
  "sourceName": "contracts/Market.sol",
  "abi": [
    {
      "inputs": [
        {
          "internalType": "address",
          "name": "_marketAdmin",
          "type": "address"
        }
      ],
      "stateMutability": "nonpayable",
      "type": "constructor"
    },
    {
      "anonymous": false,
      "inputs": [
        {
          "indexed": false,
          "internalType": "uint256",
          "name": "bidId",
          "type": "uint256"
        },
        {
          "indexed": true,
          "internalType": "address",
          "name": "buyer",
          "type": "address"
        }
      ],
      "name": "BidAccepted",
      "type": "event"
    },
    {
      "anonymous": false,
      "inputs": [
        {
          "indexed": true,
          "internalType": "address",
          "name": "bidder",
          "type": "address"
        },
        {
          "indexed": false,
          "internalType": "address",
          "name": "batteryOwner",
          "type": "address"
        },
        {
          "indexed": false,
          "internalType": "uint256",
          "name": "amount",
          "type": "uint256"
        },
        {
          "indexed": false,
          "internalType": "uint256",
          "name": "price",
          "type": "uint256"
        }
      ],
      "name": "BidPlaced",
      "type": "event"
    },
    {
      "anonymous": false,
      "inputs": [
        {
          "indexed": true,
          "internalType": "address",
          "name": "aggregator",
          "type": "address"
        },
        {
          "indexed": false,
          "internalType": "uint256",
          "name": "amount",
          "type": "uint256"
        }
      ],
      "name": "CommissionPaid",
      "type": "event"
    },
    {
      "anonymous": false,
      "inputs": [
        {
          "indexed": false,
          "internalType": "uint256",
          "name": "openTime",
          "type": "uint256"
        },
        {
          "indexed": false,
          "internalType": "uint256",
          "name": "closeTime",
          "type": "uint256"
        },
        {
          "indexed": false,
          "internalType": "uint256",
          "name": "resultsTime",
          "type": "uint256"
        }
      ],
      "name": "MarketTimesUpdated",
      "type": "event"
    },
    {
      "anonymous": false,
      "inputs": [
        {
          "indexed": false,
          "internalType": "uint256",
          "name": "bidId",
          "type": "uint256"
        },
        {
          "indexed": true,
          "internalType": "address",
          "name": "aggregator",
          "type": "address"
        },
        {
          "indexed": true,
          "internalType": "address",
          "name": "buyer",
          "type": "address"
        },
        {
          "indexed": false,
          "internalType": "uint256",
          "name": "commission",
          "type": "uint256"
        }
      ],
      "name": "PaymentToAggregatorOwnerRecorded",
      "type": "event"
    },
    {
      "anonymous": false,
      "inputs": [
        {
          "indexed": false,
          "internalType": "uint256",
          "name": "bidId",
          "type": "uint256"
        },
        {
          "indexed": true,
          "internalType": "address",
          "name": "batteryOwner",
          "type": "address"
        },
        {
          "indexed": true,
          "internalType": "address",
          "name": "buyer",
          "type": "address"
        },
        {
          "indexed": false,
          "internalType": "uint256",
          "name": "amount",
          "type": "uint256"
        }
      ],
      "name": "PaymentToBatteryOwnerRecorded",
      "type": "event"
    },
    {
      "anonymous": false,
      "inputs": [
        {
          "indexed": true,
          "internalType": "address",
          "name": "buyer",
          "type": "address"
        },
        {
          "indexed": true,
          "internalType": "address",
          "name": "seller",
          "type": "address"
        },
        {
          "indexed": false,
          "internalType": "uint256",
          "name": "bidId",
          "type": "uint256"
        }
      ],
      "name": "PurchaseConfirmed",
      "type": "event"
    },
    {
      "inputs": [
        {
          "internalType": "uint256",
          "name": "_bidId",
          "type": "uint256"
        }
      ],
      "name": "acceptBid",
      "outputs": [],
      "stateMutability": "nonpayable",
      "type": "function"
    },
    {
      "inputs": [
        {
          "internalType": "address",
          "name": "",
          "type": "address"
        }
      ],
      "name": "aggregators",
      "outputs": [
        {
          "internalType": "address",
          "name": "",
          "type": "address"
        }
      ],
      "stateMutability": "view",
      "type": "function"
    },
    {
      "inputs": [],
      "name": "bidCount",
      "outputs": [
        {
          "internalType": "uint256",
          "name": "",
          "type": "uint256"
        }
      ],
      "stateMutability": "view",
      "type": "function"
    },
    {
      "inputs": [
        {
          "internalType": "uint256",
          "name": "",
          "type": "uint256"
        }
      ],
      "name": "bids",
      "outputs": [
        {
          "internalType": "address",
          "name": "bidder",
          "type": "address"
        },
        {
          "internalType": "address",
          "name": "batteryOwner",
          "type": "address"
        },
        {
          "internalType": "uint256",
          "name": "amount",
          "type": "uint256"
        },
        {
          "internalType": "uint256",
          "name": "price",
          "type": "uint256"
        },
        {
          "internalType": "bool",
          "name": "isSelected",
          "type": "bool"
        },
        {
          "internalType": "address",
          "name": "acceptedBy",
          "type": "address"
        }
      ],
      "stateMutability": "view",
      "type": "function"
    },
    {
      "inputs": [],
      "name": "marketAdmin",
      "outputs": [
        {
          "internalType": "address",
          "name": "",
          "type": "address"
        }
      ],
      "stateMutability": "view",
      "type": "function"
    },
    {
      "inputs": [],
      "name": "marketCloseTime",
      "outputs": [
        {
          "internalType": "uint256",
          "name": "",
          "type": "uint256"
        }
      ],
      "stateMutability": "view",
      "type": "function"
    },
    {
      "inputs": [],
      "name": "marketOpenTime",
      "outputs": [
        {
          "internalType": "uint256",
          "name": "",
          "type": "uint256"
        }
      ],
      "stateMutability": "view",
      "type": "function"
    },
    {
      "inputs": [
        {
          "internalType": "address",
          "name": "_batteryOwner",
          "type": "address"
        },
        {
          "internalType": "uint256",
          "name": "_amount",
          "type": "uint256"
        },
        {
          "internalType": "uint256",
          "name": "_price",
          "type": "uint256"
        }
      ],
      "name": "placeBid",
      "outputs": [],
      "stateMutability": "nonpayable",
      "type": "function"
    },
    {
      "inputs": [
        {
          "internalType": "uint256",
          "name": "_bidId",
          "type": "uint256"
        }
      ],
      "name": "purchaseEnergy",
      "outputs": [],
      "stateMutability": "payable",
      "type": "function"
    },
    {
      "inputs": [],
      "name": "resultsAnnouncementTime",
      "outputs": [
        {
          "internalType": "uint256",
          "name": "",
          "type": "uint256"
        }
      ],
      "stateMutability": "view",
      "type": "function"
    },
    {
      "inputs": [
        {
          "internalType": "address",
          "name": "_owner",
          "type": "address"
        },
        {
          "internalType": "address",
          "name": "_aggregator",
          "type": "address"
        }
      ],
      "name": "setAggregator",
      "outputs": [],
      "stateMutability": "nonpayable",
      "type": "function"
    },
    {
      "inputs": [
        {
          "internalType": "uint256",
          "name": "_openTime",
          "type": "uint256"
        },
        {
          "internalType": "uint256",
          "name": "_closeTime",
          "type": "uint256"
        },
        {
          "internalType": "uint256",
          "name": "_resultsTime",
          "type": "uint256"
        }
      ],
      "name": "setMarketTimes",
      "outputs": [],
      "stateMutability": "nonpayable",
      "type": "function"
    }
  ],
  "bytecode": "0x60806040523480156200001157600080fd5b5060405162001cab38038062001cab8339818101604052810190620000379190620000e9565b80600360006101000a81548173ffffffffffffffffffffffffffffffffffffffff021916908373ffffffffffffffffffffffffffffffffffffffff160217905550506200011b565b600080fd5b600073ffffffffffffffffffffffffffffffffffffffff82169050919050565b6000620000b18262000084565b9050919050565b620000c381620000a4565b8114620000cf57600080fd5b50565b600081519050620000e381620000b8565b92915050565b6000602082840312156200010257620001016200007f565b5b60006200011284828501620000d2565b91505092915050565b611b80806200012b6000396000f3fe6080604052600436106100a75760003560e01c80636afe2520116100645780636afe2520146101d35780637394a7f6146101ef5780639b2bd8f214610218578063b40a562714610241578063c75224f31461026c578063e2288eda14610297576100a7565b806304717aca146100ac5780630592bdc8146100d5578063112cdab9146101005780632b1fd58a1461013d5780634423c5f11461016657806347c62c5b146101a8575b600080fd5b3480156100b857600080fd5b506100d360048036038101906100ce91906111e3565b6102c2565b005b3480156100e157600080fd5b506100ea6107ac565b6040516100f79190611245565b60405180910390f35b34801561010c57600080fd5b5061012760048036038101906101229190611260565b6107d2565b6040516101349190611245565b60405180910390f35b34801561014957600080fd5b50610164600480360381019061015f919061128d565b610805565b005b34801561017257600080fd5b5061018d6004803603810190610188919061128d565b610a35565b60405161019f969594939291906112e4565b60405180910390f35b3480156101b457600080fd5b506101bd610ade565b6040516101ca9190611345565b60405180910390f35b6101ed60048036038101906101e8919061128d565b610ae4565b005b3480156101fb57600080fd5b5061021660048036038101906102119190611360565b610fd1565b005b34801561022457600080fd5b5061023f600480360381019061023a91906113a0565b611053565b005b34801561024d57600080fd5b50610256611138565b6040516102639190611345565b60405180910390f35b34801561027857600080fd5b5061028161113e565b60405161028e9190611345565b60405180910390f35b3480156102a357600080fd5b506102ac611144565b6040516102b99190611345565b60405180910390f35b60005442101580156102d657506001544211155b610315576040517f08c379a000000000000000000000000000000000000000000000000000000000815260040161030c90611450565b60405180910390fd5b60008111610358576040517f08c379a000000000000000000000000000000000000000000000000000000000815260040161034f906114bc565b60405180910390fd5b6000600660008573ffffffffffffffffffffffffffffffffffffffff1673ffffffffffffffffffffffffffffffffffffffff16815260200190815260200160002060009054906101000a900473ffffffffffffffffffffffffffffffffffffffff169050600073ffffffffffffffffffffffffffffffffffffffff168173ffffffffffffffffffffffffffffffffffffffff16141561042c576040517f08c379a00000000000000000000000000000000000000000000000000000000081526004016104239061154e565b60405180910390fd5b600081905060008173ffffffffffffffffffffffffffffffffffffffff16637edaff94876040518263ffffffff1660e01b815260040161046c9190611245565b60206040518083038186803b15801561048457600080fd5b505afa158015610498573d6000803e3d6000fd5b505050506040513d601f19601f820116820180604052508101906104bc9190611583565b905060008273ffffffffffffffffffffffffffffffffffffffff16633e395962886040518263ffffffff1660e01b81526004016104f99190611245565b60206040518083038186803b15801561051157600080fd5b505afa158015610525573d6000803e3d6000fd5b505050506040513d601f19601f820116820180604052508101906105499190611583565b9050808261055791906115df565b60648761056491906115df565b11156105a5576040517f08c379a000000000000000000000000000000000000000000000000000000000815260040161059c906116ab565b60405180910390fd5b6040518060c001604052803373ffffffffffffffffffffffffffffffffffffffff1681526020018873ffffffffffffffffffffffffffffffffffffffff168152602001878152602001868152602001600015158152602001600073ffffffffffffffffffffffffffffffffffffffff1681525060046000600554815260200190815260200160002060008201518160000160006101000a81548173ffffffffffffffffffffffffffffffffffffffff021916908373ffffffffffffffffffffffffffffffffffffffff16021790555060208201518160010160006101000a81548173ffffffffffffffffffffffffffffffffffffffff021916908373ffffffffffffffffffffffffffffffffffffffff160217905550604082015181600201556060820151816003015560808201518160040160006101000a81548160ff02191690831515021790555060a08201518160040160016101000a81548173ffffffffffffffffffffffffffffffffffffffff021916908373ffffffffffffffffffffffffffffffffffffffff1602179055509050503373ffffffffffffffffffffffffffffffffffffffff167fdd49bbb40d47a514dddcd458e9718364143bc24a0cca58439ee6f4f45e4ce10d888888604051610783939291906116cb565b60405180910390a26005600081548092919061079e90611702565b919050555050505050505050565b600360009054906101000a900473ffffffffffffffffffffffffffffffffffffffff1681565b60066020528060005260406000206000915054906101000a900473ffffffffffffffffffffffffffffffffffffffff1681565b60015442118015610817575060025442105b610856576040517f08c379a000000000000000000000000000000000000000000000000000000000815260040161084d90611797565b60405180910390fd5b600073ffffffffffffffffffffffffffffffffffffffff166004600083815260200190815260200160002060000160009054906101000a900473ffffffffffffffffffffffffffffffffffffffff1673ffffffffffffffffffffffffffffffffffffffff1614156108fc576040517f08c379a00000000000000000000000000000000000000000000000000000000081526004016108f390611803565b60405180910390fd5b6004600082815260200190815260200160002060040160009054906101000a900460ff1615610960576040517f08c379a00000000000000000000000000000000000000000000000000000000081526004016109579061186f565b60405180910390fd5b60016004600083815260200190815260200160002060040160006101000a81548160ff021916908315150217905550336004600083815260200190815260200160002060040160016101000a81548173ffffffffffffffffffffffffffffffffffffffff021916908373ffffffffffffffffffffffffffffffffffffffff1602179055503373ffffffffffffffffffffffffffffffffffffffff167f0b7e3c2d0983fdcbfa4fcb08da6f6d862e83ce066e7bbc783163da9753a829aa82604051610a2a9190611345565b60405180910390a250565b60046020528060005260406000206000915090508060000160009054906101000a900473ffffffffffffffffffffffffffffffffffffffff16908060010160009054906101000a900473ffffffffffffffffffffffffffffffffffffffff16908060020154908060030154908060040160009054906101000a900460ff16908060040160019054906101000a900473ffffffffffffffffffffffffffffffffffffffff16905086565b60005481565b600254421015610b29576040517f08c379a0000000000000000000000000000000000000000000000000000000008152600401610b2090611901565b60405180910390fd5b60046000828152602001908152602001600020600301543414610b81576040517f08c379a0000000000000000000000000000000000000000000000000000000008152600401610b789061196d565b60405180910390fd5b60006004600083815260200190815260200160002060000160009054906101000a900473ffffffffffffffffffffffffffffffffffffffff16905060006004600084815260200190815260200160002060010160009054906101000a900473ffffffffffffffffffffffffffffffffffffffff1690506000600660006004600087815260200190815260200160002060010160009054906101000a900473ffffffffffffffffffffffffffffffffffffffff1673ffffffffffffffffffffffffffffffffffffffff1673ffffffffffffffffffffffffffffffffffffffff16815260200190815260200160002060009054906101000a900473ffffffffffffffffffffffffffffffffffffffff1690506000819050600060648273ffffffffffffffffffffffffffffffffffffffff16635ea1d6f86040518163ffffffff1660e01b815260040160206040518083038186803b158015610ce057600080fd5b505afa158015610cf4573d6000803e3d6000fd5b505050506040513d601f19601f82011682018060405250810190610d189190611583565b34610d2391906115df565b610d2d91906119bc565b90508473ffffffffffffffffffffffffffffffffffffffff166108fc829081150290604051600060405180830381858888f19350505050158015610d75573d6000803e3d6000fd5b506004600087815260200190815260200160002060000160009054906101000a900473ffffffffffffffffffffffffffffffffffffffff1673ffffffffffffffffffffffffffffffffffffffff168573ffffffffffffffffffffffffffffffffffffffff167f17a6f69780376fc830f20fe60c186fcf75a9e1714c57094f9b6750c2f195ccc18884604051610e0b9291906119ed565b60405180910390a38373ffffffffffffffffffffffffffffffffffffffff166108fc8234610e399190611a16565b9081150290604051600060405180830381858888f19350505050158015610e64573d6000803e3d6000fd5b506004600087815260200190815260200160002060000160009054906101000a900473ffffffffffffffffffffffffffffffffffffffff1673ffffffffffffffffffffffffffffffffffffffff168473ffffffffffffffffffffffffffffffffffffffff167fb16dc60c257cb4febdcbb1b9da5f92e32060389e640de3a86523898e59867369888434610ef79190611a16565b604051610f059291906119ed565b60405180910390a38173ffffffffffffffffffffffffffffffffffffffff16639e9b522c6004600089815260200190815260200160002060010160009054906101000a900473ffffffffffffffffffffffffffffffffffffffff16600460008a81526020019081526020016000206002015460016040518463ffffffff1660e01b8152600401610f9793929190611a4a565b600060405180830381600087803b158015610fb157600080fd5b505af1158015610fc5573d6000803e3d6000fd5b50505050505050505050565b80600660008473ffffffffffffffffffffffffffffffffffffffff1673ffffffffffffffffffffffffffffffffffffffff16815260200190815260200160002060006101000a81548173ffffffffffffffffffffffffffffffffffffffff021916908373ffffffffffffffffffffffffffffffffffffffff1602179055505050565b600360009054906101000a900473ffffffffffffffffffffffffffffffffffffffff1673ffffffffffffffffffffffffffffffffffffffff163373ffffffffffffffffffffffffffffffffffffffff16146110e3576040517f08c379a00000000000000000000000000000000000000000000000000000000081526004016110da90611af3565b60405180910390fd5b8260008190555081600181905550806002819055507fa8a96ac60986b06f9915778f9c4bb7a98c07747b96f721aeb68fd538c3179fe083838360405161112b93929190611b13565b60405180910390a1505050565b60055481565b60015481565b60025481565b600080fd5b600073ffffffffffffffffffffffffffffffffffffffff82169050919050565b600061117a8261114f565b9050919050565b61118a8161116f565b811461119557600080fd5b50565b6000813590506111a781611181565b92915050565b6000819050919050565b6111c0816111ad565b81146111cb57600080fd5b50565b6000813590506111dd816111b7565b92915050565b6000806000606084860312156111fc576111fb61114a565b5b600061120a86828701611198565b935050602061121b868287016111ce565b925050604061122c868287016111ce565b9150509250925092565b61123f8161116f565b82525050565b600060208201905061125a6000830184611236565b92915050565b6000602082840312156112765761127561114a565b5b600061128484828501611198565b91505092915050565b6000602082840312156112a3576112a261114a565b5b60006112b1848285016111ce565b91505092915050565b6112c3816111ad565b82525050565b60008115159050919050565b6112de816112c9565b82525050565b600060c0820190506112f96000830189611236565b6113066020830188611236565b61131360408301876112ba565b61132060608301866112ba565b61132d60808301856112d5565b61133a60a0830184611236565b979650505050505050565b600060208201905061135a60008301846112ba565b92915050565b600080604083850312156113775761137661114a565b5b600061138585828601611198565b925050602061139685828601611198565b9150509250929050565b6000806000606084860312156113b9576113b861114a565b5b60006113c7868287016111ce565b93505060206113d8868287016111ce565b92505060406113e9868287016111ce565b9150509250925092565b600082825260208201905092915050565b7f4d61726b6574206973206e6f74206f70656e0000000000000000000000000000600082015250565b600061143a6012836113f3565b915061144582611404565b602082019050919050565b600060208201905081810360008301526114698161142d565b9050919050565b7f7072696365206d7573742062652067726561746572207468616e203000000000600082015250565b60006114a6601c836113f3565b91506114b182611470565b602082019050919050565b600060208201905081810360008301526114d581611499565b9050919050565b7f41676772656761746f72206e6f7420666f756e6420666f72206261747465727960008201527f206f776e65720000000000000000000000000000000000000000000000000000602082015250565b60006115386026836113f3565b9150611543826114dc565b604082019050919050565b600060208201905081810360008301526115678161152b565b9050919050565b60008151905061157d816111b7565b92915050565b6000602082840312156115995761159861114a565b5b60006115a78482850161156e565b91505092915050565b7f4e487b7100000000000000000000000000000000000000000000000000000000600052601160045260246000fd5b60006115ea826111ad565b91506115f5836111ad565b9250817fffffffffffffffffffffffffffffffffffffffffffffffffffffffffffffffff048311821515161561162e5761162d6115b0565b5b828202905092915050565b7f416d6f756e7420706c616365642065786365656473206261747465727920636160008201527f706163697479206f7220536f4300000000000000000000000000000000000000602082015250565b6000611695602d836113f3565b91506116a082611639565b604082019050919050565b600060208201905081810360008301526116c481611688565b9050919050565b60006060820190506116e06000830186611236565b6116ed60208301856112ba565b6116fa60408301846112ba565b949350505050565b600061170d826111ad565b91507fffffffffffffffffffffffffffffffffffffffffffffffffffffffffffffffff8214156117405761173f6115b0565b5b600182019050919050565b7f416363657074616e636520706572696f64206973206e6f74206f70656e000000600082015250565b6000611781601d836113f3565b915061178c8261174b565b602082019050919050565b600060208201905081810360008301526117b081611774565b9050919050565b7f42696420646f6573206e6f742065786973740000000000000000000000000000600082015250565b60006117ed6012836113f3565b91506117f8826117b7565b602082019050919050565b6000602082019050818103600083015261181c816117e0565b9050919050565b7f42696420616c72656164792073656c6563746564000000000000000000000000600082015250565b60006118596014836113f3565b915061186482611823565b602082019050919050565b600060208201905081810360008301526118888161184c565b9050919050565b7f526573756c747320616e6e6f756e63656d656e7420706572696f64206973206e60008201527f6f74206f70656e00000000000000000000000000000000000000000000000000602082015250565b60006118eb6027836113f3565b91506118f68261188f565b604082019050919050565b6000602082019050818103600083015261191a816118de565b9050919050565b7f496e73756666696369656e742066756e64730000000000000000000000000000600082015250565b60006119576012836113f3565b915061196282611921565b602082019050919050565b600060208201905081810360008301526119868161194a565b9050919050565b7f4e487b7100000000000000000000000000000000000000000000000000000000600052601260045260246000fd5b60006119c7826111ad565b91506119d2836111ad565b9250826119e2576119e161198d565b5b828204905092915050565b6000604082019050611a0260008301856112ba565b611a0f60208301846112ba565b9392505050565b6000611a21826111ad565b9150611a2c836111ad565b925082821015611a3f57611a3e6115b0565b5b828203905092915050565b6000606082019050611a5f6000830186611236565b611a6c60208301856112ba565b611a7960408301846112d5565b949350505050565b7f4f6e6c7920746865204d61726b65742041646d696e2063616e20706572666f7260008201527f6d207468697320616374696f6e00000000000000000000000000000000000000602082015250565b6000611add602d836113f3565b9150611ae882611a81565b604082019050919050565b60006020820190508181036000830152611b0c81611ad0565b9050919050565b6000606082019050611b2860008301866112ba565b611b3560208301856112ba565b611b4260408301846112ba565b94935050505056fea26469706673582212206f6bd58f80d918b9fc912725fe28eddf49cc1a11994830b1a1c31b1cbf30e6ef64736f6c63430008090033",
  "linkReferences": {},
  "deployedLinkReferences": {}
}