{
  "_format": "hh-sol-artifact-1",
  "contractName": "TSO",
  "sourceName": "contracts/TSO.sol",
  "abi": [
    {
      "inputs": [
        {
          "internalType": "address",
          "name": "_tsoAdmin",
          "type": "address"
        }
      ],
      "stateMutability": "nonpayable",
      "type": "constructor"
    },
    {
      "anonymous": false,
      "inputs": [
        {
          "indexed": true,
          "internalType": "address",
          "name": "bidder",
          "type": "address"
        },
        {
          "indexed": false,
          "internalType": "address",
          "name": "batteryOwner",
          "type": "address"
        },
        {
          "indexed": false,
          "internalType": "uint256",
          "name": "amount",
          "type": "uint256"
        },
        {
          "indexed": false,
          "internalType": "uint256",
          "name": "price",
          "type": "uint256"
        }
      ],
      "name": "BidPlaced",
      "type": "event"
    },
    {
      "anonymous": false,
      "inputs": [
        {
          "indexed": true,
          "internalType": "address",
          "name": "batteryOwner",
          "type": "address"
        },
        {
          "indexed": false,
          "internalType": "uint256",
          "name": "amount",
          "type": "uint256"
        },
        {
          "indexed": false,
          "internalType": "uint256",
          "name": "price",
          "type": "uint256"
        }
      ],
      "name": "BidSelected",
      "type": "event"
    },
    {
      "anonymous": false,
      "inputs": [],
      "name": "MarketClosed",
      "type": "event"
    },
    {
      "anonymous": false,
      "inputs": [
        {
          "indexed": false,
          "internalType": "uint256",
          "name": "requiredEnergy",
          "type": "uint256"
        },
        {
          "indexed": false,
          "internalType": "bool",
          "name": "isPositiveReserve",
          "type": "bool"
        }
      ],
      "name": "MarketOpened",
      "type": "event"
    },
    {
      "anonymous": false,
      "inputs": [
        {
          "indexed": true,
          "internalType": "address",
          "name": "bidder",
          "type": "address"
        },
        {
          "indexed": false,
          "internalType": "uint256",
          "name": "commission",
          "type": "uint256"
        }
      ],
      "name": "PaymentToAggregatorOwnerRecorded",
      "type": "event"
    },
    {
      "anonymous": false,
      "inputs": [
        {
          "indexed": true,
          "internalType": "address",
          "name": "batteryOwner",
          "type": "address"
        },
        {
          "indexed": false,
          "internalType": "uint256",
          "name": "payment",
          "type": "uint256"
        }
      ],
      "name": "PaymentToBatteryOwnerRecorded",
      "type": "event"
    },
    {
      "inputs": [
        {
          "internalType": "uint256",
          "name": "_bidId",
          "type": "uint256"
        }
      ],
      "name": "acceptBid",
      "outputs": [],
      "stateMutability": "payable",
      "type": "function"
    },
    {
      "inputs": [],
      "name": "aggregatorOwner",
      "outputs": [
        {
          "internalType": "address",
          "name": "",
          "type": "address"
        }
      ],
      "stateMutability": "view",
      "type": "function"
    },
    {
      "inputs": [
        {
          "internalType": "address",
          "name": "",
          "type": "address"
        }
      ],
      "name": "aggregators",
      "outputs": [
        {
          "internalType": "address",
          "name": "",
          "type": "address"
        }
      ],
      "stateMutability": "view",
      "type": "function"
    },
    {
      "inputs": [],
      "name": "bidCount",
      "outputs": [
        {
          "internalType": "uint256",
          "name": "",
          "type": "uint256"
        }
      ],
      "stateMutability": "view",
      "type": "function"
    },
    {
      "inputs": [
        {
          "internalType": "uint256",
          "name": "",
          "type": "uint256"
        }
      ],
      "name": "bids",
      "outputs": [
        {
          "internalType": "address",
          "name": "bidder",
          "type": "address"
        },
        {
          "internalType": "address",
          "name": "batteryOwner",
          "type": "address"
        },
        {
          "internalType": "uint256",
          "name": "amount",
          "type": "uint256"
        },
        {
          "internalType": "uint256",
          "name": "price",
          "type": "uint256"
        },
        {
          "internalType": "bool",
          "name": "isSelected",
          "type": "bool"
        }
      ],
      "stateMutability": "view",
      "type": "function"
    },
    {
      "inputs": [],
      "name": "closeMarket",
      "outputs": [],
      "stateMutability": "nonpayable",
      "type": "function"
    },
    {
      "inputs": [
        {
          "internalType": "uint256",
          "name": "_index",
          "type": "uint256"
        }
      ],
      "name": "getBatteryOwner",
      "outputs": [
        {
          "internalType": "address",
          "name": "",
          "type": "address"
        }
      ],
      "stateMutability": "view",
      "type": "function"
    },
    {
      "inputs": [
        {
          "internalType": "uint256",
          "name": "_index",
          "type": "uint256"
        }
      ],
      "name": "getBidder",
      "outputs": [
        {
          "internalType": "address",
          "name": "",
          "type": "address"
        }
      ],
      "stateMutability": "view",
      "type": "function"
    },
    {
      "inputs": [],
      "name": "isPositiveReserve",
      "outputs": [
        {
          "internalType": "bool",
          "name": "",
          "type": "bool"
        }
      ],
      "stateMutability": "view",
      "type": "function"
    },
    {
      "inputs": [],
      "name": "marketOpen",
      "outputs": [
        {
          "internalType": "bool",
          "name": "",
          "type": "bool"
        }
      ],
      "stateMutability": "view",
      "type": "function"
    },
    {
      "inputs": [
        {
          "internalType": "uint256",
          "name": "_requiredEnergy",
          "type": "uint256"
        },
        {
          "internalType": "bool",
          "name": "_isPositiveReserve",
          "type": "bool"
        }
      ],
      "name": "openMarket",
      "outputs": [],
      "stateMutability": "nonpayable",
      "type": "function"
    },
    {
      "inputs": [
        {
          "internalType": "address",
          "name": "_bidder",
          "type": "address"
        },
        {
          "internalType": "address",
          "name": "_batteryOwner",
          "type": "address"
        },
        {
          "internalType": "uint256",
          "name": "_amountInKWh",
          "type": "uint256"
        },
        {
          "internalType": "uint256",
          "name": "_pricePerMWh",
          "type": "uint256"
        }
      ],
      "name": "placeBid",
      "outputs": [],
      "stateMutability": "nonpayable",
      "type": "function"
    },
    {
      "inputs": [
        {
          "internalType": "uint256",
          "name": "_bidId",
          "type": "uint256"
        }
      ],
      "name": "processPayment",
      "outputs": [],
      "stateMutability": "payable",
      "type": "function"
    },
    {
      "inputs": [],
      "name": "requiredEnergy",
      "outputs": [
        {
          "internalType": "uint256",
          "name": "",
          "type": "uint256"
        }
      ],
      "stateMutability": "view",
      "type": "function"
    },
    {
      "inputs": [
        {
          "internalType": "address",
          "name": "_owner",
          "type": "address"
        },
        {
          "internalType": "address",
          "name": "_aggregator",
          "type": "address"
        }
      ],
      "name": "setAggregator",
      "outputs": [],
      "stateMutability": "nonpayable",
      "type": "function"
    },
    {
      "inputs": [],
      "name": "totalSelectedEnergy",
      "outputs": [
        {
          "internalType": "uint256",
          "name": "",
          "type": "uint256"
        }
      ],
      "stateMutability": "view",
      "type": "function"
    },
    {
      "inputs": [],
      "name": "tsoAdmin",
      "outputs": [
        {
          "internalType": "address",
          "name": "",
          "type": "address"
        }
      ],
      "stateMutability": "view",
      "type": "function"
    }
  ],
  "bytecode": "0x60806040523480156200001157600080fd5b5060405162002a0238038062002a028339818101604052810190620000379190620000e9565b80600460016101000a81548173ffffffffffffffffffffffffffffffffffffffff021916908373ffffffffffffffffffffffffffffffffffffffff160217905550506200011b565b600080fd5b600073ffffffffffffffffffffffffffffffffffffffff82169050919050565b6000620000b18262000084565b9050919050565b620000c381620000a4565b8114620000cf57600080fd5b50565b600081519050620000e381620000b8565b92915050565b6000602082840312156200010257620001016200007f565b5b60006200011284828501620000d2565b91505092915050565b6128d7806200012b6000396000f3fe6080604052600436106100fe5760003560e01c8063865109f211610095578063c511ed5e11610064578063c511ed5e1461031f578063c66bc04614610336578063d6e0cd1714610361578063e2a886bd1461038a578063f190032b146103b5576100fe565b8063865109f21461026357806387c132ce146102a0578063ab0c7d56146102cb578063b40a5627146102f4576100fe565b80633a2f8485116100d15780633a2f8485146101b25780634423c5f1146101ce57806366bf45701461020f5780637394a7f61461023a576100fe565b80630270ada41461010357806304eb435f1461012e578063112cdab9146101595780632b1fd58a14610196575b600080fd5b34801561010f57600080fd5b506101186103f2565b6040516101259190611c82565b60405180910390f35b34801561013a57600080fd5b50610143610418565b6040516101509190611cb8565b60405180910390f35b34801561016557600080fd5b50610180600480360381019061017b9190611d04565b61042b565b60405161018d9190611c82565b60405180910390f35b6101b060048036038101906101ab9190611d67565b61045e565b005b6101cc60048036038101906101c79190611d67565b6106f1565b005b3480156101da57600080fd5b506101f560048036038101906101f09190611d67565b610efe565b604051610206959493929190611da3565b60405180910390f35b34801561021b57600080fd5b50610224610f81565b6040516102319190611df6565b60405180910390f35b34801561024657600080fd5b50610261600480360381019061025c9190611e11565b610f87565b005b34801561026f57600080fd5b5061028a60048036038101906102859190611d67565b611008565b6040516102979190611c82565b60405180910390f35b3480156102ac57600080fd5b506102b5611048565b6040516102c29190611c82565b60405180910390f35b3480156102d757600080fd5b506102f260048036038101906102ed9190611e51565b61106e565b005b34801561030057600080fd5b506103096116d4565b6040516103169190611df6565b60405180910390f35b34801561032b57600080fd5b506103346116da565b005b34801561034257600080fd5b5061034b611772565b6040516103589190611cb8565b60405180910390f35b34801561036d57600080fd5b5061038860048036038101906103839190611ee4565b611785565b005b34801561039657600080fd5b5061039f61189f565b6040516103ac9190611df6565b60405180910390f35b3480156103c157600080fd5b506103dc60048036038101906103d79190611d67565b6118a5565b6040516103e99190611c82565b60405180910390f35b600460019054906101000a900473ffffffffffffffffffffffffffffffffffffffff1681565b600460009054906101000a900460ff1681565b60006020528060005260406000206000915054906101000a900473ffffffffffffffffffffffffffffffffffffffff1681565b600460019054906101000a900473ffffffffffffffffffffffffffffffffffffffff1673ffffffffffffffffffffffffffffffffffffffff163373ffffffffffffffffffffffffffffffffffffffff16146104ee576040517f08c379a00000000000000000000000000000000000000000000000000000000081526004016104e590611fa7565b60405180910390fd5b600260009054906101000a900460ff161561053e576040517f08c379a000000000000000000000000000000000000000000000000000000000815260040161053590612013565b60405180910390fd5b600060075490506003548110156106cb57600180600084815260200190815260200160002060040160006101000a81548160ff02191690831515021790555060016000838152602001908152602001600020600201548161059f9190612062565b9050806007819055506001600083815260200190815260200160002060010160009054906101000a900473ffffffffffffffffffffffffffffffffffffffff1673ffffffffffffffffffffffffffffffffffffffff167f66edc0473c18faf132f9a6974a29aac1cfc61b42a142271b34c926bcc7ae59fe600160008581526020019081526020016000206002015460016000868152602001908152602001600020600301546040516106529291906120b8565b60405180910390a23073ffffffffffffffffffffffffffffffffffffffff16633a2f848534846040518363ffffffff1660e01b81526004016106949190611df6565b6000604051808303818588803b1580156106ad57600080fd5b505af11580156106c1573d6000803e3d6000fd5b50505050506106ed565b6106ec6040518060600160405280602f8152602001612873602f91396118e5565b5b5050565b6107306040518060400160405280601e81526020017f50726f63657373696e67207061796d656e7420666f72206269642049443a00008152508261197e565b61077e6040518060400160405280600e81526020017f4d61726b6574207374617475733a000000000000000000000000000000000000815250600260009054906101000a900460ff16611a1a565b6107e06040518060400160405280600d81526020017f4269642073656c65637465643a000000000000000000000000000000000000008152506001600084815260200190815260200160002060040160009054906101000a900460ff16611a1a565b6001600082815260200190815260200160002060040160009054906101000a900460ff16610843576040517f08c379a000000000000000000000000000000000000000000000000000000000815260040161083a9061212d565b60405180910390fd5b60006001600083815260200190815260200160002060030154600160008481526020019081526020016000206002015461087d919061214d565b90506108be6040518060400160405280600d81526020017f5061796d656e742073656e743a000000000000000000000000000000000000008152503461197e565b6108fd6040518060400160405280601181526020017f5061796d656e742072657175697265643a0000000000000000000000000000008152508261197e565b80341461093f576040517f08c379a0000000000000000000000000000000000000000000000000000000008152600401610936906121f3565b60405180910390fd5b60006001600084815260200190815260200160002060000160009054906101000a900473ffffffffffffffffffffffffffffffffffffffff16905060006001600085815260200190815260200160002060010160009054906101000a900473ffffffffffffffffffffffffffffffffffffffff1690506109f46040518060400160405280600f81526020017f42696464657220616464726573733a000000000000000000000000000000000081525083611ab6565b610a336040518060400160405280601681526020017f42617474657279206f776e657220616464726573733a0000000000000000000081525082611ab6565b60008060008373ffffffffffffffffffffffffffffffffffffffff1673ffffffffffffffffffffffffffffffffffffffff16815260200190815260200160002060009054906101000a900473ffffffffffffffffffffffffffffffffffffffff1690506000819050610ada6040518060400160405280601381526020017f41676772656761746f7220616464726573733a0000000000000000000000000081525083611ab6565b600260009054906101000a900460ff1615610b2a576040517f08c379a0000000000000000000000000000000000000000000000000000000008152600401610b2190612013565b60405180910390fd5b600060648273ffffffffffffffffffffffffffffffffffffffff16635ea1d6f86040518163ffffffff1660e01b815260040160206040518083038186803b158015610b7457600080fd5b505afa158015610b88573d6000803e3d6000fd5b505050506040513d601f19601f82011682018060405250810190610bac9190612228565b34610bb7919061214d565b610bc19190612284565b9050610c026040518060400160405280600b81526020017f436f6d6d697373696f6e3a0000000000000000000000000000000000000000008152508261197e565b610c4c6040518060400160405280601981526020017f5061796d656e7420746f2062617474657279206f776e65723a000000000000008152508234610c4791906122b5565b61197e565b8373ffffffffffffffffffffffffffffffffffffffff166108fc8234610c7291906122b5565b9081150290604051600060405180830381858888f19350505050158015610c9d573d6000803e3d6000fd5b508373ffffffffffffffffffffffffffffffffffffffff167f05622d675ae17b6095d9de6bd6448ed94a9e4ef429dd071bccc722048aac18cf8234610ce291906122b5565b604051610cef9190611df6565b60405180910390a2610d366040518060400160405280601681526020017f5061796d656e7420746f2061676772656761746f723a000000000000000000008152508261197e565b8473ffffffffffffffffffffffffffffffffffffffff166108fc829081150290604051600060405180830381858888f19350505050158015610d7c573d6000803e3d6000fd5b508473ffffffffffffffffffffffffffffffffffffffff167fb6566daf73f0ad3b232c916b0188d8e5a84b2a34ffe61283799015ea02cff7ec82604051610dc39190611df6565b60405180910390a2610ded60405180606001604052806027815260200161284c6027913985611ab6565b8173ffffffffffffffffffffffffffffffffffffffff16639e9b522c600160008a815260200190815260200160002060010160009054906101000a900473ffffffffffffffffffffffffffffffffffffffff16600160008b815260200190815260200160002060020154600460009054906101000a900460ff166040518463ffffffff1660e01b8152600401610e85939291906122e9565b600060405180830381600087803b158015610e9f57600080fd5b505af1158015610eb3573d6000803e3d6000fd5b50505050610ef56040518060400160405280601d81526020017f5061796d656e742070726f63657373696e6720636f6d706c657465642e0000008152506118e5565b50505050505050565b60016020528060005260406000206000915090508060000160009054906101000a900473ffffffffffffffffffffffffffffffffffffffff16908060010160009054906101000a900473ffffffffffffffffffffffffffffffffffffffff16908060020154908060030154908060040160009054906101000a900460ff16905085565b60075481565b806000808473ffffffffffffffffffffffffffffffffffffffff1673ffffffffffffffffffffffffffffffffffffffff16815260200190815260200160002060006101000a81548173ffffffffffffffffffffffffffffffffffffffff021916908373ffffffffffffffffffffffffffffffffffffffff1602179055505050565b60006001600083815260200190815260200160002060000160009054906101000a900473ffffffffffffffffffffffffffffffffffffffff169050919050565b600560009054906101000a900473ffffffffffffffffffffffffffffffffffffffff1681565b600260009054906101000a900460ff166110bd576040517f08c379a00000000000000000000000000000000000000000000000000000000081526004016110b49061236c565b60405180910390fd5b60008060008573ffffffffffffffffffffffffffffffffffffffff1673ffffffffffffffffffffffffffffffffffffffff16815260200190815260200160002060009054906101000a900473ffffffffffffffffffffffffffffffffffffffff169050600673ffffffffffffffffffffffffffffffffffffffff168173ffffffffffffffffffffffffffffffffffffffff161415611190576040517f08c379a0000000000000000000000000000000000000000000000000000000008152600401611187906123fe565b60405180910390fd5b600081905060008173ffffffffffffffffffffffffffffffffffffffff16637edaff94876040518263ffffffff1660e01b81526004016111d09190611c82565b60206040518083038186803b1580156111e857600080fd5b505afa1580156111fc573d6000803e3d6000fd5b505050506040513d601f19601f820116820180604052508101906112209190612228565b905060008273ffffffffffffffffffffffffffffffffffffffff16633e395962886040518263ffffffff1660e01b815260040161125d9190611c82565b60206040518083038186803b15801561127557600080fd5b505afa158015611289573d6000803e3d6000fd5b505050506040513d601f19601f820116820180604052508101906112ad9190612228565b9050600460009054906101000a900460ff16156113235780826112d0919061214d565b6064876112dd919061214d565b111561131e576040517f08c379a000000000000000000000000000000000000000000000000000000000815260040161131590612490565b60405180910390fd5b611367565b60648210611366576040517f08c379a000000000000000000000000000000000000000000000000000000000815260040161135d906124fc565b60405180910390fd5b5b600085116113aa576040517f08c379a00000000000000000000000000000000000000000000000000000000081526004016113a190612568565b60405180910390fd5b60006103e887876113bb919061214d565b6113c59190612284565b90506040518060a001604052808a73ffffffffffffffffffffffffffffffffffffffff1681526020018973ffffffffffffffffffffffffffffffffffffffff1681526020018881526020018281526020016000151581525060016000600654815260200190815260200160002060008201518160000160006101000a81548173ffffffffffffffffffffffffffffffffffffffff021916908373ffffffffffffffffffffffffffffffffffffffff16021790555060208201518160010160006101000a81548173ffffffffffffffffffffffffffffffffffffffff021916908373ffffffffffffffffffffffffffffffffffffffff160217905550604082015181600201556060820151816003015560808201518160040160006101000a81548160ff0219169083151502179055509050506115366040518060400160405280600f81526020017f42696420706c616365642062793a2000000000000000000000000000000000008152508a611ab6565b6115756040518060400160405280600f81526020017f42617474657279206f776e65723a20000000000000000000000000000000000081525089611ab6565b6115ea6040518060400160405280600c81526020017f42696420616d6f756e743a200000000000000000000000000000000000000000815250886040518060400160405280600481526020017f206b576800000000000000000000000000000000000000000000000000000000815250611b52565b61165f6040518060400160405280600b81526020017f4269642070726963653a20000000000000000000000000000000000000000000815250826040518060400160405280600881526020017f204555522f4b5768000000000000000000000000000000000000000000000000815250611b52565b8873ffffffffffffffffffffffffffffffffffffffff167fdd49bbb40d47a514dddcd458e9718364143bc24a0cca58439ee6f4f45e4ce10d8989846040516116a993929190612588565b60405180910390a2600660008154809291906116c4906125bf565b9190505550505050505050505050565b60065481565b600260009054906101000a900460ff16611729576040517f08c379a000000000000000000000000000000000000000000000000000000000815260040161172090612654565b60405180910390fd5b6000600260006101000a81548160ff0219169083151502179055507f0b5f6bf058282d5cc003efc735b9ee453bbd7f9bef4c6db6300d095f3eefac2860405160405180910390a1565b600260009054906101000a900460ff1681565b600460019054906101000a900473ffffffffffffffffffffffffffffffffffffffff1673ffffffffffffffffffffffffffffffffffffffff163373ffffffffffffffffffffffffffffffffffffffff1614611815576040517f08c379a000000000000000000000000000000000000000000000000000000000815260040161180c90611fa7565b60405180910390fd5b8160038190555080600460006101000a81548160ff0219169083151502179055506001600260006101000a81548160ff0219169083151502179055507faa156aa8eb148a0ccce210026c57e10f7da7b4d62043a69e58bfc0f4d246dfb8600354600460009054906101000a900460ff16604051611893929190612674565b60405180910390a15050565b60035481565b60006001600083815260200190815260200160002060010160009054906101000a900473ffffffffffffffffffffffffffffffffffffffff169050919050565b61197b816040516024016118f99190612725565b6040516020818303038152906040527f41304fac000000000000000000000000000000000000000000000000000000007bffffffffffffffffffffffffffffffffffffffffffffffffffffffff19166020820180517bffffffffffffffffffffffffffffffffffffffffffffffffffffffff8381831617835250505050611bf1565b50565b611a168282604051602401611994929190612747565b6040516020818303038152906040527fb60e72cc000000000000000000000000000000000000000000000000000000007bffffffffffffffffffffffffffffffffffffffffffffffffffffffff19166020820180517bffffffffffffffffffffffffffffffffffffffffffffffffffffffff8381831617835250505050611bf1565b5050565b611ab28282604051602401611a30929190612777565b6040516020818303038152906040527fc3b55635000000000000000000000000000000000000000000000000000000007bffffffffffffffffffffffffffffffffffffffffffffffffffffffff19166020820180517bffffffffffffffffffffffffffffffffffffffffffffffffffffffff8381831617835250505050611bf1565b5050565b611b4e8282604051602401611acc9291906127a7565b6040516020818303038152906040527f319af333000000000000000000000000000000000000000000000000000000007bffffffffffffffffffffffffffffffffffffffffffffffffffffffff19166020820180517bffffffffffffffffffffffffffffffffffffffffffffffffffffffff8381831617835250505050611bf1565b5050565b611bec838383604051602401611b6a939291906127d7565b6040516020818303038152906040527f5970e089000000000000000000000000000000000000000000000000000000007bffffffffffffffffffffffffffffffffffffffffffffffffffffffff19166020820180517bffffffffffffffffffffffffffffffffffffffffffffffffffffffff8381831617835250505050611bf1565b505050565b611c0881611c00611c0b611c2c565b63ffffffff16565b50565b60006a636f6e736f6c652e6c6f679050600080835160208501845afa505050565b611c37819050919050565b611c3f61281c565b565b600073ffffffffffffffffffffffffffffffffffffffff82169050919050565b6000611c6c82611c41565b9050919050565b611c7c81611c61565b82525050565b6000602082019050611c976000830184611c73565b92915050565b60008115159050919050565b611cb281611c9d565b82525050565b6000602082019050611ccd6000830184611ca9565b92915050565b600080fd5b611ce181611c61565b8114611cec57600080fd5b50565b600081359050611cfe81611cd8565b92915050565b600060208284031215611d1a57611d19611cd3565b5b6000611d2884828501611cef565b91505092915050565b6000819050919050565b611d4481611d31565b8114611d4f57600080fd5b50565b600081359050611d6181611d3b565b92915050565b600060208284031215611d7d57611d7c611cd3565b5b6000611d8b84828501611d52565b91505092915050565b611d9d81611d31565b82525050565b600060a082019050611db86000830188611c73565b611dc56020830187611c73565b611dd26040830186611d94565b611ddf6060830185611d94565b611dec6080830184611ca9565b9695505050505050565b6000602082019050611e0b6000830184611d94565b92915050565b60008060408385031215611e2857611e27611cd3565b5b6000611e3685828601611cef565b9250506020611e4785828601611cef565b9150509250929050565b60008060008060808587031215611e6b57611e6a611cd3565b5b6000611e7987828801611cef565b9450506020611e8a87828801611cef565b9350506040611e9b87828801611d52565b9250506060611eac87828801611d52565b91505092959194509250565b611ec181611c9d565b8114611ecc57600080fd5b50565b600081359050611ede81611eb8565b92915050565b60008060408385031215611efb57611efa611cd3565b5b6000611f0985828601611d52565b9250506020611f1a85828601611ecf565b9150509250929050565b600082825260208201905092915050565b7f4f6e6c79207468652054534f2041646d696e2063616e20706572666f726d207460008201527f68697320616374696f6e00000000000000000000000000000000000000000000602082015250565b6000611f91602a83611f24565b9150611f9c82611f35565b604082019050919050565b60006020820190508181036000830152611fc081611f84565b9050919050565b7f4d61726b6574206973207374696c6c206f70656e000000000000000000000000600082015250565b6000611ffd601483611f24565b915061200882611fc7565b602082019050919050565b6000602082019050818103600083015261202c81611ff0565b9050919050565b7f4e487b7100000000000000000000000000000000000000000000000000000000600052601160045260246000fd5b600061206d82611d31565b915061207883611d31565b9250827fffffffffffffffffffffffffffffffffffffffffffffffffffffffffffffffff038211156120ad576120ac612033565b5b828201905092915050565b60006040820190506120cd6000830185611d94565b6120da6020830184611d94565b9392505050565b7f426964206e6f7420616363657074656400000000000000000000000000000000600082015250565b6000612117601083611f24565b9150612122826120e1565b602082019050919050565b600060208201905081810360008301526121468161210a565b9050919050565b600061215882611d31565b915061216383611d31565b9250817fffffffffffffffffffffffffffffffffffffffffffffffffffffffffffffffff048311821515161561219c5761219b612033565b5b828202905092915050565b7f496e73756666696369656e742066756e64730000000000000000000000000000600082015250565b60006121dd601283611f24565b91506121e8826121a7565b602082019050919050565b6000602082019050818103600083015261220c816121d0565b9050919050565b60008151905061222281611d3b565b92915050565b60006020828403121561223e5761223d611cd3565b5b600061224c84828501612213565b91505092915050565b7f4e487b7100000000000000000000000000000000000000000000000000000000600052601260045260246000fd5b600061228f82611d31565b915061229a83611d31565b9250826122aa576122a9612255565b5b828204905092915050565b60006122c082611d31565b91506122cb83611d31565b9250828210156122de576122dd612033565b5b828203905092915050565b60006060820190506122fe6000830186611c73565b61230b6020830185611d94565b6123186040830184611ca9565b949350505050565b7f4d61726b6574206973206e6f74206f70656e0000000000000000000000000000600082015250565b6000612356601283611f24565b915061236182612320565b602082019050919050565b6000602082019050818103600083015261238581612349565b9050919050565b7f41676772656761746f72206e6f7420666f756e6420666f72206261747465727960008201527f206f776e65720000000000000000000000000000000000000000000000000000602082015250565b60006123e8602683611f24565b91506123f38261238c565b604082019050919050565b60006020820190508181036000830152612417816123db565b9050919050565b7f416d6f756e7420706c616365642065786365656473206261747465727920636160008201527f706163697479206f7220536f4300000000000000000000000000000000000000602082015250565b600061247a602d83611f24565b91506124858261241e565b604082019050919050565b600060208201905081810360008301526124a98161246d565b9050919050565b7f426174746572792069732066756c6c0000000000000000000000000000000000600082015250565b60006124e6600f83611f24565b91506124f1826124b0565b602082019050919050565b60006020820190508181036000830152612515816124d9565b9050919050565b7f5072696365206d7573742062652067726561746572207468616e203000000000600082015250565b6000612552601c83611f24565b915061255d8261251c565b602082019050919050565b6000602082019050818103600083015261258181612545565b9050919050565b600060608201905061259d6000830186611c73565b6125aa6020830185611d94565b6125b76040830184611d94565b949350505050565b60006125ca82611d31565b91507fffffffffffffffffffffffffffffffffffffffffffffffffffffffffffffffff8214156125fd576125fc612033565b5b600182019050919050565b7f4d61726b657420697320616c726561647920636c6f7365640000000000000000600082015250565b600061263e601883611f24565b915061264982612608565b602082019050919050565b6000602082019050818103600083015261266d81612631565b9050919050565b60006040820190506126896000830185611d94565b6126966020830184611ca9565b9392505050565b600081519050919050565b60005b838110156126c65780820151818401526020810190506126ab565b838111156126d5576000848401525b50505050565b6000601f19601f8301169050919050565b60006126f78261269d565b6127018185611f24565b93506127118185602086016126a8565b61271a816126db565b840191505092915050565b6000602082019050818103600083015261273f81846126ec565b905092915050565b6000604082019050818103600083015261276181856126ec565b90506127706020830184611d94565b9392505050565b6000604082019050818103600083015261279181856126ec565b90506127a06020830184611ca9565b9392505050565b600060408201905081810360008301526127c181856126ec565b90506127d06020830184611c73565b9392505050565b600060608201905081810360008301526127f181866126ec565b90506128006020830185611d94565b818103604083015261281281846126ec565b9050949350505050565b7f4e487b7100000000000000000000000000000000000000000000000000000000600052605160045260246000fdfe5570646174696e67204261747465727920536f4320666f722062617474657279206f776e65723a456e657267792073656c65637465642069732067726561746572207468616e20726571756972656420656e65726779a2646970667358221220f4c392922d55987b62806a2cfd525e515504c6abb0a4f45f4a3c2fdf75f7a8ca64736f6c63430008090033",
  "linkReferences": {},
  "deployedLinkReferences": {}
}