{
  "_format": "hh-sol-artifact-1",
  "contractName": "TSO",
  "sourceName": "contracts/TSO.sol",
  "abi": [
    {
      "inputs": [
        {
          "internalType": "address",
          "name": "_aggregatorAddress",
          "type": "address"
        }
      ],
      "stateMutability": "nonpayable",
      "type": "constructor"
    },
    {
      "anonymous": false,
      "inputs": [
        {
          "indexed": false,
          "internalType": "address",
          "name": "batteryOwner",
          "type": "address"
        },
        {
          "indexed": false,
          "internalType": "uint256",
          "name": "amount",
          "type": "uint256"
        },
        {
          "indexed": false,
          "internalType": "uint256",
          "name": "price",
          "type": "uint256"
        }
      ],
      "name": "BidPlaced",
      "type": "event"
    },
    {
      "anonymous": false,
      "inputs": [
        {
          "indexed": true,
          "internalType": "address",
          "name": "batteryOwner",
          "type": "address"
        },
        {
          "indexed": false,
          "internalType": "uint256",
          "name": "amount",
          "type": "uint256"
        },
        {
          "indexed": false,
          "internalType": "uint256",
          "name": "price",
          "type": "uint256"
        }
      ],
      "name": "BidSelected",
      "type": "event"
    },
    {
      "anonymous": false,
      "inputs": [],
      "name": "MarketClosed",
      "type": "event"
    },
    {
      "anonymous": false,
      "inputs": [
        {
          "indexed": false,
          "internalType": "uint256",
          "name": "requiredEnergy",
          "type": "uint256"
        },
        {
          "indexed": false,
          "internalType": "bool",
          "name": "isPositiveReserve",
          "type": "bool"
        }
      ],
      "name": "MarketOpened",
      "type": "event"
    },
    {
      "anonymous": false,
      "inputs": [
        {
          "indexed": true,
          "internalType": "address",
          "name": "aggregatorOwner",
          "type": "address"
        },
        {
          "indexed": false,
          "internalType": "uint256",
          "name": "commission",
          "type": "uint256"
        }
      ],
      "name": "PaymentToAggregatorOwnerRecorded",
      "type": "event"
    },
    {
      "anonymous": false,
      "inputs": [
        {
          "indexed": true,
          "internalType": "address",
          "name": "batteryOwner",
          "type": "address"
        },
        {
          "indexed": false,
          "internalType": "uint256",
          "name": "payment",
          "type": "uint256"
        }
      ],
      "name": "PaymentToBatteryOwnerRecorded",
      "type": "event"
    },
    {
      "inputs": [
        {
          "internalType": "uint256",
          "name": "_bidId",
          "type": "uint256"
        }
      ],
      "name": "acceptBid",
      "outputs": [],
      "stateMutability": "payable",
      "type": "function"
    },
    {
      "inputs": [],
      "name": "aggregator",
      "outputs": [
        {
          "internalType": "contract Aggregator",
          "name": "",
          "type": "address"
        }
      ],
      "stateMutability": "view",
      "type": "function"
    },
    {
      "inputs": [],
      "name": "bidCount",
      "outputs": [
        {
          "internalType": "uint256",
          "name": "",
          "type": "uint256"
        }
      ],
      "stateMutability": "view",
      "type": "function"
    },
    {
      "inputs": [
        {
          "internalType": "uint256",
          "name": "",
          "type": "uint256"
        }
      ],
      "name": "bids",
      "outputs": [
        {
          "internalType": "address",
          "name": "batteryOwner",
          "type": "address"
        },
        {
          "internalType": "uint256",
          "name": "amount",
          "type": "uint256"
        },
        {
          "internalType": "uint256",
          "name": "price",
          "type": "uint256"
        },
        {
          "internalType": "bool",
          "name": "isSelected",
          "type": "bool"
        }
      ],
      "stateMutability": "view",
      "type": "function"
    },
    {
      "inputs": [],
      "name": "closeMarket",
      "outputs": [],
      "stateMutability": "nonpayable",
      "type": "function"
    },
    {
      "inputs": [],
      "name": "isPositiveReserve",
      "outputs": [
        {
          "internalType": "bool",
          "name": "",
          "type": "bool"
        }
      ],
      "stateMutability": "view",
      "type": "function"
    },
    {
      "inputs": [],
      "name": "marketOpen",
      "outputs": [
        {
          "internalType": "bool",
          "name": "",
          "type": "bool"
        }
      ],
      "stateMutability": "view",
      "type": "function"
    },
    {
      "inputs": [
        {
          "internalType": "uint256",
          "name": "_requiredEnergy",
          "type": "uint256"
        },
        {
          "internalType": "bool",
          "name": "_isPositiveReserve",
          "type": "bool"
        }
      ],
      "name": "openMarket",
      "outputs": [],
      "stateMutability": "nonpayable",
      "type": "function"
    },
    {
      "inputs": [
        {
          "internalType": "address",
          "name": "_batteryOwner",
          "type": "address"
        },
        {
          "internalType": "uint256",
          "name": "_amountInKWh",
          "type": "uint256"
        },
        {
          "internalType": "uint256",
          "name": "_pricePerMWh",
          "type": "uint256"
        }
      ],
      "name": "placeBid",
      "outputs": [],
      "stateMutability": "nonpayable",
      "type": "function"
    },
    {
      "inputs": [
        {
          "internalType": "uint256",
          "name": "_bidId",
          "type": "uint256"
        }
      ],
      "name": "processPayment",
      "outputs": [],
      "stateMutability": "payable",
      "type": "function"
    },
    {
      "inputs": [],
      "name": "requiredEnergy",
      "outputs": [
        {
          "internalType": "uint256",
          "name": "",
          "type": "uint256"
        }
      ],
      "stateMutability": "view",
      "type": "function"
    },
    {
      "inputs": [],
      "name": "totalSelectedEnergy",
      "outputs": [
        {
          "internalType": "uint256",
          "name": "",
          "type": "uint256"
        }
      ],
      "stateMutability": "view",
      "type": "function"
    },
    {
      "inputs": [],
      "name": "tsoAdmin",
      "outputs": [
        {
          "internalType": "address",
          "name": "",
          "type": "address"
        }
      ],
      "stateMutability": "view",
      "type": "function"
    }
  ],
  "bytecode": "0x60806040523480156200001157600080fd5b5060405162001da838038062001da883398181016040528101906200003791906200012a565b33600360016101000a81548173ffffffffffffffffffffffffffffffffffffffff021916908373ffffffffffffffffffffffffffffffffffffffff16021790555080600660006101000a81548173ffffffffffffffffffffffffffffffffffffffff021916908373ffffffffffffffffffffffffffffffffffffffff160217905550506200015c565b600080fd5b600073ffffffffffffffffffffffffffffffffffffffff82169050919050565b6000620000f282620000c5565b9050919050565b6200010481620000e5565b81146200011057600080fd5b50565b6000815190506200012481620000f9565b92915050565b600060208284031215620001435762000142620000c0565b5b6000620001538482850162000113565b91505092915050565b611c3c806200016c6000396000f3fe6080604052600436106100c25760003560e01c80634423c5f11161007f578063c511ed5e11610059578063c511ed5e1461023f578063c66bc04614610256578063d6e0cd1714610281578063e2a886bd146102aa576100c2565b80634423c5f1146101a957806366bf4570146101e9578063b40a562714610214576100c2565b80630270ada4146100c757806304717aca146100f257806304eb435f1461011b578063245a7bfc146101465780632b1fd58a146101715780633a2f84851461018d575b600080fd5b3480156100d357600080fd5b506100dc6102d5565b6040516100e9919061118f565b60405180910390f35b3480156100fe57600080fd5b5061011960048036038101906101149190611211565b6102fb565b005b34801561012757600080fd5b50610130610728565b60405161013d919061127f565b60405180910390f35b34801561015257600080fd5b5061015b61073b565b60405161016891906112f9565b60405180910390f35b61018b60048036038101906101869190611314565b610761565b005b6101a760048036038101906101a29190611314565b610973565b005b3480156101b557600080fd5b506101d060048036038101906101cb9190611314565b610e61565b6040516101e09493929190611350565b60405180910390f35b3480156101f557600080fd5b506101fe610ebe565b60405161020b9190611395565b60405180910390f35b34801561022057600080fd5b50610229610ec4565b6040516102369190611395565b60405180910390f35b34801561024b57600080fd5b50610254610eca565b005b34801561026257600080fd5b5061026b610f62565b604051610278919061127f565b60405180910390f35b34801561028d57600080fd5b506102a860048036038101906102a391906113dc565b610f75565b005b3480156102b657600080fd5b506102bf61105c565b6040516102cc9190611395565b60405180910390f35b600360019054906101000a900473ffffffffffffffffffffffffffffffffffffffff1681565b600160009054906101000a900460ff1661034a576040517f08c379a000000000000000000000000000000000000000000000000000000000815260040161034190611479565b60405180910390fd5b6000600660009054906101000a900473ffffffffffffffffffffffffffffffffffffffff1673ffffffffffffffffffffffffffffffffffffffff16637edaff94856040518263ffffffff1660e01b81526004016103a7919061118f565b60206040518083038186803b1580156103bf57600080fd5b505afa1580156103d3573d6000803e3d6000fd5b505050506040513d601f19601f820116820180604052508101906103f791906114ae565b90506000600660009054906101000a900473ffffffffffffffffffffffffffffffffffffffff1673ffffffffffffffffffffffffffffffffffffffff16633e395962866040518263ffffffff1660e01b8152600401610456919061118f565b60206040518083038186803b15801561046e57600080fd5b505afa158015610482573d6000803e3d6000fd5b505050506040513d601f19601f820116820180604052508101906104a691906114ae565b9050600360009054906101000a900460ff161561051c5780826104c9919061150a565b6064856104d6919061150a565b1115610517576040517f08c379a000000000000000000000000000000000000000000000000000000000815260040161050e906115d6565b60405180910390fd5b610560565b6064821061055f576040517f08c379a000000000000000000000000000000000000000000000000000000000815260040161055690611642565b60405180910390fd5b5b600083116105a3576040517f08c379a000000000000000000000000000000000000000000000000000000000815260040161059a906116ae565b60405180910390fd5b60006103e885856105b4919061150a565b6105be91906116fd565b905060405180608001604052808773ffffffffffffffffffffffffffffffffffffffff16815260200186815260200182815260200160001515815250600080600454815260200190815260200160002060008201518160000160006101000a81548173ffffffffffffffffffffffffffffffffffffffff021916908373ffffffffffffffffffffffffffffffffffffffff160217905550602082015181600101556040820151816002015560608201518160030160006101000a81548160ff0219169083151502179055509050507fdf8644c0a4c21ed214ce69f395675b3a5fcd1039083daea5058898de40ea31498686836040516106bf9392919061172e565b60405180910390a1600460008154809291906106da90611765565b91905055506107206040518060400160405280600b81526020017f42696420636f756e743a20000000000000000000000000000000000000000000815250600454611062565b505050505050565b600360009054906101000a900460ff1681565b600660009054906101000a900473ffffffffffffffffffffffffffffffffffffffff1681565b600160009054906101000a900460ff16156107b1576040517f08c379a00000000000000000000000000000000000000000000000000000000081526004016107a8906117fa565b60405180910390fd5b6000600554905060025481106107fc576040517f08c379a00000000000000000000000000000000000000000000000000000000081526004016107f390611866565b60405180910390fd5b600160008084815260200190815260200160002060030160006101000a81548160ff021916908315150217905550600080838152602001908152602001600020600101548161084b9190611886565b90508060058190555060008083815260200190815260200160002060000160009054906101000a900473ffffffffffffffffffffffffffffffffffffffff1673ffffffffffffffffffffffffffffffffffffffff167f66edc0473c18faf132f9a6974a29aac1cfc61b42a142271b34c926bcc7ae59fe60008085815260200190815260200160002060010154600080868152602001908152602001600020600201546040516108fb9291906118dc565b60405180910390a23073ffffffffffffffffffffffffffffffffffffffff16633a2f848534846040518363ffffffff1660e01b815260040161093d9190611395565b6000604051808303818588803b15801561095657600080fd5b505af115801561096a573d6000803e3d6000fd5b50505050505050565b60008082815260200190815260200160002060030160009054906101000a900460ff166109d5576040517f08c379a00000000000000000000000000000000000000000000000000000000081526004016109cc90611951565b60405180910390fd5b60006064600660009054906101000a900473ffffffffffffffffffffffffffffffffffffffff1673ffffffffffffffffffffffffffffffffffffffff16635ea1d6f86040518163ffffffff1660e01b815260040160206040518083038186803b158015610a4157600080fd5b505afa158015610a55573d6000803e3d6000fd5b505050506040513d601f19601f82011682018060405250810190610a7991906114ae565b34610a84919061150a565b610a8e91906116fd565b905060008134610a9e9190611971565b905060008084815260200190815260200160002060000160009054906101000a900473ffffffffffffffffffffffffffffffffffffffff1673ffffffffffffffffffffffffffffffffffffffff166108fc829081150290604051600060405180830381858888f19350505050158015610b1b573d6000803e3d6000fd5b5060008084815260200190815260200160002060000160009054906101000a900473ffffffffffffffffffffffffffffffffffffffff1673ffffffffffffffffffffffffffffffffffffffff167f05622d675ae17b6095d9de6bd6448ed94a9e4ef429dd071bccc722048aac18cf82604051610b979190611395565b60405180910390a2600660009054906101000a900473ffffffffffffffffffffffffffffffffffffffff1673ffffffffffffffffffffffffffffffffffffffff16638da5cb5b6040518163ffffffff1660e01b815260040160206040518083038186803b158015610c0757600080fd5b505afa158015610c1b573d6000803e3d6000fd5b505050506040513d601f19601f82011682018060405250810190610c3f91906119ba565b73ffffffffffffffffffffffffffffffffffffffff166108fc839081150290604051600060405180830381858888f19350505050158015610c84573d6000803e3d6000fd5b50600660009054906101000a900473ffffffffffffffffffffffffffffffffffffffff1673ffffffffffffffffffffffffffffffffffffffff16638da5cb5b6040518163ffffffff1660e01b815260040160206040518083038186803b158015610ced57600080fd5b505afa158015610d01573d6000803e3d6000fd5b505050506040513d601f19601f82011682018060405250810190610d2591906119ba565b73ffffffffffffffffffffffffffffffffffffffff167fb6566daf73f0ad3b232c916b0188d8e5a84b2a34ffe61283799015ea02cff7ec83604051610d6a9190611395565b60405180910390a2600660009054906101000a900473ffffffffffffffffffffffffffffffffffffffff1673ffffffffffffffffffffffffffffffffffffffff16639e9b522c60008086815260200190815260200160002060000160009054906101000a900473ffffffffffffffffffffffffffffffffffffffff1660008087815260200190815260200160002060010154600360009054906101000a900460ff166040518463ffffffff1660e01b8152600401610e2a939291906119e7565b600060405180830381600087803b158015610e4457600080fd5b505af1158015610e58573d6000803e3d6000fd5b50505050505050565b60006020528060005260406000206000915090508060000160009054906101000a900473ffffffffffffffffffffffffffffffffffffffff16908060010154908060020154908060030160009054906101000a900460ff16905084565b60055481565b60045481565b600160009054906101000a900460ff16610f19576040517f08c379a0000000000000000000000000000000000000000000000000000000008152600401610f1090611a6a565b60405180910390fd5b6000600160006101000a81548160ff0219169083151502179055507f0b5f6bf058282d5cc003efc735b9ee453bbd7f9bef4c6db6300d095f3eefac2860405160405180910390a1565b600160009054906101000a900460ff1681565b60001515600160009054906101000a900460ff16151514610fcb576040517f08c379a0000000000000000000000000000000000000000000000000000000008152600401610fc290611ad6565b60405180910390fd5b8160028190555080600360006101000a81548160ff02191690831515021790555060018060006101000a81548160ff02191690831515021790555060006005819055507faa156aa8eb148a0ccce210026c57e10f7da7b4d62043a69e58bfc0f4d246dfb8600254600360009054906101000a900460ff16604051611050929190611af6565b60405180910390a15050565b60025481565b6110fa8282604051602401611078929190611ba7565b6040516020818303038152906040527fb60e72cc000000000000000000000000000000000000000000000000000000007bffffffffffffffffffffffffffffffffffffffffffffffffffffffff19166020820180517bffffffffffffffffffffffffffffffffffffffffffffffffffffffff83818316178352505050506110fe565b5050565b6111158161110d611118611139565b63ffffffff16565b50565b60006a636f6e736f6c652e6c6f679050600080835160208501845afa505050565b611144819050919050565b61114c611bd7565b565b600073ffffffffffffffffffffffffffffffffffffffff82169050919050565b60006111798261114e565b9050919050565b6111898161116e565b82525050565b60006020820190506111a46000830184611180565b92915050565b600080fd5b6111b88161116e565b81146111c357600080fd5b50565b6000813590506111d5816111af565b92915050565b6000819050919050565b6111ee816111db565b81146111f957600080fd5b50565b60008135905061120b816111e5565b92915050565b60008060006060848603121561122a576112296111aa565b5b6000611238868287016111c6565b9350506020611249868287016111fc565b925050604061125a868287016111fc565b9150509250925092565b60008115159050919050565b61127981611264565b82525050565b60006020820190506112946000830184611270565b92915050565b6000819050919050565b60006112bf6112ba6112b58461114e565b61129a565b61114e565b9050919050565b60006112d1826112a4565b9050919050565b60006112e3826112c6565b9050919050565b6112f3816112d8565b82525050565b600060208201905061130e60008301846112ea565b92915050565b60006020828403121561132a576113296111aa565b5b6000611338848285016111fc565b91505092915050565b61134a816111db565b82525050565b60006080820190506113656000830187611180565b6113726020830186611341565b61137f6040830185611341565b61138c6060830184611270565b95945050505050565b60006020820190506113aa6000830184611341565b92915050565b6113b981611264565b81146113c457600080fd5b50565b6000813590506113d6816113b0565b92915050565b600080604083850312156113f3576113f26111aa565b5b6000611401858286016111fc565b9250506020611412858286016113c7565b9150509250929050565b600082825260208201905092915050565b7f4d61726b6574206973206e6f74206f70656e0000000000000000000000000000600082015250565b600061146360128361141c565b915061146e8261142d565b602082019050919050565b6000602082019050818103600083015261149281611456565b9050919050565b6000815190506114a8816111e5565b92915050565b6000602082840312156114c4576114c36111aa565b5b60006114d284828501611499565b91505092915050565b7f4e487b7100000000000000000000000000000000000000000000000000000000600052601160045260246000fd5b6000611515826111db565b9150611520836111db565b9250817fffffffffffffffffffffffffffffffffffffffffffffffffffffffffffffffff0483118215151615611559576115586114db565b5b828202905092915050565b7f416d6f756e7420706c616365642065786365656473206261747465727920636160008201527f706163697479206f7220536f4300000000000000000000000000000000000000602082015250565b60006115c0602d8361141c565b91506115cb82611564565b604082019050919050565b600060208201905081810360008301526115ef816115b3565b9050919050565b7f426174746572792069732066756c6c0000000000000000000000000000000000600082015250565b600061162c600f8361141c565b9150611637826115f6565b602082019050919050565b6000602082019050818103600083015261165b8161161f565b9050919050565b7f5072696365206d7573742062652067726561746572207468616e203000000000600082015250565b6000611698601c8361141c565b91506116a382611662565b602082019050919050565b600060208201905081810360008301526116c78161168b565b9050919050565b7f4e487b7100000000000000000000000000000000000000000000000000000000600052601260045260246000fd5b6000611708826111db565b9150611713836111db565b925082611723576117226116ce565b5b828204905092915050565b60006060820190506117436000830186611180565b6117506020830185611341565b61175d6040830184611341565b949350505050565b6000611770826111db565b91507fffffffffffffffffffffffffffffffffffffffffffffffffffffffffffffffff8214156117a3576117a26114db565b5b600182019050919050565b7f4d61726b6574206973207374696c6c206f70656e000000000000000000000000600082015250565b60006117e460148361141c565b91506117ef826117ae565b602082019050919050565b60006020820190508181036000830152611813816117d7565b9050919050565b7f526571756972656420656e6572677920616c72656164792073656c6563746564600082015250565b600061185060208361141c565b915061185b8261181a565b602082019050919050565b6000602082019050818103600083015261187f81611843565b9050919050565b6000611891826111db565b915061189c836111db565b9250827fffffffffffffffffffffffffffffffffffffffffffffffffffffffffffffffff038211156118d1576118d06114db565b5b828201905092915050565b60006040820190506118f16000830185611341565b6118fe6020830184611341565b9392505050565b7f426964206e6f7420616363657074656400000000000000000000000000000000600082015250565b600061193b60108361141c565b915061194682611905565b602082019050919050565b6000602082019050818103600083015261196a8161192e565b9050919050565b600061197c826111db565b9150611987836111db565b92508282101561199a576119996114db565b5b828203905092915050565b6000815190506119b4816111af565b92915050565b6000602082840312156119d0576119cf6111aa565b5b60006119de848285016119a5565b91505092915050565b60006060820190506119fc6000830186611180565b611a096020830185611341565b611a166040830184611270565b949350505050565b7f4d61726b657420697320616c726561647920636c6f7365640000000000000000600082015250565b6000611a5460188361141c565b9150611a5f82611a1e565b602082019050919050565b60006020820190508181036000830152611a8381611a47565b9050919050565b7f4d61726b657420697320616c7265616479206f70656e00000000000000000000600082015250565b6000611ac060168361141c565b9150611acb82611a8a565b602082019050919050565b60006020820190508181036000830152611aef81611ab3565b9050919050565b6000604082019050611b0b6000830185611341565b611b186020830184611270565b9392505050565b600081519050919050565b60005b83811015611b48578082015181840152602081019050611b2d565b83811115611b57576000848401525b50505050565b6000601f19601f8301169050919050565b6000611b7982611b1f565b611b83818561141c565b9350611b93818560208601611b2a565b611b9c81611b5d565b840191505092915050565b60006040820190508181036000830152611bc18185611b6e565b9050611bd06020830184611341565b9392505050565b7f4e487b7100000000000000000000000000000000000000000000000000000000600052605160045260246000fdfea2646970667358221220193d8e9a99c6ee401e0c8091d133231d6a7a1985ce7fc73fc96b94403045bc5664736f6c63430008090033",
  "linkReferences": {},
  "deployedLinkReferences": {}
}