{
  "contractName": "AggregatorDAMContract",
  "abi": [
    {
      "inputs": [
        {
          "internalType": "address",
          "name": "_marketAddress",
          "type": "address"
        }
      ],
      "stateMutability": "nonpayable",
      "type": "constructor"
    },
    {
      "anonymous": false,
      "inputs": [
        {
          "indexed": true,
          "internalType": "address",
          "name": "owner",
          "type": "address"
        },
        {
          "indexed": false,
          "internalType": "uint8",
          "name": "capacity",
          "type": "uint8"
        },
        {
          "indexed": false,
          "internalType": "uint8",
          "name": "SoC",
          "type": "uint8"
        }
      ],
      "name": "BatteryRegistered",
      "type": "event"
    },
    {
      "anonymous": false,
      "inputs": [
        {
          "indexed": true,
          "internalType": "address",
          "name": "owner",
          "type": "address"
        },
        {
          "indexed": false,
          "internalType": "uint8",
          "name": "newSoC",
          "type": "uint8"
        }
      ],
      "name": "BatterySoCUpdated",
      "type": "event"
    },
    {
      "anonymous": false,
      "inputs": [
        {
          "indexed": true,
          "internalType": "address",
          "name": "owner",
          "type": "address"
        },
        {
          "indexed": false,
          "internalType": "uint8",
          "name": "amount",
          "type": "uint8"
        },
        {
          "indexed": false,
          "internalType": "uint8",
          "name": "price",
          "type": "uint8"
        }
      ],
      "name": "BidSubmitted",
      "type": "event"
    },
    {
      "anonymous": false,
      "inputs": [
        {
          "indexed": true,
          "internalType": "address",
          "name": "buyer",
          "type": "address"
        },
        {
          "indexed": false,
          "internalType": "uint256",
          "name": "bidId",
          "type": "uint256"
        },
        {
          "indexed": false,
          "internalType": "uint256",
          "name": "amount",
          "type": "uint256"
        },
        {
          "indexed": false,
          "internalType": "uint256",
          "name": "price",
          "type": "uint256"
        }
      ],
      "name": "EnergyPurchasedFromMarket",
      "type": "event"
    },
    {
      "inputs": [
        {
          "internalType": "address",
          "name": "",
          "type": "address"
        }
      ],
      "name": "batteries",
      "outputs": [
        {
          "internalType": "address",
          "name": "owner",
          "type": "address"
        },
        {
          "internalType": "uint8",
          "name": "capacity",
          "type": "uint8"
        },
        {
          "internalType": "uint8",
          "name": "initial_soc",
          "type": "uint8"
        },
        {
          "internalType": "bool",
          "name": "isRegistered",
          "type": "bool"
        }
      ],
      "stateMutability": "view",
      "type": "function"
    },
    {
      "inputs": [],
      "name": "market",
      "outputs": [
        {
          "internalType": "contract MarketContract",
          "name": "",
          "type": "address"
        }
      ],
      "stateMutability": "view",
      "type": "function"
    },
    {
      "inputs": [
        {
          "internalType": "uint8",
          "name": "_capacity",
          "type": "uint8"
        },
        {
          "internalType": "uint8",
          "name": "_SoC",
          "type": "uint8"
        }
      ],
      "name": "registerBattery",
      "outputs": [],
      "stateMutability": "nonpayable",
      "type": "function"
    },
    {
      "inputs": [
        {
          "internalType": "uint8",
          "name": "_amount",
          "type": "uint8"
        },
        {
          "internalType": "uint8",
          "name": "_price",
          "type": "uint8"
        }
      ],
      "name": "submitBid",
      "outputs": [],
      "stateMutability": "nonpayable",
      "type": "function"
    },
    {
      "inputs": [
        {
          "internalType": "uint8",
          "name": "_bidId",
          "type": "uint8"
        }
      ],
      "name": "acceptBid",
      "outputs": [],
      "stateMutability": "nonpayable",
      "type": "function"
    },
    {
      "inputs": [
        {
          "internalType": "uint256",
          "name": "_bidId",
          "type": "uint256"
        }
      ],
      "name": "purchaseEnergy",
      "outputs": [],
      "stateMutability": "payable",
      "type": "function"
    },
    {
      "inputs": [
        {
          "internalType": "uint8",
          "name": "_bidId",
          "type": "uint8"
        }
      ],
      "name": "updateBatterySoC",
      "outputs": [],
      "stateMutability": "nonpayable",
      "type": "function"
    }
  ],
  "bytecode": "0x60806040523480156200001157600080fd5b50604051620013fe380380620013fe8339818101604052810190620000379190620000e9565b80600160006101000a81548173ffffffffffffffffffffffffffffffffffffffff021916908373ffffffffffffffffffffffffffffffffffffffff160217905550506200011b565b600080fd5b600073ffffffffffffffffffffffffffffffffffffffff82169050919050565b6000620000b18262000084565b9050919050565b620000c381620000a4565b8114620000cf57600080fd5b50565b600081519050620000e381620000b8565b92915050565b6000602082840312156200010257620001016200007f565b5b60006200011284828501620000d2565b91505092915050565b6112d3806200012b6000396000f3fe6080604052600436106100705760003560e01c80636b7abb811161004e5780636b7abb81146100fa57806380f5560514610123578063adda83161461014e578063b1d7521d1461017757610070565b806318a47d74146100755780631bb31c301461009e5780636afe2520146100de575b600080fd5b34801561008157600080fd5b5061009c60048036038101906100979190610b4d565b6101a0565b005b3480156100aa57600080fd5b506100c560048036038101906100c09190610bd8565b610230565b6040516100d59493929190610c3e565b60405180910390f35b6100f860048036038101906100f39190610cb9565b6102a7565b005b34801561010657600080fd5b50610121600480360381019061011c9190610ce6565b610441565b005b34801561012f57600080fd5b5061013861064d565b6040516101459190610d85565b60405180910390f35b34801561015a57600080fd5b5061017560048036038101906101709190610b4d565b610673565b005b34801561018357600080fd5b5061019e60048036038101906101999190610ce6565b6108b9565b005b600160009054906101000a900473ffffffffffffffffffffffffffffffffffffffff1673ffffffffffffffffffffffffffffffffffffffff16632b1fd58a826040518263ffffffff1660e01b81526004016101fb9190610dd1565b600060405180830381600087803b15801561021557600080fd5b505af1158015610229573d6000803e3d6000fd5b5050505050565b60006020528060005260406000206000915090508060000160009054906101000a900473ffffffffffffffffffffffffffffffffffffffff16908060000160149054906101000a900460ff16908060000160159054906101000a900460ff16908060000160169054906101000a900460ff16905084565b600160009054906101000a900473ffffffffffffffffffffffffffffffffffffffff1673ffffffffffffffffffffffffffffffffffffffff16636afe252034836040518363ffffffff1660e01b81526004016103039190610dfb565b6000604051808303818588803b15801561031c57600080fd5b505af1158015610330573d6000803e3d6000fd5b5050505050600080600160009054906101000a900473ffffffffffffffffffffffffffffffffffffffff1673ffffffffffffffffffffffffffffffffffffffff16634423c5f1846040518263ffffffff1660e01b81526004016103939190610dfb565b60a06040518083038186803b1580156103ab57600080fd5b505afa1580156103bf573d6000803e3d6000fd5b505050506040513d601f19601f820116820180604052508101906103e39190610e6c565b505092509250503373ffffffffffffffffffffffffffffffffffffffff167fc279e574cf5693f71a05111c464c5d87a0f5867e827a775b5c51cafe0711b8f684848460405161043493929190610ee7565b60405180910390a2505050565b6000803373ffffffffffffffffffffffffffffffffffffffff1673ffffffffffffffffffffffffffffffffffffffff16815260200190815260200160002060000160169054906101000a900460ff166104cf576040517f08c379a00000000000000000000000000000000000000000000000000000000081526004016104c690610f7b565b60405180910390fd5b816000803373ffffffffffffffffffffffffffffffffffffffff1673ffffffffffffffffffffffffffffffffffffffff16815260200190815260200160002060000160149054906101000a900460ff1660ff168160ff161115610567576040517f08c379a000000000000000000000000000000000000000000000000000000000815260040161055e90610fe7565b60405180910390fd5b600160009054906101000a900473ffffffffffffffffffffffffffffffffffffffff1673ffffffffffffffffffffffffffffffffffffffff1663ad6561ec8484336040518463ffffffff1660e01b81526004016105c693929190611007565b600060405180830381600087803b1580156105e057600080fd5b505af11580156105f4573d6000803e3d6000fd5b505050503373ffffffffffffffffffffffffffffffffffffffff167f404e941eb255ca9704eaca3400148fb81ecc5f061bb0df5ded66ae239fa9e6eb848460405161064092919061103e565b60405180910390a2505050565b600160009054906101000a900473ffffffffffffffffffffffffffffffffffffffff1681565b6000803373ffffffffffffffffffffffffffffffffffffffff1673ffffffffffffffffffffffffffffffffffffffff16815260200190815260200160002060000160169054906101000a900460ff16610701576040517f08c379a00000000000000000000000000000000000000000000000000000000081526004016106f890610f7b565b60405180910390fd5b600080600160009054906101000a900473ffffffffffffffffffffffffffffffffffffffff1673ffffffffffffffffffffffffffffffffffffffff16634423c5f1846040518263ffffffff1660e01b815260040161075f9190610dd1565b60a06040518083038186803b15801561077757600080fd5b505afa15801561078b573d6000803e3d6000fd5b505050506040513d601f19601f820116820180604052508101906107af9190610e6c565b5050509150915060008060008473ffffffffffffffffffffffffffffffffffffffff1673ffffffffffffffffffffffffffffffffffffffff168152602001908152602001600020905060008160000160149054906101000a900460ff1660ff1660648461081c9190611096565b610826919061111f565b8260000160159054906101000a900460ff1660ff166108459190611150565b9050808260000160156101000a81548160ff021916908360ff1602179055503373ffffffffffffffffffffffffffffffffffffffff167f11f4dcad97a96109130e8659bceff28e7765c33663f38fb1d59bdce4479c3c6c826040516108aa9190611184565b60405180910390a25050505050565b6000803373ffffffffffffffffffffffffffffffffffffffff1673ffffffffffffffffffffffffffffffffffffffff16815260200190815260200160002060000160169054906101000a900460ff1615610948576040517f08c379a000000000000000000000000000000000000000000000000000000000815260040161093f906111eb565b60405180910390fd5b8060328160ff161015610990576040517f08c379a00000000000000000000000000000000000000000000000000000000081526004016109879061127d565b60405180910390fd5b60405180608001604052803373ffffffffffffffffffffffffffffffffffffffff1681526020018460ff1681526020018360ff168152602001600115158152506000803373ffffffffffffffffffffffffffffffffffffffff1673ffffffffffffffffffffffffffffffffffffffff16815260200190815260200160002060008201518160000160006101000a81548173ffffffffffffffffffffffffffffffffffffffff021916908373ffffffffffffffffffffffffffffffffffffffff16021790555060208201518160000160146101000a81548160ff021916908360ff16021790555060408201518160000160156101000a81548160ff021916908360ff16021790555060608201518160000160166101000a81548160ff0219169083151502179055509050503373ffffffffffffffffffffffffffffffffffffffff167f1ba4e283010f9584ad47830a3d690dc419099fd0c0dbf9840df2e677371fa6798484604051610b0292919061103e565b60405180910390a2505050565b600080fd5b600060ff82169050919050565b610b2a81610b14565b8114610b3557600080fd5b50565b600081359050610b4781610b21565b92915050565b600060208284031215610b6357610b62610b0f565b5b6000610b7184828501610b38565b91505092915050565b600073ffffffffffffffffffffffffffffffffffffffff82169050919050565b6000610ba582610b7a565b9050919050565b610bb581610b9a565b8114610bc057600080fd5b50565b600081359050610bd281610bac565b92915050565b600060208284031215610bee57610bed610b0f565b5b6000610bfc84828501610bc3565b91505092915050565b610c0e81610b9a565b82525050565b610c1d81610b14565b82525050565b60008115159050919050565b610c3881610c23565b82525050565b6000608082019050610c536000830187610c05565b610c606020830186610c14565b610c6d6040830185610c14565b610c7a6060830184610c2f565b95945050505050565b6000819050919050565b610c9681610c83565b8114610ca157600080fd5b50565b600081359050610cb381610c8d565b92915050565b600060208284031215610ccf57610cce610b0f565b5b6000610cdd84828501610ca4565b91505092915050565b60008060408385031215610cfd57610cfc610b0f565b5b6000610d0b85828601610b38565b9250506020610d1c85828601610b38565b9150509250929050565b6000819050919050565b6000610d4b610d46610d4184610b7a565b610d26565b610b7a565b9050919050565b6000610d5d82610d30565b9050919050565b6000610d6f82610d52565b9050919050565b610d7f81610d64565b82525050565b6000602082019050610d9a6000830184610d76565b92915050565b6000610dbb610db6610db184610b14565b610d26565b610c83565b9050919050565b610dcb81610da0565b82525050565b6000602082019050610de66000830184610dc2565b92915050565b610df581610c83565b82525050565b6000602082019050610e106000830184610dec565b92915050565b600081519050610e2581610bac565b92915050565b600081519050610e3a81610c8d565b92915050565b610e4981610c23565b8114610e5457600080fd5b50565b600081519050610e6681610e40565b92915050565b600080600080600060a08688031215610e8857610e87610b0f565b5b6000610e9688828901610e16565b9550506020610ea788828901610e2b565b9450506040610eb888828901610e2b565b9350506060610ec988828901610e57565b9250506080610eda88828901610e16565b9150509295509295909350565b6000606082019050610efc6000830186610dec565b610f096020830185610dec565b610f166040830184610dec565b949350505050565b600082825260208201905092915050565b7f42617474657279206973206e6f74207265676973746572656420796574000000600082015250565b6000610f65601d83610f1e565b9150610f7082610f2f565b602082019050919050565b60006020820190508181036000830152610f9481610f58565b9050919050565b7f496e73756666696369656e742063617061636974790000000000000000000000600082015250565b6000610fd1601583610f1e565b9150610fdc82610f9b565b602082019050919050565b6000602082019050818103600083015261100081610fc4565b9050919050565b600060608201905061101c6000830186610dc2565b6110296020830185610dc2565b6110366040830184610c05565b949350505050565b60006040820190506110536000830185610c14565b6110606020830184610c14565b9392505050565b7f4e487b7100000000000000000000000000000000000000000000000000000000600052601160045260246000fd5b60006110a182610c83565b91506110ac83610c83565b9250817fffffffffffffffffffffffffffffffffffffffffffffffffffffffffffffffff04831182151516156110e5576110e4611067565b5b828202905092915050565b7f4e487b7100000000000000000000000000000000000000000000000000000000600052601260045260246000fd5b600061112a82610c83565b915061113583610c83565b925082611145576111446110f0565b5b828204905092915050565b600061115b82610c83565b915061116683610c83565b92508282101561117957611178611067565b5b828203905092915050565b60006020820190506111996000830184610c14565b92915050565b7f4261747465727920616c72656164792072656769737465726564000000000000600082015250565b60006111d5601a83610f1e565b91506111e08261119f565b602082019050919050565b60006020820190508181036000830152611204816111c8565b9050919050565b7f56616c7565206f6620536f43206973206e6f7420656e6f75676820746f20736560008201527f6c6c20656e657267792e00000000000000000000000000000000000000000000602082015250565b6000611267602a83610f1e565b91506112728261120b565b604082019050919050565b600060208201905081810360008301526112968161125a565b905091905056fea264697066735822122062d46b6b20babd48947d46f1bf30e3d0d9cca7c427fe817131192437fc1c37ce64736f6c63430008090033",
  "immutableReferences": {},
  "source": "// SPDX-License-Identifier: MIT\npragma solidity ^0.8.9;\n\nimport \"./MarketContract.sol\";\n\ncontract AggregatorDAMContract {\n    struct Battery {\n        address owner;\n        uint8 capacity; // in kWh\n        uint8 initial_soc;\n        bool isRegistered;\n    }\n\n    mapping(address => Battery) public batteries;\n    MarketContract public market;\n\n    event BatteryRegistered(address indexed owner, uint8 capacity, uint8 SoC);\n    event BidSubmitted(address indexed owner, uint8 amount, uint8 price);\n    event EnergyPurchasedFromMarket(\n        address indexed buyer,\n        uint bidId,\n        uint amount,\n        uint price\n    );\n    event BatterySoCUpdated(address indexed owner, uint8 newSoC);\n\n    modifier batteryIsNotRegistered() {\n        require(\n            !batteries[msg.sender].isRegistered,\n            \"Battery already registered\"\n        );\n        _;\n    }\n    modifier batteryIsRegistered() {\n        require(\n            batteries[msg.sender].isRegistered,\n            \"Battery is not registered yet\"\n        );\n        _;\n    }\n    modifier checkSoC(uint8 _SoC) {\n        require(_SoC >= 50, \"Value of SoC is not enough to sell energy.\");\n        _;\n    }\n    modifier batteryCapacity(uint8 _amount) {\n        require(\n            _amount <= batteries[msg.sender].capacity,\n            \"Insufficient capacity\"\n        );\n        _;\n    }\n\n    constructor(address _marketAddress) {\n        market = MarketContract(_marketAddress);\n    }\n\n    function registerBattery(\n        uint8 _capacity,\n        uint8 _SoC\n    ) external batteryIsNotRegistered checkSoC(_SoC) {\n        batteries[msg.sender] = Battery(msg.sender, _capacity, _SoC, true);\n        emit BatteryRegistered(msg.sender, _capacity, _SoC);\n    }\n\n    function submitBid(\n        uint8 _amount,\n        uint8 _price\n    ) external batteryIsRegistered batteryCapacity(_amount) {\n        // Pass the battery owner's address to the market contract\n        market.placeBid(_amount, _price, msg.sender);\n        emit BidSubmitted(msg.sender, _amount, _price);\n    }\n\n    function acceptBid(uint8 _bidId) public {\n        market.acceptBid(_bidId);\n    }\n\n    function purchaseEnergy(uint _bidId) public payable {\n        market.purchaseEnergy{value: msg.value}(_bidId);\n        (, uint amount, uint price, , ) = market.bids(_bidId);\n        emit EnergyPurchasedFromMarket(msg.sender, _bidId, amount, price);\n    }\n\n    function updateBatterySoC(uint8 _bidId) external batteryIsRegistered {\n        // Decrease the SoC of the battery based on the energy sold\n        (address owner, uint amount, , , ) = market.bids(_bidId);\n        Battery storage battery = batteries[owner];\n        uint8 newSoc = uint8(\n            battery.initial_soc - ((amount * 100) / battery.capacity)\n        ); // calculate new SoC\n        battery.initial_soc = newSoc; // update the SoC\n        emit BatterySoCUpdated(msg.sender, newSoc);\n    }\n}\n",
  "sourcePath": "/home/sletolox1001/blockchain_projects/day_ahead_market_project/smartcontract/contracts/AggregatorDAMContract.sol",
  "compiler": {
    "name": "solc",
    "version": "0.8.9+commit.e5eed63a.Emscripten.clang"
  },
  "schemaVersion": "3.4.16",
  "updatedAt": "2024-07-22T09:08:56.872Z",
  "devdoc": {
    "kind": "dev",
    "methods": {},
    "version": 1
  },
  "userdoc": {
    "kind": "user",
    "methods": {},
    "version": 1
  }
}