{
  "contractName": "Aggregator",
  "abi": [
    {
      "inputs": [
        {
          "internalType": "uint256",
          "name": "_commissionRate",
          "type": "uint256"
        }
      ],
      "stateMutability": "nonpayable",
      "type": "constructor"
    },
    {
      "inputs": [
        {
          "internalType": "address",
          "name": "",
          "type": "address"
        }
      ],
      "name": "batteries",
      "outputs": [
        {
          "internalType": "address",
          "name": "owner",
          "type": "address"
        },
        {
          "internalType": "uint256",
          "name": "capacity",
          "type": "uint256"
        },
        {
          "internalType": "uint256",
          "name": "SoC",
          "type": "uint256"
        },
        {
          "internalType": "bool",
          "name": "isRegistered",
          "type": "bool"
        }
      ],
      "stateMutability": "view",
      "type": "function"
    },
    {
      "inputs": [
        {
          "internalType": "uint256",
          "name": "",
          "type": "uint256"
        }
      ],
      "name": "batteryAddresses",
      "outputs": [
        {
          "internalType": "address",
          "name": "",
          "type": "address"
        }
      ],
      "stateMutability": "view",
      "type": "function"
    },
    {
      "inputs": [],
      "name": "commissionRate",
      "outputs": [
        {
          "internalType": "uint256",
          "name": "",
          "type": "uint256"
        }
      ],
      "stateMutability": "view",
      "type": "function"
    },
    {
      "inputs": [
        {
          "internalType": "address",
          "name": "_owner",
          "type": "address"
        },
        {
          "internalType": "uint256",
          "name": "_capacity",
          "type": "uint256"
        },
        {
          "internalType": "uint256",
          "name": "_SoC",
          "type": "uint256"
        },
        {
          "internalType": "bool",
          "name": "isRegistered",
          "type": "bool"
        }
      ],
      "name": "registerBattery",
      "outputs": [],
      "stateMutability": "nonpayable",
      "type": "function"
    },
    {
      "inputs": [
        {
          "internalType": "address",
          "name": "_owner",
          "type": "address"
        },
        {
          "internalType": "uint256",
          "name": "_newSoC",
          "type": "uint256"
        }
      ],
      "name": "updateBatterySoC",
      "outputs": [],
      "stateMutability": "nonpayable",
      "type": "function"
    }
  ],
  "bytecode": "0x608060405234801561001057600080fd5b506040516109bc3803806109bc8339818101604052810190610032919061007a565b80600281905550506100a7565b600080fd5b6000819050919050565b61005781610044565b811461006257600080fd5b50565b6000815190506100748161004e565b92915050565b6000602082840312156100905761008f61003f565b5b600061009e84828501610065565b91505092915050565b610906806100b66000396000f3fe608060405234801561001057600080fd5b50600436106100575760003560e01c80631bb31c301461005c5780631d33c4b41461008f5780635ea1d6f8146100ab57806386b621ac146100c9578063b8e14d03146100e5575b600080fd5b61007660048036038101906100719190610564565b610115565b60405161008694939291906105d4565b60405180910390f35b6100a960048036038101906100a49190610645565b610172565b005b6100b361028b565b6040516100c09190610685565b60405180910390f35b6100e360048036038101906100de91906106cc565b610291565b005b6100ff60048036038101906100fa9190610733565b6104c2565b60405161010c9190610760565b60405180910390f35b60006020528060005260406000206000915090508060000160009054906101000a900473ffffffffffffffffffffffffffffffffffffffff16908060010154908060020154908060030160009054906101000a900460ff16905084565b8173ffffffffffffffffffffffffffffffffffffffff166000808473ffffffffffffffffffffffffffffffffffffffff1673ffffffffffffffffffffffffffffffffffffffff16815260200190815260200160002060000160009054906101000a900473ffffffffffffffffffffffffffffffffffffffff1673ffffffffffffffffffffffffffffffffffffffff1614610241576040517f08c379a0000000000000000000000000000000000000000000000000000000008152600401610238906107d8565b60405180910390fd5b806000808473ffffffffffffffffffffffffffffffffffffffff1673ffffffffffffffffffffffffffffffffffffffff168152602001908152602001600020600201819055505050565b60025481565b6000803373ffffffffffffffffffffffffffffffffffffffff1673ffffffffffffffffffffffffffffffffffffffff16815260200190815260200160002060030160009054906101000a900460ff1615610320576040517f08c379a000000000000000000000000000000000000000000000000000000000815260040161031790610844565b60405180910390fd5b603c821015610364576040517f08c379a000000000000000000000000000000000000000000000000000000000815260040161035b906108b0565b60405180910390fd5b60405180608001604052808573ffffffffffffffffffffffffffffffffffffffff1681526020018481526020018381526020018215158152506000808673ffffffffffffffffffffffffffffffffffffffff1673ffffffffffffffffffffffffffffffffffffffff16815260200190815260200160002060008201518160000160006101000a81548173ffffffffffffffffffffffffffffffffffffffff021916908373ffffffffffffffffffffffffffffffffffffffff160217905550602082015181600101556040820151816002015560608201518160030160006101000a81548160ff0219169083151502179055509050506001849080600181540180825580915050600190039060005260206000200160009091909190916101000a81548173ffffffffffffffffffffffffffffffffffffffff021916908373ffffffffffffffffffffffffffffffffffffffff16021790555050505050565b600181815481106104d257600080fd5b906000526020600020016000915054906101000a900473ffffffffffffffffffffffffffffffffffffffff1681565b600080fd5b600073ffffffffffffffffffffffffffffffffffffffff82169050919050565b600061053182610506565b9050919050565b61054181610526565b811461054c57600080fd5b50565b60008135905061055e81610538565b92915050565b60006020828403121561057a57610579610501565b5b60006105888482850161054f565b91505092915050565b61059a81610526565b82525050565b6000819050919050565b6105b3816105a0565b82525050565b60008115159050919050565b6105ce816105b9565b82525050565b60006080820190506105e96000830187610591565b6105f660208301866105aa565b61060360408301856105aa565b61061060608301846105c5565b95945050505050565b610622816105a0565b811461062d57600080fd5b50565b60008135905061063f81610619565b92915050565b6000806040838503121561065c5761065b610501565b5b600061066a8582860161054f565b925050602061067b85828601610630565b9150509250929050565b600060208201905061069a60008301846105aa565b92915050565b6106a9816105b9565b81146106b457600080fd5b50565b6000813590506106c6816106a0565b92915050565b600080600080608085870312156106e6576106e5610501565b5b60006106f48782880161054f565b945050602061070587828801610630565b935050604061071687828801610630565b9250506060610727878288016106b7565b91505092959194509250565b60006020828403121561074957610748610501565b5b600061075784828501610630565b91505092915050565b60006020820190506107756000830184610591565b92915050565b600082825260208201905092915050565b7f42617474657279206e6f7420666f756e64000000000000000000000000000000600082015250565b60006107c260118361077b565b91506107cd8261078c565b602082019050919050565b600060208201905081810360008301526107f1816107b5565b9050919050565b7f4261747465727920616c72656164792072656769737465726564000000000000600082015250565b600061082e601a8361077b565b9150610839826107f8565b602082019050919050565b6000602082019050818103600083015261085d81610821565b9050919050565b7f536f43206d757374206265203e3d203630250000000000000000000000000000600082015250565b600061089a60128361077b565b91506108a582610864565b602082019050919050565b600060208201905081810360008301526108c98161088d565b905091905056fea26469706673582212206e62774859f59c4c11a8137c861e90022e91e11d63d3875a3ef679853881b48e64736f6c63430008090033",
  "immutableReferences": {},
  "source": "// SPDX-License-Identifier: MIT\npragma solidity ^0.8.9;\n\ncontract Aggregator {\n    struct Battery {\n        address owner;\n        uint capacity; // in kWh\n        uint SoC; // State of Charge in percentage\n        bool isRegistered;\n    }\n\n    mapping(address => Battery) public batteries;\n    address[] public batteryAddresses;\n    uint public commissionRate; // Commission rate in percentage, e.g., 5 for 5%\n\n    modifier batteryIsNotRegistered() {\n        require(\n            !batteries[msg.sender].isRegistered,\n            \"Battery already registered\"\n        );\n        _;\n    }\n    constructor(uint _commissionRate) {\n        commissionRate = _commissionRate;\n    }\n    function registerBattery(\n        address _owner,\n        uint _capacity,\n        uint _SoC,\n        bool isRegistered\n    ) external batteryIsNotRegistered {\n        require(_SoC >= 60, \"SoC must be >= 60%\");\n        batteries[_owner] = Battery(_owner, _capacity, _SoC, isRegistered);\n        batteryAddresses.push(_owner);\n    }\n\n    function updateBatterySoC(address _owner, uint _newSoC) public {\n        require(batteries[_owner].owner == _owner, \"Battery not found\");\n        batteries[_owner].SoC = _newSoC;\n    }\n}\n",
  "sourcePath": "/home/sletolox1001/blockchain_projects/thesis_project/smartcontract/contracts/Aggregator.sol",
  "compiler": {
    "name": "solc",
    "version": "0.8.9+commit.e5eed63a.Emscripten.clang"
  },
  "schemaVersion": "3.4.16",
  "updatedAt": "2024-07-29T13:03:06.042Z",
  "devdoc": {
    "kind": "dev",
    "methods": {},
    "version": 1
  },
  "userdoc": {
    "kind": "user",
    "methods": {},
    "version": 1
  }
}