{
  "contractName": "AggregatorAfrrContract",
  "abi": [
    {
      "inputs": [
        {
          "internalType": "address",
          "name": "_tsoAddress",
          "type": "address"
        },
        {
          "internalType": "uint256",
          "name": "_commissionRate",
          "type": "uint256"
        }
      ],
      "stateMutability": "nonpayable",
      "type": "constructor"
    },
    {
      "anonymous": false,
      "inputs": [
        {
          "indexed": true,
          "internalType": "address",
          "name": "owner",
          "type": "address"
        },
        {
          "indexed": false,
          "internalType": "uint256",
          "name": "capacity",
          "type": "uint256"
        },
        {
          "indexed": false,
          "internalType": "uint256",
          "name": "soc",
          "type": "uint256"
        }
      ],
      "name": "BatteryRegistered",
      "type": "event"
    },
    {
      "anonymous": false,
      "inputs": [
        {
          "indexed": true,
          "internalType": "address",
          "name": "owner",
          "type": "address"
        },
        {
          "indexed": false,
          "internalType": "uint256",
          "name": "newSoc",
          "type": "uint256"
        }
      ],
      "name": "BatteryUpdated",
      "type": "event"
    },
    {
      "anonymous": false,
      "inputs": [
        {
          "indexed": true,
          "internalType": "address",
          "name": "owner",
          "type": "address"
        },
        {
          "indexed": false,
          "internalType": "uint256",
          "name": "amount",
          "type": "uint256"
        },
        {
          "indexed": false,
          "internalType": "uint256",
          "name": "price",
          "type": "uint256"
        }
      ],
      "name": "BidSubmitted",
      "type": "event"
    },
    {
      "anonymous": false,
      "inputs": [
        {
          "indexed": false,
          "internalType": "uint256",
          "name": "bidId",
          "type": "uint256"
        },
        {
          "indexed": false,
          "internalType": "uint256",
          "name": "amount",
          "type": "uint256"
        }
      ],
      "name": "PaymentReceived",
      "type": "event"
    },
    {
      "inputs": [
        {
          "internalType": "address",
          "name": "",
          "type": "address"
        }
      ],
      "name": "batteries",
      "outputs": [
        {
          "internalType": "address",
          "name": "owner",
          "type": "address"
        },
        {
          "internalType": "uint256",
          "name": "capacity",
          "type": "uint256"
        },
        {
          "internalType": "uint256",
          "name": "initial_soc",
          "type": "uint256"
        },
        {
          "internalType": "bool",
          "name": "isRegistered",
          "type": "bool"
        }
      ],
      "stateMutability": "view",
      "type": "function"
    },
    {
      "inputs": [],
      "name": "commissionRate",
      "outputs": [
        {
          "internalType": "uint8",
          "name": "",
          "type": "uint8"
        }
      ],
      "stateMutability": "view",
      "type": "function"
    },
    {
      "inputs": [],
      "name": "tso",
      "outputs": [
        {
          "internalType": "contract TSOContract",
          "name": "",
          "type": "address"
        }
      ],
      "stateMutability": "view",
      "type": "function"
    },
    {
      "inputs": [
        {
          "internalType": "uint8",
          "name": "_capacity",
          "type": "uint8"
        },
        {
          "internalType": "uint8",
          "name": "_SoC",
          "type": "uint8"
        }
      ],
      "name": "registerBattery",
      "outputs": [],
      "stateMutability": "nonpayable",
      "type": "function"
    },
    {
      "inputs": [
        {
          "internalType": "uint8",
          "name": "_amount",
          "type": "uint8"
        },
        {
          "internalType": "uint8",
          "name": "_price",
          "type": "uint8"
        }
      ],
      "name": "submitBid",
      "outputs": [],
      "stateMutability": "nonpayable",
      "type": "function"
    },
    {
      "inputs": [
        {
          "internalType": "uint8",
          "name": "_bidId",
          "type": "uint8"
        },
        {
          "internalType": "bool",
          "name": "isCharging",
          "type": "bool"
        }
      ],
      "name": "updateBatterySoC",
      "outputs": [],
      "stateMutability": "nonpayable",
      "type": "function"
    }
  ],
  "bytecode": "0x60806040523480156200001157600080fd5b506040516200117b3803806200117b83398181016040528101906200003791906200013f565b81600260006101000a81548173ffffffffffffffffffffffffffffffffffffffff021916908373ffffffffffffffffffffffffffffffffffffffff160217905550806000806101000a81548160ff021916908360ff160217905550505062000186565b600080fd5b600073ffffffffffffffffffffffffffffffffffffffff82169050919050565b6000620000cc826200009f565b9050919050565b620000de81620000bf565b8114620000ea57600080fd5b50565b600081519050620000fe81620000d3565b92915050565b6000819050919050565b620001198162000104565b81146200012557600080fd5b50565b60008151905062000139816200010e565b92915050565b600080604083850312156200015957620001586200009a565b5b60006200016985828601620000ed565b92505060206200017c8582860162000128565b9150509250929050565b610fe580620001966000396000f3fe608060405234801561001057600080fd5b50600436106100625760003560e01c80631bb31c30146100675780635ea1d6f81461009a5780636b7abb81146100b8578063b1d7521d146100d4578063f3adef35146100f0578063fea9b6e71461010e575b600080fd5b610081600480360381019061007c919061089a565b61012a565b604051610091949392919061090a565b60405180910390f35b6100a2610187565b6040516100af919061096b565b60405180910390f35b6100d260048036038101906100cd91906109b2565b610198565b005b6100ee60048036038101906100e991906109b2565b610396565b005b6100f86105c0565b6040516101059190610a51565b60405180910390f35b61012860048036038101906101239190610a98565b6105e6565b005b60016020528060005260406000206000915090508060000160009054906101000a900473ffffffffffffffffffffffffffffffffffffffff16908060010154908060020154908060030160009054906101000a900460ff16905084565b60008054906101000a900460ff1681565b600160003373ffffffffffffffffffffffffffffffffffffffff1673ffffffffffffffffffffffffffffffffffffffff16815260200190815260200160002060030160009054906101000a900460ff16610227576040517f08c379a000000000000000000000000000000000000000000000000000000000815260040161021e90610b35565b60405180910390fd5b81600160003373ffffffffffffffffffffffffffffffffffffffff1673ffffffffffffffffffffffffffffffffffffffff168152602001908152602001600020600101548160ff1611156102b0576040517f08c379a00000000000000000000000000000000000000000000000000000000081526004016102a790610ba1565b60405180910390fd5b600260009054906101000a900473ffffffffffffffffffffffffffffffffffffffff1673ffffffffffffffffffffffffffffffffffffffff1663ad6561ec8484336040518463ffffffff1660e01b815260040161030f93929190610bf2565b600060405180830381600087803b15801561032957600080fd5b505af115801561033d573d6000803e3d6000fd5b505050503373ffffffffffffffffffffffffffffffffffffffff167f84bee513033536a8de8a8260e2674a4a3eebd61ddce74615fdeca8a1499f5efe8484604051610389929190610c29565b60405180910390a2505050565b600160003373ffffffffffffffffffffffffffffffffffffffff1673ffffffffffffffffffffffffffffffffffffffff16815260200190815260200160002060030160009054906101000a900460ff1615610426576040517f08c379a000000000000000000000000000000000000000000000000000000000815260040161041d90610c9e565b60405180910390fd5b8060328160ff16101561046e576040517f08c379a000000000000000000000000000000000000000000000000000000000815260040161046590610d30565b60405180910390fd5b60405180608001604052803373ffffffffffffffffffffffffffffffffffffffff1681526020018460ff1681526020018360ff16815260200160011515815250600160003373ffffffffffffffffffffffffffffffffffffffff1673ffffffffffffffffffffffffffffffffffffffff16815260200190815260200160002060008201518160000160006101000a81548173ffffffffffffffffffffffffffffffffffffffff021916908373ffffffffffffffffffffffffffffffffffffffff160217905550602082015181600101556040820151816002015560608201518160030160006101000a81548160ff0219169083151502179055509050503373ffffffffffffffffffffffffffffffffffffffff167fd08b57c1fcc963554aa986f624bdb40345753a76d6e83acb1b6dbd764e56c46284846040516105b3929190610c29565b60405180910390a2505050565b600260009054906101000a900473ffffffffffffffffffffffffffffffffffffffff1681565b600160003373ffffffffffffffffffffffffffffffffffffffff1673ffffffffffffffffffffffffffffffffffffffff16815260200190815260200160002060030160009054906101000a900460ff16610675576040517f08c379a000000000000000000000000000000000000000000000000000000000815260040161066c90610b35565b60405180910390fd5b600080600260009054906101000a900473ffffffffffffffffffffffffffffffffffffffff1673ffffffffffffffffffffffffffffffffffffffff16634423c5f1856040518263ffffffff1660e01b81526004016106d39190610d50565b60a06040518083038186803b1580156106eb57600080fd5b505afa1580156106ff573d6000803e3d6000fd5b505050506040513d601f19601f820116820180604052508101906107239190610dc1565b505050915091506000600160008473ffffffffffffffffffffffffffffffffffffffff1673ffffffffffffffffffffffffffffffffffffffff1681526020019081526020016000209050600084156107a75781600101546064846107879190610e6b565b6107919190610ef4565b82600201546107a09190610f25565b90506107d5565b81600101546064846107b99190610e6b565b6107c39190610ef4565b82600201546107d29190610f7b565b90505b8060ff1682600201819055503373ffffffffffffffffffffffffffffffffffffffff167f92a6cb6f78a819306a069b6dc0138093342c5854463949baa7ffa5a8623624a0826040516108279190610d50565b60405180910390a2505050505050565b600080fd5b600073ffffffffffffffffffffffffffffffffffffffff82169050919050565b60006108678261083c565b9050919050565b6108778161085c565b811461088257600080fd5b50565b6000813590506108948161086e565b92915050565b6000602082840312156108b0576108af610837565b5b60006108be84828501610885565b91505092915050565b6108d08161085c565b82525050565b6000819050919050565b6108e9816108d6565b82525050565b60008115159050919050565b610904816108ef565b82525050565b600060808201905061091f60008301876108c7565b61092c60208301866108e0565b61093960408301856108e0565b61094660608301846108fb565b95945050505050565b600060ff82169050919050565b6109658161094f565b82525050565b6000602082019050610980600083018461095c565b92915050565b61098f8161094f565b811461099a57600080fd5b50565b6000813590506109ac81610986565b92915050565b600080604083850312156109c9576109c8610837565b5b60006109d78582860161099d565b92505060206109e88582860161099d565b9150509250929050565b6000819050919050565b6000610a17610a12610a0d8461083c565b6109f2565b61083c565b9050919050565b6000610a29826109fc565b9050919050565b6000610a3b82610a1e565b9050919050565b610a4b81610a30565b82525050565b6000602082019050610a666000830184610a42565b92915050565b610a75816108ef565b8114610a8057600080fd5b50565b600081359050610a9281610a6c565b92915050565b60008060408385031215610aaf57610aae610837565b5b6000610abd8582860161099d565b9250506020610ace85828601610a83565b9150509250929050565b600082825260208201905092915050565b7f42617474657279206973206e6f74207265676973746572656420796574000000600082015250565b6000610b1f601d83610ad8565b9150610b2a82610ae9565b602082019050919050565b60006020820190508181036000830152610b4e81610b12565b9050919050565b7f496e73756666696369656e742063617061636974790000000000000000000000600082015250565b6000610b8b601583610ad8565b9150610b9682610b55565b602082019050919050565b60006020820190508181036000830152610bba81610b7e565b9050919050565b6000610bdc610bd7610bd28461094f565b6109f2565b6108d6565b9050919050565b610bec81610bc1565b82525050565b6000606082019050610c076000830186610be3565b610c146020830185610be3565b610c2160408301846108c7565b949350505050565b6000604082019050610c3e6000830185610be3565b610c4b6020830184610be3565b9392505050565b7f4261747465727920616c72656164792072656769737465726564000000000000600082015250565b6000610c88601a83610ad8565b9150610c9382610c52565b602082019050919050565b60006020820190508181036000830152610cb781610c7b565b9050919050565b7f56616c7565206f6620536f43206973206e6f7420656e6f75676820746f20736560008201527f6c6c20656e657267792e00000000000000000000000000000000000000000000602082015250565b6000610d1a602a83610ad8565b9150610d2582610cbe565b604082019050919050565b60006020820190508181036000830152610d4981610d0d565b9050919050565b6000602082019050610d656000830184610be3565b92915050565b600081519050610d7a8161086e565b92915050565b610d89816108d6565b8114610d9457600080fd5b50565b600081519050610da681610d80565b92915050565b600081519050610dbb81610a6c565b92915050565b600080600080600060a08688031215610ddd57610ddc610837565b5b6000610deb88828901610d6b565b9550506020610dfc88828901610d97565b9450506040610e0d88828901610d97565b9350506060610e1e88828901610dac565b9250506080610e2f88828901610d6b565b9150509295509295909350565b7f4e487b7100000000000000000000000000000000000000000000000000000000600052601160045260246000fd5b6000610e76826108d6565b9150610e81836108d6565b9250817fffffffffffffffffffffffffffffffffffffffffffffffffffffffffffffffff0483118215151615610eba57610eb9610e3c565b5b828202905092915050565b7f4e487b7100000000000000000000000000000000000000000000000000000000600052601260045260246000fd5b6000610eff826108d6565b9150610f0a836108d6565b925082610f1a57610f19610ec5565b5b828204905092915050565b6000610f30826108d6565b9150610f3b836108d6565b9250827fffffffffffffffffffffffffffffffffffffffffffffffffffffffffffffffff03821115610f7057610f6f610e3c565b5b828201905092915050565b6000610f86826108d6565b9150610f91836108d6565b925082821015610fa457610fa3610e3c565b5b82820390509291505056fea2646970667358221220a9f8a4a0395032e3911b5caad9efb93bc0a6cf5f16000ef64c0900edb78f5e5f64736f6c63430008090033",
  "immutableReferences": {},
  "source": "// SPDX-License-Identifier: MIT\npragma solidity ^0.8.9;\nimport \"./TSOContract.sol\";\n\ncontract AggregatorAfrrContract {\n    struct Battery {\n        address owner;\n        uint capacity; // in kWh\n        uint initial_soc;\n        bool isRegistered;\n    }\n    uint8 public commissionRate; // in basis points (e.g., 500 means 5%)\n    mapping(address => Battery) public batteries;\n    TSOContract public tso;\n\n    event BatteryRegistered(address indexed owner, uint capacity, uint soc);\n    event BidSubmitted(address indexed owner, uint amount, uint price);\n    event PaymentReceived(uint bidId, uint amount);\n    event BatteryUpdated(address indexed owner, uint newSoc);\n\n    constructor(address _tsoAddress, uint _commissionRate) {\n        tso = TSOContract(_tsoAddress);\n        commissionRate = uint8(_commissionRate);\n    }\n\n    modifier batteryIsRegistered() {\n        require(\n            batteries[msg.sender].isRegistered,\n            \"Battery is not registered yet\"\n        );\n        _;\n    }\n\n    modifier batteryIsNotRegistered() {\n        require(\n            !batteries[msg.sender].isRegistered,\n            \"Battery already registered\"\n        );\n        _;\n    }\n\n    modifier checkSoC(uint8 _SoC) {\n        require(_SoC >= 50, \"Value of SoC is not enough to sell energy.\");\n        _;\n    }\n\n    modifier batteryCapacity(uint8 _amount) {\n        require(\n            _amount <= batteries[msg.sender].capacity,\n            \"Insufficient capacity\"\n        );\n        _;\n    }\n\n    function registerBattery(\n        uint8 _capacity,\n        uint8 _SoC\n    ) external batteryIsNotRegistered checkSoC(_SoC) {\n        batteries[msg.sender] = Battery(msg.sender, _capacity, _SoC, true);\n        emit BatteryRegistered(msg.sender, _capacity, _SoC);\n    }\n\n    function submitBid(\n        uint8 _amount,\n        uint8 _price\n    ) external batteryIsRegistered batteryCapacity(_amount) {\n        // Pass the battery owner's address to the market contract\n        tso.placeBid(_amount, _price, msg.sender);\n        emit BidSubmitted(msg.sender, _amount, _price);\n    }\n\n    function updateBatterySoC(\n        uint8 _bidId,\n        bool isCharging\n    ) external batteryIsRegistered {\n        (address owner, uint amount, , , ) = tso.bids(_bidId);\n        Battery storage battery = batteries[owner];\n        uint8 newSoc = 0;\n        if (isCharging) {\n            newSoc = uint8(\n                battery.initial_soc + ((amount * 100) / battery.capacity)\n            );\n        } else {\n            newSoc = uint8(\n                battery.initial_soc - ((amount * 100) / battery.capacity)\n            );\n        }\n\n        battery.initial_soc = newSoc; // update the SoC\n\n        emit BatteryUpdated(msg.sender, newSoc);\n    }\n\n    /* function receivePayment(uint bidId) public payable {\n        require(bids[bidId].selected, \"Bid not selected\");\n\n        uint commission = (msg.value * commissionRate) / 10000;\n        uint payment = msg.value - commission;\n\n        // Send the payment to the battery owner\n        payable(bids[bidId].aggregator).transfer(payment);\n        emit PaymentReceived(bidId, payment);\n\n        // Send the commission to the aggregator owner\n        payable(owner).transfer(commission);\n    } */\n}\n",
  "sourcePath": "/home/sletolox1001/blockchain_projects/thesis_project/smartcontract/contracts/AggregatorAfrrContract.sol",
  "compiler": {
    "name": "solc",
    "version": "0.8.9+commit.e5eed63a.Emscripten.clang"
  },
  "schemaVersion": "3.4.16",
  "updatedAt": "2024-07-22T14:27:46.296Z",
  "devdoc": {
    "kind": "dev",
    "methods": {},
    "version": 1
  },
  "userdoc": {
    "kind": "user",
    "methods": {},
    "version": 1
  }
}