{
  "contractName": "AggregatorDAMContract",
  "abi": [
    {
      "inputs": [
        {
          "internalType": "address",
          "name": "_marketAddress",
          "type": "address"
        },
        {
          "internalType": "uint8",
          "name": "_commissionPercentage",
          "type": "uint8"
        }
      ],
      "stateMutability": "nonpayable",
      "type": "constructor"
    },
    {
      "anonymous": false,
      "inputs": [
        {
          "indexed": true,
          "internalType": "address",
          "name": "owner",
          "type": "address"
        },
        {
          "indexed": false,
          "internalType": "uint8",
          "name": "capacity",
          "type": "uint8"
        },
        {
          "indexed": false,
          "internalType": "uint8",
          "name": "SoC",
          "type": "uint8"
        }
      ],
      "name": "BatteryRegistered",
      "type": "event"
    },
    {
      "anonymous": false,
      "inputs": [
        {
          "indexed": true,
          "internalType": "address",
          "name": "owner",
          "type": "address"
        },
        {
          "indexed": false,
          "internalType": "uint8",
          "name": "newSoC",
          "type": "uint8"
        }
      ],
      "name": "BatterySoCUpdated",
      "type": "event"
    },
    {
      "anonymous": false,
      "inputs": [
        {
          "indexed": true,
          "internalType": "address",
          "name": "owner",
          "type": "address"
        },
        {
          "indexed": false,
          "internalType": "uint8",
          "name": "amount",
          "type": "uint8"
        },
        {
          "indexed": false,
          "internalType": "uint8",
          "name": "price",
          "type": "uint8"
        }
      ],
      "name": "BidSubmitted",
      "type": "event"
    },
    {
      "anonymous": false,
      "inputs": [
        {
          "indexed": false,
          "internalType": "uint8",
          "name": "newCommission",
          "type": "uint8"
        }
      ],
      "name": "CommissionUpdated",
      "type": "event"
    },
    {
      "anonymous": false,
      "inputs": [
        {
          "indexed": true,
          "internalType": "address",
          "name": "buyer",
          "type": "address"
        },
        {
          "indexed": false,
          "internalType": "uint256",
          "name": "bidId",
          "type": "uint256"
        },
        {
          "indexed": false,
          "internalType": "uint256",
          "name": "amount",
          "type": "uint256"
        },
        {
          "indexed": false,
          "internalType": "uint256",
          "name": "price",
          "type": "uint256"
        }
      ],
      "name": "EnergyPurchasedFromMarket",
      "type": "event"
    },
    {
      "inputs": [
        {
          "internalType": "address",
          "name": "",
          "type": "address"
        }
      ],
      "name": "batteries",
      "outputs": [
        {
          "internalType": "address",
          "name": "owner",
          "type": "address"
        },
        {
          "internalType": "uint8",
          "name": "capacity",
          "type": "uint8"
        },
        {
          "internalType": "uint8",
          "name": "initial_soc",
          "type": "uint8"
        },
        {
          "internalType": "bool",
          "name": "isRegistered",
          "type": "bool"
        }
      ],
      "stateMutability": "view",
      "type": "function"
    },
    {
      "inputs": [],
      "name": "commissionPercentage",
      "outputs": [
        {
          "internalType": "uint8",
          "name": "",
          "type": "uint8"
        }
      ],
      "stateMutability": "view",
      "type": "function"
    },
    {
      "inputs": [],
      "name": "market",
      "outputs": [
        {
          "internalType": "contract MarketContract",
          "name": "",
          "type": "address"
        }
      ],
      "stateMutability": "view",
      "type": "function"
    },
    {
      "inputs": [
        {
          "internalType": "uint8",
          "name": "_capacity",
          "type": "uint8"
        },
        {
          "internalType": "uint8",
          "name": "_SoC",
          "type": "uint8"
        }
      ],
      "name": "registerBattery",
      "outputs": [],
      "stateMutability": "nonpayable",
      "type": "function"
    },
    {
      "inputs": [
        {
          "internalType": "uint8",
          "name": "_amount",
          "type": "uint8"
        },
        {
          "internalType": "uint8",
          "name": "_price",
          "type": "uint8"
        }
      ],
      "name": "submitBid",
      "outputs": [],
      "stateMutability": "nonpayable",
      "type": "function"
    },
    {
      "inputs": [
        {
          "internalType": "uint8",
          "name": "_bidId",
          "type": "uint8"
        }
      ],
      "name": "acceptBid",
      "outputs": [],
      "stateMutability": "nonpayable",
      "type": "function"
    },
    {
      "inputs": [
        {
          "internalType": "uint256",
          "name": "_bidId",
          "type": "uint256"
        }
      ],
      "name": "purchaseEnergy",
      "outputs": [],
      "stateMutability": "payable",
      "type": "function"
    },
    {
      "inputs": [
        {
          "internalType": "uint8",
          "name": "_bidId",
          "type": "uint8"
        }
      ],
      "name": "updateBatterySoC",
      "outputs": [],
      "stateMutability": "nonpayable",
      "type": "function"
    },
    {
      "inputs": [
        {
          "internalType": "uint8",
          "name": "_newCommission",
          "type": "uint8"
        }
      ],
      "name": "updateCommissionPercentage",
      "outputs": [],
      "stateMutability": "nonpayable",
      "type": "function"
    }
  ],
  "bytecode": "0x60806040523480156200001157600080fd5b506040516200172838038062001728833981810160405281019062000037919062000143565b81600160006101000a81548173ffffffffffffffffffffffffffffffffffffffff021916908373ffffffffffffffffffffffffffffffffffffffff16021790555080600160146101000a81548160ff021916908360ff16021790555050506200018a565b600080fd5b600073ffffffffffffffffffffffffffffffffffffffff82169050919050565b6000620000cd82620000a0565b9050919050565b620000df81620000c0565b8114620000eb57600080fd5b50565b600081519050620000ff81620000d4565b92915050565b600060ff82169050919050565b6200011d8162000105565b81146200012957600080fd5b50565b6000815190506200013d8162000112565b92915050565b600080604083850312156200015d576200015c6200009b565b5b60006200016d85828601620000ee565b925050602062000180858286016200012c565b9150509250929050565b61158e806200019a6000396000f3fe6080604052600436106100865760003560e01c806380f556051161005957806380f5560514610139578063adda831614610164578063b1d7521d1461018d578063d575fe64146101b6578063f6d4c0b7146101e157610086565b806318a47d741461008b5780631bb31c30146100b45780636afe2520146100f45780636b7abb8114610110575b600080fd5b34801561009757600080fd5b506100b260048036038101906100ad9190610db6565b61020a565b005b3480156100c057600080fd5b506100db60048036038101906100d69190610e41565b61029c565b6040516100eb9493929190610ea7565b60405180910390f35b61010e60048036038101906101099190610f22565b610313565b005b34801561011c57600080fd5b5061013760048036038101906101329190610f4f565b610642565b005b34801561014557600080fd5b5061014e61084e565b60405161015b9190610fee565b60405180910390f35b34801561017057600080fd5b5061018b60048036038101906101869190610db6565b610874565b005b34801561019957600080fd5b506101b460048036038101906101af9190610f4f565b610aba565b005b3480156101c257600080fd5b506101cb610d10565b6040516101d89190611009565b60405180910390f35b3480156101ed57600080fd5b5061020860048036038101906102039190610db6565b610d23565b005b600160009054906101000a900473ffffffffffffffffffffffffffffffffffffffff1673ffffffffffffffffffffffffffffffffffffffff16630206866482336040518363ffffffff1660e01b8152600401610267929190611055565b600060405180830381600087803b15801561028157600080fd5b505af1158015610295573d6000803e3d6000fd5b5050505050565b60006020528060005260406000206000915090508060000160009054906101000a900473ffffffffffffffffffffffffffffffffffffffff16908060000160149054906101000a900460ff16908060000160159054906101000a900460ff16908060000160169054906101000a900460ff16905084565b600160009054906101000a900473ffffffffffffffffffffffffffffffffffffffff1673ffffffffffffffffffffffffffffffffffffffff16637c79dbbe3483336040518463ffffffff1660e01b815260040161037192919061108d565b6000604051808303818588803b15801561038a57600080fd5b505af115801561039e573d6000803e3d6000fd5b5050505050600080600160009054906101000a900473ffffffffffffffffffffffffffffffffffffffff1673ffffffffffffffffffffffffffffffffffffffff16634423c5f1846040518263ffffffff1660e01b815260040161040191906110b6565b60a06040518083038186803b15801561041957600080fd5b505afa15801561042d573d6000803e3d6000fd5b505050506040513d601f19601f820116820180604052508101906104519190611127565b505092509250506000818361046691906111d1565b905060006064600160149054906101000a900460ff1660ff168361048a91906111d1565b610494919061125a565b9050600081836104a4919061128b565b90506000600160009054906101000a900473ffffffffffffffffffffffffffffffffffffffff1673ffffffffffffffffffffffffffffffffffffffff16634423c5f1886040518263ffffffff1660e01b815260040161050391906110b6565b60a06040518083038186803b15801561051b57600080fd5b505afa15801561052f573d6000803e3d6000fd5b505050506040513d601f19601f820116820180604052508101906105539190611127565b5050505090508073ffffffffffffffffffffffffffffffffffffffff166108fc839081150290604051600060405180830381858888f1935050505015801561059f573d6000803e3d6000fd5b503073ffffffffffffffffffffffffffffffffffffffff166108fc849081150290604051600060405180830381858888f193505050501580156105e6573d6000803e3d6000fd5b503373ffffffffffffffffffffffffffffffffffffffff167fc279e574cf5693f71a05111c464c5d87a0f5867e827a775b5c51cafe0711b8f6888888604051610631939291906112bf565b60405180910390a250505050505050565b6000803373ffffffffffffffffffffffffffffffffffffffff1673ffffffffffffffffffffffffffffffffffffffff16815260200190815260200160002060000160169054906101000a900460ff166106d0576040517f08c379a00000000000000000000000000000000000000000000000000000000081526004016106c790611353565b60405180910390fd5b816000803373ffffffffffffffffffffffffffffffffffffffff1673ffffffffffffffffffffffffffffffffffffffff16815260200190815260200160002060000160149054906101000a900460ff1660ff168160ff161115610768576040517f08c379a000000000000000000000000000000000000000000000000000000000815260040161075f906113bf565b60405180910390fd5b600160009054906101000a900473ffffffffffffffffffffffffffffffffffffffff1673ffffffffffffffffffffffffffffffffffffffff1663ad6561ec8484336040518463ffffffff1660e01b81526004016107c7939291906113df565b600060405180830381600087803b1580156107e157600080fd5b505af11580156107f5573d6000803e3d6000fd5b505050503373ffffffffffffffffffffffffffffffffffffffff167f404e941eb255ca9704eaca3400148fb81ecc5f061bb0df5ded66ae239fa9e6eb8484604051610841929190611416565b60405180910390a2505050565b600160009054906101000a900473ffffffffffffffffffffffffffffffffffffffff1681565b6000803373ffffffffffffffffffffffffffffffffffffffff1673ffffffffffffffffffffffffffffffffffffffff16815260200190815260200160002060000160169054906101000a900460ff16610902576040517f08c379a00000000000000000000000000000000000000000000000000000000081526004016108f990611353565b60405180910390fd5b600080600160009054906101000a900473ffffffffffffffffffffffffffffffffffffffff1673ffffffffffffffffffffffffffffffffffffffff16634423c5f1846040518263ffffffff1660e01b8152600401610960919061143f565b60a06040518083038186803b15801561097857600080fd5b505afa15801561098c573d6000803e3d6000fd5b505050506040513d601f19601f820116820180604052508101906109b09190611127565b5050509150915060008060008473ffffffffffffffffffffffffffffffffffffffff1673ffffffffffffffffffffffffffffffffffffffff168152602001908152602001600020905060008160000160149054906101000a900460ff1660ff16606484610a1d91906111d1565b610a27919061125a565b8260000160159054906101000a900460ff1660ff16610a46919061128b565b9050808260000160156101000a81548160ff021916908360ff1602179055503373ffffffffffffffffffffffffffffffffffffffff167f11f4dcad97a96109130e8659bceff28e7765c33663f38fb1d59bdce4479c3c6c82604051610aab9190611009565b60405180910390a25050505050565b6000803373ffffffffffffffffffffffffffffffffffffffff1673ffffffffffffffffffffffffffffffffffffffff16815260200190815260200160002060000160169054906101000a900460ff1615610b49576040517f08c379a0000000000000000000000000000000000000000000000000000000008152600401610b40906114a6565b60405180910390fd5b8060328160ff161015610b91576040517f08c379a0000000000000000000000000000000000000000000000000000000008152600401610b8890611538565b60405180910390fd5b60405180608001604052803373ffffffffffffffffffffffffffffffffffffffff1681526020018460ff1681526020018360ff168152602001600115158152506000803373ffffffffffffffffffffffffffffffffffffffff1673ffffffffffffffffffffffffffffffffffffffff16815260200190815260200160002060008201518160000160006101000a81548173ffffffffffffffffffffffffffffffffffffffff021916908373ffffffffffffffffffffffffffffffffffffffff16021790555060208201518160000160146101000a81548160ff021916908360ff16021790555060408201518160000160156101000a81548160ff021916908360ff16021790555060608201518160000160166101000a81548160ff0219169083151502179055509050503373ffffffffffffffffffffffffffffffffffffffff167f1ba4e283010f9584ad47830a3d690dc419099fd0c0dbf9840df2e677371fa6798484604051610d03929190611416565b60405180910390a2505050565b600160149054906101000a900460ff1681565b80600160146101000a81548160ff021916908360ff1602179055507f4efba83883126fe608cbfdb56958cc0a1ff6fe60e94a6ffa8171cca407c607f181604051610d6d9190611009565b60405180910390a150565b600080fd5b600060ff82169050919050565b610d9381610d7d565b8114610d9e57600080fd5b50565b600081359050610db081610d8a565b92915050565b600060208284031215610dcc57610dcb610d78565b5b6000610dda84828501610da1565b91505092915050565b600073ffffffffffffffffffffffffffffffffffffffff82169050919050565b6000610e0e82610de3565b9050919050565b610e1e81610e03565b8114610e2957600080fd5b50565b600081359050610e3b81610e15565b92915050565b600060208284031215610e5757610e56610d78565b5b6000610e6584828501610e2c565b91505092915050565b610e7781610e03565b82525050565b610e8681610d7d565b82525050565b60008115159050919050565b610ea181610e8c565b82525050565b6000608082019050610ebc6000830187610e6e565b610ec96020830186610e7d565b610ed66040830185610e7d565b610ee36060830184610e98565b95945050505050565b6000819050919050565b610eff81610eec565b8114610f0a57600080fd5b50565b600081359050610f1c81610ef6565b92915050565b600060208284031215610f3857610f37610d78565b5b6000610f4684828501610f0d565b91505092915050565b60008060408385031215610f6657610f65610d78565b5b6000610f7485828601610da1565b9250506020610f8585828601610da1565b9150509250929050565b6000819050919050565b6000610fb4610faf610faa84610de3565b610f8f565b610de3565b9050919050565b6000610fc682610f99565b9050919050565b6000610fd882610fbb565b9050919050565b610fe881610fcd565b82525050565b60006020820190506110036000830184610fdf565b92915050565b600060208201905061101e6000830184610e7d565b92915050565b600061103f61103a61103584610d7d565b610f8f565b610eec565b9050919050565b61104f81611024565b82525050565b600060408201905061106a6000830185611046565b6110776020830184610e6e565b9392505050565b61108781610eec565b82525050565b60006040820190506110a2600083018561107e565b6110af6020830184610e6e565b9392505050565b60006020820190506110cb600083018461107e565b92915050565b6000815190506110e081610e15565b92915050565b6000815190506110f581610ef6565b92915050565b61110481610e8c565b811461110f57600080fd5b50565b600081519050611121816110fb565b92915050565b600080600080600060a0868803121561114357611142610d78565b5b6000611151888289016110d1565b9550506020611162888289016110e6565b9450506040611173888289016110e6565b935050606061118488828901611112565b9250506080611195888289016110d1565b9150509295509295909350565b7f4e487b7100000000000000000000000000000000000000000000000000000000600052601160045260246000fd5b60006111dc82610eec565b91506111e783610eec565b9250817fffffffffffffffffffffffffffffffffffffffffffffffffffffffffffffffff04831182151516156112205761121f6111a2565b5b828202905092915050565b7f4e487b7100000000000000000000000000000000000000000000000000000000600052601260045260246000fd5b600061126582610eec565b915061127083610eec565b9250826112805761127f61122b565b5b828204905092915050565b600061129682610eec565b91506112a183610eec565b9250828210156112b4576112b36111a2565b5b828203905092915050565b60006060820190506112d4600083018661107e565b6112e1602083018561107e565b6112ee604083018461107e565b949350505050565b600082825260208201905092915050565b7f42617474657279206973206e6f74207265676973746572656420796574000000600082015250565b600061133d601d836112f6565b915061134882611307565b602082019050919050565b6000602082019050818103600083015261136c81611330565b9050919050565b7f496e73756666696369656e742063617061636974790000000000000000000000600082015250565b60006113a96015836112f6565b91506113b482611373565b602082019050919050565b600060208201905081810360008301526113d88161139c565b9050919050565b60006060820190506113f46000830186611046565b6114016020830185611046565b61140e6040830184610e6e565b949350505050565b600060408201905061142b6000830185610e7d565b6114386020830184610e7d565b9392505050565b60006020820190506114546000830184611046565b92915050565b7f4261747465727920616c72656164792072656769737465726564000000000000600082015250565b6000611490601a836112f6565b915061149b8261145a565b602082019050919050565b600060208201905081810360008301526114bf81611483565b9050919050565b7f56616c7565206f6620536f43206973206e6f7420656e6f75676820746f20736560008201527f6c6c20656e657267792e00000000000000000000000000000000000000000000602082015250565b6000611522602a836112f6565b915061152d826114c6565b604082019050919050565b6000602082019050818103600083015261155181611515565b905091905056fea264697066735822122041faa8a61f279d4ff7488c6fab953aaed2a99516e0c9cb706516a7925fa1808564736f6c63430008090033",
  "immutableReferences": {},
  "source": "// SPDX-License-Identifier: MIT\npragma solidity ^0.8.9;\n\nimport \"./MarketContract.sol\";\n\ncontract AggregatorDAMContract {\n    struct Battery {\n        address owner;\n        uint8 capacity; // in kWh\n        uint8 initial_soc;\n        bool isRegistered;\n    }\n\n    mapping(address => Battery) public batteries;\n    MarketContract public market;\n    uint8 public commissionPercentage; // Commission percentage (e.g., 5 means 5%)\n\n    event BatteryRegistered(address indexed owner, uint8 capacity, uint8 SoC);\n    event BidSubmitted(address indexed owner, uint8 amount, uint8 price);\n    event EnergyPurchasedFromMarket(\n        address indexed buyer,\n        uint bidId,\n        uint amount,\n        uint price\n    );\n    event BatterySoCUpdated(address indexed owner, uint8 newSoC);\n    event CommissionUpdated(uint8 newCommission);\n\n    modifier batteryIsNotRegistered() {\n        require(\n            !batteries[msg.sender].isRegistered,\n            \"Battery already registered\"\n        );\n        _;\n    }\n    modifier batteryIsRegistered() {\n        require(\n            batteries[msg.sender].isRegistered,\n            \"Battery is not registered yet\"\n        );\n        _;\n    }\n    modifier checkSoC(uint8 _SoC) {\n        require(_SoC >= 50, \"Value of SoC is not enough to sell energy.\");\n        _;\n    }\n    modifier batteryCapacity(uint8 _amount) {\n        require(\n            _amount <= batteries[msg.sender].capacity,\n            \"Insufficient capacity\"\n        );\n        _;\n    }\n\n    constructor(address _marketAddress, uint8 _commissionPercentage) {\n        market = MarketContract(_marketAddress);\n        commissionPercentage = _commissionPercentage;\n    }\n\n    function registerBattery(\n        uint8 _capacity,\n        uint8 _SoC\n    ) external batteryIsNotRegistered checkSoC(_SoC) {\n        batteries[msg.sender] = Battery(msg.sender, _capacity, _SoC, true);\n        emit BatteryRegistered(msg.sender, _capacity, _SoC);\n    }\n\n    function submitBid(\n        uint8 _amount,\n        uint8 _price\n    ) external batteryIsRegistered batteryCapacity(_amount) {\n        // Pass the battery owner's address to the market contract\n        market.placeBid(_amount, _price, msg.sender);\n        emit BidSubmitted(msg.sender, _amount, _price);\n    }\n\n    function acceptBid(uint8 _bidId) public {\n        market.acceptBid(_bidId, msg.sender);\n    }\n\n    function purchaseEnergy(uint _bidId) public payable {\n        market.purchaseEnergy{value: msg.value}(_bidId, msg.sender);\n        (, uint amount, uint price, , ) = market.bids(_bidId);\n\n        uint totalCost = amount * price;\n        uint commission = (totalCost * commissionPercentage) / 100;\n        uint amountAfterCommission = totalCost - commission;\n\n        (address owner, , , , ) = market.bids(_bidId);\n        payable(owner).transfer(amountAfterCommission);\n        payable(address(this)).transfer(commission);\n\n        emit EnergyPurchasedFromMarket(msg.sender, _bidId, amount, price);\n    }\n\n    function updateBatterySoC(uint8 _bidId) external batteryIsRegistered {\n        // Decrease the SoC of the battery based on the energy sold\n        (address owner, uint amount, , , ) = market.bids(_bidId);\n        Battery storage battery = batteries[owner];\n        uint8 newSoc = uint8(\n            battery.initial_soc - ((amount * 100) / battery.capacity)\n        ); // calculate new SoC\n        battery.initial_soc = newSoc; // update the SoC\n        emit BatterySoCUpdated(msg.sender, newSoc);\n    }\n\n    function updateCommissionPercentage(uint8 _newCommission) external {\n        // Optionally add access control to restrict who can call this function\n        commissionPercentage = _newCommission;\n        emit CommissionUpdated(_newCommission);\n    }\n}\n",
  "sourcePath": "/home/sletolox1001/blockchain_projects/thesis_project/smartcontract/contracts/AggregatorDAMContract.sol",
  "compiler": {
    "name": "solc",
    "version": "0.8.9+commit.e5eed63a.Emscripten.clang"
  },
  "schemaVersion": "3.4.16",
  "updatedAt": "2024-07-22T16:37:55.895Z",
  "devdoc": {
    "kind": "dev",
    "methods": {},
    "version": 1
  },
  "userdoc": {
    "kind": "user",
    "methods": {},
    "version": 1
  }
}