{
  "contractName": "Aggregator",
  "abi": [
    {
      "inputs": [
        {
          "internalType": "uint256",
          "name": "_commissionRate",
          "type": "uint256"
        }
      ],
      "stateMutability": "nonpayable",
      "type": "constructor"
    },
    {
      "inputs": [
        {
          "internalType": "address",
          "name": "",
          "type": "address"
        }
      ],
      "name": "batteries",
      "outputs": [
        {
          "internalType": "address",
          "name": "owner",
          "type": "address"
        },
        {
          "internalType": "uint256",
          "name": "capacity",
          "type": "uint256"
        },
        {
          "internalType": "uint256",
          "name": "SoC",
          "type": "uint256"
        },
        {
          "internalType": "bool",
          "name": "isRegistered",
          "type": "bool"
        }
      ],
      "stateMutability": "view",
      "type": "function",
      "constant": true
    },
    {
      "inputs": [
        {
          "internalType": "uint256",
          "name": "",
          "type": "uint256"
        }
      ],
      "name": "batteryAddresses",
      "outputs": [
        {
          "internalType": "address",
          "name": "",
          "type": "address"
        }
      ],
      "stateMutability": "view",
      "type": "function",
      "constant": true
    },
    {
      "inputs": [],
      "name": "commissionRate",
      "outputs": [
        {
          "internalType": "uint256",
          "name": "",
          "type": "uint256"
        }
      ],
      "stateMutability": "view",
      "type": "function",
      "constant": true
    },
    {
      "inputs": [
        {
          "internalType": "address",
          "name": "_owner",
          "type": "address"
        },
        {
          "internalType": "uint256",
          "name": "_capacity",
          "type": "uint256"
        },
        {
          "internalType": "uint256",
          "name": "_SoC",
          "type": "uint256"
        },
        {
          "internalType": "bool",
          "name": "isRegistered",
          "type": "bool"
        }
      ],
      "name": "registerBattery",
      "outputs": [],
      "stateMutability": "nonpayable",
      "type": "function"
    },
    {
      "inputs": [
        {
          "internalType": "address",
          "name": "_owner",
          "type": "address"
        },
        {
          "internalType": "uint256",
          "name": "_amountSold",
          "type": "uint256"
        },
        {
          "internalType": "bool",
          "name": "_isPositiveReserve",
          "type": "bool"
        }
      ],
      "name": "updateBatterySoCAfterSale",
      "outputs": [],
      "stateMutability": "nonpayable",
      "type": "function"
    },
    {
      "inputs": [
        {
          "internalType": "address",
          "name": "_batteryOwner",
          "type": "address"
        }
      ],
      "name": "getBatterySoC",
      "outputs": [
        {
          "internalType": "uint256",
          "name": "",
          "type": "uint256"
        }
      ],
      "stateMutability": "view",
      "type": "function",
      "constant": true
    }
  ],
  "bytecode": "0x608060405234801561001057600080fd5b50604051610cac380380610cac8339818101604052810190610032919061007a565b80600281905550506100a7565b600080fd5b6000819050919050565b61005781610044565b811461006257600080fd5b50565b6000815190506100748161004e565b92915050565b6000602082840312156100905761008f61003f565b5b600061009e84828501610065565b91505092915050565b610bf6806100b66000396000f3fe608060405234801561001057600080fd5b50600436106100625760003560e01c80631bb31c30146100675780635ea1d6f81461009a5780637edaff94146100b857806386b621ac146100e85780639e9b522c14610104578063b8e14d0314610120575b600080fd5b610081600480360381019061007c91906106ce565b610150565b604051610091949392919061073e565b60405180910390f35b6100a26101ad565b6040516100af9190610783565b60405180910390f35b6100d260048036038101906100cd91906106ce565b6101b3565b6040516100df9190610783565b60405180910390f35b61010260048036038101906100fd91906107f6565b6102ce565b005b61011e6004803603810190610119919061085d565b6104bb565b005b61013a600480360381019061013591906108b0565b61062c565b60405161014791906108dd565b60405180910390f35b60006020528060005260406000206000915090508060000160009054906101000a900473ffffffffffffffffffffffffffffffffffffffff16908060010154908060020154908060030160009054906101000a900460ff16905084565b60025481565b60008073ffffffffffffffffffffffffffffffffffffffff166000808473ffffffffffffffffffffffffffffffffffffffff1673ffffffffffffffffffffffffffffffffffffffff16815260200190815260200160002060000160009054906101000a900473ffffffffffffffffffffffffffffffffffffffff1673ffffffffffffffffffffffffffffffffffffffff161415610285576040517f08c379a000000000000000000000000000000000000000000000000000000000815260040161027c90610955565b60405180910390fd5b6000808373ffffffffffffffffffffffffffffffffffffffff1673ffffffffffffffffffffffffffffffffffffffff168152602001908152602001600020600201549050919050565b6000803373ffffffffffffffffffffffffffffffffffffffff1673ffffffffffffffffffffffffffffffffffffffff16815260200190815260200160002060030160009054906101000a900460ff161561035d576040517f08c379a0000000000000000000000000000000000000000000000000000000008152600401610354906109c1565b60405180910390fd5b60405180608001604052808573ffffffffffffffffffffffffffffffffffffffff1681526020018481526020018381526020018215158152506000808673ffffffffffffffffffffffffffffffffffffffff1673ffffffffffffffffffffffffffffffffffffffff16815260200190815260200160002060008201518160000160006101000a81548173ffffffffffffffffffffffffffffffffffffffff021916908373ffffffffffffffffffffffffffffffffffffffff160217905550602082015181600101556040820151816002015560608201518160030160006101000a81548160ff0219169083151502179055509050506001849080600181540180825580915050600190039060005260206000200160009091909190916101000a81548173ffffffffffffffffffffffffffffffffffffffff021916908373ffffffffffffffffffffffffffffffffffffffff16021790555050505050565b60008060008573ffffffffffffffffffffffffffffffffffffffff1673ffffffffffffffffffffffffffffffffffffffff16815260200190815260200160002090508373ffffffffffffffffffffffffffffffffffffffff168160000160009054906101000a900473ffffffffffffffffffffffffffffffffffffffff1673ffffffffffffffffffffffffffffffffffffffff161461058f576040517f08c379a000000000000000000000000000000000000000000000000000000000815260040161058690610a2d565b60405180910390fd5b81156105d357600081600101546064856105a99190610a7c565b6105b39190610b05565b82600201546105c29190610b36565b905080826002018190555050610626565b600081600101546064856105e79190610a7c565b6105f19190610b05565b82600201546106009190610b6a565b9050606481111561061a5760648260020181905550610624565b8082600201819055505b505b50505050565b6001818154811061063c57600080fd5b906000526020600020016000915054906101000a900473ffffffffffffffffffffffffffffffffffffffff1681565b600080fd5b600073ffffffffffffffffffffffffffffffffffffffff82169050919050565b600061069b82610670565b9050919050565b6106ab81610690565b81146106b657600080fd5b50565b6000813590506106c8816106a2565b92915050565b6000602082840312156106e4576106e361066b565b5b60006106f2848285016106b9565b91505092915050565b61070481610690565b82525050565b6000819050919050565b61071d8161070a565b82525050565b60008115159050919050565b61073881610723565b82525050565b600060808201905061075360008301876106fb565b6107606020830186610714565b61076d6040830185610714565b61077a606083018461072f565b95945050505050565b60006020820190506107986000830184610714565b92915050565b6107a78161070a565b81146107b257600080fd5b50565b6000813590506107c48161079e565b92915050565b6107d381610723565b81146107de57600080fd5b50565b6000813590506107f0816107ca565b92915050565b600080600080608085870312156108105761080f61066b565b5b600061081e878288016106b9565b945050602061082f878288016107b5565b9350506040610840878288016107b5565b9250506060610851878288016107e1565b91505092959194509250565b6000806000606084860312156108765761087561066b565b5b6000610884868287016106b9565b9350506020610895868287016107b5565b92505060406108a6868287016107e1565b9150509250925092565b6000602082840312156108c6576108c561066b565b5b60006108d4848285016107b5565b91505092915050565b60006020820190506108f260008301846106fb565b92915050565b600082825260208201905092915050565b7f4261747465727920646f6573206e6f7420657869737400000000000000000000600082015250565b600061093f6016836108f8565b915061094a82610909565b602082019050919050565b6000602082019050818103600083015261096e81610932565b9050919050565b7f4261747465727920616c72656164792072656769737465726564000000000000600082015250565b60006109ab601a836108f8565b91506109b682610975565b602082019050919050565b600060208201905081810360008301526109da8161099e565b9050919050565b7f42617474657279206e6f7420666f756e64000000000000000000000000000000600082015250565b6000610a176011836108f8565b9150610a22826109e1565b602082019050919050565b60006020820190508181036000830152610a4681610a0a565b9050919050565b7f4e487b7100000000000000000000000000000000000000000000000000000000600052601160045260246000fd5b6000610a878261070a565b9150610a928361070a565b9250817fffffffffffffffffffffffffffffffffffffffffffffffffffffffffffffffff0483118215151615610acb57610aca610a4d565b5b828202905092915050565b7f4e487b7100000000000000000000000000000000000000000000000000000000600052601260045260246000fd5b6000610b108261070a565b9150610b1b8361070a565b925082610b2b57610b2a610ad6565b5b828204905092915050565b6000610b418261070a565b9150610b4c8361070a565b925082821015610b5f57610b5e610a4d565b5b828203905092915050565b6000610b758261070a565b9150610b808361070a565b9250827fffffffffffffffffffffffffffffffffffffffffffffffffffffffffffffffff03821115610bb557610bb4610a4d565b5b82820190509291505056fea26469706673582212205a64236a41b77f0173c1ac14f08d1f5d45edb4ed89b3698bb54dbe37dbf7b45d64736f6c63430008090033",
  "immutableReferences": {},
  "source": "// SPDX-License-Identifier: MIT\npragma solidity ^0.8.9;\n\ncontract Aggregator {\n    struct Battery {\n        address owner;\n        uint capacity; // in kWh\n        uint SoC; // State of Charge in percentage\n        bool isRegistered;\n    }\n\n    mapping(address => Battery) public batteries;\n    address[] public batteryAddresses;\n    uint public commissionRate; // Commission rate in percentage, e.g., 5 for 5%\n\n    modifier batteryIsNotRegistered() {\n        require(\n            !batteries[msg.sender].isRegistered,\n            \"Battery already registered\"\n        );\n        _;\n    }\n    constructor(uint _commissionRate) {\n        commissionRate = _commissionRate;\n    }\n\n    function registerBattery(\n        address _owner,\n        uint _capacity,\n        uint _SoC,\n        bool isRegistered\n    ) external batteryIsNotRegistered {\n        batteries[_owner] = Battery(_owner, _capacity, _SoC, isRegistered);\n        batteryAddresses.push(_owner);\n    }\n\n    function updateBatterySoCAfterSale(\n        address _owner,\n        uint _amountSold,\n        bool _isPositiveReserve\n    ) external {\n        Battery storage battery = batteries[_owner];\n        require(battery.owner == _owner, \"Battery not found\");\n        if (_isPositiveReserve) {\n            uint newSoc = uint(\n                battery.SoC - ((_amountSold * 100) / battery.capacity)\n            ); // calculate new SoC\n            battery.SoC = newSoc; // update the SoC\n        } else {\n            uint newSoc = uint(\n                battery.SoC + ((_amountSold * 100) / battery.capacity)\n            ); // calculate new SoC\n            if (newSoc > 100) battery.SoC = 100;\n            else battery.SoC = newSoc;\n        }\n    }\n\n    // Funzione per ottenere il SoC di una batteria\n    function getBatterySoC(address _batteryOwner) public view returns (uint) {\n        require(\n            batteries[_batteryOwner].owner != address(0),\n            \"Battery does not exist\"\n        );\n        return batteries[_batteryOwner].SoC;\n    }\n}\n",
  "sourcePath": "/home/sletolox1001/blockchain_projects/thesis_project/smartcontract/contracts/Aggregator.sol",
  "compiler": {
    "name": "solc",
    "version": "0.8.9+commit.e5eed63a.Emscripten.clang"
  },
  "schemaVersion": "3.4.16",
  "updatedAt": "2024-09-25T10:00:08.469Z",
  "networkType": "ethereum",
  "devdoc": {
    "kind": "dev",
    "methods": {},
    "version": 1
  },
  "userdoc": {
    "kind": "user",
    "methods": {},
    "version": 1
  }
}