{
  "contractName": "Blockchain",
  "abi": [
    {
      "anonymous": false,
      "inputs": [
        {
          "indexed": true,
          "internalType": "address",
          "name": "owner",
          "type": "address"
        },
        {
          "indexed": false,
          "internalType": "uint256",
          "name": "capacity",
          "type": "uint256"
        },
        {
          "indexed": false,
          "internalType": "uint256",
          "name": "SoC",
          "type": "uint256"
        }
      ],
      "name": "BatteryRegistered",
      "type": "event"
    },
    {
      "anonymous": false,
      "inputs": [
        {
          "indexed": true,
          "internalType": "address",
          "name": "bidder",
          "type": "address"
        },
        {
          "indexed": false,
          "internalType": "uint256",
          "name": "amount",
          "type": "uint256"
        },
        {
          "indexed": false,
          "internalType": "uint256",
          "name": "capacity",
          "type": "uint256"
        }
      ],
      "name": "BidRegistered",
      "type": "event"
    },
    {
      "anonymous": false,
      "inputs": [
        {
          "indexed": true,
          "internalType": "address",
          "name": "recipient",
          "type": "address"
        },
        {
          "indexed": false,
          "internalType": "uint256",
          "name": "amount",
          "type": "uint256"
        }
      ],
      "name": "PaymentValidated",
      "type": "event"
    },
    {
      "inputs": [
        {
          "internalType": "address",
          "name": "_bidder",
          "type": "address"
        },
        {
          "internalType": "uint256",
          "name": "_amount",
          "type": "uint256"
        },
        {
          "internalType": "uint256",
          "name": "_capacity",
          "type": "uint256"
        }
      ],
      "name": "registerBid",
      "outputs": [],
      "stateMutability": "nonpayable",
      "type": "function"
    },
    {
      "inputs": [
        {
          "internalType": "address",
          "name": "_owner",
          "type": "address"
        },
        {
          "internalType": "uint256",
          "name": "_capacity",
          "type": "uint256"
        },
        {
          "internalType": "uint256",
          "name": "_SoC",
          "type": "uint256"
        }
      ],
      "name": "registerBattery",
      "outputs": [],
      "stateMutability": "nonpayable",
      "type": "function"
    },
    {
      "inputs": [
        {
          "internalType": "address",
          "name": "_recipient",
          "type": "address"
        },
        {
          "internalType": "uint256",
          "name": "_amount",
          "type": "uint256"
        }
      ],
      "name": "validatePayment",
      "outputs": [],
      "stateMutability": "nonpayable",
      "type": "function"
    }
  ],
  "bytecode": "0x608060405234801561001057600080fd5b5061034b806100206000396000f3fe608060405234801561001057600080fd5b50600436106100415760003560e01c80638a69b7af1461004657806395ccccaf14610062578063b223209f1461007e575b600080fd5b610060600480360381019061005b919061022f565b61009a565b005b61007c60048036038101906100779190610282565b6100ef565b005b6100986004803603810190610093919061022f565b610141565b005b8273ffffffffffffffffffffffffffffffffffffffff167f0e709851101f0da53d361a35ce6ac95b5abf063888156fd2f06d9b8add843db083836040516100e29291906102d1565b60405180910390a2505050565b8173ffffffffffffffffffffffffffffffffffffffff167fff8f494156aa0f4a85a35d05bab916b768336738a94e1c818e8e1cb0819feacc8260405161013591906102fa565b60405180910390a25050565b8273ffffffffffffffffffffffffffffffffffffffff167fd08b57c1fcc963554aa986f624bdb40345753a76d6e83acb1b6dbd764e56c46283836040516101899291906102d1565b60405180910390a2505050565b600080fd5b600073ffffffffffffffffffffffffffffffffffffffff82169050919050565b60006101c68261019b565b9050919050565b6101d6816101bb565b81146101e157600080fd5b50565b6000813590506101f3816101cd565b92915050565b6000819050919050565b61020c816101f9565b811461021757600080fd5b50565b60008135905061022981610203565b92915050565b60008060006060848603121561024857610247610196565b5b6000610256868287016101e4565b93505060206102678682870161021a565b92505060406102788682870161021a565b9150509250925092565b6000806040838503121561029957610298610196565b5b60006102a7858286016101e4565b92505060206102b88582860161021a565b9150509250929050565b6102cb816101f9565b82525050565b60006040820190506102e660008301856102c2565b6102f360208301846102c2565b9392505050565b600060208201905061030f60008301846102c2565b9291505056fea26469706673582212208aaed6cd7f0dc19149429f4ac02d1c347c3392686a76476d3bd7a545e4cbb3c664736f6c63430008090033",
  "immutableReferences": {},
  "source": "// SPDX-License-Identifier: MIT\npragma solidity ^0.8.0;\n\ncontract Blockchain {\n    event BidRegistered(address indexed bidder, uint amount, uint capacity);\n    event BatteryRegistered(address indexed owner, uint capacity, uint SoC);\n    event PaymentValidated(address indexed recipient, uint amount);\n\n    function registerBid(address _bidder, uint _amount, uint _capacity) public {\n        emit BidRegistered(_bidder, _amount, _capacity);\n    }\n\n    function registerBattery(address _owner, uint _capacity, uint _SoC) public {\n        emit BatteryRegistered(_owner, _capacity, _SoC);\n    }\n\n    function validatePayment(address _recipient, uint _amount) public {\n        emit PaymentValidated(_recipient, _amount);\n    }\n}\n",
  "sourcePath": "/home/sletolox1001/blockchain_projects/thesis_project/smartcontract/contracts/Blockchain.sol",
  "compiler": {
    "name": "solc",
    "version": "0.8.9+commit.e5eed63a.Emscripten.clang"
  },
  "schemaVersion": "3.4.16",
  "updatedAt": "2024-07-23T11:57:51.854Z",
  "devdoc": {
    "kind": "dev",
    "methods": {},
    "version": 1
  },
  "userdoc": {
    "kind": "user",
    "methods": {},
    "version": 1
  }
}