{
  "contractName": "MarketContract",
  "abi": [
    {
      "inputs": [
        {
          "internalType": "address",
          "name": "_marketAdmin",
          "type": "address"
        },
        {
          "internalType": "uint256",
          "name": "_marketOpenTime",
          "type": "uint256"
        },
        {
          "internalType": "uint256",
          "name": "_marketCloseTime",
          "type": "uint256"
        },
        {
          "internalType": "uint256",
          "name": "_resultsAnnouncementTime",
          "type": "uint256"
        }
      ],
      "stateMutability": "nonpayable",
      "type": "constructor"
    },
    {
      "anonymous": false,
      "inputs": [
        {
          "indexed": false,
          "internalType": "uint256",
          "name": "bidId",
          "type": "uint256"
        },
        {
          "indexed": true,
          "internalType": "address",
          "name": "buyer",
          "type": "address"
        }
      ],
      "name": "BidAccepted",
      "type": "event"
    },
    {
      "anonymous": false,
      "inputs": [
        {
          "indexed": false,
          "internalType": "uint256",
          "name": "bidId",
          "type": "uint256"
        },
        {
          "indexed": true,
          "internalType": "address",
          "name": "owner",
          "type": "address"
        },
        {
          "indexed": false,
          "internalType": "uint256",
          "name": "amount",
          "type": "uint256"
        },
        {
          "indexed": false,
          "internalType": "uint256",
          "name": "price",
          "type": "uint256"
        }
      ],
      "name": "BidPlaced",
      "type": "event"
    },
    {
      "anonymous": false,
      "inputs": [
        {
          "indexed": false,
          "internalType": "uint256",
          "name": "bidId",
          "type": "uint256"
        },
        {
          "indexed": true,
          "internalType": "address",
          "name": "buyer",
          "type": "address"
        },
        {
          "indexed": false,
          "internalType": "address",
          "name": "owner",
          "type": "address"
        },
        {
          "indexed": false,
          "internalType": "uint256",
          "name": "amount",
          "type": "uint256"
        },
        {
          "indexed": false,
          "internalType": "uint256",
          "name": "price",
          "type": "uint256"
        }
      ],
      "name": "EnergyPurchased",
      "type": "event"
    },
    {
      "anonymous": false,
      "inputs": [
        {
          "indexed": false,
          "internalType": "uint256",
          "name": "openTime",
          "type": "uint256"
        },
        {
          "indexed": false,
          "internalType": "uint256",
          "name": "closeTime",
          "type": "uint256"
        },
        {
          "indexed": false,
          "internalType": "uint256",
          "name": "resultsTime",
          "type": "uint256"
        }
      ],
      "name": "MarketTimesUpdated",
      "type": "event"
    },
    {
      "anonymous": false,
      "inputs": [
        {
          "indexed": false,
          "internalType": "uint256",
          "name": "bidId",
          "type": "uint256"
        },
        {
          "indexed": true,
          "internalType": "address",
          "name": "buyer",
          "type": "address"
        },
        {
          "indexed": true,
          "internalType": "address",
          "name": "owner",
          "type": "address"
        },
        {
          "indexed": false,
          "internalType": "uint256",
          "name": "amount",
          "type": "uint256"
        },
        {
          "indexed": false,
          "internalType": "uint256",
          "name": "price",
          "type": "uint256"
        }
      ],
      "name": "PaymentRecorded",
      "type": "event"
    },
    {
      "inputs": [],
      "name": "bidCount",
      "outputs": [
        {
          "internalType": "uint256",
          "name": "",
          "type": "uint256"
        }
      ],
      "stateMutability": "view",
      "type": "function"
    },
    {
      "inputs": [
        {
          "internalType": "uint256",
          "name": "",
          "type": "uint256"
        }
      ],
      "name": "bids",
      "outputs": [
        {
          "internalType": "address",
          "name": "owner",
          "type": "address"
        },
        {
          "internalType": "uint256",
          "name": "amount",
          "type": "uint256"
        },
        {
          "internalType": "uint256",
          "name": "price",
          "type": "uint256"
        },
        {
          "internalType": "bool",
          "name": "isAccepted",
          "type": "bool"
        },
        {
          "internalType": "address",
          "name": "acceptedBy",
          "type": "address"
        }
      ],
      "stateMutability": "view",
      "type": "function"
    },
    {
      "inputs": [],
      "name": "marketAdmin",
      "outputs": [
        {
          "internalType": "address",
          "name": "",
          "type": "address"
        }
      ],
      "stateMutability": "view",
      "type": "function"
    },
    {
      "inputs": [],
      "name": "marketCloseTime",
      "outputs": [
        {
          "internalType": "uint256",
          "name": "",
          "type": "uint256"
        }
      ],
      "stateMutability": "view",
      "type": "function"
    },
    {
      "inputs": [],
      "name": "marketOpenTime",
      "outputs": [
        {
          "internalType": "uint256",
          "name": "",
          "type": "uint256"
        }
      ],
      "stateMutability": "view",
      "type": "function"
    },
    {
      "inputs": [],
      "name": "resultsAnnouncementTime",
      "outputs": [
        {
          "internalType": "uint256",
          "name": "",
          "type": "uint256"
        }
      ],
      "stateMutability": "view",
      "type": "function"
    },
    {
      "inputs": [
        {
          "internalType": "uint256",
          "name": "_marketOpenTime",
          "type": "uint256"
        },
        {
          "internalType": "uint256",
          "name": "_marketCloseTime",
          "type": "uint256"
        },
        {
          "internalType": "uint256",
          "name": "_resultsAnnouncementTime",
          "type": "uint256"
        }
      ],
      "name": "updateMarketTimes",
      "outputs": [],
      "stateMutability": "nonpayable",
      "type": "function"
    },
    {
      "inputs": [
        {
          "internalType": "uint256",
          "name": "_amount",
          "type": "uint256"
        },
        {
          "internalType": "uint256",
          "name": "_price",
          "type": "uint256"
        },
        {
          "internalType": "address",
          "name": "_owner",
          "type": "address"
        }
      ],
      "name": "placeBid",
      "outputs": [],
      "stateMutability": "nonpayable",
      "type": "function"
    },
    {
      "inputs": [
        {
          "internalType": "uint256",
          "name": "_bidId",
          "type": "uint256"
        }
      ],
      "name": "acceptBid",
      "outputs": [],
      "stateMutability": "nonpayable",
      "type": "function"
    },
    {
      "inputs": [
        {
          "internalType": "uint256",
          "name": "_bidId",
          "type": "uint256"
        }
      ],
      "name": "purchaseEnergy",
      "outputs": [],
      "stateMutability": "payable",
      "type": "function"
    }
  ],
  "bytecode": "0x60806040523480156200001157600080fd5b50604051620014e4380380620014e483398181016040528101906200003791906200013c565b83600260006101000a81548173ffffffffffffffffffffffffffffffffffffffff021916908373ffffffffffffffffffffffffffffffffffffffff16021790555082600381905550816004819055508060058190555050505050620001ae565b600080fd5b600073ffffffffffffffffffffffffffffffffffffffff82169050919050565b6000620000c9826200009c565b9050919050565b620000db81620000bc565b8114620000e757600080fd5b50565b600081519050620000fb81620000d0565b92915050565b6000819050919050565b620001168162000101565b81146200012257600080fd5b50565b60008151905062000136816200010b565b92915050565b6000806000806080858703121562000159576200015862000097565b5b60006200016987828801620000ea565b94505060206200017c8782880162000125565b93505060406200018f8782880162000125565b9250506060620001a28782880162000125565b91505092959194509250565b61132680620001be6000396000f3fe6080604052600436106100915760003560e01c8063ad6561ec11610059578063ad6561ec14610172578063b40a56271461019b578063c75224f3146101c6578063e2288eda146101f1578063e9811d7e1461021c57610091565b80630592bdc8146100965780632b1fd58a146100c15780634423c5f1146100ea57806347c62c5b1461012b5780636afe252014610156575b600080fd5b3480156100a257600080fd5b506100ab610245565b6040516100b89190610b8c565b60405180910390f35b3480156100cd57600080fd5b506100e860048036038101906100e39190610be2565b61026b565b005b3480156100f657600080fd5b50610111600480360381019061010c9190610be2565b610497565b604051610122959493929190610c39565b60405180910390f35b34801561013757600080fd5b5061014061051a565b60405161014d9190610c8c565b60405180910390f35b610170600480360381019061016b9190610be2565b610520565b005b34801561017e57600080fd5b5061019960048036038101906101949190610cd3565b61085a565b005b3480156101a757600080fd5b506101b0610a4e565b6040516101bd9190610c8c565b60405180910390f35b3480156101d257600080fd5b506101db610a54565b6040516101e89190610c8c565b60405180910390f35b3480156101fd57600080fd5b50610206610a5a565b6040516102139190610c8c565b60405180910390f35b34801561022857600080fd5b50610243600480360381019061023e9190610d26565b610a60565b005b600260009054906101000a900473ffffffffffffffffffffffffffffffffffffffff1681565b6004544211801561027d575060055442105b6102bc576040517f08c379a00000000000000000000000000000000000000000000000000000000081526004016102b390610dd6565b60405180910390fd5b600073ffffffffffffffffffffffffffffffffffffffff1660008083815260200190815260200160002060000160009054906101000a900473ffffffffffffffffffffffffffffffffffffffff1673ffffffffffffffffffffffffffffffffffffffff161415610361576040517f08c379a000000000000000000000000000000000000000000000000000000000815260040161035890610e42565b60405180910390fd5b60008082815260200190815260200160002060030160009054906101000a900460ff16156103c4576040517f08c379a00000000000000000000000000000000000000000000000000000000081526004016103bb90610eae565b60405180910390fd5b600160008083815260200190815260200160002060030160006101000a81548160ff0219169083151502179055503360008083815260200190815260200160002060030160016101000a81548173ffffffffffffffffffffffffffffffffffffffff021916908373ffffffffffffffffffffffffffffffffffffffff1602179055503373ffffffffffffffffffffffffffffffffffffffff167f0b7e3c2d0983fdcbfa4fcb08da6f6d862e83ce066e7bbc783163da9753a829aa8260405161048c9190610c8c565b60405180910390a250565b60006020528060005260406000206000915090508060000160009054906101000a900473ffffffffffffffffffffffffffffffffffffffff16908060010154908060020154908060030160009054906101000a900460ff16908060030160019054906101000a900473ffffffffffffffffffffffffffffffffffffffff16905085565b60035481565b600554421015610565576040517f08c379a000000000000000000000000000000000000000000000000000000000815260040161055c90610f40565b60405180910390fd5b60008082815260200190815260200160002060030160009054906101000a900460ff166105c7576040517f08c379a00000000000000000000000000000000000000000000000000000000081526004016105be90610fac565b60405180910390fd5b3373ffffffffffffffffffffffffffffffffffffffff1660008083815260200190815260200160002060030160019054906101000a900473ffffffffffffffffffffffffffffffffffffffff1673ffffffffffffffffffffffffffffffffffffffff161461066a576040517f08c379a000000000000000000000000000000000000000000000000000000000815260040161066190611018565b60405180910390fd5b60008082815260200190815260200160002060020154600080838152602001908152602001600020600101546106a09190611067565b3410156106e2576040517f08c379a00000000000000000000000000000000000000000000000000000000081526004016106d99061110d565b60405180910390fd5b600080600083815260200190815260200160002060000160009054906101000a900473ffffffffffffffffffffffffffffffffffffffff169050600080600084815260200190815260200160002060010154905060008060008581526020019081526020016000206002015490508273ffffffffffffffffffffffffffffffffffffffff166108fc349081150290604051600060405180830381858888f19350505050158015610796573d6000803e3d6000fd5b508273ffffffffffffffffffffffffffffffffffffffff163373ffffffffffffffffffffffffffffffffffffffff167f3a2f85db325b07b9f114afef3024125aa494614d1bb7d56066da6dc83c9c637f8685856040516107f89392919061112d565b60405180910390a33373ffffffffffffffffffffffffffffffffffffffff167f12cf6843df230dff5c8306a3113a5aac775144198c3f4dfe127764b6db1fbb018585858560405161084c9493929190611164565b60405180910390a250505050565b600354421015801561086e57506004544211155b6108ad576040517f08c379a00000000000000000000000000000000000000000000000000000000081526004016108a4906111f5565b60405180910390fd5b6040518060a001604052808273ffffffffffffffffffffffffffffffffffffffff168152602001848152602001838152602001600015158152602001600073ffffffffffffffffffffffffffffffffffffffff16815250600080600154815260200190815260200160002060008201518160000160006101000a81548173ffffffffffffffffffffffffffffffffffffffff021916908373ffffffffffffffffffffffffffffffffffffffff160217905550602082015181600101556040820151816002015560608201518160030160006101000a81548160ff02191690831515021790555060808201518160030160016101000a81548173ffffffffffffffffffffffffffffffffffffffff021916908373ffffffffffffffffffffffffffffffffffffffff1602179055509050508073ffffffffffffffffffffffffffffffffffffffff167f51db8e23b3f4479b162fd48823b8402895442b8f6cfd94f66239391881ec7b6f6001548585604051610a299392919061112d565b60405180910390a260016000815480929190610a4490611215565b9190505550505050565b60015481565b60045481565b60055481565b600260009054906101000a900473ffffffffffffffffffffffffffffffffffffffff1673ffffffffffffffffffffffffffffffffffffffff163373ffffffffffffffffffffffffffffffffffffffff1614610af0576040517f08c379a0000000000000000000000000000000000000000000000000000000008152600401610ae7906112d0565b60405180910390fd5b8260038190555081600481905550806005819055507fa8a96ac60986b06f9915778f9c4bb7a98c07747b96f721aeb68fd538c3179fe0600354600454600554604051610b3e9392919061112d565b60405180910390a1505050565b600073ffffffffffffffffffffffffffffffffffffffff82169050919050565b6000610b7682610b4b565b9050919050565b610b8681610b6b565b82525050565b6000602082019050610ba16000830184610b7d565b92915050565b600080fd5b6000819050919050565b610bbf81610bac565b8114610bca57600080fd5b50565b600081359050610bdc81610bb6565b92915050565b600060208284031215610bf857610bf7610ba7565b5b6000610c0684828501610bcd565b91505092915050565b610c1881610bac565b82525050565b60008115159050919050565b610c3381610c1e565b82525050565b600060a082019050610c4e6000830188610b7d565b610c5b6020830187610c0f565b610c686040830186610c0f565b610c756060830185610c2a565b610c826080830184610b7d565b9695505050505050565b6000602082019050610ca16000830184610c0f565b92915050565b610cb081610b6b565b8114610cbb57600080fd5b50565b600081359050610ccd81610ca7565b92915050565b600080600060608486031215610cec57610ceb610ba7565b5b6000610cfa86828701610bcd565b9350506020610d0b86828701610bcd565b9250506040610d1c86828701610cbe565b9150509250925092565b600080600060608486031215610d3f57610d3e610ba7565b5b6000610d4d86828701610bcd565b9350506020610d5e86828701610bcd565b9250506040610d6f86828701610bcd565b9150509250925092565b600082825260208201905092915050565b7f416363657074616e636520706572696f64206973206e6f74206f70656e000000600082015250565b6000610dc0601d83610d79565b9150610dcb82610d8a565b602082019050919050565b60006020820190508181036000830152610def81610db3565b9050919050565b7f42696420646f6573206e6f742065786973740000000000000000000000000000600082015250565b6000610e2c601283610d79565b9150610e3782610df6565b602082019050919050565b60006020820190508181036000830152610e5b81610e1f565b9050919050565b7f42696420616c7265616479206163636570746564000000000000000000000000600082015250565b6000610e98601483610d79565b9150610ea382610e62565b602082019050919050565b60006020820190508181036000830152610ec781610e8b565b9050919050565b7f526573756c747320616e6e6f756e63656d656e7420706572696f64206973206e60008201527f6f74206f70656e00000000000000000000000000000000000000000000000000602082015250565b6000610f2a602783610d79565b9150610f3582610ece565b604082019050919050565b60006020820190508181036000830152610f5981610f1d565b9050919050565b7f426964206e6f7420616363657074656400000000000000000000000000000000600082015250565b6000610f96601083610d79565b9150610fa182610f60565b602082019050919050565b60006020820190508181036000830152610fc581610f89565b9050919050565b7f4f6e6c792061636365707465642062757965722063616e207075726368617365600082015250565b6000611002602083610d79565b915061100d82610fcc565b602082019050919050565b6000602082019050818103600083015261103181610ff5565b9050919050565b7f4e487b7100000000000000000000000000000000000000000000000000000000600052601160045260246000fd5b600061107282610bac565b915061107d83610bac565b9250817fffffffffffffffffffffffffffffffffffffffffffffffffffffffffffffffff04831182151516156110b6576110b5611038565b5b828202905092915050565b7f496e73756666696369656e742066756e64730000000000000000000000000000600082015250565b60006110f7601283610d79565b9150611102826110c1565b602082019050919050565b60006020820190508181036000830152611126816110ea565b9050919050565b60006060820190506111426000830186610c0f565b61114f6020830185610c0f565b61115c6040830184610c0f565b949350505050565b60006080820190506111796000830187610c0f565b6111866020830186610b7d565b6111936040830185610c0f565b6111a06060830184610c0f565b95945050505050565b7f4d61726b6574206973206e6f74206f70656e0000000000000000000000000000600082015250565b60006111df601283610d79565b91506111ea826111a9565b602082019050919050565b6000602082019050818103600083015261120e816111d2565b9050919050565b600061122082610bac565b91507fffffffffffffffffffffffffffffffffffffffffffffffffffffffffffffffff82141561125357611252611038565b5b600182019050919050565b7f4f6e6c7920746865204d61726b65742041646d696e2063616e20706572666f7260008201527f6d207468697320616374696f6e00000000000000000000000000000000000000602082015250565b60006112ba602d83610d79565b91506112c58261125e565b604082019050919050565b600060208201905081810360008301526112e9816112ad565b905091905056fea264697066735822122062c6efe8b4b62beacc9c86157feccaa7c29503670d7f37ee1941e0da41cbfb8064736f6c63430008090033",
  "immutableReferences": {},
  "source": "// SPDX-License-Identifier: MIT\npragma solidity ^0.8.9;\n\ncontract MarketContract {\n    struct Bid {\n        address owner;\n        uint amount; // in kWh\n        uint price; // in wei per kWh\n        bool isAccepted;\n        address acceptedBy;\n    }\n\n    mapping(uint => Bid) public bids;\n    uint public bidCount;\n    address public marketAdmin;\n\n    uint public marketOpenTime;\n    uint public marketCloseTime;\n    uint public resultsAnnouncementTime;\n\n    event BidPlaced(uint bidId, address indexed owner, uint amount, uint price);\n    event BidAccepted(uint bidId, address indexed buyer);\n    event MarketTimesUpdated(uint openTime, uint closeTime, uint resultsTime);\n    event EnergyPurchased(\n        uint bidId,\n        address indexed buyer,\n        address owner,\n        uint amount,\n        uint price\n    );\n    event PaymentRecorded(\n        uint bidId,\n        address indexed buyer,\n        address indexed owner,\n        uint amount,\n        uint price\n    );\n\n    modifier onlyMarketAdmin() {\n        require(\n            msg.sender == marketAdmin,\n            \"Only the Market Admin can perform this action\"\n        );\n        _;\n    }\n\n    modifier onlyDuringMarketOpen() {\n        require(\n            block.timestamp >= marketOpenTime &&\n                block.timestamp <= marketCloseTime,\n            \"Market is not open\"\n        );\n        _;\n    }\n\n    modifier onlyDuringAcceptancePeriod() {\n        require(\n            block.timestamp > marketCloseTime &&\n                block.timestamp < resultsAnnouncementTime,\n            \"Acceptance period is not open\"\n        );\n        _;\n    }\n\n    modifier onlyDuringResultsAnnouncement() {\n        require(\n            block.timestamp >= resultsAnnouncementTime,\n            \"Results announcement period is not open\"\n        );\n        _;\n    }\n\n    constructor(\n        address _marketAdmin,\n        uint _marketOpenTime,\n        uint _marketCloseTime,\n        uint _resultsAnnouncementTime\n    ) {\n        marketAdmin = _marketAdmin;\n        marketOpenTime = _marketOpenTime;\n        marketCloseTime = _marketCloseTime;\n        resultsAnnouncementTime = _resultsAnnouncementTime;\n    }\n\n    function updateMarketTimes(\n        uint _marketOpenTime,\n        uint _marketCloseTime,\n        uint _resultsAnnouncementTime\n    ) public onlyMarketAdmin {\n        marketOpenTime = _marketOpenTime;\n        marketCloseTime = _marketCloseTime;\n        resultsAnnouncementTime = _resultsAnnouncementTime;\n        emit MarketTimesUpdated(\n            marketOpenTime,\n            marketCloseTime,\n            resultsAnnouncementTime\n        );\n    }\n\n    function placeBid(\n        uint _amount,\n        uint _price,\n        address _owner\n    ) public onlyDuringMarketOpen {\n        bids[bidCount] = Bid(_owner, _amount, _price, false, address(0));\n        emit BidPlaced(bidCount, _owner, _amount, _price);\n        bidCount++;\n    }\n\n    function acceptBid(uint _bidId) public onlyDuringAcceptancePeriod {\n        require(bids[_bidId].owner != address(0), \"Bid does not exist\");\n        require(!bids[_bidId].isAccepted, \"Bid already accepted\");\n        bids[_bidId].isAccepted = true;\n        bids[_bidId].acceptedBy = msg.sender;\n        emit BidAccepted(_bidId, msg.sender);\n    }\n\n    function purchaseEnergy(\n        uint _bidId\n    ) public payable onlyDuringResultsAnnouncement {\n        require(bids[_bidId].isAccepted, \"Bid not accepted\");\n        require(\n            bids[_bidId].acceptedBy == msg.sender,\n            \"Only accepted buyer can purchase\"\n        );\n        require(\n            msg.value >= bids[_bidId].amount * bids[_bidId].price,\n            \"Insufficient funds\"\n        );\n\n        address owner = bids[_bidId].owner;\n        uint amount = bids[_bidId].amount;\n        uint price = bids[_bidId].price;\n\n        payable(owner).transfer(msg.value);\n        emit PaymentRecorded(_bidId, msg.sender, owner, amount, price);\n        emit EnergyPurchased(_bidId, msg.sender, owner, amount, price);\n    }\n}\n",
  "sourcePath": "/home/sletolox1001/blockchain_projects/day_ahead_market_project/smartcontract/contracts/MarketContract.sol",
  "compiler": {
    "name": "solc",
    "version": "0.8.9+commit.e5eed63a.Emscripten.clang"
  },
  "schemaVersion": "3.4.16",
  "updatedAt": "2024-07-22T07:58:29.396Z",
  "devdoc": {
    "kind": "dev",
    "methods": {},
    "version": 1
  },
  "userdoc": {
    "kind": "user",
    "methods": {},
    "version": 1
  }
}