{
  "contractName": "Market",
  "abi": [
    {
      "inputs": [
        {
          "internalType": "address",
          "name": "_payment",
          "type": "address"
        }
      ],
      "stateMutability": "nonpayable",
      "type": "constructor"
    },
    {
      "anonymous": false,
      "inputs": [
        {
          "indexed": true,
          "internalType": "address",
          "name": "bidder",
          "type": "address"
        },
        {
          "indexed": false,
          "internalType": "uint256",
          "name": "amount",
          "type": "uint256"
        },
        {
          "indexed": false,
          "internalType": "uint256",
          "name": "price",
          "type": "uint256"
        }
      ],
      "name": "BidPlaced",
      "type": "event"
    },
    {
      "anonymous": false,
      "inputs": [
        {
          "indexed": true,
          "internalType": "address",
          "name": "aggregator",
          "type": "address"
        },
        {
          "indexed": false,
          "internalType": "uint256",
          "name": "amount",
          "type": "uint256"
        }
      ],
      "name": "CommissionPaid",
      "type": "event"
    },
    {
      "anonymous": false,
      "inputs": [
        {
          "indexed": false,
          "internalType": "uint256",
          "name": "openTime",
          "type": "uint256"
        },
        {
          "indexed": false,
          "internalType": "uint256",
          "name": "closeTime",
          "type": "uint256"
        },
        {
          "indexed": false,
          "internalType": "uint256",
          "name": "resultsTime",
          "type": "uint256"
        }
      ],
      "name": "MarketTimesUpdated",
      "type": "event"
    },
    {
      "anonymous": false,
      "inputs": [
        {
          "indexed": true,
          "internalType": "address",
          "name": "buyer",
          "type": "address"
        },
        {
          "indexed": true,
          "internalType": "address",
          "name": "seller",
          "type": "address"
        },
        {
          "indexed": false,
          "internalType": "uint256",
          "name": "amount",
          "type": "uint256"
        },
        {
          "indexed": false,
          "internalType": "uint256",
          "name": "price",
          "type": "uint256"
        }
      ],
      "name": "PurchaseConfirmed",
      "type": "event"
    },
    {
      "inputs": [
        {
          "internalType": "address",
          "name": "",
          "type": "address"
        }
      ],
      "name": "aggregators",
      "outputs": [
        {
          "internalType": "address",
          "name": "",
          "type": "address"
        }
      ],
      "stateMutability": "view",
      "type": "function"
    },
    {
      "inputs": [
        {
          "internalType": "address",
          "name": "",
          "type": "address"
        }
      ],
      "name": "balances",
      "outputs": [
        {
          "internalType": "uint256",
          "name": "",
          "type": "uint256"
        }
      ],
      "stateMutability": "view",
      "type": "function"
    },
    {
      "inputs": [],
      "name": "bidCount",
      "outputs": [
        {
          "internalType": "uint256",
          "name": "",
          "type": "uint256"
        }
      ],
      "stateMutability": "view",
      "type": "function"
    },
    {
      "inputs": [
        {
          "internalType": "uint256",
          "name": "",
          "type": "uint256"
        }
      ],
      "name": "bids",
      "outputs": [
        {
          "internalType": "address",
          "name": "bidder",
          "type": "address"
        },
        {
          "internalType": "uint256",
          "name": "amount",
          "type": "uint256"
        },
        {
          "internalType": "uint256",
          "name": "price",
          "type": "uint256"
        }
      ],
      "stateMutability": "view",
      "type": "function"
    },
    {
      "inputs": [],
      "name": "marketCloseTime",
      "outputs": [
        {
          "internalType": "uint256",
          "name": "",
          "type": "uint256"
        }
      ],
      "stateMutability": "view",
      "type": "function"
    },
    {
      "inputs": [],
      "name": "marketOpenTime",
      "outputs": [
        {
          "internalType": "uint256",
          "name": "",
          "type": "uint256"
        }
      ],
      "stateMutability": "view",
      "type": "function"
    },
    {
      "inputs": [],
      "name": "payment",
      "outputs": [
        {
          "internalType": "contract Payment",
          "name": "",
          "type": "address"
        }
      ],
      "stateMutability": "view",
      "type": "function"
    },
    {
      "inputs": [],
      "name": "resultsAnnouncementTime",
      "outputs": [
        {
          "internalType": "uint256",
          "name": "",
          "type": "uint256"
        }
      ],
      "stateMutability": "view",
      "type": "function"
    },
    {
      "inputs": [
        {
          "internalType": "address",
          "name": "_aggregatorOwner",
          "type": "address"
        },
        {
          "internalType": "address",
          "name": "_aggregator",
          "type": "address"
        }
      ],
      "name": "setAggregator",
      "outputs": [],
      "stateMutability": "nonpayable",
      "type": "function"
    },
    {
      "inputs": [
        {
          "internalType": "uint256",
          "name": "_openTime",
          "type": "uint256"
        },
        {
          "internalType": "uint256",
          "name": "_closeTime",
          "type": "uint256"
        },
        {
          "internalType": "uint256",
          "name": "_resultsTime",
          "type": "uint256"
        }
      ],
      "name": "setMarketTimes",
      "outputs": [],
      "stateMutability": "nonpayable",
      "type": "function"
    },
    {
      "inputs": [
        {
          "internalType": "uint256",
          "name": "_amount",
          "type": "uint256"
        },
        {
          "internalType": "uint256",
          "name": "_price",
          "type": "uint256"
        }
      ],
      "name": "placeBid",
      "outputs": [],
      "stateMutability": "nonpayable",
      "type": "function"
    },
    {
      "inputs": [],
      "name": "depositFunds",
      "outputs": [],
      "stateMutability": "payable",
      "type": "function"
    },
    {
      "inputs": [
        {
          "internalType": "address",
          "name": "_buyer",
          "type": "address"
        },
        {
          "internalType": "address",
          "name": "_seller",
          "type": "address"
        },
        {
          "internalType": "uint256",
          "name": "_amount",
          "type": "uint256"
        },
        {
          "internalType": "uint256",
          "name": "_price",
          "type": "uint256"
        }
      ],
      "name": "confirmPurchase",
      "outputs": [],
      "stateMutability": "nonpayable",
      "type": "function"
    },
    {
      "inputs": [],
      "name": "settlePayments",
      "outputs": [],
      "stateMutability": "payable",
      "type": "function"
    }
  ],
  "bytecode": "0x60806040523480156200001157600080fd5b5060405162001903380380620019038339818101604052810190620000379190620000e8565b806000806101000a81548173ffffffffffffffffffffffffffffffffffffffff021916908373ffffffffffffffffffffffffffffffffffffffff160217905550506200011a565b600080fd5b600073ffffffffffffffffffffffffffffffffffffffff82169050919050565b6000620000b08262000083565b9050919050565b620000c281620000a3565b8114620000ce57600080fd5b50565b600081519050620000e281620000b7565b92915050565b6000602082840312156200010157620001006200007e565b5b60006200011184828501620000d1565b91505092915050565b6117d9806200012a6000396000f3fe6080604052600436106100dd5760003560e01c806357c90de51161007f578063b40a562711610059578063b40a56271461029f578063c75224f3146102ca578063e2288eda146102f5578063e2c41dbc14610320576100dd565b806357c90de5146102245780637394a7f61461024d5780639b2bd8f214610276576100dd565b80633e9f2a6a116100bb5780633e9f2a6a1461018557806342f6487a1461018f5780634423c5f1146101ba57806347c62c5b146101f9576100dd565b8063112cdab9146100e257806324ae99161461011f57806327e235e314610148575b600080fd5b3480156100ee57600080fd5b5061010960048036038101906101049190610f80565b61032a565b6040516101169190610fbc565b60405180910390f35b34801561012b57600080fd5b506101466004803603810190610141919061100d565b61035d565b005b34801561015457600080fd5b5061016f600480360381019061016a9190610f80565b610784565b60405161017c9190611083565b60405180910390f35b61018d61079c565b005b34801561019b57600080fd5b506101a4610bc2565b6040516101b191906110fd565b60405180910390f35b3480156101c657600080fd5b506101e160048036038101906101dc9190611118565b610be6565b6040516101f093929190611145565b60405180910390f35b34801561020557600080fd5b5061020e610c30565b60405161021b9190611083565b60405180910390f35b34801561023057600080fd5b5061024b6004803603810190610246919061117c565b610c36565b005b34801561025957600080fd5b50610274600480360381019061026f91906111bc565b610ddc565b005b34801561028257600080fd5b5061029d600480360381019061029891906111fc565b610e5e565b005b3480156102ab57600080fd5b506102b4610eb3565b6040516102c19190611083565b60405180910390f35b3480156102d657600080fd5b506102df610eb9565b6040516102ec9190611083565b60405180910390f35b34801561030157600080fd5b5061030a610ebf565b6040516103179190611083565b60405180910390f35b610328610ec5565b005b60076020528060005260406000206000915054906101000a900473ffffffffffffffffffffffffffffffffffffffff1681565b6002544211801561036f575060035442105b6103ae576040517f08c379a00000000000000000000000000000000000000000000000000000000081526004016103a5906112ac565b60405180910390fd5b600081836103bc91906112fb565b90506000600760008673ffffffffffffffffffffffffffffffffffffffff1673ffffffffffffffffffffffffffffffffffffffff16815260200190815260200160002060009054906101000a900473ffffffffffffffffffffffffffffffffffffffff169050600073ffffffffffffffffffffffffffffffffffffffff168173ffffffffffffffffffffffffffffffffffffffff161415610492576040517f08c379a0000000000000000000000000000000000000000000000000000000008152600401610489906113a1565b60405180910390fd5b6000819050600060648273ffffffffffffffffffffffffffffffffffffffff16635ea1d6f86040518163ffffffff1660e01b815260040160206040518083038186803b1580156104e157600080fd5b505afa1580156104f5573d6000803e3d6000fd5b505050506040513d601f19601f8201168201806040525081019061051991906113d6565b8561052491906112fb565b61052e9190611432565b90506000818561053e9190611463565b905084600660008b73ffffffffffffffffffffffffffffffffffffffff1673ffffffffffffffffffffffffffffffffffffffff1681526020019081526020016000205410156105c2576040517f08c379a00000000000000000000000000000000000000000000000000000000081526004016105b9906114e3565b60405180910390fd5b80600660008a73ffffffffffffffffffffffffffffffffffffffff1673ffffffffffffffffffffffffffffffffffffffff16815260200190815260200160002060008282546106119190611503565b9250508190555081600660008673ffffffffffffffffffffffffffffffffffffffff1673ffffffffffffffffffffffffffffffffffffffff16815260200190815260200160002060008282546106679190611503565b9250508190555084600660008b73ffffffffffffffffffffffffffffffffffffffff1673ffffffffffffffffffffffffffffffffffffffff16815260200190815260200160002060008282546106bd9190611463565b925050819055508773ffffffffffffffffffffffffffffffffffffffff168973ffffffffffffffffffffffffffffffffffffffff167ff398f99f7ce820e5b296b9b0268ea3419fa937a85bc2b57b9068e21753449f668989604051610723929190611559565b60405180910390a38373ffffffffffffffffffffffffffffffffffffffff167f885e6f6235626292940f78c947a331f4c7c1d7f50a48b38092cf546bc9c7907a836040516107719190611083565b60405180910390a2505050505050505050565b60066020528060005260406000206000915090505481565b6003544210156107e1576040517f08c379a00000000000000000000000000000000000000000000000000000000081526004016107d8906115f4565b60405180910390fd5b60005b600554811015610bbf576000600460008381526020019081526020016000206040518060600160405290816000820160009054906101000a900473ffffffffffffffffffffffffffffffffffffffff1673ffffffffffffffffffffffffffffffffffffffff1673ffffffffffffffffffffffffffffffffffffffff168152602001600182015481526020016002820154815250509050600060076000836000015173ffffffffffffffffffffffffffffffffffffffff1673ffffffffffffffffffffffffffffffffffffffff16815260200190815260200160002060009054906101000a900473ffffffffffffffffffffffffffffffffffffffff1690506000600660008373ffffffffffffffffffffffffffffffffffffffff1673ffffffffffffffffffffffffffffffffffffffff168152602001908152602001600020541115610a3e5760008054906101000a900473ffffffffffffffffffffffffffffffffffffffff1673ffffffffffffffffffffffffffffffffffffffff1663d1a0cc5c3083600660008673ffffffffffffffffffffffffffffffffffffffff1673ffffffffffffffffffffffffffffffffffffffff168152602001908152602001600020546040518463ffffffff1660e01b81526004016109c693929190611614565b600060405180830381600087803b1580156109e057600080fd5b505af11580156109f4573d6000803e3d6000fd5b505050506000600660008373ffffffffffffffffffffffffffffffffffffffff1673ffffffffffffffffffffffffffffffffffffffff168152602001908152602001600020819055505b600060066000846000015173ffffffffffffffffffffffffffffffffffffffff1673ffffffffffffffffffffffffffffffffffffffff168152602001908152602001600020541115610baa5760008054906101000a900473ffffffffffffffffffffffffffffffffffffffff1673ffffffffffffffffffffffffffffffffffffffff1663d1a0cc5c30846000015160066000876000015173ffffffffffffffffffffffffffffffffffffffff1673ffffffffffffffffffffffffffffffffffffffff168152602001908152602001600020546040518463ffffffff1660e01b8152600401610b2e93929190611614565b600060405180830381600087803b158015610b4857600080fd5b505af1158015610b5c573d6000803e3d6000fd5b50505050600060066000846000015173ffffffffffffffffffffffffffffffffffffffff1673ffffffffffffffffffffffffffffffffffffffff168152602001908152602001600020819055505b50508080610bb79061164b565b9150506107e4565b50565b60008054906101000a900473ffffffffffffffffffffffffffffffffffffffff1681565b60046020528060005260406000206000915090508060000160009054906101000a900473ffffffffffffffffffffffffffffffffffffffff16908060010154908060020154905083565b60015481565b6001544210158015610c4a57506002544211155b610c89576040517f08c379a0000000000000000000000000000000000000000000000000000000008152600401610c80906116e0565b60405180910390fd5b60008111610ccc576040517f08c379a0000000000000000000000000000000000000000000000000000000008152600401610cc39061174c565b60405180910390fd5b60405180606001604052803373ffffffffffffffffffffffffffffffffffffffff1681526020018381526020018281525060046000600554815260200190815260200160002060008201518160000160006101000a81548173ffffffffffffffffffffffffffffffffffffffff021916908373ffffffffffffffffffffffffffffffffffffffff16021790555060208201518160010155604082015181600201559050503373ffffffffffffffffffffffffffffffffffffffff167fdf8644c0a4c21ed214ce69f395675b3a5fcd1039083daea5058898de40ea31498383604051610db8929190611559565b60405180910390a260056000815480929190610dd39061164b565b91905055505050565b80600760008473ffffffffffffffffffffffffffffffffffffffff1673ffffffffffffffffffffffffffffffffffffffff16815260200190815260200160002060006101000a81548173ffffffffffffffffffffffffffffffffffffffff021916908373ffffffffffffffffffffffffffffffffffffffff1602179055505050565b8260018190555081600281905550806003819055507fa8a96ac60986b06f9915778f9c4bb7a98c07747b96f721aeb68fd538c3179fe0838383604051610ea69392919061176c565b60405180910390a1505050565b60055481565b60025481565b60035481565b34600660003373ffffffffffffffffffffffffffffffffffffffff1673ffffffffffffffffffffffffffffffffffffffff1681526020019081526020016000206000828254610f149190611503565b92505081905550565b600080fd5b600073ffffffffffffffffffffffffffffffffffffffff82169050919050565b6000610f4d82610f22565b9050919050565b610f5d81610f42565b8114610f6857600080fd5b50565b600081359050610f7a81610f54565b92915050565b600060208284031215610f9657610f95610f1d565b5b6000610fa484828501610f6b565b91505092915050565b610fb681610f42565b82525050565b6000602082019050610fd16000830184610fad565b92915050565b6000819050919050565b610fea81610fd7565b8114610ff557600080fd5b50565b60008135905061100781610fe1565b92915050565b6000806000806080858703121561102757611026610f1d565b5b600061103587828801610f6b565b945050602061104687828801610f6b565b935050604061105787828801610ff8565b925050606061106887828801610ff8565b91505092959194509250565b61107d81610fd7565b82525050565b60006020820190506110986000830184611074565b92915050565b6000819050919050565b60006110c36110be6110b984610f22565b61109e565b610f22565b9050919050565b60006110d5826110a8565b9050919050565b60006110e7826110ca565b9050919050565b6110f7816110dc565b82525050565b600060208201905061111260008301846110ee565b92915050565b60006020828403121561112e5761112d610f1d565b5b600061113c84828501610ff8565b91505092915050565b600060608201905061115a6000830186610fad565b6111676020830185611074565b6111746040830184611074565b949350505050565b6000806040838503121561119357611192610f1d565b5b60006111a185828601610ff8565b92505060206111b285828601610ff8565b9150509250929050565b600080604083850312156111d3576111d2610f1d565b5b60006111e185828601610f6b565b92505060206111f285828601610f6b565b9150509250929050565b60008060006060848603121561121557611214610f1d565b5b600061122386828701610ff8565b935050602061123486828701610ff8565b925050604061124586828701610ff8565b9150509250925092565b600082825260208201905092915050565b7f416363657074616e636520706572696f64206973206e6f74206f70656e000000600082015250565b6000611296601d8361124f565b91506112a182611260565b602082019050919050565b600060208201905081810360008301526112c581611289565b9050919050565b7f4e487b7100000000000000000000000000000000000000000000000000000000600052601160045260246000fd5b600061130682610fd7565b915061131183610fd7565b9250817fffffffffffffffffffffffffffffffffffffffffffffffffffffffffffffffff048311821515161561134a576113496112cc565b5b828202905092915050565b7f41676772656761746f72206e6f7420666f756e6420666f722073656c6c657200600082015250565b600061138b601f8361124f565b915061139682611355565b602082019050919050565b600060208201905081810360008301526113ba8161137e565b9050919050565b6000815190506113d081610fe1565b92915050565b6000602082840312156113ec576113eb610f1d565b5b60006113fa848285016113c1565b91505092915050565b7f4e487b7100000000000000000000000000000000000000000000000000000000600052601260045260246000fd5b600061143d82610fd7565b915061144883610fd7565b92508261145857611457611403565b5b828204905092915050565b600061146e82610fd7565b915061147983610fd7565b92508282101561148c5761148b6112cc565b5b828203905092915050565b7f496e73756666696369656e742066756e647320666f7220627579657200000000600082015250565b60006114cd601c8361124f565b91506114d882611497565b602082019050919050565b600060208201905081810360008301526114fc816114c0565b9050919050565b600061150e82610fd7565b915061151983610fd7565b9250827fffffffffffffffffffffffffffffffffffffffffffffffffffffffffffffffff0382111561154e5761154d6112cc565b5b828201905092915050565b600060408201905061156e6000830185611074565b61157b6020830184611074565b9392505050565b7f526573756c747320616e6e6f756e63656d656e7420706572696f64206973206e60008201527f6f74206f70656e00000000000000000000000000000000000000000000000000602082015250565b60006115de60278361124f565b91506115e982611582565b604082019050919050565b6000602082019050818103600083015261160d816115d1565b9050919050565b60006060820190506116296000830186610fad565b6116366020830185610fad565b6116436040830184611074565b949350505050565b600061165682610fd7565b91507fffffffffffffffffffffffffffffffffffffffffffffffffffffffffffffffff821415611689576116886112cc565b5b600182019050919050565b7f4d61726b6574206973206e6f74206f70656e0000000000000000000000000000600082015250565b60006116ca60128361124f565b91506116d582611694565b602082019050919050565b600060208201905081810360008301526116f9816116bd565b9050919050565b7f7072696365206d7573742062652067726561746572207468616e203000000000600082015250565b6000611736601c8361124f565b915061174182611700565b602082019050919050565b6000602082019050818103600083015261176581611729565b9050919050565b60006060820190506117816000830186611074565b61178e6020830185611074565b61179b6040830184611074565b94935050505056fea2646970667358221220b19bd8acb4ab29797e6f1b67024ff3659cd651c29574ceed4dada1ecc548da5b64736f6c63430008090033",
  "immutableReferences": {},
  "source": "// SPDX-License-Identifier: MIT\npragma solidity ^0.8.0;\n\nimport \"./Aggregator.sol\";\nimport \"./Payment.sol\";\n\ncontract Market {\n    Payment public payment;\n\n    uint public marketOpenTime;\n    uint public marketCloseTime;\n    uint public resultsAnnouncementTime;\n\n    event MarketTimesUpdated(uint openTime, uint closeTime, uint resultsTime);\n    event BidPlaced(address indexed bidder, uint amount, uint price);\n    event PurchaseConfirmed(\n        address indexed buyer,\n        address indexed seller,\n        uint amount,\n        uint price\n    );\n    event CommissionPaid(address indexed aggregator, uint amount);\n\n    struct Bid {\n        address bidder;\n        uint amount; // in kWh\n        uint price; // in wei per kWh\n    }\n\n    mapping(uint => Bid) public bids;\n    uint public bidCount;\n    mapping(address => uint) public balances;\n    mapping(address => address) public aggregators; // maps aggregator address to aggregator contract\n\n    modifier onlyDuringMarketOpen() {\n        require(\n            block.timestamp >= marketOpenTime &&\n                block.timestamp <= marketCloseTime,\n            \"Market is not open\"\n        );\n        _;\n    }\n\n    modifier onlyDuringAcceptancePeriod() {\n        require(\n            block.timestamp > marketCloseTime &&\n                block.timestamp < resultsAnnouncementTime,\n            \"Acceptance period is not open\"\n        );\n        _;\n    }\n\n    modifier onlyDuringResultsAnnouncement() {\n        require(\n            block.timestamp >= resultsAnnouncementTime,\n            \"Results announcement period is not open\"\n        );\n        _;\n    }\n\n    constructor(address _payment) {\n        payment = Payment(_payment);\n    }\n\n    function setAggregator(\n        address _aggregatorOwner,\n        address _aggregator\n    ) public {\n        aggregators[_aggregatorOwner] = _aggregator;\n    }\n\n    function setMarketTimes(\n        uint _openTime,\n        uint _closeTime,\n        uint _resultsTime\n    ) public {\n        marketOpenTime = _openTime;\n        marketCloseTime = _closeTime;\n        resultsAnnouncementTime = _resultsTime;\n        emit MarketTimesUpdated(_openTime, _closeTime, _resultsTime);\n    }\n\n    function placeBid(uint _amount, uint _price) public onlyDuringMarketOpen {\n        require(_price > 0, \"price must be greater than 0\");\n        bids[bidCount] = Bid(msg.sender, _amount, _price);\n        emit BidPlaced(msg.sender, _amount, _price);\n        bidCount++;\n    }\n\n    function depositFunds() public payable {\n        // questa funzione permette al buyer di depositare fondi per l'acquisto dal mercato\n        balances[msg.sender] += msg.value;\n    }\n\n    function confirmPurchase(\n        address _buyer,\n        address _seller,\n        uint _amount,\n        uint _price\n    ) public onlyDuringAcceptancePeriod {\n        uint totalCost = _amount * _price;\n        address aggregatorAddress = aggregators[_seller];\n        require(\n            aggregatorAddress != address(0),\n            \"Aggregator not found for seller\"\n        );\n        Aggregator aggregator = Aggregator(aggregatorAddress);\n\n        uint commission = (totalCost * aggregator.commissionRate()) / 100;\n        uint amountAfterCommission = totalCost - commission;\n\n        require(balances[_buyer] >= totalCost, \"Insufficient funds for buyer\");\n\n        balances[_seller] += amountAfterCommission;\n        balances[aggregatorAddress] += commission;\n        balances[_buyer] -= totalCost;\n\n        emit PurchaseConfirmed(_buyer, _seller, _amount, _price);\n        emit CommissionPaid(aggregatorAddress, commission);\n    }\n\n    function settlePayments() public payable onlyDuringResultsAnnouncement {\n        for (uint i = 0; i < bidCount; i++) {\n            Bid memory bid = bids[i];\n            address aggregatorAddress = aggregators[bid.bidder];\n            if (balances[aggregatorAddress] > 0) {\n                payment.processPayment(\n                    address(this),\n                    aggregatorAddress,\n                    balances[aggregatorAddress]\n                );\n                balances[aggregatorAddress] = 0;\n            }\n            if (balances[bid.bidder] > 0) {\n                payment.processPayment(\n                    address(this),\n                    bid.bidder,\n                    balances[bid.bidder]\n                );\n                balances[bid.bidder] = 0;\n            }\n        }\n    }\n}\n",
  "sourcePath": "/home/sletolox1001/blockchain_projects/thesis_project/smartcontract/contracts/Market.sol",
  "compiler": {
    "name": "solc",
    "version": "0.8.9+commit.e5eed63a.Emscripten.clang"
  },
  "schemaVersion": "3.4.16",
  "updatedAt": "2024-07-29T13:03:06.047Z",
  "devdoc": {
    "kind": "dev",
    "methods": {},
    "version": 1
  },
  "userdoc": {
    "kind": "user",
    "methods": {},
    "version": 1
  }
}