{
  "contractName": "Market",
  "abi": [
    {
      "inputs": [
        {
          "internalType": "address",
          "name": "_marketAdmin",
          "type": "address"
        }
      ],
      "stateMutability": "nonpayable",
      "type": "constructor"
    },
    {
      "anonymous": false,
      "inputs": [
        {
          "indexed": false,
          "internalType": "uint256",
          "name": "bidId",
          "type": "uint256"
        },
        {
          "indexed": true,
          "internalType": "address",
          "name": "buyer",
          "type": "address"
        }
      ],
      "name": "BidAccepted",
      "type": "event"
    },
    {
      "anonymous": false,
      "inputs": [
        {
          "indexed": true,
          "internalType": "address",
          "name": "bidder",
          "type": "address"
        },
        {
          "indexed": false,
          "internalType": "address",
          "name": "batteryOwner",
          "type": "address"
        },
        {
          "indexed": false,
          "internalType": "uint256",
          "name": "amount",
          "type": "uint256"
        },
        {
          "indexed": false,
          "internalType": "uint256",
          "name": "price",
          "type": "uint256"
        }
      ],
      "name": "BidPlaced",
      "type": "event"
    },
    {
      "anonymous": false,
      "inputs": [
        {
          "indexed": true,
          "internalType": "address",
          "name": "aggregator",
          "type": "address"
        },
        {
          "indexed": false,
          "internalType": "uint256",
          "name": "amount",
          "type": "uint256"
        }
      ],
      "name": "CommissionPaid",
      "type": "event"
    },
    {
      "anonymous": false,
      "inputs": [
        {
          "indexed": false,
          "internalType": "uint256",
          "name": "openTime",
          "type": "uint256"
        },
        {
          "indexed": false,
          "internalType": "uint256",
          "name": "closeTime",
          "type": "uint256"
        },
        {
          "indexed": false,
          "internalType": "uint256",
          "name": "resultsTime",
          "type": "uint256"
        }
      ],
      "name": "MarketTimesUpdated",
      "type": "event"
    },
    {
      "anonymous": false,
      "inputs": [
        {
          "indexed": false,
          "internalType": "uint256",
          "name": "bidId",
          "type": "uint256"
        },
        {
          "indexed": true,
          "internalType": "address",
          "name": "aggregator",
          "type": "address"
        },
        {
          "indexed": true,
          "internalType": "address",
          "name": "buyer",
          "type": "address"
        },
        {
          "indexed": false,
          "internalType": "uint256",
          "name": "commission",
          "type": "uint256"
        }
      ],
      "name": "PaymentToAggregatorOwnerRecorded",
      "type": "event"
    },
    {
      "anonymous": false,
      "inputs": [
        {
          "indexed": false,
          "internalType": "uint256",
          "name": "bidId",
          "type": "uint256"
        },
        {
          "indexed": true,
          "internalType": "address",
          "name": "batteryOwner",
          "type": "address"
        },
        {
          "indexed": true,
          "internalType": "address",
          "name": "buyer",
          "type": "address"
        },
        {
          "indexed": false,
          "internalType": "uint256",
          "name": "amount",
          "type": "uint256"
        }
      ],
      "name": "PaymentToBatteryOwnerRecorded",
      "type": "event"
    },
    {
      "anonymous": false,
      "inputs": [
        {
          "indexed": true,
          "internalType": "address",
          "name": "buyer",
          "type": "address"
        },
        {
          "indexed": true,
          "internalType": "address",
          "name": "seller",
          "type": "address"
        },
        {
          "indexed": false,
          "internalType": "uint256",
          "name": "bidId",
          "type": "uint256"
        }
      ],
      "name": "PurchaseConfirmed",
      "type": "event"
    },
    {
      "inputs": [
        {
          "internalType": "address",
          "name": "",
          "type": "address"
        }
      ],
      "name": "aggregators",
      "outputs": [
        {
          "internalType": "address",
          "name": "",
          "type": "address"
        }
      ],
      "stateMutability": "view",
      "type": "function",
      "constant": true
    },
    {
      "inputs": [],
      "name": "bidCount",
      "outputs": [
        {
          "internalType": "uint256",
          "name": "",
          "type": "uint256"
        }
      ],
      "stateMutability": "view",
      "type": "function",
      "constant": true
    },
    {
      "inputs": [
        {
          "internalType": "uint256",
          "name": "",
          "type": "uint256"
        }
      ],
      "name": "bids",
      "outputs": [
        {
          "internalType": "address",
          "name": "bidder",
          "type": "address"
        },
        {
          "internalType": "address",
          "name": "batteryOwner",
          "type": "address"
        },
        {
          "internalType": "uint256",
          "name": "amount",
          "type": "uint256"
        },
        {
          "internalType": "uint256",
          "name": "price",
          "type": "uint256"
        },
        {
          "internalType": "bool",
          "name": "isSelected",
          "type": "bool"
        },
        {
          "internalType": "address",
          "name": "acceptedBy",
          "type": "address"
        }
      ],
      "stateMutability": "view",
      "type": "function",
      "constant": true
    },
    {
      "inputs": [],
      "name": "marketAdmin",
      "outputs": [
        {
          "internalType": "address",
          "name": "",
          "type": "address"
        }
      ],
      "stateMutability": "view",
      "type": "function",
      "constant": true
    },
    {
      "inputs": [],
      "name": "marketCloseTime",
      "outputs": [
        {
          "internalType": "uint256",
          "name": "",
          "type": "uint256"
        }
      ],
      "stateMutability": "view",
      "type": "function",
      "constant": true
    },
    {
      "inputs": [],
      "name": "marketOpenTime",
      "outputs": [
        {
          "internalType": "uint256",
          "name": "",
          "type": "uint256"
        }
      ],
      "stateMutability": "view",
      "type": "function",
      "constant": true
    },
    {
      "inputs": [],
      "name": "resultsAnnouncementTime",
      "outputs": [
        {
          "internalType": "uint256",
          "name": "",
          "type": "uint256"
        }
      ],
      "stateMutability": "view",
      "type": "function",
      "constant": true
    },
    {
      "inputs": [
        {
          "internalType": "address",
          "name": "_owner",
          "type": "address"
        },
        {
          "internalType": "address",
          "name": "_aggregator",
          "type": "address"
        }
      ],
      "name": "setAggregator",
      "outputs": [],
      "stateMutability": "nonpayable",
      "type": "function"
    },
    {
      "inputs": [
        {
          "internalType": "uint256",
          "name": "_openTime",
          "type": "uint256"
        },
        {
          "internalType": "uint256",
          "name": "_closeTime",
          "type": "uint256"
        },
        {
          "internalType": "uint256",
          "name": "_resultsTime",
          "type": "uint256"
        }
      ],
      "name": "setMarketTimes",
      "outputs": [],
      "stateMutability": "nonpayable",
      "type": "function"
    },
    {
      "inputs": [
        {
          "internalType": "address",
          "name": "_bidder",
          "type": "address"
        },
        {
          "internalType": "address",
          "name": "_batteryOwner",
          "type": "address"
        },
        {
          "internalType": "uint256",
          "name": "_amount",
          "type": "uint256"
        },
        {
          "internalType": "uint256",
          "name": "_price",
          "type": "uint256"
        }
      ],
      "name": "placeBid",
      "outputs": [],
      "stateMutability": "nonpayable",
      "type": "function"
    },
    {
      "inputs": [
        {
          "internalType": "uint256",
          "name": "_bidId",
          "type": "uint256"
        }
      ],
      "name": "acceptBid",
      "outputs": [],
      "stateMutability": "nonpayable",
      "type": "function"
    },
    {
      "inputs": [
        {
          "internalType": "uint256",
          "name": "_bidId",
          "type": "uint256"
        }
      ],
      "name": "purchaseEnergy",
      "outputs": [],
      "stateMutability": "payable",
      "type": "function",
      "payable": true
    }
  ],
  "bytecode": "0x60806040523480156200001157600080fd5b5060405162001db038038062001db08339818101604052810190620000379190620000e9565b80600360006101000a81548173ffffffffffffffffffffffffffffffffffffffff021916908373ffffffffffffffffffffffffffffffffffffffff160217905550506200011b565b600080fd5b600073ffffffffffffffffffffffffffffffffffffffff82169050919050565b6000620000b18262000084565b9050919050565b620000c381620000a4565b8114620000cf57600080fd5b50565b600081519050620000e381620000b8565b92915050565b6000602082840312156200010257620001016200007f565b5b60006200011284828501620000d2565b91505092915050565b611c85806200012b6000396000f3fe6080604052600436106100a75760003560e01c80637394a7f6116100645780637394a7f6146101c65780639b2bd8f2146101ef578063ab0c7d5614610218578063b40a562714610241578063c75224f31461026c578063e2288eda14610297576100a7565b80630592bdc8146100ac578063112cdab9146100d75780632b1fd58a146101145780634423c5f11461013d57806347c62c5b1461017f5780636afe2520146101aa575b600080fd5b3480156100b857600080fd5b506100c16102c2565b6040516100ce91906111a4565b60405180910390f35b3480156100e357600080fd5b506100fe60048036038101906100f991906111f0565b6102e8565b60405161010b91906111a4565b60405180910390f35b34801561012057600080fd5b5061013b60048036038101906101369190611253565b61031b565b005b34801561014957600080fd5b50610164600480360381019061015f9190611253565b61054b565b604051610176969594939291906112aa565b60405180910390f35b34801561018b57600080fd5b506101946105f4565b6040516101a1919061130b565b60405180910390f35b6101c460048036038101906101bf9190611253565b6105fa565b005b3480156101d257600080fd5b506101ed60048036038101906101e89190611326565b610ba3565b005b3480156101fb57600080fd5b5061021660048036038101906102119190611366565b610c25565b005b34801561022457600080fd5b5061023f600480360381019061023a91906113b9565b610d0a565b005b34801561024d57600080fd5b50610256611151565b604051610263919061130b565b60405180910390f35b34801561027857600080fd5b50610281611157565b60405161028e919061130b565b60405180910390f35b3480156102a357600080fd5b506102ac61115d565b6040516102b9919061130b565b60405180910390f35b600360009054906101000a900473ffffffffffffffffffffffffffffffffffffffff1681565b60066020528060005260406000206000915054906101000a900473ffffffffffffffffffffffffffffffffffffffff1681565b6001544211801561032d575060025442105b61036c576040517f08c379a00000000000000000000000000000000000000000000000000000000081526004016103639061147d565b60405180910390fd5b600073ffffffffffffffffffffffffffffffffffffffff166004600083815260200190815260200160002060000160009054906101000a900473ffffffffffffffffffffffffffffffffffffffff1673ffffffffffffffffffffffffffffffffffffffff161415610412576040517f08c379a0000000000000000000000000000000000000000000000000000000008152600401610409906114e9565b60405180910390fd5b6004600082815260200190815260200160002060040160009054906101000a900460ff1615610476576040517f08c379a000000000000000000000000000000000000000000000000000000000815260040161046d90611555565b60405180910390fd5b60016004600083815260200190815260200160002060040160006101000a81548160ff021916908315150217905550336004600083815260200190815260200160002060040160016101000a81548173ffffffffffffffffffffffffffffffffffffffff021916908373ffffffffffffffffffffffffffffffffffffffff1602179055503373ffffffffffffffffffffffffffffffffffffffff167f0b7e3c2d0983fdcbfa4fcb08da6f6d862e83ce066e7bbc783163da9753a829aa82604051610540919061130b565b60405180910390a250565b60046020528060005260406000206000915090508060000160009054906101000a900473ffffffffffffffffffffffffffffffffffffffff16908060010160009054906101000a900473ffffffffffffffffffffffffffffffffffffffff16908060020154908060030154908060040160009054906101000a900460ff16908060040160019054906101000a900473ffffffffffffffffffffffffffffffffffffffff16905086565b60005481565b60025442101561063f576040517f08c379a0000000000000000000000000000000000000000000000000000000008152600401610636906115e7565b60405180910390fd5b6004600082815260200190815260200160002060040160009054906101000a900460ff166106a2576040517f08c379a000000000000000000000000000000000000000000000000000000000815260040161069990611653565b60405180910390fd5b3373ffffffffffffffffffffffffffffffffffffffff166004600083815260200190815260200160002060040160019054906101000a900473ffffffffffffffffffffffffffffffffffffffff1673ffffffffffffffffffffffffffffffffffffffff1614610746576040517f08c379a000000000000000000000000000000000000000000000000000000000815260040161073d906116bf565b60405180910390fd5b6004600082815260200190815260200160002060030154600460008381526020019081526020016000206002015461077e919061170e565b34146107bf576040517f08c379a00000000000000000000000000000000000000000000000000000000081526004016107b6906117b4565b60405180910390fd5b60006004600083815260200190815260200160002060000160009054906101000a900473ffffffffffffffffffffffffffffffffffffffff16905060006004600084815260200190815260200160002060010160009054906101000a900473ffffffffffffffffffffffffffffffffffffffff1690506000600660006004600087815260200190815260200160002060010160009054906101000a900473ffffffffffffffffffffffffffffffffffffffff1673ffffffffffffffffffffffffffffffffffffffff1673ffffffffffffffffffffffffffffffffffffffff16815260200190815260200160002060009054906101000a900473ffffffffffffffffffffffffffffffffffffffff1690506000819050600060648273ffffffffffffffffffffffffffffffffffffffff16635ea1d6f86040518163ffffffff1660e01b815260040160206040518083038186803b15801561091e57600080fd5b505afa158015610932573d6000803e3d6000fd5b505050506040513d601f19601f8201168201806040525081019061095691906117e9565b34610961919061170e565b61096b9190611845565b90508473ffffffffffffffffffffffffffffffffffffffff166108fc829081150290604051600060405180830381858888f193505050501580156109b3573d6000803e3d6000fd5b503373ffffffffffffffffffffffffffffffffffffffff168573ffffffffffffffffffffffffffffffffffffffff167f17a6f69780376fc830f20fe60c186fcf75a9e1714c57094f9b6750c2f195ccc18884604051610a13929190611876565b60405180910390a38373ffffffffffffffffffffffffffffffffffffffff166108fc8234610a41919061189f565b9081150290604051600060405180830381858888f19350505050158015610a6c573d6000803e3d6000fd5b503373ffffffffffffffffffffffffffffffffffffffff168473ffffffffffffffffffffffffffffffffffffffff167fb16dc60c257cb4febdcbb1b9da5f92e32060389e640de3a86523898e59867369888434610ac9919061189f565b604051610ad7929190611876565b60405180910390a38173ffffffffffffffffffffffffffffffffffffffff16639e9b522c6004600089815260200190815260200160002060010160009054906101000a900473ffffffffffffffffffffffffffffffffffffffff16600460008a81526020019081526020016000206002015460016040518463ffffffff1660e01b8152600401610b69939291906118d3565b600060405180830381600087803b158015610b8357600080fd5b505af1158015610b97573d6000803e3d6000fd5b50505050505050505050565b80600660008473ffffffffffffffffffffffffffffffffffffffff1673ffffffffffffffffffffffffffffffffffffffff16815260200190815260200160002060006101000a81548173ffffffffffffffffffffffffffffffffffffffff021916908373ffffffffffffffffffffffffffffffffffffffff1602179055505050565b600360009054906101000a900473ffffffffffffffffffffffffffffffffffffffff1673ffffffffffffffffffffffffffffffffffffffff163373ffffffffffffffffffffffffffffffffffffffff1614610cb5576040517f08c379a0000000000000000000000000000000000000000000000000000000008152600401610cac9061197c565b60405180910390fd5b8260008190555081600181905550806002819055507fa8a96ac60986b06f9915778f9c4bb7a98c07747b96f721aeb68fd538c3179fe0838383604051610cfd9392919061199c565b60405180910390a1505050565b6000544210158015610d1e57506001544211155b610d5d576040517f08c379a0000000000000000000000000000000000000000000000000000000008152600401610d5490611a1f565b60405180910390fd5b60008111610da0576040517f08c379a0000000000000000000000000000000000000000000000000000000008152600401610d9790611a8b565b60405180910390fd5b6000600660008573ffffffffffffffffffffffffffffffffffffffff1673ffffffffffffffffffffffffffffffffffffffff16815260200190815260200160002060009054906101000a900473ffffffffffffffffffffffffffffffffffffffff169050600073ffffffffffffffffffffffffffffffffffffffff168173ffffffffffffffffffffffffffffffffffffffff161415610e74576040517f08c379a0000000000000000000000000000000000000000000000000000000008152600401610e6b90611b1d565b60405180910390fd5b600081905060008173ffffffffffffffffffffffffffffffffffffffff16637edaff94876040518263ffffffff1660e01b8152600401610eb491906111a4565b60206040518083038186803b158015610ecc57600080fd5b505afa158015610ee0573d6000803e3d6000fd5b505050506040513d601f19601f82011682018060405250810190610f0491906117e9565b90506032811015610f4a576040517f08c379a0000000000000000000000000000000000000000000000000000000008152600401610f4190611baf565b60405180910390fd5b6040518060c001604052808873ffffffffffffffffffffffffffffffffffffffff1681526020018773ffffffffffffffffffffffffffffffffffffffff168152602001868152602001858152602001600015158152602001600073ffffffffffffffffffffffffffffffffffffffff1681525060046000600554815260200190815260200160002060008201518160000160006101000a81548173ffffffffffffffffffffffffffffffffffffffff021916908373ffffffffffffffffffffffffffffffffffffffff16021790555060208201518160010160006101000a81548173ffffffffffffffffffffffffffffffffffffffff021916908373ffffffffffffffffffffffffffffffffffffffff160217905550604082015181600201556060820151816003015560808201518160040160006101000a81548160ff02191690831515021790555060a08201518160040160016101000a81548173ffffffffffffffffffffffffffffffffffffffff021916908373ffffffffffffffffffffffffffffffffffffffff1602179055509050508673ffffffffffffffffffffffffffffffffffffffff167fdd49bbb40d47a514dddcd458e9718364143bc24a0cca58439ee6f4f45e4ce10d87878760405161112893929190611bcf565b60405180910390a26005600081548092919061114390611c06565b919050555050505050505050565b60055481565b60015481565b60025481565b600073ffffffffffffffffffffffffffffffffffffffff82169050919050565b600061118e82611163565b9050919050565b61119e81611183565b82525050565b60006020820190506111b96000830184611195565b92915050565b600080fd5b6111cd81611183565b81146111d857600080fd5b50565b6000813590506111ea816111c4565b92915050565b600060208284031215611206576112056111bf565b5b6000611214848285016111db565b91505092915050565b6000819050919050565b6112308161121d565b811461123b57600080fd5b50565b60008135905061124d81611227565b92915050565b600060208284031215611269576112686111bf565b5b60006112778482850161123e565b91505092915050565b6112898161121d565b82525050565b60008115159050919050565b6112a48161128f565b82525050565b600060c0820190506112bf6000830189611195565b6112cc6020830188611195565b6112d96040830187611280565b6112e66060830186611280565b6112f3608083018561129b565b61130060a0830184611195565b979650505050505050565b60006020820190506113206000830184611280565b92915050565b6000806040838503121561133d5761133c6111bf565b5b600061134b858286016111db565b925050602061135c858286016111db565b9150509250929050565b60008060006060848603121561137f5761137e6111bf565b5b600061138d8682870161123e565b935050602061139e8682870161123e565b92505060406113af8682870161123e565b9150509250925092565b600080600080608085870312156113d3576113d26111bf565b5b60006113e1878288016111db565b94505060206113f2878288016111db565b93505060406114038782880161123e565b92505060606114148782880161123e565b91505092959194509250565b600082825260208201905092915050565b7f416363657074616e636520706572696f64206973206e6f74206f70656e000000600082015250565b6000611467601d83611420565b915061147282611431565b602082019050919050565b600060208201905081810360008301526114968161145a565b9050919050565b7f42696420646f6573206e6f742065786973740000000000000000000000000000600082015250565b60006114d3601283611420565b91506114de8261149d565b602082019050919050565b60006020820190508181036000830152611502816114c6565b9050919050565b7f42696420616c72656164792073656c6563746564000000000000000000000000600082015250565b600061153f601483611420565b915061154a82611509565b602082019050919050565b6000602082019050818103600083015261156e81611532565b9050919050565b7f526573756c747320616e6e6f756e63656d656e7420706572696f64206973206e60008201527f6f74206f70656e00000000000000000000000000000000000000000000000000602082015250565b60006115d1602783611420565b91506115dc82611575565b604082019050919050565b60006020820190508181036000830152611600816115c4565b9050919050565b7f426964206e6f7420616363657074656400000000000000000000000000000000600082015250565b600061163d601083611420565b915061164882611607565b602082019050919050565b6000602082019050818103600083015261166c81611630565b9050919050565b7f4f6e6c792061636365707465642062757965722063616e207075726368617365600082015250565b60006116a9602083611420565b91506116b482611673565b602082019050919050565b600060208201905081810360008301526116d88161169c565b9050919050565b7f4e487b7100000000000000000000000000000000000000000000000000000000600052601160045260246000fd5b60006117198261121d565b91506117248361121d565b9250817fffffffffffffffffffffffffffffffffffffffffffffffffffffffffffffffff048311821515161561175d5761175c6116df565b5b828202905092915050565b7f496e73756666696369656e742066756e64730000000000000000000000000000600082015250565b600061179e601283611420565b91506117a982611768565b602082019050919050565b600060208201905081810360008301526117cd81611791565b9050919050565b6000815190506117e381611227565b92915050565b6000602082840312156117ff576117fe6111bf565b5b600061180d848285016117d4565b91505092915050565b7f4e487b7100000000000000000000000000000000000000000000000000000000600052601260045260246000fd5b60006118508261121d565b915061185b8361121d565b92508261186b5761186a611816565b5b828204905092915050565b600060408201905061188b6000830185611280565b6118986020830184611280565b9392505050565b60006118aa8261121d565b91506118b58361121d565b9250828210156118c8576118c76116df565b5b828203905092915050565b60006060820190506118e86000830186611195565b6118f56020830185611280565b611902604083018461129b565b949350505050565b7f4f6e6c7920746865204d61726b65742041646d696e2063616e20706572666f7260008201527f6d207468697320616374696f6e00000000000000000000000000000000000000602082015250565b6000611966602d83611420565b91506119718261190a565b604082019050919050565b6000602082019050818103600083015261199581611959565b9050919050565b60006060820190506119b16000830186611280565b6119be6020830185611280565b6119cb6040830184611280565b949350505050565b7f4d61726b6574206973206e6f74206f70656e0000000000000000000000000000600082015250565b6000611a09601283611420565b9150611a14826119d3565b602082019050919050565b60006020820190508181036000830152611a38816119fc565b9050919050565b7f7072696365206d7573742062652067726561746572207468616e203000000000600082015250565b6000611a75601c83611420565b9150611a8082611a3f565b602082019050919050565b60006020820190508181036000830152611aa481611a68565b9050919050565b7f41676772656761746f72206e6f7420666f756e6420666f72206261747465727960008201527f206f776e65720000000000000000000000000000000000000000000000000000602082015250565b6000611b07602683611420565b9150611b1282611aab565b604082019050919050565b60006020820190508181036000830152611b3681611afa565b9050919050565b7f4261747465727920536f43206d757374206265203e3d20353020746f20706c6160008201527f6365206120626964000000000000000000000000000000000000000000000000602082015250565b6000611b99602883611420565b9150611ba482611b3d565b604082019050919050565b60006020820190508181036000830152611bc881611b8c565b9050919050565b6000606082019050611be46000830186611195565b611bf16020830185611280565b611bfe6040830184611280565b949350505050565b6000611c118261121d565b91507fffffffffffffffffffffffffffffffffffffffffffffffffffffffffffffffff821415611c4457611c436116df565b5b60018201905091905056fea2646970667358221220831d07e38b5bf144feb6a6cfddb830edc66425b3be00f958cf56499aff4476b764736f6c63430008090033",
  "immutableReferences": {},
  "source": "// SPDX-License-Identifier: MIT\npragma solidity ^0.8.9;\n\nimport \"./Aggregator.sol\";\n\ncontract Market {\n    uint public marketOpenTime;\n    uint public marketCloseTime;\n    uint public resultsAnnouncementTime;\n    address public marketAdmin;\n\n    event MarketTimesUpdated(uint openTime, uint closeTime, uint resultsTime);\n    event BidPlaced(\n        address indexed bidder,\n        address batteryOwner,\n        uint amount,\n        uint price\n    );\n    event PurchaseConfirmed(\n        address indexed buyer,\n        address indexed seller,\n        uint bidId\n    );\n    event BidAccepted(uint bidId, address indexed buyer);\n    event CommissionPaid(address indexed aggregator, uint amount);\n    event PaymentToBatteryOwnerRecorded(\n        uint bidId,\n        address indexed batteryOwner,\n        address indexed buyer,\n        uint amount\n    );\n    event PaymentToAggregatorOwnerRecorded(\n        uint bidId,\n        address indexed aggregator,\n        address indexed buyer,\n        uint commission\n    );\n\n    struct Bid {\n        address bidder;\n        address batteryOwner;\n        uint amount; // in kWh\n        uint price; // in wei per kWh\n        bool isSelected;\n        address acceptedBy;\n    }\n\n    mapping(uint => Bid) public bids;\n    uint public bidCount;\n    mapping(address => address) public aggregators; // maps batteries owners addresses to aggregator addresses\n\n    modifier onlyMarketAdmin() {\n        require(\n            msg.sender == marketAdmin,\n            \"Only the Market Admin can perform this action\"\n        );\n        _;\n    }\n\n    modifier onlyDuringMarketOpen() {\n        require(\n            block.timestamp >= marketOpenTime &&\n                block.timestamp <= marketCloseTime,\n            \"Market is not open\"\n        );\n        _;\n    }\n\n    modifier onlyDuringAcceptancePeriod() {\n        require(\n            block.timestamp > marketCloseTime &&\n                block.timestamp < resultsAnnouncementTime,\n            \"Acceptance period is not open\"\n        );\n        _;\n    }\n\n    modifier onlyDuringResultsAnnouncement() {\n        require(\n            block.timestamp >= resultsAnnouncementTime,\n            \"Results announcement period is not open\"\n        );\n        _;\n    }\n\n    constructor(address _marketAdmin) {\n        marketAdmin = _marketAdmin;\n    }\n\n    function setAggregator(address _owner, address _aggregator) public {\n        aggregators[_owner] = _aggregator;\n    }\n\n    function setMarketTimes(\n        uint _openTime,\n        uint _closeTime,\n        uint _resultsTime\n    ) public onlyMarketAdmin {\n        marketOpenTime = _openTime;\n        marketCloseTime = _closeTime;\n        resultsAnnouncementTime = _resultsTime;\n        emit MarketTimesUpdated(_openTime, _closeTime, _resultsTime);\n    }\n\n    function placeBid(\n        address _bidder,\n        address _batteryOwner,\n        uint _amount,\n        uint _price\n    ) public onlyDuringMarketOpen {\n        require(_price > 0, \"price must be greater than 0\");\n\n        address aggregatorAddress = aggregators[_batteryOwner];\n        require(\n            aggregatorAddress != address(0),\n            \"Aggregator not found for battery owner\"\n        );\n\n        Aggregator aggregator = Aggregator(aggregatorAddress);\n        // Verify that the battery's SoC is greater than 50%\n        uint batterySoC = aggregator.getBatterySoC(_batteryOwner);\n        require(batterySoC >= 50, \"Battery SoC must be >= 50 to place a bid\");\n\n        bids[bidCount] = Bid(\n            _bidder,\n            _batteryOwner,\n            _amount,\n            _price,\n            false,\n            address(0)\n        );\n        emit BidPlaced(_bidder, _batteryOwner, _amount, _price);\n        bidCount++;\n    }\n\n    function acceptBid(uint _bidId) public onlyDuringAcceptancePeriod {\n        require(bids[_bidId].bidder != address(0), \"Bid does not exist\");\n        require(!bids[_bidId].isSelected, \"Bid already selected\");\n        bids[_bidId].isSelected = true;\n        bids[_bidId].acceptedBy = msg.sender;\n        emit BidAccepted(_bidId, msg.sender);\n    }\n\n    function purchaseEnergy(\n        uint _bidId\n    ) public payable onlyDuringResultsAnnouncement {\n        require(bids[_bidId].isSelected, \"Bid not accepted\");\n        require(\n            bids[_bidId].acceptedBy == msg.sender,\n            \"Only accepted buyer can purchase\"\n        );\n        require(\n            msg.value == bids[_bidId].amount * bids[_bidId].price,\n            \"Insufficient funds\"\n        );\n\n        address owner = bids[_bidId].bidder;\n        address batteryOwner = bids[_bidId].batteryOwner;\n\n        address aggregatorAddress = aggregators[bids[_bidId].batteryOwner];\n        Aggregator aggregator = Aggregator(aggregatorAddress);\n\n        // commission calculation\n        uint commission = (msg.value * aggregator.commissionRate()) / 100;\n\n        payable(owner).transfer(commission);\n        emit PaymentToAggregatorOwnerRecorded(\n            _bidId,\n            owner,\n            msg.sender,\n            commission\n        ); // Log payment to aggregator owner\n\n        payable(batteryOwner).transfer(msg.value - commission);\n        emit PaymentToBatteryOwnerRecorded(\n            _bidId,\n            batteryOwner,\n            msg.sender,\n            msg.value - commission\n        ); // Log payment to battery owner\n\n        // Update the battery's SoC after the sale\n        aggregator.updateBatterySoCAfterSale(\n            bids[_bidId].batteryOwner,\n            bids[_bidId].amount,\n            true\n        );\n    }\n}\n",
  "sourcePath": "/home/sletolox1001/blockchain_projects/thesis_project/smartcontract/contracts/Market.sol",
  "compiler": {
    "name": "solc",
    "version": "0.8.9+commit.e5eed63a.Emscripten.clang"
  },
  "schemaVersion": "3.4.16",
  "updatedAt": "2024-09-19T10:14:21.488Z",
  "networkType": "ethereum",
  "devdoc": {
    "kind": "dev",
    "methods": {},
    "version": 1
  },
  "userdoc": {
    "kind": "user",
    "methods": {},
    "version": 1
  }
}