{
  "contractName": "Payment",
  "abi": [
    {
      "anonymous": false,
      "inputs": [
        {
          "indexed": true,
          "internalType": "address",
          "name": "payer",
          "type": "address"
        },
        {
          "indexed": true,
          "internalType": "address",
          "name": "recipient",
          "type": "address"
        },
        {
          "indexed": false,
          "internalType": "uint256",
          "name": "amount",
          "type": "uint256"
        }
      ],
      "name": "PaymentProcessed",
      "type": "event"
    },
    {
      "inputs": [
        {
          "internalType": "address",
          "name": "_payer",
          "type": "address"
        },
        {
          "internalType": "address",
          "name": "_recipient",
          "type": "address"
        },
        {
          "internalType": "uint256",
          "name": "_amount",
          "type": "uint256"
        }
      ],
      "name": "processPayment",
      "outputs": [],
      "stateMutability": "payable",
      "type": "function"
    }
  ],
  "bytecode": "0x608060405234801561001057600080fd5b506104da806100206000396000f3fe60806040526004361061001e5760003560e01c8063d1a0cc5c14610023575b600080fd5b61003d6004803603810190610038919061028c565b61003f565b005b60008111610082576040517f08c379a00000000000000000000000000000000000000000000000000000000081526004016100799061033c565b60405180910390fd5b808373ffffffffffffffffffffffffffffffffffffffff163110156100dc576040517f08c379a00000000000000000000000000000000000000000000000000000000081526004016100d3906103a8565b60405180910390fd5b60008273ffffffffffffffffffffffffffffffffffffffff1682604051610102906103f9565b60006040518083038185875af1925050503d806000811461013f576040519150601f19603f3d011682016040523d82523d6000602084013e610144565b606091505b5050905080610188576040517f08c379a000000000000000000000000000000000000000000000000000000000815260040161017f9061045a565b60405180910390fd5b8273ffffffffffffffffffffffffffffffffffffffff168473ffffffffffffffffffffffffffffffffffffffff167f0538ab32a957d2b55d0ec70a4029e73fdf19f500832839b1d7bafcfbca2a5630846040516101e59190610489565b60405180910390a350505050565b600080fd5b600073ffffffffffffffffffffffffffffffffffffffff82169050919050565b6000610223826101f8565b9050919050565b61023381610218565b811461023e57600080fd5b50565b6000813590506102508161022a565b92915050565b6000819050919050565b61026981610256565b811461027457600080fd5b50565b60008135905061028681610260565b92915050565b6000806000606084860312156102a5576102a46101f3565b5b60006102b386828701610241565b93505060206102c486828701610241565b92505060406102d586828701610277565b9150509250925092565b600082825260208201905092915050565b7f416d6f756e74206d7573742062652067726561746572207468616e2030000000600082015250565b6000610326601d836102df565b9150610331826102f0565b602082019050919050565b6000602082019050818103600083015261035581610319565b9050919050565b7f496e73756666696369656e742062616c616e636520666f72207061796d656e74600082015250565b60006103926020836102df565b915061039d8261035c565b602082019050919050565b600060208201905081810360008301526103c181610385565b9050919050565b600081905092915050565b50565b60006103e36000836103c8565b91506103ee826103d3565b600082019050919050565b6000610404826103d6565b9150819050919050565b7f4661696c656420746f2073656e64204574686572000000000000000000000000600082015250565b60006104446014836102df565b915061044f8261040e565b602082019050919050565b6000602082019050818103600083015261047381610437565b9050919050565b61048381610256565b82525050565b600060208201905061049e600083018461047a565b9291505056fea264697066735822122073703fc966352632860cdf57632743764c2df0f95d3ad70d4c2419c5d1be803764736f6c63430008090033",
  "immutableReferences": {},
  "source": "// SPDX-License-Identifier: MIT\npragma solidity ^0.8.0;\n\ncontract Payment {\n    event PaymentProcessed(\n        address indexed payer,\n        address indexed recipient,\n        uint amount\n    );\n\n    function processPayment(\n        address _payer,\n        address _recipient,\n        uint _amount\n    ) public payable {\n        require(_amount > 0, \"Amount must be greater than 0\");\n        require(\n            payable(_payer).balance >= _amount,\n            \"Insufficient balance for payment\"\n        );\n        (bool sent, ) = payable(_recipient).call{value: _amount}(\"\");\n        require(sent, \"Failed to send Ether\");\n        emit PaymentProcessed(_payer, _recipient, _amount);\n    }\n}\n",
  "sourcePath": "/home/sletolox1001/blockchain_projects/thesis_project/smartcontract/contracts/Payment.sol",
  "compiler": {
    "name": "solc",
    "version": "0.8.9+commit.e5eed63a.Emscripten.clang"
  },
  "schemaVersion": "3.4.16",
  "updatedAt": "2024-07-29T09:31:09.073Z",
  "devdoc": {
    "kind": "dev",
    "methods": {},
    "version": 1
  },
  "userdoc": {
    "kind": "user",
    "methods": {},
    "version": 1
  }
}