{
  "contractName": "TSO",
  "abi": [
    {
      "inputs": [
        {
          "internalType": "address",
          "name": "_tsoAdmin",
          "type": "address"
        }
      ],
      "stateMutability": "nonpayable",
      "type": "constructor"
    },
    {
      "anonymous": false,
      "inputs": [
        {
          "indexed": true,
          "internalType": "address",
          "name": "bidder",
          "type": "address"
        },
        {
          "indexed": false,
          "internalType": "address",
          "name": "batteryOwner",
          "type": "address"
        },
        {
          "indexed": false,
          "internalType": "uint256",
          "name": "amount",
          "type": "uint256"
        },
        {
          "indexed": false,
          "internalType": "uint256",
          "name": "price",
          "type": "uint256"
        }
      ],
      "name": "BidPlaced",
      "type": "event"
    },
    {
      "anonymous": false,
      "inputs": [
        {
          "indexed": true,
          "internalType": "address",
          "name": "batteryOwner",
          "type": "address"
        },
        {
          "indexed": false,
          "internalType": "uint256",
          "name": "amount",
          "type": "uint256"
        },
        {
          "indexed": false,
          "internalType": "uint256",
          "name": "price",
          "type": "uint256"
        }
      ],
      "name": "BidSelected",
      "type": "event"
    },
    {
      "anonymous": false,
      "inputs": [],
      "name": "MarketClosed",
      "type": "event"
    },
    {
      "anonymous": false,
      "inputs": [
        {
          "indexed": false,
          "internalType": "uint256",
          "name": "requiredEnergy",
          "type": "uint256"
        },
        {
          "indexed": false,
          "internalType": "bool",
          "name": "isPositiveReserve",
          "type": "bool"
        }
      ],
      "name": "MarketOpened",
      "type": "event"
    },
    {
      "anonymous": false,
      "inputs": [
        {
          "indexed": true,
          "internalType": "address",
          "name": "bidder",
          "type": "address"
        },
        {
          "indexed": false,
          "internalType": "uint256",
          "name": "commission",
          "type": "uint256"
        }
      ],
      "name": "PaymentToAggregatorOwnerRecorded",
      "type": "event"
    },
    {
      "anonymous": false,
      "inputs": [
        {
          "indexed": true,
          "internalType": "address",
          "name": "batteryOwner",
          "type": "address"
        },
        {
          "indexed": false,
          "internalType": "uint256",
          "name": "payment",
          "type": "uint256"
        }
      ],
      "name": "PaymentToBatteryOwnerRecorded",
      "type": "event"
    },
    {
      "inputs": [],
      "name": "aggregator",
      "outputs": [
        {
          "internalType": "contract Aggregator",
          "name": "",
          "type": "address"
        }
      ],
      "stateMutability": "view",
      "type": "function",
      "constant": true
    },
    {
      "inputs": [
        {
          "internalType": "address",
          "name": "",
          "type": "address"
        }
      ],
      "name": "aggregators",
      "outputs": [
        {
          "internalType": "address",
          "name": "",
          "type": "address"
        }
      ],
      "stateMutability": "view",
      "type": "function",
      "constant": true
    },
    {
      "inputs": [],
      "name": "bidCount",
      "outputs": [
        {
          "internalType": "uint256",
          "name": "",
          "type": "uint256"
        }
      ],
      "stateMutability": "view",
      "type": "function",
      "constant": true
    },
    {
      "inputs": [
        {
          "internalType": "uint256",
          "name": "",
          "type": "uint256"
        }
      ],
      "name": "bids",
      "outputs": [
        {
          "internalType": "address",
          "name": "bidder",
          "type": "address"
        },
        {
          "internalType": "address",
          "name": "batteryOwner",
          "type": "address"
        },
        {
          "internalType": "uint256",
          "name": "amount",
          "type": "uint256"
        },
        {
          "internalType": "uint256",
          "name": "price",
          "type": "uint256"
        },
        {
          "internalType": "bool",
          "name": "isSelected",
          "type": "bool"
        }
      ],
      "stateMutability": "view",
      "type": "function",
      "constant": true
    },
    {
      "inputs": [],
      "name": "isPositiveReserve",
      "outputs": [
        {
          "internalType": "bool",
          "name": "",
          "type": "bool"
        }
      ],
      "stateMutability": "view",
      "type": "function",
      "constant": true
    },
    {
      "inputs": [],
      "name": "marketOpen",
      "outputs": [
        {
          "internalType": "bool",
          "name": "",
          "type": "bool"
        }
      ],
      "stateMutability": "view",
      "type": "function",
      "constant": true
    },
    {
      "inputs": [],
      "name": "nextBidIndex",
      "outputs": [
        {
          "internalType": "uint256",
          "name": "",
          "type": "uint256"
        }
      ],
      "stateMutability": "view",
      "type": "function",
      "constant": true
    },
    {
      "inputs": [],
      "name": "nextPaymentIndex",
      "outputs": [
        {
          "internalType": "uint256",
          "name": "",
          "type": "uint256"
        }
      ],
      "stateMutability": "view",
      "type": "function",
      "constant": true
    },
    {
      "inputs": [],
      "name": "requiredEnergy",
      "outputs": [
        {
          "internalType": "uint256",
          "name": "",
          "type": "uint256"
        }
      ],
      "stateMutability": "view",
      "type": "function",
      "constant": true
    },
    {
      "inputs": [],
      "name": "totalSelectedEnergy",
      "outputs": [
        {
          "internalType": "uint256",
          "name": "",
          "type": "uint256"
        }
      ],
      "stateMutability": "view",
      "type": "function",
      "constant": true
    },
    {
      "inputs": [],
      "name": "tsoAdmin",
      "outputs": [
        {
          "internalType": "address",
          "name": "",
          "type": "address"
        }
      ],
      "stateMutability": "view",
      "type": "function",
      "constant": true
    },
    {
      "inputs": [
        {
          "internalType": "uint256",
          "name": "_requiredEnergy",
          "type": "uint256"
        },
        {
          "internalType": "bool",
          "name": "_isPositiveReserve",
          "type": "bool"
        }
      ],
      "name": "openMarket",
      "outputs": [],
      "stateMutability": "nonpayable",
      "type": "function"
    },
    {
      "inputs": [
        {
          "internalType": "address",
          "name": "_bidder",
          "type": "address"
        },
        {
          "internalType": "address",
          "name": "_batteryOwner",
          "type": "address"
        },
        {
          "internalType": "uint256",
          "name": "_amountInKWh",
          "type": "uint256"
        },
        {
          "internalType": "uint256",
          "name": "_pricePerMWh",
          "type": "uint256"
        }
      ],
      "name": "placeBid",
      "outputs": [],
      "stateMutability": "nonpayable",
      "type": "function"
    },
    {
      "inputs": [],
      "name": "closeMarket",
      "outputs": [],
      "stateMutability": "nonpayable",
      "type": "function"
    },
    {
      "inputs": [],
      "name": "selectNextBid",
      "outputs": [],
      "stateMutability": "nonpayable",
      "type": "function"
    },
    {
      "inputs": [],
      "name": "processNextPayment",
      "outputs": [],
      "stateMutability": "nonpayable",
      "type": "function"
    }
  ],
  "bytecode": "0x60806040523480156200001157600080fd5b5060405162001ce038038062001ce08339818101604052810190620000379190620000e9565b80600660016101000a81548173ffffffffffffffffffffffffffffffffffffffff021916908373ffffffffffffffffffffffffffffffffffffffff160217905550506200011b565b600080fd5b600073ffffffffffffffffffffffffffffffffffffffff82169050919050565b6000620000b18262000084565b9050919050565b620000c381620000a4565b8114620000cf57600080fd5b50565b600081519050620000e381620000b8565b92915050565b6000602082840312156200010257620001016200007f565b5b60006200011284828501620000d2565b91505092915050565b611bb5806200012b6000396000f3fe608060405234801561001057600080fd5b50600436106101005760003560e01c8063ab0c7d5611610097578063c6fd8add11610066578063c6fd8add1461026b578063d5bf717b14610275578063d6e0cd1714610293578063e2a886bd146102af57610100565b8063ab0c7d5614610209578063b40a562714610225578063c511ed5e14610243578063c66bc0461461024d57610100565b8063245a7bfc116100d3578063245a7bfc1461018f5780634423c5f1146101ad5780636693ecb0146101e157806366bf4570146101eb57610100565b80630270ada41461010557806304eb435f14610123578063112cdab91461014157806322efda7714610171575b600080fd5b61010d6102cd565b60405161011a919061112a565b60405180910390f35b61012b6102f3565b6040516101389190611160565b60405180910390f35b61015b600480360381019061015691906111ac565b610306565b604051610168919061112a565b60405180910390f35b610179610339565b60405161018691906111f2565b60405180910390f35b61019761033f565b6040516101a4919061126c565b60405180910390f35b6101c760048036038101906101c291906112b3565b610363565b6040516101d89594939291906112e0565b60405180910390f35b6101e96103e6565b005b6101f361082d565b60405161020091906111f2565b60405180910390f35b610223600480360381019061021e9190611333565b610833565b005b61022d610ca9565b60405161023a91906111f2565b60405180910390f35b61024b610caf565b005b610255610d47565b6040516102629190611160565b60405180910390f35b610273610d5a565b005b61027d610fc3565b60405161028a91906111f2565b60405180910390f35b6102ad60048036038101906102a891906113c6565b610fc9565b005b6102b76110e3565b6040516102c491906111f2565b60405180910390f35b600660019054906101000a900473ffffffffffffffffffffffffffffffffffffffff1681565b600660009054906101000a900460ff1681565b60016020528060005260406000206000915054906101000a900473ffffffffffffffffffffffffffffffffffffffff1681565b60075481565b60008054906101000a900473ffffffffffffffffffffffffffffffffffffffff1681565b60026020528060005260406000206000915090508060000160009054906101000a900473ffffffffffffffffffffffffffffffffffffffff16908060010160009054906101000a900473ffffffffffffffffffffffffffffffffffffffff16908060020154908060030154908060040160009054906101000a900460ff16905085565b600460009054906101000a900460ff1615610436576040517f08c379a000000000000000000000000000000000000000000000000000000000815260040161042d90611463565b60405180910390fd5b6003546008541061047c576040517f08c379a0000000000000000000000000000000000000000000000000000000008152600401610473906114cf565b60405180910390fd5b600060026000600854815260200190815260200160002090508060040160009054906101000a900460ff1615610812576000816003015482600201546104c2919061151e565b90506000606460008054906101000a900473ffffffffffffffffffffffffffffffffffffffff1673ffffffffffffffffffffffffffffffffffffffff16635ea1d6f86040518163ffffffff1660e01b815260040160206040518083038186803b15801561052e57600080fd5b505afa158015610542573d6000803e3d6000fd5b505050506040513d601f19601f82011682018060405250810190610566919061158d565b83610571919061151e565b61057b91906115e9565b90508260010160009054906101000a900473ffffffffffffffffffffffffffffffffffffffff1673ffffffffffffffffffffffffffffffffffffffff166108fc82846105c7919061161a565b9081150290604051600060405180830381858888f193505050501580156105f2573d6000803e3d6000fd5b508260010160009054906101000a900473ffffffffffffffffffffffffffffffffffffffff1673ffffffffffffffffffffffffffffffffffffffff167f05622d675ae17b6095d9de6bd6448ed94a9e4ef429dd071bccc722048aac18cf828461065b919061161a565b60405161066891906111f2565b60405180910390a260008054906101000a900473ffffffffffffffffffffffffffffffffffffffff1673ffffffffffffffffffffffffffffffffffffffff166108fc829081150290604051600060405180830381858888f193505050501580156106d6573d6000803e3d6000fd5b508260000160009054906101000a900473ffffffffffffffffffffffffffffffffffffffff1673ffffffffffffffffffffffffffffffffffffffff167fb6566daf73f0ad3b232c916b0188d8e5a84b2a34ffe61283799015ea02cff7ec8260405161074191906111f2565b60405180910390a260008054906101000a900473ffffffffffffffffffffffffffffffffffffffff1673ffffffffffffffffffffffffffffffffffffffff16639e9b522c8460010160009054906101000a900473ffffffffffffffffffffffffffffffffffffffff168560020154600660009054906101000a900460ff166040518463ffffffff1660e01b81526004016107dd9392919061164e565b600060405180830381600087803b1580156107f757600080fd5b505af115801561080b573d6000803e3d6000fd5b5050505050505b6008600081548092919061082590611685565b919050555050565b60095481565b600460009054906101000a900460ff16610882576040517f08c379a00000000000000000000000000000000000000000000000000000000081526004016108799061171a565b60405180910390fd5b60008060009054906101000a900473ffffffffffffffffffffffffffffffffffffffff1673ffffffffffffffffffffffffffffffffffffffff16637edaff94856040518263ffffffff1660e01b81526004016108de919061112a565b60206040518083038186803b1580156108f657600080fd5b505afa15801561090a573d6000803e3d6000fd5b505050506040513d601f19601f8201168201806040525081019061092e919061158d565b9050600660009054906101000a900460ff161561098e576028811015610989576040517f08c379a0000000000000000000000000000000000000000000000000000000008152600401610980906117ac565b60405180910390fd5b6109d2565b606481106109d1576040517f08c379a00000000000000000000000000000000000000000000000000000000081526004016109c890611818565b60405180910390fd5b5b60008211610a15576040517f08c379a0000000000000000000000000000000000000000000000000000000008152600401610a0c90611884565b60405180910390fd5b6000600160008673ffffffffffffffffffffffffffffffffffffffff1673ffffffffffffffffffffffffffffffffffffffff16815260200190815260200160002060009054906101000a900473ffffffffffffffffffffffffffffffffffffffff169050600073ffffffffffffffffffffffffffffffffffffffff168173ffffffffffffffffffffffffffffffffffffffff161415610ae9576040517f08c379a0000000000000000000000000000000000000000000000000000000008152600401610ae090611916565b60405180910390fd5b60006103e88585610afa919061151e565b610b0491906115e9565b90506040518060a001604052808873ffffffffffffffffffffffffffffffffffffffff1681526020018773ffffffffffffffffffffffffffffffffffffffff1681526020018681526020018281526020016000151581525060026000600354815260200190815260200160002060008201518160000160006101000a81548173ffffffffffffffffffffffffffffffffffffffff021916908373ffffffffffffffffffffffffffffffffffffffff16021790555060208201518160010160006101000a81548173ffffffffffffffffffffffffffffffffffffffff021916908373ffffffffffffffffffffffffffffffffffffffff160217905550604082015181600201556060820151816003015560808201518160040160006101000a81548160ff0219169083151502179055509050508673ffffffffffffffffffffffffffffffffffffffff167fdd49bbb40d47a514dddcd458e9718364143bc24a0cca58439ee6f4f45e4ce10d878784604051610c8093929190611936565b60405180910390a260036000815480929190610c9b90611685565b919050555050505050505050565b60035481565b600460009054906101000a900460ff16610cfe576040517f08c379a0000000000000000000000000000000000000000000000000000000008152600401610cf5906119b9565b60405180910390fd5b6000600460006101000a81548160ff0219169083151502179055507f0b5f6bf058282d5cc003efc735b9ee453bbd7f9bef4c6db6300d095f3eefac2860405160405180910390a1565b600460009054906101000a900460ff1681565b600660019054906101000a900473ffffffffffffffffffffffffffffffffffffffff1673ffffffffffffffffffffffffffffffffffffffff163373ffffffffffffffffffffffffffffffffffffffff1614610dea576040517f08c379a0000000000000000000000000000000000000000000000000000000008152600401610de190611a4b565b60405180910390fd5b600460009054906101000a900460ff1615610e3a576040517f08c379a0000000000000000000000000000000000000000000000000000000008152600401610e3190611463565b60405180910390fd5b60035460075410610e80576040517f08c379a0000000000000000000000000000000000000000000000000000000008152600401610e7790611ab7565b60405180910390fd5b60006009549050600554811015610fa857600160026000600754815260200190815260200160002060040160006101000a81548160ff0219169083151502179055506002600060075481526020019081526020016000206002015481610ee69190611ad7565b90508060098190555060026000600754815260200190815260200160002060010160009054906101000a900473ffffffffffffffffffffffffffffffffffffffff1673ffffffffffffffffffffffffffffffffffffffff167f66edc0473c18faf132f9a6974a29aac1cfc61b42a142271b34c926bcc7ae59fe6002600060075481526020019081526020016000206002015460026000600754815260200190815260200160002060030154604051610f9f929190611b2d565b60405180910390a25b60076000815480929190610fbb90611685565b919050555050565b60085481565b600660019054906101000a900473ffffffffffffffffffffffffffffffffffffffff1673ffffffffffffffffffffffffffffffffffffffff163373ffffffffffffffffffffffffffffffffffffffff1614611059576040517f08c379a000000000000000000000000000000000000000000000000000000000815260040161105090611a4b565b60405180910390fd5b8160058190555080600660006101000a81548160ff0219169083151502179055506001600460006101000a81548160ff0219169083151502179055507faa156aa8eb148a0ccce210026c57e10f7da7b4d62043a69e58bfc0f4d246dfb8600554600660009054906101000a900460ff166040516110d7929190611b56565b60405180910390a15050565b60055481565b600073ffffffffffffffffffffffffffffffffffffffff82169050919050565b6000611114826110e9565b9050919050565b61112481611109565b82525050565b600060208201905061113f600083018461111b565b92915050565b60008115159050919050565b61115a81611145565b82525050565b60006020820190506111756000830184611151565b92915050565b600080fd5b61118981611109565b811461119457600080fd5b50565b6000813590506111a681611180565b92915050565b6000602082840312156111c2576111c161117b565b5b60006111d084828501611197565b91505092915050565b6000819050919050565b6111ec816111d9565b82525050565b600060208201905061120760008301846111e3565b92915050565b6000819050919050565b600061123261122d611228846110e9565b61120d565b6110e9565b9050919050565b600061124482611217565b9050919050565b600061125682611239565b9050919050565b6112668161124b565b82525050565b6000602082019050611281600083018461125d565b92915050565b611290816111d9565b811461129b57600080fd5b50565b6000813590506112ad81611287565b92915050565b6000602082840312156112c9576112c861117b565b5b60006112d78482850161129e565b91505092915050565b600060a0820190506112f5600083018861111b565b611302602083018761111b565b61130f60408301866111e3565b61131c60608301856111e3565b6113296080830184611151565b9695505050505050565b6000806000806080858703121561134d5761134c61117b565b5b600061135b87828801611197565b945050602061136c87828801611197565b935050604061137d8782880161129e565b925050606061138e8782880161129e565b91505092959194509250565b6113a381611145565b81146113ae57600080fd5b50565b6000813590506113c08161139a565b92915050565b600080604083850312156113dd576113dc61117b565b5b60006113eb8582860161129e565b92505060206113fc858286016113b1565b9150509250929050565b600082825260208201905092915050565b7f4d61726b6574206973207374696c6c206f70656e000000000000000000000000600082015250565b600061144d601483611406565b915061145882611417565b602082019050919050565b6000602082019050818103600083015261147c81611440565b9050919050565b7f416c6c207061796d656e74732070726f63657373656400000000000000000000600082015250565b60006114b9601683611406565b91506114c482611483565b602082019050919050565b600060208201905081810360008301526114e8816114ac565b9050919050565b7f4e487b7100000000000000000000000000000000000000000000000000000000600052601160045260246000fd5b6000611529826111d9565b9150611534836111d9565b9250817fffffffffffffffffffffffffffffffffffffffffffffffffffffffffffffffff048311821515161561156d5761156c6114ef565b5b828202905092915050565b60008151905061158781611287565b92915050565b6000602082840312156115a3576115a261117b565b5b60006115b184828501611578565b91505092915050565b7f4e487b7100000000000000000000000000000000000000000000000000000000600052601260045260246000fd5b60006115f4826111d9565b91506115ff836111d9565b92508261160f5761160e6115ba565b5b828204905092915050565b6000611625826111d9565b9150611630836111d9565b925082821015611643576116426114ef565b5b828203905092915050565b6000606082019050611663600083018661111b565b61167060208301856111e3565b61167d6040830184611151565b949350505050565b6000611690826111d9565b91507fffffffffffffffffffffffffffffffffffffffffffffffffffffffffffffffff8214156116c3576116c26114ef565b5b600182019050919050565b7f4d61726b6574206973206e6f74206f70656e0000000000000000000000000000600082015250565b6000611704601283611406565b915061170f826116ce565b602082019050919050565b60006020820190508181036000830152611733816116f7565b9050919050565b7f496e73756666696369656e7420536f4320746f206a6f696e20746865206d617260008201527f6b65740000000000000000000000000000000000000000000000000000000000602082015250565b6000611796602383611406565b91506117a18261173a565b604082019050919050565b600060208201905081810360008301526117c581611789565b9050919050565b7f426174746572792069732066756c6c0000000000000000000000000000000000600082015250565b6000611802600f83611406565b915061180d826117cc565b602082019050919050565b60006020820190508181036000830152611831816117f5565b9050919050565b7f5072696365206d7573742062652067726561746572207468616e203000000000600082015250565b600061186e601c83611406565b915061187982611838565b602082019050919050565b6000602082019050818103600083015261189d81611861565b9050919050565b7f41676772656761746f72206e6f7420666f756e6420666f72206261747465727960008201527f206f776e65720000000000000000000000000000000000000000000000000000602082015250565b6000611900602683611406565b915061190b826118a4565b604082019050919050565b6000602082019050818103600083015261192f816118f3565b9050919050565b600060608201905061194b600083018661111b565b61195860208301856111e3565b61196560408301846111e3565b949350505050565b7f4d61726b657420697320616c726561647920636c6f7365640000000000000000600082015250565b60006119a3601883611406565b91506119ae8261196d565b602082019050919050565b600060208201905081810360008301526119d281611996565b9050919050565b7f4f6e6c79207468652054534f2041646d696e2063616e20706572666f726d207460008201527f68697320616374696f6e00000000000000000000000000000000000000000000602082015250565b6000611a35602a83611406565b9150611a40826119d9565b604082019050919050565b60006020820190508181036000830152611a6481611a28565b9050919050565b7f416c6c20626964732070726f6365737365640000000000000000000000000000600082015250565b6000611aa1601283611406565b9150611aac82611a6b565b602082019050919050565b60006020820190508181036000830152611ad081611a94565b9050919050565b6000611ae2826111d9565b9150611aed836111d9565b9250827fffffffffffffffffffffffffffffffffffffffffffffffffffffffffffffffff03821115611b2257611b216114ef565b5b828201905092915050565b6000604082019050611b4260008301856111e3565b611b4f60208301846111e3565b9392505050565b6000604082019050611b6b60008301856111e3565b611b786020830184611151565b939250505056fea264697066735822122009035c80065d63488e843394d0494ba23df33d7692a92574dfa63fd4a85fb3ab64736f6c63430008090033",
  "immutableReferences": {},
  "source": "// SPDX-License-Identifier: MIT\npragma solidity ^0.8.9;\n\nimport \"./Aggregator.sol\";\n\ncontract TSO {\n    struct Bid {\n        address bidder; // Address of the aggregator that placed the bid\n        address batteryOwner;\n        uint amount; // in kWh\n        uint price; // in wei per kWh\n        bool isSelected;\n    }\n\n    Aggregator public aggregator;\n    mapping(address => address) public aggregators; // maps batteries owners addresses to aggregator addresses\n    mapping(uint => Bid) public bids;\n    uint public bidCount;\n    bool public marketOpen;\n    uint public requiredEnergy; // energy need from TSO\n    bool public isPositiveReserve; // True for positive reserve, False for negative reserve\n    address public tsoAdmin;\n\n    uint public nextBidIndex; // Indice della prossima bid da selezionare\n    uint public nextPaymentIndex; // Indice del prossimo pagamento da elaborare\n    uint public totalSelectedEnergy; // Energia totale selezionata\n\n    event MarketOpened(uint requiredEnergy, bool isPositiveReserve);\n    event BidPlaced(\n        address indexed bidder,\n        address batteryOwner,\n        uint amount,\n        uint price\n    );\n    event MarketClosed();\n    event BidSelected(address indexed batteryOwner, uint amount, uint price);\n    event PaymentToAggregatorOwnerRecorded(\n        address indexed bidder,\n        uint commission\n    );\n    event PaymentToBatteryOwnerRecorded(\n        address indexed batteryOwner,\n        uint payment\n    );\n\n    modifier onlyTsoAdmin() {\n        require(\n            msg.sender == tsoAdmin,\n            \"Only the TSO Admin can perform this action\"\n        );\n        _;\n    }\n    modifier onlyWhenMarketOpen() {\n        require(marketOpen, \"Market is not open\");\n        _;\n    }\n\n    constructor(address _tsoAdmin) {\n        tsoAdmin = _tsoAdmin;\n    }\n\n    function openMarket(\n        uint _requiredEnergy,\n        bool _isPositiveReserve\n    ) external onlyTsoAdmin {\n        requiredEnergy = _requiredEnergy;\n        isPositiveReserve = _isPositiveReserve;\n        marketOpen = true;\n        emit MarketOpened(requiredEnergy, isPositiveReserve);\n    }\n\n    function placeBid(\n        address _bidder,\n        address _batteryOwner,\n        uint _amountInKWh, // Volume in kWh\n        uint _pricePerMWh // Price in EUR/MWh\n    ) external onlyWhenMarketOpen {\n        uint batterySoC = aggregator.getBatterySoC(_batteryOwner);\n\n        if (isPositiveReserve) {\n            require(batterySoC >= 40, \"Insufficient SoC to join the market\");\n        } else {\n            require(batterySoC < 100, \"Battery is full\");\n        }\n\n        // Check if price is positive\n        require(_pricePerMWh > 0, \"Price must be greater than 0\");\n\n        address aggregatorAddress = aggregators[_batteryOwner];\n        require(\n            aggregatorAddress != address(0),\n            \"Aggregator not found for battery owner\"\n        );\n\n        // Calculating the price per kWh\n        uint _pricePerKWh = (_pricePerMWh * _amountInKWh) / 1000;\n\n        bids[bidCount] = Bid(\n            _bidder,\n            _batteryOwner,\n            _amountInKWh,\n            _pricePerKWh,\n            false\n        );\n\n        emit BidPlaced(_bidder, _batteryOwner, _amountInKWh, _pricePerKWh);\n\n        bidCount++;\n    }\n\n    function closeMarket() external {\n        require(marketOpen, \"Market is already closed\");\n        marketOpen = false;\n        emit MarketClosed();\n    }\n\n    function selectNextBid() external onlyTsoAdmin {\n        require(!marketOpen, \"Market is still open\");\n        require(nextBidIndex < bidCount, \"All bids processed\");\n\n        uint energySelected = totalSelectedEnergy; // Track total selected energy\n        if (energySelected < requiredEnergy) {\n            bids[nextBidIndex].isSelected = true;\n            energySelected += bids[nextBidIndex].amount;\n            totalSelectedEnergy = energySelected; // Update the total selected energy\n            emit BidSelected(\n                bids[nextBidIndex].batteryOwner,\n                bids[nextBidIndex].amount,\n                bids[nextBidIndex].price\n            );\n        }\n        nextBidIndex++; // Move to the next bid\n    }\n\n    function processNextPayment() external {\n        require(!marketOpen, \"Market is still open\");\n        require(nextPaymentIndex < bidCount, \"All payments processed\");\n\n        Bid storage bid = bids[nextPaymentIndex];\n        if (bid.isSelected) {\n            uint payment = bid.amount * bid.price;\n            uint commission = (payment * aggregator.commissionRate()) / 100;\n\n            // Pay battery owner\n            payable(bid.batteryOwner).transfer(payment - commission);\n            emit PaymentToBatteryOwnerRecorded(\n                bid.batteryOwner,\n                payment - commission\n            );\n\n            // Pay aggregator\n            payable(address(aggregator)).transfer(commission);\n            emit PaymentToAggregatorOwnerRecorded(bid.bidder, commission);\n\n            // Update battery SoC only if positive reserve\n            // Update battery SoC\n            aggregator.updateBatterySoCAfterSale(\n                bid.batteryOwner,\n                bid.amount,\n                isPositiveReserve\n            );\n        }\n\n        nextPaymentIndex++; // Move to the next payment\n    }\n}\n",
  "sourcePath": "/home/sletolox1001/blockchain_projects/thesis_project/smartcontract/contracts/TSO.sol",
  "compiler": {
    "name": "solc",
    "version": "0.8.9+commit.e5eed63a.Emscripten.clang"
  },
  "schemaVersion": "3.4.16",
  "updatedAt": "2024-09-19T10:14:21.597Z",
  "networkType": "ethereum",
  "devdoc": {
    "kind": "dev",
    "methods": {},
    "version": 1
  },
  "userdoc": {
    "kind": "user",
    "methods": {},
    "version": 1
  }
}