{
  "contractName": "TSO",
  "abi": [
    {
      "inputs": [
        {
          "internalType": "address",
          "name": "_tsoAdmin",
          "type": "address"
        }
      ],
      "stateMutability": "nonpayable",
      "type": "constructor"
    },
    {
      "anonymous": false,
      "inputs": [
        {
          "indexed": true,
          "internalType": "address",
          "name": "bidder",
          "type": "address"
        },
        {
          "indexed": false,
          "internalType": "address",
          "name": "batteryOwner",
          "type": "address"
        },
        {
          "indexed": false,
          "internalType": "uint256",
          "name": "amount",
          "type": "uint256"
        },
        {
          "indexed": false,
          "internalType": "uint256",
          "name": "price",
          "type": "uint256"
        },
        {
          "indexed": false,
          "internalType": "uint256",
          "name": "bidIndex",
          "type": "uint256"
        }
      ],
      "name": "BidPlaced",
      "type": "event"
    },
    {
      "anonymous": false,
      "inputs": [
        {
          "indexed": true,
          "internalType": "address",
          "name": "batteryOwner",
          "type": "address"
        },
        {
          "indexed": false,
          "internalType": "uint256",
          "name": "amount",
          "type": "uint256"
        },
        {
          "indexed": false,
          "internalType": "uint256",
          "name": "price",
          "type": "uint256"
        },
        {
          "indexed": false,
          "internalType": "uint256",
          "name": "bidIndex",
          "type": "uint256"
        }
      ],
      "name": "BidSelected",
      "type": "event"
    },
    {
      "anonymous": false,
      "inputs": [],
      "name": "MarketClosed",
      "type": "event"
    },
    {
      "anonymous": false,
      "inputs": [
        {
          "indexed": false,
          "internalType": "uint256",
          "name": "requiredEnergy",
          "type": "uint256"
        },
        {
          "indexed": false,
          "internalType": "bool",
          "name": "isPositiveReserve",
          "type": "bool"
        }
      ],
      "name": "MarketOpened",
      "type": "event"
    },
    {
      "anonymous": false,
      "inputs": [
        {
          "indexed": true,
          "internalType": "address",
          "name": "bidder",
          "type": "address"
        },
        {
          "indexed": false,
          "internalType": "uint256",
          "name": "commission",
          "type": "uint256"
        }
      ],
      "name": "PaymentToAggregatorOwnerRecorded",
      "type": "event"
    },
    {
      "anonymous": false,
      "inputs": [
        {
          "indexed": true,
          "internalType": "address",
          "name": "batteryOwner",
          "type": "address"
        },
        {
          "indexed": false,
          "internalType": "uint256",
          "name": "payment",
          "type": "uint256"
        }
      ],
      "name": "PaymentToBatteryOwnerRecorded",
      "type": "event"
    },
    {
      "inputs": [],
      "name": "aggregator",
      "outputs": [
        {
          "internalType": "contract Aggregator",
          "name": "",
          "type": "address"
        }
      ],
      "stateMutability": "view",
      "type": "function",
      "constant": true
    },
    {
      "inputs": [
        {
          "internalType": "address",
          "name": "",
          "type": "address"
        }
      ],
      "name": "aggregators",
      "outputs": [
        {
          "internalType": "address",
          "name": "",
          "type": "address"
        }
      ],
      "stateMutability": "view",
      "type": "function",
      "constant": true
    },
    {
      "inputs": [
        {
          "internalType": "uint256",
          "name": "",
          "type": "uint256"
        }
      ],
      "name": "bids",
      "outputs": [
        {
          "internalType": "address",
          "name": "bidder",
          "type": "address"
        },
        {
          "internalType": "address",
          "name": "batteryOwner",
          "type": "address"
        },
        {
          "internalType": "uint256",
          "name": "amount",
          "type": "uint256"
        },
        {
          "internalType": "uint256",
          "name": "price",
          "type": "uint256"
        },
        {
          "internalType": "uint256",
          "name": "bidIndex",
          "type": "uint256"
        },
        {
          "internalType": "bool",
          "name": "isSelected",
          "type": "bool"
        }
      ],
      "stateMutability": "view",
      "type": "function",
      "constant": true
    },
    {
      "inputs": [],
      "name": "isPositiveReserve",
      "outputs": [
        {
          "internalType": "bool",
          "name": "",
          "type": "bool"
        }
      ],
      "stateMutability": "view",
      "type": "function",
      "constant": true
    },
    {
      "inputs": [],
      "name": "marketOpen",
      "outputs": [
        {
          "internalType": "bool",
          "name": "",
          "type": "bool"
        }
      ],
      "stateMutability": "view",
      "type": "function",
      "constant": true
    },
    {
      "inputs": [],
      "name": "requiredEnergy",
      "outputs": [
        {
          "internalType": "uint256",
          "name": "",
          "type": "uint256"
        }
      ],
      "stateMutability": "view",
      "type": "function",
      "constant": true
    },
    {
      "inputs": [],
      "name": "totalSelectedEnergy",
      "outputs": [
        {
          "internalType": "uint256",
          "name": "",
          "type": "uint256"
        }
      ],
      "stateMutability": "view",
      "type": "function",
      "constant": true
    },
    {
      "inputs": [],
      "name": "tsoAdmin",
      "outputs": [
        {
          "internalType": "address",
          "name": "",
          "type": "address"
        }
      ],
      "stateMutability": "view",
      "type": "function",
      "constant": true
    },
    {
      "inputs": [
        {
          "internalType": "uint256",
          "name": "_requiredEnergy",
          "type": "uint256"
        },
        {
          "internalType": "bool",
          "name": "_isPositiveReserve",
          "type": "bool"
        }
      ],
      "name": "openMarket",
      "outputs": [],
      "stateMutability": "nonpayable",
      "type": "function"
    },
    {
      "inputs": [
        {
          "internalType": "address",
          "name": "_bidder",
          "type": "address"
        },
        {
          "internalType": "address",
          "name": "_batteryOwner",
          "type": "address"
        },
        {
          "internalType": "uint256",
          "name": "_amountInKWh",
          "type": "uint256"
        },
        {
          "internalType": "uint256",
          "name": "_pricePerMWh",
          "type": "uint256"
        },
        {
          "internalType": "uint256",
          "name": "_bidIndex",
          "type": "uint256"
        }
      ],
      "name": "placeBid",
      "outputs": [],
      "stateMutability": "nonpayable",
      "type": "function"
    },
    {
      "inputs": [],
      "name": "closeMarket",
      "outputs": [],
      "stateMutability": "nonpayable",
      "type": "function"
    },
    {
      "inputs": [
        {
          "internalType": "uint256",
          "name": "nextBidIndex",
          "type": "uint256"
        }
      ],
      "name": "selectNextBid",
      "outputs": [],
      "stateMutability": "nonpayable",
      "type": "function"
    },
    {
      "inputs": [
        {
          "internalType": "uint256",
          "name": "nextPaymentIndex",
          "type": "uint256"
        }
      ],
      "name": "processNextPayment",
      "outputs": [],
      "stateMutability": "nonpayable",
      "type": "function"
    },
    {
      "inputs": [
        {
          "internalType": "uint256",
          "name": "_index",
          "type": "uint256"
        }
      ],
      "name": "getBidIndex",
      "outputs": [
        {
          "internalType": "uint256",
          "name": "",
          "type": "uint256"
        }
      ],
      "stateMutability": "view",
      "type": "function",
      "constant": true
    }
  ],
  "bytecode": "0x60806040523480156200001157600080fd5b5060405162001b4138038062001b418339818101604052810190620000379190620000e9565b80600560016101000a81548173ffffffffffffffffffffffffffffffffffffffff021916908373ffffffffffffffffffffffffffffffffffffffff160217905550506200011b565b600080fd5b600073ffffffffffffffffffffffffffffffffffffffff82169050919050565b6000620000b18262000084565b9050919050565b620000c381620000a4565b8114620000cf57600080fd5b50565b600081519050620000e381620000b8565b92915050565b6000602082840312156200010257620001016200007f565b5b60006200011284828501620000d2565b91505092915050565b611a16806200012b6000396000f3fe608060405234801561001057600080fd5b50600436106100ea5760003560e01c8063610498c71161008c578063c66bc04611610066578063c66bc0461461023e578063d6e0cd171461025c578063e2a886bd14610278578063fcfb8f1114610296576100ea565b8063610498c7146101fa57806366bf457014610216578063c511ed5e14610234576100ea565b8063245a7bfc116100c8578063245a7bfc1461015b5780634423c5f1146101795780634fd59f4e146101ae57806357a1e653146101ca576100ea565b80630270ada4146100ef57806304eb435f1461010d578063112cdab91461012b575b600080fd5b6100f76102b2565b604051610104919061106e565b60405180910390f35b6101156102d8565b60405161012291906110a4565b60405180910390f35b610145600480360381019061014091906110f0565b6102eb565b604051610152919061106e565b60405180910390f35b61016361031e565b604051610170919061117c565b60405180910390f35b610193600480360381019061018e91906111cd565b610342565b6040516101a596959493929190611209565b60405180910390f35b6101c860048036038101906101c391906111cd565b6103cb565b005b6101e460048036038101906101df91906111cd565b6105e5565b6040516101f1919061126a565b60405180910390f35b610214600480360381019061020f91906111cd565b610605565b005b61021e6109ed565b60405161022b919061126a565b60405180910390f35b61023c6109f3565b005b610246610a8b565b60405161025391906110a4565b60405180910390f35b610276600480360381019061027191906112b1565b610a9e565b005b610280610bb8565b60405161028d919061126a565b60405180910390f35b6102b060048036038101906102ab91906112f1565b610bbe565b005b600560019054906101000a900473ffffffffffffffffffffffffffffffffffffffff1681565b600560009054906101000a900460ff1681565b60016020528060005260406000206000915054906101000a900473ffffffffffffffffffffffffffffffffffffffff1681565b60008054906101000a900473ffffffffffffffffffffffffffffffffffffffff1681565b60026020528060005260406000206000915090508060000160009054906101000a900473ffffffffffffffffffffffffffffffffffffffff16908060010160009054906101000a900473ffffffffffffffffffffffffffffffffffffffff16908060020154908060030154908060040154908060050160009054906101000a900460ff16905086565b600560019054906101000a900473ffffffffffffffffffffffffffffffffffffffff1673ffffffffffffffffffffffffffffffffffffffff163373ffffffffffffffffffffffffffffffffffffffff161461045b576040517f08c379a0000000000000000000000000000000000000000000000000000000008152600401610452906113ef565b60405180910390fd5b600360009054906101000a900460ff16156104ab576040517f08c379a00000000000000000000000000000000000000000000000000000000081526004016104a29061145b565b60405180910390fd5b600060065490506004548110156105e15760016002600084815260200190815260200160002060050160006101000a81548160ff02191690831515021790555060026000838152602001908152602001600020600201548161050d91906114aa565b9050806006819055506002600083815260200190815260200160002060010160009054906101000a900473ffffffffffffffffffffffffffffffffffffffff1673ffffffffffffffffffffffffffffffffffffffff167fab7e8dc17853ba006bdd3afda0c1d051c2848fdb944fac6e6db2f88e324476ff6002600085815260200190815260200160002060020154600260008681526020019081526020016000206003015460026000878152602001908152602001600020600401546040516105d893929190611500565b60405180910390a25b5050565b600060026000838152602001908152602001600020600401549050919050565b600360009054906101000a900460ff1615610655576040517f08c379a000000000000000000000000000000000000000000000000000000000815260040161064c9061145b565b60405180910390fd5b60006002600083815260200190815260200160002090508060050160009054906101000a900460ff16156109e9576000816003015482600201546106999190611537565b90506000606460008054906101000a900473ffffffffffffffffffffffffffffffffffffffff1673ffffffffffffffffffffffffffffffffffffffff16635ea1d6f86040518163ffffffff1660e01b815260040160206040518083038186803b15801561070557600080fd5b505afa158015610719573d6000803e3d6000fd5b505050506040513d601f19601f8201168201806040525081019061073d91906115a6565b836107489190611537565b6107529190611602565b90508260010160009054906101000a900473ffffffffffffffffffffffffffffffffffffffff1673ffffffffffffffffffffffffffffffffffffffff166108fc828461079e9190611633565b9081150290604051600060405180830381858888f193505050501580156107c9573d6000803e3d6000fd5b508260010160009054906101000a900473ffffffffffffffffffffffffffffffffffffffff1673ffffffffffffffffffffffffffffffffffffffff167f05622d675ae17b6095d9de6bd6448ed94a9e4ef429dd071bccc722048aac18cf82846108329190611633565b60405161083f919061126a565b60405180910390a260008054906101000a900473ffffffffffffffffffffffffffffffffffffffff1673ffffffffffffffffffffffffffffffffffffffff166108fc829081150290604051600060405180830381858888f193505050501580156108ad573d6000803e3d6000fd5b508260000160009054906101000a900473ffffffffffffffffffffffffffffffffffffffff1673ffffffffffffffffffffffffffffffffffffffff167fb6566daf73f0ad3b232c916b0188d8e5a84b2a34ffe61283799015ea02cff7ec82604051610918919061126a565b60405180910390a260008054906101000a900473ffffffffffffffffffffffffffffffffffffffff1673ffffffffffffffffffffffffffffffffffffffff16639e9b522c8460010160009054906101000a900473ffffffffffffffffffffffffffffffffffffffff168560020154600560009054906101000a900460ff166040518463ffffffff1660e01b81526004016109b493929190611667565b600060405180830381600087803b1580156109ce57600080fd5b505af11580156109e2573d6000803e3d6000fd5b5050505050505b5050565b60065481565b600360009054906101000a900460ff16610a42576040517f08c379a0000000000000000000000000000000000000000000000000000000008152600401610a39906116ea565b60405180910390fd5b6000600360006101000a81548160ff0219169083151502179055507f0b5f6bf058282d5cc003efc735b9ee453bbd7f9bef4c6db6300d095f3eefac2860405160405180910390a1565b600360009054906101000a900460ff1681565b600560019054906101000a900473ffffffffffffffffffffffffffffffffffffffff1673ffffffffffffffffffffffffffffffffffffffff163373ffffffffffffffffffffffffffffffffffffffff1614610b2e576040517f08c379a0000000000000000000000000000000000000000000000000000000008152600401610b25906113ef565b60405180910390fd5b8160048190555080600560006101000a81548160ff0219169083151502179055506001600360006101000a81548160ff0219169083151502179055507faa156aa8eb148a0ccce210026c57e10f7da7b4d62043a69e58bfc0f4d246dfb8600454600560009054906101000a900460ff16604051610bac92919061170a565b60405180910390a15050565b60045481565b600360009054906101000a900460ff16610c0d576040517f08c379a0000000000000000000000000000000000000000000000000000000008152600401610c049061177f565b60405180910390fd5b60008060009054906101000a900473ffffffffffffffffffffffffffffffffffffffff1673ffffffffffffffffffffffffffffffffffffffff16637edaff94866040518263ffffffff1660e01b8152600401610c69919061106e565b60206040518083038186803b158015610c8157600080fd5b505afa158015610c95573d6000803e3d6000fd5b505050506040513d601f19601f82011682018060405250810190610cb991906115a6565b9050600560009054906101000a900460ff1615610d19576028811015610d14576040517f08c379a0000000000000000000000000000000000000000000000000000000008152600401610d0b90611811565b60405180910390fd5b610d5d565b60648110610d5c576040517f08c379a0000000000000000000000000000000000000000000000000000000008152600401610d539061187d565b60405180910390fd5b5b60008311610da0576040517f08c379a0000000000000000000000000000000000000000000000000000000008152600401610d97906118e9565b60405180910390fd5b6000600160008773ffffffffffffffffffffffffffffffffffffffff1673ffffffffffffffffffffffffffffffffffffffff16815260200190815260200160002060009054906101000a900473ffffffffffffffffffffffffffffffffffffffff169050600073ffffffffffffffffffffffffffffffffffffffff168173ffffffffffffffffffffffffffffffffffffffff161415610e74576040517f08c379a0000000000000000000000000000000000000000000000000000000008152600401610e6b9061197b565b60405180910390fd5b60006103e88686610e859190611537565b610e8f9190611602565b90506040518060c001604052808973ffffffffffffffffffffffffffffffffffffffff1681526020018873ffffffffffffffffffffffffffffffffffffffff168152602001878152602001828152602001858152602001600015158152506002600086815260200190815260200160002060008201518160000160006101000a81548173ffffffffffffffffffffffffffffffffffffffff021916908373ffffffffffffffffffffffffffffffffffffffff16021790555060208201518160010160006101000a81548173ffffffffffffffffffffffffffffffffffffffff021916908373ffffffffffffffffffffffffffffffffffffffff16021790555060408201518160020155606082015181600301556080820151816004015560a08201518160050160006101000a81548160ff0219169083151502179055509050508773ffffffffffffffffffffffffffffffffffffffff167fd8c744a00b9e0131cbbabb5774cdf1db85f1ee81c1aada72b5c667b6168da7b88888848860405161101b949392919061199b565b60405180910390a25050505050505050565b600073ffffffffffffffffffffffffffffffffffffffff82169050919050565b60006110588261102d565b9050919050565b6110688161104d565b82525050565b6000602082019050611083600083018461105f565b92915050565b60008115159050919050565b61109e81611089565b82525050565b60006020820190506110b96000830184611095565b92915050565b600080fd5b6110cd8161104d565b81146110d857600080fd5b50565b6000813590506110ea816110c4565b92915050565b600060208284031215611106576111056110bf565b5b6000611114848285016110db565b91505092915050565b6000819050919050565b600061114261113d6111388461102d565b61111d565b61102d565b9050919050565b600061115482611127565b9050919050565b600061116682611149565b9050919050565b6111768161115b565b82525050565b6000602082019050611191600083018461116d565b92915050565b6000819050919050565b6111aa81611197565b81146111b557600080fd5b50565b6000813590506111c7816111a1565b92915050565b6000602082840312156111e3576111e26110bf565b5b60006111f1848285016111b8565b91505092915050565b61120381611197565b82525050565b600060c08201905061121e600083018961105f565b61122b602083018861105f565b61123860408301876111fa565b61124560608301866111fa565b61125260808301856111fa565b61125f60a0830184611095565b979650505050505050565b600060208201905061127f60008301846111fa565b92915050565b61128e81611089565b811461129957600080fd5b50565b6000813590506112ab81611285565b92915050565b600080604083850312156112c8576112c76110bf565b5b60006112d6858286016111b8565b92505060206112e78582860161129c565b9150509250929050565b600080600080600060a0868803121561130d5761130c6110bf565b5b600061131b888289016110db565b955050602061132c888289016110db565b945050604061133d888289016111b8565b935050606061134e888289016111b8565b925050608061135f888289016111b8565b9150509295509295909350565b600082825260208201905092915050565b7f4f6e6c79207468652054534f2041646d696e2063616e20706572666f726d207460008201527f68697320616374696f6e00000000000000000000000000000000000000000000602082015250565b60006113d9602a8361136c565b91506113e48261137d565b604082019050919050565b60006020820190508181036000830152611408816113cc565b9050919050565b7f4d61726b6574206973207374696c6c206f70656e000000000000000000000000600082015250565b600061144560148361136c565b91506114508261140f565b602082019050919050565b6000602082019050818103600083015261147481611438565b9050919050565b7f4e487b7100000000000000000000000000000000000000000000000000000000600052601160045260246000fd5b60006114b582611197565b91506114c083611197565b9250827fffffffffffffffffffffffffffffffffffffffffffffffffffffffffffffffff038211156114f5576114f461147b565b5b828201905092915050565b600060608201905061151560008301866111fa565b61152260208301856111fa565b61152f60408301846111fa565b949350505050565b600061154282611197565b915061154d83611197565b9250817fffffffffffffffffffffffffffffffffffffffffffffffffffffffffffffffff04831182151516156115865761158561147b565b5b828202905092915050565b6000815190506115a0816111a1565b92915050565b6000602082840312156115bc576115bb6110bf565b5b60006115ca84828501611591565b91505092915050565b7f4e487b7100000000000000000000000000000000000000000000000000000000600052601260045260246000fd5b600061160d82611197565b915061161883611197565b925082611628576116276115d3565b5b828204905092915050565b600061163e82611197565b915061164983611197565b92508282101561165c5761165b61147b565b5b828203905092915050565b600060608201905061167c600083018661105f565b61168960208301856111fa565b6116966040830184611095565b949350505050565b7f4d61726b657420697320616c726561647920636c6f7365640000000000000000600082015250565b60006116d460188361136c565b91506116df8261169e565b602082019050919050565b60006020820190508181036000830152611703816116c7565b9050919050565b600060408201905061171f60008301856111fa565b61172c6020830184611095565b9392505050565b7f4d61726b6574206973206e6f74206f70656e0000000000000000000000000000600082015250565b600061176960128361136c565b915061177482611733565b602082019050919050565b600060208201905081810360008301526117988161175c565b9050919050565b7f496e73756666696369656e7420536f4320746f206a6f696e20746865206d617260008201527f6b65740000000000000000000000000000000000000000000000000000000000602082015250565b60006117fb60238361136c565b91506118068261179f565b604082019050919050565b6000602082019050818103600083015261182a816117ee565b9050919050565b7f426174746572792069732066756c6c0000000000000000000000000000000000600082015250565b6000611867600f8361136c565b915061187282611831565b602082019050919050565b600060208201905081810360008301526118968161185a565b9050919050565b7f5072696365206d7573742062652067726561746572207468616e203000000000600082015250565b60006118d3601c8361136c565b91506118de8261189d565b602082019050919050565b60006020820190508181036000830152611902816118c6565b9050919050565b7f41676772656761746f72206e6f7420666f756e6420666f72206261747465727960008201527f206f776e65720000000000000000000000000000000000000000000000000000602082015250565b600061196560268361136c565b915061197082611909565b604082019050919050565b6000602082019050818103600083015261199481611958565b9050919050565b60006080820190506119b0600083018761105f565b6119bd60208301866111fa565b6119ca60408301856111fa565b6119d760608301846111fa565b9594505050505056fea2646970667358221220536f7830550378402c844010ce7f8eb5da5aed4dc5c938f9946e2d887543d3ad64736f6c63430008090033",
  "immutableReferences": {},
  "source": "// SPDX-License-Identifier: MIT\npragma solidity ^0.8.9;\n\nimport \"./Aggregator.sol\";\n\ncontract TSO {\n    struct Bid {\n        address bidder; // Address of the aggregator that placed the bid\n        address batteryOwner;\n        uint amount; // in kWh\n        uint price; // in wei per kWh\n        uint bidIndex;\n        bool isSelected;\n    }\n\n    Aggregator public aggregator;\n    mapping(address => address) public aggregators; // maps batteries owners addresses to aggregator addresses\n    mapping(uint => Bid) public bids;\n\n    bool public marketOpen;\n    uint public requiredEnergy; // energy need from TSO\n    bool public isPositiveReserve; // True for positive reserve, False for negative reserve\n    address public tsoAdmin;\n\n    //uint public nextBidIndex; // Indice della prossima bid da selezionare\n    //uint public nextPaymentIndex; // Indice del prossimo pagamento da elaborare\n    uint public totalSelectedEnergy; // Energia totale selezionata\n\n    event MarketOpened(uint requiredEnergy, bool isPositiveReserve);\n    event BidPlaced(\n        address indexed bidder,\n        address batteryOwner,\n        uint amount,\n        uint price,\n        uint bidIndex\n    );\n    event MarketClosed();\n    event BidSelected(\n        address indexed batteryOwner,\n        uint amount,\n        uint price,\n        uint bidIndex\n    );\n    event PaymentToAggregatorOwnerRecorded(\n        address indexed bidder,\n        uint commission\n    );\n    event PaymentToBatteryOwnerRecorded(\n        address indexed batteryOwner,\n        uint payment\n    );\n\n    modifier onlyTsoAdmin() {\n        require(\n            msg.sender == tsoAdmin,\n            \"Only the TSO Admin can perform this action\"\n        );\n        _;\n    }\n    modifier onlyWhenMarketOpen() {\n        require(marketOpen, \"Market is not open\");\n        _;\n    }\n\n    constructor(address _tsoAdmin) {\n        tsoAdmin = _tsoAdmin;\n    }\n\n    function openMarket(\n        uint _requiredEnergy,\n        bool _isPositiveReserve\n    ) external onlyTsoAdmin {\n        requiredEnergy = _requiredEnergy;\n        isPositiveReserve = _isPositiveReserve;\n        marketOpen = true;\n        emit MarketOpened(requiredEnergy, isPositiveReserve);\n    }\n\n    function placeBid(\n        address _bidder,\n        address _batteryOwner,\n        uint _amountInKWh, // Volume in kWh\n        uint _pricePerMWh, // Price in EUR/MWh\n        uint _bidIndex\n    ) external onlyWhenMarketOpen {\n        uint batterySoC = aggregator.getBatterySoC(_batteryOwner);\n\n        if (isPositiveReserve) {\n            require(batterySoC >= 40, \"Insufficient SoC to join the market\");\n        } else {\n            require(batterySoC < 100, \"Battery is full\");\n        }\n\n        // Check if price is positive\n        require(_pricePerMWh > 0, \"Price must be greater than 0\");\n\n        address aggregatorAddress = aggregators[_batteryOwner];\n        require(\n            aggregatorAddress != address(0),\n            \"Aggregator not found for battery owner\"\n        );\n\n        // Calculating the price per kWh\n        uint _pricePerKWh = (_pricePerMWh * _amountInKWh) / 1000;\n\n        bids[_bidIndex] = Bid(\n            _bidder,\n            _batteryOwner,\n            _amountInKWh,\n            _pricePerKWh,\n            _bidIndex,\n            false\n        );\n\n        emit BidPlaced(\n            _bidder,\n            _batteryOwner,\n            _amountInKWh,\n            _pricePerKWh,\n            _bidIndex\n        );\n    }\n\n    function closeMarket() external {\n        require(marketOpen, \"Market is already closed\");\n        marketOpen = false;\n        emit MarketClosed();\n    }\n\n    function selectNextBid(uint nextBidIndex) external onlyTsoAdmin {\n        require(!marketOpen, \"Market is still open\");\n        //require(nextBidIndex < bidCount, \"All bids processed\");\n\n        uint energySelected = totalSelectedEnergy; // Track total selected energy\n        if (energySelected < requiredEnergy) {\n            bids[nextBidIndex].isSelected = true;\n            energySelected += bids[nextBidIndex].amount;\n            totalSelectedEnergy = energySelected; // Update the total selected energy\n            emit BidSelected(\n                bids[nextBidIndex].batteryOwner,\n                bids[nextBidIndex].amount,\n                bids[nextBidIndex].price,\n                bids[nextBidIndex].bidIndex\n            );\n        }\n        //nextBidIndex++; // Move to the next bid\n    }\n\n    function processNextPayment(uint nextPaymentIndex) external {\n        require(!marketOpen, \"Market is still open\");\n        //require(nextPaymentIndex < bidCount, \"All payments processed\");\n\n        Bid storage bid = bids[nextPaymentIndex];\n        if (bid.isSelected) {\n            uint payment = bid.amount * bid.price;\n            uint commission = (payment * aggregator.commissionRate()) / 100;\n\n            // Pay battery owner\n            payable(bid.batteryOwner).transfer(payment - commission);\n            emit PaymentToBatteryOwnerRecorded(\n                bid.batteryOwner,\n                payment - commission\n            );\n\n            // Pay aggregator\n            payable(address(aggregator)).transfer(commission);\n            emit PaymentToAggregatorOwnerRecorded(bid.bidder, commission);\n\n            // Update battery SoC only if positive reserve\n            // Update battery SoC\n            aggregator.updateBatterySoCAfterSale(\n                bid.batteryOwner,\n                bid.amount,\n                isPositiveReserve\n            );\n        }\n    }\n\n    function getBidIndex(uint _index) public view returns (uint) {\n        return bids[_index].bidIndex;\n    }\n}\n",
  "sourcePath": "/home/sletolox1001/blockchain_projects/thesis_project/smartcontract/contracts/TSO.sol",
  "compiler": {
    "name": "solc",
    "version": "0.8.9+commit.e5eed63a.Emscripten.clang"
  },
  "schemaVersion": "3.4.16",
  "updatedAt": "2024-09-25T10:00:08.598Z",
  "networkType": "ethereum",
  "devdoc": {
    "kind": "dev",
    "methods": {},
    "version": 1
  },
  "userdoc": {
    "kind": "user",
    "methods": {},
    "version": 1
  }
}