{
  "contractName": "TSOContract",
  "abi": [
    {
      "inputs": [
        {
          "internalType": "address",
          "name": "_tsoAdmin",
          "type": "address"
        },
        {
          "internalType": "uint256",
          "name": "_marketOpenTime",
          "type": "uint256"
        },
        {
          "internalType": "uint256",
          "name": "_marketCloseTime",
          "type": "uint256"
        }
      ],
      "stateMutability": "nonpayable",
      "type": "constructor"
    },
    {
      "anonymous": false,
      "inputs": [
        {
          "indexed": false,
          "internalType": "uint256",
          "name": "bidId",
          "type": "uint256"
        },
        {
          "indexed": true,
          "internalType": "address",
          "name": "owner",
          "type": "address"
        },
        {
          "indexed": false,
          "internalType": "uint256",
          "name": "amount",
          "type": "uint256"
        },
        {
          "indexed": false,
          "internalType": "uint256",
          "name": "price",
          "type": "uint256"
        }
      ],
      "name": "BidPlaced",
      "type": "event"
    },
    {
      "anonymous": false,
      "inputs": [
        {
          "indexed": false,
          "internalType": "uint256",
          "name": "bidId",
          "type": "uint256"
        }
      ],
      "name": "BidSelected",
      "type": "event"
    },
    {
      "anonymous": false,
      "inputs": [
        {
          "indexed": false,
          "internalType": "uint256",
          "name": "bidId",
          "type": "uint256"
        },
        {
          "indexed": true,
          "internalType": "address",
          "name": "buyer",
          "type": "address"
        },
        {
          "indexed": false,
          "internalType": "address",
          "name": "owner",
          "type": "address"
        },
        {
          "indexed": false,
          "internalType": "uint256",
          "name": "amount",
          "type": "uint256"
        },
        {
          "indexed": false,
          "internalType": "uint256",
          "name": "price",
          "type": "uint256"
        }
      ],
      "name": "EnergyPurchased",
      "type": "event"
    },
    {
      "anonymous": false,
      "inputs": [
        {
          "indexed": false,
          "internalType": "uint256",
          "name": "marketOpenTime",
          "type": "uint256"
        },
        {
          "indexed": false,
          "internalType": "uint256",
          "name": "marketCloseTime",
          "type": "uint256"
        }
      ],
      "name": "MarketTimesUpdated",
      "type": "event"
    },
    {
      "anonymous": false,
      "inputs": [
        {
          "indexed": false,
          "internalType": "uint256",
          "name": "bidId",
          "type": "uint256"
        },
        {
          "indexed": false,
          "internalType": "uint256",
          "name": "amount",
          "type": "uint256"
        }
      ],
      "name": "PaymentMade",
      "type": "event"
    },
    {
      "anonymous": false,
      "inputs": [
        {
          "indexed": false,
          "internalType": "uint256",
          "name": "bidId",
          "type": "uint256"
        },
        {
          "indexed": true,
          "internalType": "address",
          "name": "buyer",
          "type": "address"
        },
        {
          "indexed": true,
          "internalType": "address",
          "name": "owner",
          "type": "address"
        },
        {
          "indexed": false,
          "internalType": "uint256",
          "name": "amount",
          "type": "uint256"
        },
        {
          "indexed": false,
          "internalType": "uint256",
          "name": "price",
          "type": "uint256"
        }
      ],
      "name": "PaymentRecorded",
      "type": "event"
    },
    {
      "anonymous": false,
      "inputs": [
        {
          "indexed": false,
          "internalType": "uint256",
          "name": "amount",
          "type": "uint256"
        },
        {
          "indexed": false,
          "internalType": "bool",
          "name": "isPositive",
          "type": "bool"
        }
      ],
      "name": "ReserveRequested",
      "type": "event"
    },
    {
      "inputs": [],
      "name": "bidCount",
      "outputs": [
        {
          "internalType": "uint256",
          "name": "",
          "type": "uint256"
        }
      ],
      "stateMutability": "view",
      "type": "function"
    },
    {
      "inputs": [
        {
          "internalType": "uint256",
          "name": "",
          "type": "uint256"
        }
      ],
      "name": "bids",
      "outputs": [
        {
          "internalType": "address",
          "name": "owner",
          "type": "address"
        },
        {
          "internalType": "uint256",
          "name": "amount",
          "type": "uint256"
        },
        {
          "internalType": "uint256",
          "name": "price",
          "type": "uint256"
        },
        {
          "internalType": "bool",
          "name": "isSelected",
          "type": "bool"
        },
        {
          "internalType": "address",
          "name": "acceptedBy",
          "type": "address"
        }
      ],
      "stateMutability": "view",
      "type": "function"
    },
    {
      "inputs": [],
      "name": "marketCloseTime",
      "outputs": [
        {
          "internalType": "uint256",
          "name": "",
          "type": "uint256"
        }
      ],
      "stateMutability": "view",
      "type": "function"
    },
    {
      "inputs": [],
      "name": "marketOpenTime",
      "outputs": [
        {
          "internalType": "uint256",
          "name": "",
          "type": "uint256"
        }
      ],
      "stateMutability": "view",
      "type": "function"
    },
    {
      "inputs": [],
      "name": "tsoAdmin",
      "outputs": [
        {
          "internalType": "address",
          "name": "",
          "type": "address"
        }
      ],
      "stateMutability": "view",
      "type": "function"
    },
    {
      "inputs": [
        {
          "internalType": "uint256",
          "name": "_marketOpenTime",
          "type": "uint256"
        },
        {
          "internalType": "uint256",
          "name": "_marketCloseTime",
          "type": "uint256"
        }
      ],
      "name": "updateMarketTimes",
      "outputs": [],
      "stateMutability": "nonpayable",
      "type": "function"
    },
    {
      "inputs": [
        {
          "internalType": "uint256",
          "name": "amount",
          "type": "uint256"
        },
        {
          "internalType": "bool",
          "name": "isPositive",
          "type": "bool"
        }
      ],
      "name": "requestReserve",
      "outputs": [],
      "stateMutability": "nonpayable",
      "type": "function"
    },
    {
      "inputs": [
        {
          "internalType": "uint256",
          "name": "_amount",
          "type": "uint256"
        },
        {
          "internalType": "uint256",
          "name": "_price",
          "type": "uint256"
        },
        {
          "internalType": "address",
          "name": "_owner",
          "type": "address"
        }
      ],
      "name": "placeBid",
      "outputs": [],
      "stateMutability": "nonpayable",
      "type": "function"
    },
    {
      "inputs": [
        {
          "internalType": "uint256",
          "name": "_bidId",
          "type": "uint256"
        }
      ],
      "name": "selectBid",
      "outputs": [],
      "stateMutability": "nonpayable",
      "type": "function"
    },
    {
      "inputs": [
        {
          "internalType": "uint256",
          "name": "_bidId",
          "type": "uint256"
        }
      ],
      "name": "makePayment",
      "outputs": [],
      "stateMutability": "payable",
      "type": "function"
    }
  ],
  "bytecode": "0x60806040523480156200001157600080fd5b50604051620013da380380620013da833981810160405281019062000037919062000134565b82600260006101000a81548173ffffffffffffffffffffffffffffffffffffffff021916908373ffffffffffffffffffffffffffffffffffffffff160217905550816003819055508060048190555050505062000190565b600080fd5b600073ffffffffffffffffffffffffffffffffffffffff82169050919050565b6000620000c18262000094565b9050919050565b620000d381620000b4565b8114620000df57600080fd5b50565b600081519050620000f381620000c8565b92915050565b6000819050919050565b6200010e81620000f9565b81146200011a57600080fd5b50565b6000815190506200012e8162000103565b92915050565b60008060006060848603121562000150576200014f6200008f565b5b60006200016086828701620000e2565b935050602062000173868287016200011d565b925050604062000186868287016200011d565b9150509250925092565b61123a80620001a06000396000f3fe6080604052600436106100915760003560e01c8063a7d53ac311610059578063a7d53ac314610172578063ad6561ec1461019b578063b40a5627146101c4578063b9dfa944146101ef578063c75224f31461021857610091565b80630270ada4146100965780634423c5f1146100c157806347c62c5b146101025780635114cb521461012d578063a64668bf14610149575b600080fd5b3480156100a257600080fd5b506100ab610243565b6040516100b89190610bdf565b60405180910390f35b3480156100cd57600080fd5b506100e860048036038101906100e39190610c35565b610269565b6040516100f9959493929190610c8c565b60405180910390f35b34801561010e57600080fd5b506101176102ec565b6040516101249190610cdf565b60405180910390f35b61014760048036038101906101429190610c35565b6102f2565b005b34801561015557600080fd5b50610170600480360381019061016b9190610d26565b61059f565b005b34801561017e57600080fd5b5061019960048036038101906101949190610c35565b61066c565b005b3480156101a757600080fd5b506101c260048036038101906101bd9190610d92565b6108bf565b005b3480156101d057600080fd5b506101d9610ab3565b6040516101e69190610cdf565b60405180910390f35b3480156101fb57600080fd5b5061021660048036038101906102119190610de5565b610ab9565b005b34801561022457600080fd5b5061022d610b98565b60405161023a9190610cdf565b60405180910390f35b600260009054906101000a900473ffffffffffffffffffffffffffffffffffffffff1681565b60006020528060005260406000206000915090508060000160009054906101000a900473ffffffffffffffffffffffffffffffffffffffff16908060010154908060020154908060030160009054906101000a900460ff16908060030160019054906101000a900473ffffffffffffffffffffffffffffffffffffffff16905085565b60035481565b600260009054906101000a900473ffffffffffffffffffffffffffffffffffffffff1673ffffffffffffffffffffffffffffffffffffffff163373ffffffffffffffffffffffffffffffffffffffff1614610382576040517f08c379a000000000000000000000000000000000000000000000000000000000815260040161037990610e82565b60405180910390fd5b60008082815260200190815260200160002060030160009054906101000a900460ff166103e4576040517f08c379a00000000000000000000000000000000000000000000000000000000081526004016103db90610eee565b60405180910390fd5b60003411610427576040517f08c379a000000000000000000000000000000000000000000000000000000000815260040161041e90610f5a565b60405180910390fd5b600080600083815260200190815260200160002060000160009054906101000a900473ffffffffffffffffffffffffffffffffffffffff169050600080600084815260200190815260200160002060010154905060008060008581526020019081526020016000206002015490508273ffffffffffffffffffffffffffffffffffffffff166108fc349081150290604051600060405180830381858888f193505050501580156104db573d6000803e3d6000fd5b508273ffffffffffffffffffffffffffffffffffffffff163373ffffffffffffffffffffffffffffffffffffffff167f3a2f85db325b07b9f114afef3024125aa494614d1bb7d56066da6dc83c9c637f86858560405161053d93929190610f7a565b60405180910390a33373ffffffffffffffffffffffffffffffffffffffff167f12cf6843df230dff5c8306a3113a5aac775144198c3f4dfe127764b6db1fbb01858585856040516105919493929190610fb1565b60405180910390a250505050565b600260009054906101000a900473ffffffffffffffffffffffffffffffffffffffff1673ffffffffffffffffffffffffffffffffffffffff163373ffffffffffffffffffffffffffffffffffffffff161461062f576040517f08c379a000000000000000000000000000000000000000000000000000000000815260040161062690610e82565b60405180910390fd5b7f54eaab48779c2a06d76162d61f33eacbc2d61c12056ca094543bedd1dc77e2968282604051610660929190610ff6565b60405180910390a15050565b600260009054906101000a900473ffffffffffffffffffffffffffffffffffffffff1673ffffffffffffffffffffffffffffffffffffffff163373ffffffffffffffffffffffffffffffffffffffff16146106fc576040517f08c379a00000000000000000000000000000000000000000000000000000000081526004016106f390610e82565b60405180910390fd5b600354421015801561071057506004544211155b61074f576040517f08c379a00000000000000000000000000000000000000000000000000000000081526004016107469061106b565b60405180910390fd5b600073ffffffffffffffffffffffffffffffffffffffff1660008083815260200190815260200160002060000160009054906101000a900473ffffffffffffffffffffffffffffffffffffffff1673ffffffffffffffffffffffffffffffffffffffff1614156107f4576040517f08c379a00000000000000000000000000000000000000000000000000000000081526004016107eb906110d7565b60405180910390fd5b60008082815260200190815260200160002060030160009054906101000a900460ff1615610857576040517f08c379a000000000000000000000000000000000000000000000000000000000815260040161084e90611143565b60405180910390fd5b600160008083815260200190815260200160002060030160006101000a81548160ff0219169083151502179055507f8d8b1437eb027177341f053ad111a3528bb841f889cb10ae326e8ec1fff6dacb816040516108b49190610cdf565b60405180910390a150565b60035442101580156108d357506004544211155b610912576040517f08c379a00000000000000000000000000000000000000000000000000000000081526004016109099061106b565b60405180910390fd5b6040518060a001604052808273ffffffffffffffffffffffffffffffffffffffff168152602001848152602001838152602001600015158152602001600073ffffffffffffffffffffffffffffffffffffffff16815250600080600154815260200190815260200160002060008201518160000160006101000a81548173ffffffffffffffffffffffffffffffffffffffff021916908373ffffffffffffffffffffffffffffffffffffffff160217905550602082015181600101556040820151816002015560608201518160030160006101000a81548160ff02191690831515021790555060808201518160030160016101000a81548173ffffffffffffffffffffffffffffffffffffffff021916908373ffffffffffffffffffffffffffffffffffffffff1602179055509050508073ffffffffffffffffffffffffffffffffffffffff167f51db8e23b3f4479b162fd48823b8402895442b8f6cfd94f66239391881ec7b6f6001548585604051610a8e93929190610f7a565b60405180910390a260016000815480929190610aa990611192565b9190505550505050565b60015481565b600260009054906101000a900473ffffffffffffffffffffffffffffffffffffffff1673ffffffffffffffffffffffffffffffffffffffff163373ffffffffffffffffffffffffffffffffffffffff1614610b49576040517f08c379a0000000000000000000000000000000000000000000000000000000008152600401610b4090610e82565b60405180910390fd5b81600381905550806004819055507f1e193979767205c6f82bf45c55852f320e6b129791fe934d10230b0693c22b9c600354600454604051610b8c9291906111db565b60405180910390a15050565b60045481565b600073ffffffffffffffffffffffffffffffffffffffff82169050919050565b6000610bc982610b9e565b9050919050565b610bd981610bbe565b82525050565b6000602082019050610bf46000830184610bd0565b92915050565b600080fd5b6000819050919050565b610c1281610bff565b8114610c1d57600080fd5b50565b600081359050610c2f81610c09565b92915050565b600060208284031215610c4b57610c4a610bfa565b5b6000610c5984828501610c20565b91505092915050565b610c6b81610bff565b82525050565b60008115159050919050565b610c8681610c71565b82525050565b600060a082019050610ca16000830188610bd0565b610cae6020830187610c62565b610cbb6040830186610c62565b610cc86060830185610c7d565b610cd56080830184610bd0565b9695505050505050565b6000602082019050610cf46000830184610c62565b92915050565b610d0381610c71565b8114610d0e57600080fd5b50565b600081359050610d2081610cfa565b92915050565b60008060408385031215610d3d57610d3c610bfa565b5b6000610d4b85828601610c20565b9250506020610d5c85828601610d11565b9150509250929050565b610d6f81610bbe565b8114610d7a57600080fd5b50565b600081359050610d8c81610d66565b92915050565b600080600060608486031215610dab57610daa610bfa565b5b6000610db986828701610c20565b9350506020610dca86828701610c20565b9250506040610ddb86828701610d7d565b9150509250925092565b60008060408385031215610dfc57610dfb610bfa565b5b6000610e0a85828601610c20565b9250506020610e1b85828601610c20565b9150509250929050565b600082825260208201905092915050565b7f4f6e6c792054534f2063616e2063616c6c20746869732066756e6374696f6e00600082015250565b6000610e6c601f83610e25565b9150610e7782610e36565b602082019050919050565b60006020820190508181036000830152610e9b81610e5f565b9050919050565b7f426964206e6f742073656c656374656400000000000000000000000000000000600082015250565b6000610ed8601083610e25565b9150610ee382610ea2565b602082019050919050565b60006020820190508181036000830152610f0781610ecb565b9050919050565b7f5061796d656e74206d7573742062652067726561746572207468616e20300000600082015250565b6000610f44601e83610e25565b9150610f4f82610f0e565b602082019050919050565b60006020820190508181036000830152610f7381610f37565b9050919050565b6000606082019050610f8f6000830186610c62565b610f9c6020830185610c62565b610fa96040830184610c62565b949350505050565b6000608082019050610fc66000830187610c62565b610fd36020830186610bd0565b610fe06040830185610c62565b610fed6060830184610c62565b95945050505050565b600060408201905061100b6000830185610c62565b6110186020830184610c7d565b9392505050565b7f4d61726b6574206973206e6f74206f70656e0000000000000000000000000000600082015250565b6000611055601283610e25565b91506110608261101f565b602082019050919050565b6000602082019050818103600083015261108481611048565b9050919050565b7f42696420646f6573206e6f742065786973740000000000000000000000000000600082015250565b60006110c1601283610e25565b91506110cc8261108b565b602082019050919050565b600060208201905081810360008301526110f0816110b4565b9050919050565b7f42696420616c72656164792073656c6563746564000000000000000000000000600082015250565b600061112d601483610e25565b9150611138826110f7565b602082019050919050565b6000602082019050818103600083015261115c81611120565b9050919050565b7f4e487b7100000000000000000000000000000000000000000000000000000000600052601160045260246000fd5b600061119d82610bff565b91507fffffffffffffffffffffffffffffffffffffffffffffffffffffffffffffffff8214156111d0576111cf611163565b5b600182019050919050565b60006040820190506111f06000830185610c62565b6111fd6020830184610c62565b939250505056fea2646970667358221220f3a3fd895e10f3f512e5cf61b4f2febf69b8f5c014552b9b1d1f8e3ff26bcf2a64736f6c63430008090033",
  "immutableReferences": {},
  "source": "// SPDX-License-Identifier: MIT\npragma solidity ^0.8.0;\n\ncontract TSOContract {\n    struct Bid {\n        address owner;\n        uint amount; // in kWh\n        uint price; // in wei per kWh\n        bool isSelected;\n        address acceptedBy;\n    }\n\n    mapping(uint => Bid) public bids;\n    uint public bidCount;\n    address public tsoAdmin;\n\n    uint public marketOpenTime;\n    uint public marketCloseTime;\n\n    event BidPlaced(uint bidId, address indexed owner, uint amount, uint price);\n    event BidSelected(uint bidId);\n    event PaymentMade(uint bidId, uint amount);\n    event ReserveRequested(uint amount, bool isPositive);\n    event MarketTimesUpdated(uint marketOpenTime, uint marketCloseTime);\n    event EnergyPurchased(\n        uint bidId,\n        address indexed buyer,\n        address owner,\n        uint amount,\n        uint price\n    );\n    event PaymentRecorded(\n        uint bidId,\n        address indexed buyer,\n        address indexed owner,\n        uint amount,\n        uint price\n    );\n\n    modifier onlyTSO() {\n        require(msg.sender == tsoAdmin, \"Only TSO can call this function\");\n        _;\n    }\n    modifier onlyDuringMarketOpen() {\n        require(\n            block.timestamp >= marketOpenTime &&\n                block.timestamp <= marketCloseTime,\n            \"Market is not open\"\n        );\n        _;\n    }\n\n    constructor(\n        address _tsoAdmin,\n        uint _marketOpenTime,\n        uint _marketCloseTime\n    ) {\n        tsoAdmin = _tsoAdmin;\n        marketOpenTime = _marketOpenTime;\n        marketCloseTime = _marketCloseTime;\n    }\n\n    function updateMarketTimes(\n        uint _marketOpenTime,\n        uint _marketCloseTime\n    ) public onlyTSO {\n        marketOpenTime = _marketOpenTime;\n        marketCloseTime = _marketCloseTime;\n        emit MarketTimesUpdated(marketOpenTime, marketCloseTime);\n    }\n\n    function requestReserve(uint amount, bool isPositive) public onlyTSO {\n        emit ReserveRequested(amount, isPositive);\n    }\n\n    function placeBid(\n        uint _amount,\n        uint _price,\n        address _owner\n    ) public onlyDuringMarketOpen {\n        bids[bidCount] = Bid(_owner, _amount, _price, false, address(0));\n        emit BidPlaced(bidCount, _owner, _amount, _price);\n        bidCount++;\n    }\n\n    function selectBid(uint _bidId) public onlyTSO onlyDuringMarketOpen {\n        require(bids[_bidId].owner != address(0), \"Bid does not exist\");\n        require(!bids[_bidId].isSelected, \"Bid already selected\");\n        bids[_bidId].isSelected = true;\n        emit BidSelected(_bidId);\n    }\n\n    function makePayment(uint _bidId) public payable onlyTSO {\n        require(bids[_bidId].isSelected, \"Bid not selected\");\n        require(msg.value > 0, \"Payment must be greater than 0\");\n\n        address owner = bids[_bidId].owner;\n        uint amount = bids[_bidId].amount;\n        uint price = bids[_bidId].price;\n\n        payable(owner).transfer(msg.value);\n        emit PaymentRecorded(_bidId, msg.sender, owner, amount, price);\n        emit EnergyPurchased(_bidId, msg.sender, owner, amount, price);\n    }\n}\n",
  "sourcePath": "/home/sletolox1001/blockchain_projects/afrr_market_project/smartcontract/contracts/TSOContract.sol",
  "compiler": {
    "name": "solc",
    "version": "0.8.9+commit.e5eed63a.Emscripten.clang"
  },
  "schemaVersion": "3.4.16",
  "updatedAt": "2024-07-22T07:57:43.984Z",
  "devdoc": {
    "kind": "dev",
    "methods": {},
    "version": 1
  },
  "userdoc": {
    "kind": "user",
    "methods": {},
    "version": 1
  }
}